:10000000DCC00000F7C000000C940411F3C0000035
:10001000F1C000000C94F510EDC00000EBC0000032
:10002000E9C000000C941311E5C00000E3C000001B
:10003000E1C00000DFC000000C94B710DBC000007E
:10004000D9C00000D7C00000D5C00000D3C0000058
:10005000D1C00000CFC00000CDC00000CBC0000068
:10006000C9C00000C7C00000C5C00000C3C0000078
:10007000303237332E323032332D31322D30332B74
:100080003531233100000105041410111500000161
:100090000002000300040005000600070009000A32
:1000A000000C000E0011001300160019001C0020A7
:1000B00000240029002D00320038003E0045004C8D
:1000C0000054005C0065006E00790084008F009C85
:1000D00000A900B800C700D700E800FB000E01230C
:1000E0000139015001680182019E01BA01D901F96B
:1000F000011B023E0264028B02B502E0020E033DC8
:10010000037003A403DB03150451049004D1041607
:10011000055E05A905F70548069D06F5065107B1D8
:100120000714087C08E7085709CB09440AC10A43A9
:100130000BCA0B560CE70C7E0D190EBB0E620F0F8F
:1001400010C1107B113A120013CC13A0147A155C65
:1001500016451735182D192D1A351B451C5E1D80A7
:100160001EAA1FDD201A226023B02409266D27DB7A
:1001700028532AD72B652DFF2EA43054321134DAA0
:1001800035AF379139803B7D3D863F9E41C343F774
:100190004539488A4AEB4C5A4FDA5169540957B9E4
:1001A000597A5C4D5F316227652F68496B776EB76E
:1001B000710B757378EF7B807F0011241FBECFEF2A
:1001C000D4E0DEBFCDBF11E0A0E0B1E0E8ECF8E2A2
:1001D00002C005900D92A638B107D9F722E0A6E833
:1001E000B1E001C01D92A132B207E1F70E944411B3
:1001F0000C94621405CFF89498ED9FBD83BF78945A
:100200000895482F9B01EAEEF1E080E090E05081F4
:10021000552331F00196339680319105C1F70AC01C
:1002200063E070E00E940414FC01E651FE4F40833D
:100230003283218308950F931F93CF93DF93D0913F
:10024000EA01DD2351F10091EB011091EC01C09125
:10025000C701C150C7FD0DC0EC2FEE0FFF0BE853D7
:10026000FE4F0190F081E02DB8018D2F099581118D
:10027000F0CFEAEEF1E083818083848195819283DF
:100280008183339682E0E731F807A9F710921702CD
:100290001092190210921802D2CFDF91CF911F91C4
:1002A0000F910895BC0180911C02ABCF10921C02EB
:1002B00010921B0210921A0281E08093B7010895F8
:1002C0000F931F93CF93C82F08EA17E0CC2349F070
:1002D00082E091DFC8010197F1F780E08CDFC15027
:1002E000F5CFCF911F910F91089586E884B9E1E68B
:1002F000F0E080818260808388E082B91092E6011C
:100300001092E7018FEE83B90895E0910601F09114
:1003100007013196FB70F460F0930701E09306014A
:100320008091BA018B5A8093BA01E4918091BA010D
:100330008E0F08950F931F93CF93DF9300D01F92DA
:10034000CDB7DEB7209138013091390140913A01A3
:1003500029833A834B83FE01319640E050E090E0E0
:1003600061E070E0B1919A01220F331F8C0102C04D
:10037000159507952A95E2F79801237061F02130D1
:10038000D1F4A0B39B0101C0220FBA95EAF7322F36
:1003900030953A2318C0A0B39B0101C0220FBA9533
:1003A000EAF720953A2F322330BB32B3322332BBE7
:1003B00031B323230EC0A0B39B0101C0220FBA9515
:1003C000EAF73A2F322B30BB32B3322B32BB31B388
:1003D000232B21BB4F5F5F4F4330510519F60F9020
:1003E0000F900F90DF91CF911F910F910895811180
:1003F00002C081E001C082E09DCF811102C085E092
:1004000001C08AE097CF811102C084E001C088E07A
:1004100091CF811102C084E101C088E28BCF8111AC
:1004200002C080E101C080E285CF811102C081E17C
:1004300001C082E27FCF811102C085E101C08AE262
:1004400079CF81E00895E82FF0E08091BD0190E040
:100450000197E817F90719F1EE0FFF1FE357FF4F58
:10046000859194919093200280931F02880F892F89
:10047000881F990B919580931E02992790936D0088
:1004800080936C008AB780688ABF8091BD0181111A
:1004900004C010926F0010926E00689A489A0895F6
:1004A000E82FF0E0EE0FFF1FE357FF4F4591549107
:1004B00020911F0230912002932F969580E02417FF
:1004C000350718F42F5F3F4F05C04217530710F44C
:1004D000215031098F5F981790F7309320022093B5
:1004E0001F0281E04217530709F080E00895CF937F
:1004F000DF9300D000D000D0CDB7DEB790910C01D3
:100500002091D8013091D90127563A4009F492E060
:10051000843019F46093180121C06623F9F0823009
:1005200019F427E9261B622F26E0EBE3F1E0DE0158
:10053000119601900D922A95E1F7E82FF0E031979E
:10054000EE0FFF1F21E030E02C0F3D1FE20FF31FE5
:100550000190F081E02DE90FF11D608326960FB622
:10056000F894DEBF0FBECDBFDF91CF9108958130EB
:1005700011F4609337010895BF92CF92DF92EF920A
:10058000FF920F931F93CF93DF93EC0140910C01E7
:1005900090911701992311F0E2E001C0E42FF0E0FF
:1005A000E45FFE4F22812093090185818093080139
:1005B000E92FF0E0E45FFE4F3185622F70E04423C5
:1005C00049F0313039F49B01280F311DC90195954F
:1005D000879538C0C617D707A4F1682F70E06C174D
:1005E0007D0784F1411102C08C2F2CC0821B032F88
:1005F00010E001501109E82EF12CC701B8010E944A
:1006000035146093B4016695E62FF0E0822FC12C7B
:10061000D12CB12CB316B1F0C601B8010E9421143F
:10062000822F860FCE0CDF1CAE01481B510957FFED
:1006300003C0519541955109E417F5071CF4B39493
:10064000E9CF822FDF91CF911F910F91FF90EF9013
:10065000DF90CF90BF900895ECE0F1E08685809325
:100660000A018389808B8093BE0108958091B00137
:10067000882351F09091BD019093B3018093AF0115
:100680001092AE011092AD01089581E0089582307C
:1006900019F4609332010895611160932D0108955A
:1006A000662389F0813061F48091DA0190912F0105
:1006B000891B681B60932F0182E080930B0103C0AC
:1006C000635E60932E0180912E01873418F086E4DA
:1006D00080932E010895609333010895E82FF0E090
:1006E000E45FFE4F67A308957FEF780F40911D01EF
:1006F00050911E01662359F021E030E002C0220F24
:10070000331F7A95E2F7CA01822B932B0AC081E04E
:1007100090E002C0880F991F7A95E2F780958423B4
:10072000952390931E0180931D010895CF93DF932D
:100730008CE091E09093B9018093B80182E0C0DD34
:10074000F894C0E0D0E0E091B801F091B901EC0F6D
:10075000FD1F60812196CE010E945014CC32D1053C
:1007600091F765EA80E090E00E9450147894DF9160
:10077000CF9108951092E80180B191B12091BA0112
:100780008295869586958370990F990F890F820FB0
:100790008093BA018091DD01882309F41AC1109277
:1007A000DD018091E6019091BF01992329F01F9806
:1007B0001092E9011092E601811151C080910B0164
:1007C000882329F08091E2019091E3011AC0809181
:1007D000BF012091DE013091DF018823B9F08091C3
:1007E000E2019091E30143E0969587954A95E1F700
:1007F000820F931F53E0369527955A95E1F7821B98
:10080000930B9093DF018093DE0101C0C901209119
:100810002D012750220F6AE171E00E942114260F5A
:100820002093DC018091A401882311F0815007C03E
:10083000213938F460E070E084E0E3DC85E0809307
:10084000A4018091BF018111BBC08EE884B981E011
:100850008093E6011092E7018FEE83B9B1C0813039
:1008600009F0AEC080910B01882341F08091E40132
:100870009091E5019093E1018093E0018091E00186
:100880009091E10160912F019C01A6E0369527959A
:10089000AA95E1F7062E000C770B260F371F2E5076
:1008A00031403093DB012093DA01B5E096958795CE
:1008B000BA95E1F720910B01211128C020919301F5
:1008C000E22FF0E0EE0FFF1FEC56FE4F408151810A
:1008D000DC01A41BB50BAD01918380832F5F2770D2
:1008E000209393019D01220F331F220F331F820F8C
:1008F000931F20912E0130E0261B370B225F3E4FC5
:10090000220F331F821B930B23E00EC0E4E9F1E0BA
:1009100081939193B1E0E43AFB07D1F7CFCF0097F1
:1009200009F00196215029F018161906C4F701970D
:10093000F9CF18161906E4F457FD39C02091920139
:1009400012160CF1880F991FBC016350710977FFD3
:1009500002C06F5F7F4F759567951616170614F0E6
:1009600061E070E088E1861B8093920185E026C0FB
:100970008C3F2FEF9207DCF457FF19C020919201B2
:1009800027FF05C02450281B2093920118C024EE95
:10099000281B209392012091DC01233980F06CEF19
:1009A0007FEF681B790B7595679586E007C080918E
:1009B000DC01823920F060E070E087E022DC95DC29
:1009C00080910B01882329F080910B018150809345
:1009D0000B010895882321F0813031F4829805C0FD
:1009E000829892988A980895829A929A8A9A0895FB
:1009F000CF93C82F8091BD01811109C0CC2339F05C
:100A000080913701C81718F4F3DF82E059DC809138
:100A1000BF0181110BC08EDC91E0C11101C090E0DB
:100A200081E0C73408F480E0890FD4DFC11112C01F
:100A30008AB78F778ABF1092200210921F021092FD
:100A40006D0010926C0010926F0010926E0068980A
:100A500048980FC0E091BE01F0E0EE0FFF1FEE0FCF
:100A6000FF1FEA59FE4F0190F081E02D8FEF8C0FB0
:100A700009958091BD01C8138093BC01C093BD014D
:100A8000C093BB01C23010F482E005C0CF3F11F02B
:100A900081E001C080E0CF91AECBCF93C091BD018A
:100AA00082E38C0F873908F080E0A2DF83E008DC66
:100AB0008C2FCF919DCFCF93C091BD0180E098DF67
:100AC00083E0FEDB8C2FCF9193CF8093B501909183
:100AD000BD01981718F4282F291B02C0292F281BA5
:100AE0003091A701311106C030912101332369F003
:100AF000223058F08093A80184E08093A60181E021
:100B00008093A7019093A901089572CF0F931F932B
:100B1000CF939091DC012FEF290F203920F480E052
:100B200009DC80E09EC0E82FEF702091B101211117
:100B300025C0C82FC295CF702091320130E043E02C
:100B4000220F331F4A95E1F762177307C0F48091B3
:100B5000B601482F50E0421753078CF4882379F0F0
:100B600021E08091BC018F3008F420E081E0C230A8
:100B700009F080E0822BC1E0C80F36C0C2E0E73048
:100B800088F1E730A9F400918B0110E00F5F1F4F4F
:100B9000BCDB65E00E9415149801290F311DC901C5
:100BA00066E070E00E94351480938B01FC013AC02E
:100BB000E830D1F48091BF01882311F02FE001C00B
:100BC00023E030E062237323672B51F480918B0183
:100BD00090E0019666E070E00E94351480938B01EE
:100BE000E0918B01F0E01EC08091BF01882381F06D
:100BF00080E0E82FF0E0EC5AFE4F2081921710F0D1
:100C00008E5FF7CF3197E081F0E0EB57FF4F0CC0DC
:100C1000CB019695879563E070E00E942114FC015A
:100C2000EE0FFF1FEA57FF4FE491C33071F480913C
:100C30008A0190E0019663E170E00E9421148093A4
:100C40008A01DC01AF5BBE4FCC91CC2329F0C130CF
:100C500029F0EE0FC2E002C0C0E0E0E08E2F6ADBB8
:100C60008C2FCF911F910F91B5CECF93DF939091A1
:100C7000BE01981759F0C82FD091BD0180E0B8DEB1
:100C8000C093BE018D2FDF91CF91B2CEDF91CF9176
:100C90000895813019F410921A010895823019F4E0
:100CA00060931B010895833019F46093190108952E
:100CB000843019F460930D010895853011F4609328
:100CC00021010895CF93C0911701C1114FC0883001
:100CD00039F41092B0011092AE011092AD0147C0EC
:100CE000813B81F48091B0018150833008F03EC097
:100CF00083E08093B0018093AF011092AE01109217
:100D0000AD0134C0853BB1F4CB016EE370E00E94CD
:100D10002114892B61F58091B0018A3F40F58B5FEA
:100D20008093B0018093AF011092AE011092AD019B
:100D3000B4DE1DC08130D1F48091AD019091AE013F
:100D4000019688382EE0920728F49093AE018093A4
:100D5000AD010DC01092AE011092AD018091B001B5
:100D6000882329F081508093B00101C0C1E08C2F0D
:100D7000CF910895FF920F931F93CF93DF938C0130
:100D8000EB01F42E8091D8019091D901892B31F09B
:100D9000E091D801F091D90189E009951093D9012A
:100DA0000093D801012B39F0E091D801F091D901DD
:100DB000BE018F2D099581E08093B701DF91CF911E
:100DC0001F910F91FF900895CF93DF93E091C7019A
:100DD000EE2359F0E150E093C701F0E0EE0FFF1F62
:100DE000E853FE4FC081D18102C0C0E0D0E0E09165
:100DF000C701EE2341F0F0E0EE0FFF1FEA53FE4F74
:100E00008081918102C080E090E04AE060E070E083
:100E1000B1DFCE01DF91CF910895883029F410928F
:100E2000A50110928C0115C0813001F590918C01C3
:100E3000911107C06032710570F180938C0136DA30
:100E40002AC0913089F46B3B710528F082E08093D1
:100E50008C0180E01FC061157105E9F06270862F7A
:100E6000880F880F8E5E16C0AFDF15C0813811F075
:100E7000813E89F491E090938C01813E21F4809130
:100E8000A501865F03C08091A5018F5F8093A501B6
:100E90000DDA8BE4ADDD80E008959C019091C701EF
:100EA000983088F4E92FF0E0EE0FFF1FE853FE4F73
:100EB000318320839F5F9093C70148E0C9015ADFC7
:100EC0008091C70108958FEF08950F931F93CF93DB
:100ED000DF93EC018B0178DFB801CE01DF91CF9178
:100EE0001F910F91DACF813C29F460E070E082E03D
:100EF0009BE006C0823C39F460E070E08DE89AE047
:100F0000E4DF80E0089581E00895843011F5809158
:100F1000D8019091D9012EE08934920729F469E132
:100F200070E08EEE97E013C08E5E974061F4909172
:100F3000BD01923040F0892F869596959695890F40
:100F4000C4DD80E0089560E070E082E09BE0BDDFFA
:100F5000F8CF81E00895813C29F460E070E082E000
:100F60009BE006C0823C31F460E070E083E797E0EC
:100F7000ACDF16C0813B49F4CB016EE370E00E9408
:100F80002114892B69F489DD0BC0813E59F4CB0112
:100F90006EE370E00E9421146F5F60932C01C6DB4A
:100FA00080E0089581E00895813C29F460E070E0DC
:100FB00082E09BE006C0823C31F460E070E08BEAA6
:100FC00097E083DF07C0873B39F460E070E087E794
:100FD0009AE063DF80E0089581E00895BF92CF92A8
:100FE000DF92EF92FF920F931F93CF93DF93182F0F
:100FF000EB0180911C018093BE01D0900901F0901B
:10100000080180910C01882319F0B090B40102C04E
:10101000BB24B394C0900D01809117018111C09041
:101020001801CC2051F081E0C81621F080910A010E
:101030008F1518F0F6E9EF2E01C0EF2C0091B001EA
:10104000BE01812F3FDE8091B001882339F001116C
:101050000CC09091BD019093B30107C0002329F00B
:1010600060E070E082E09BE032C0183029F01A3076
:10107000B9F4C0910A01D0E08D2D90E08C179D0746
:1010800038F48F2D90E0C817D90710F4C0930A01E7
:10109000CE0172DA1ADD81E08093050100E0A1C182
:1010A000113CF1F2123C59F48091BD018E1510F4FF
:1010B0008E2D02C080910A0108DDD8DAEFCF143CF2
:1010C00041F480E095DC60E070E081E39CE0FDDECF
:1010D000E5CF9FE4910F923008F055C080910C014C
:1010E000882341F0CE0168E170E00E942114892B31
:1010F00031F0D4CF6091140170E0CE01F6CF0091B1
:10110000A7010111CBCF2091BD01209761F4123BC3
:1011100011F48FEF05C02F15E0F7D21608F181E02A
:10112000809305011DC0E0911401F0E0CF0166E35A
:1011300071E00E9404148C179D0710F42F1548F7D6
:10114000CF016CE672E00E9404148C179D0740F4F6
:10115000D21630F0A2DC60E070E081E39CE0B5DE06
:10116000809105016B2D70E0082E000C990B0E94F8
:1011700004142091BD01820F911DFED980930A01B4
:10118000A4DC74DA2EC19FE1910F923020F480919B
:101190000501819581CF113009F086C0A99711F41E
:1011A00010930501882379F10091B30110E090E0DC
:1011B000B8010E940414EC01E091AF01F0E0BF011E
:1011C0000E943514262FCE01801B910BBF010E9477
:1011D0003514322F361B8091AD019091AE016EE334
:1011E00070E00E942114832F90E00E9404146CE3AD
:1011F00070E00E942114261B622F09F461E06093C5
:10120000BB016093B501C091BB012091BD018C2F42
:1012100090E0821B910960918F01709190016F5F46
:101220007F4F7093900160938F01009709F436CF40
:1012300097FF05C0233830F040E450E005C040E09F
:1012400052E002C040E051E05695479597FD019667
:10125000959587950097C1F74617570708F01ECF59
:10126000C21710F4CFEF03C02C1710F4C1E0C20F67
:10127000E091BE01F0E0EE0FFF1FEE0FFF1FEA59F5
:10128000FE4F0280F381E02D8FEF8C0F09958823AC
:1012900031F0D091BB018C2FABDBD093BB0110920E
:1012A000900110928F01FACE1530A1F48091BD010A
:1012B000833308F4F3CE90E08C1B9D0B82339105B1
:1012C00034F08739910564F186E990E029C082E322
:1012D00090E026C01630B1F49091BD018091B50127
:1012E000981708F0DBCEC90FD11D90E08C179D0731
:1012F00034F0C233D10524F4C2E3D0E001C0EC01E4
:101300008C2F0EC0173079F49091BB018091BD01F4
:10131000891710F48F5F04C0981708F0BFCE815072
:101320008093BB01BBCE133C19F0163C41F517C0AE
:1013300060911D0170911E0180E090E020E0AB0102
:10134000082E02C0569547950A94E2F74170240F83
:1013500001968830910599F7223008F041C081E06C
:1013600090910C01911180E080930C01DFD9A3DBF7
:101370008091BD0190E000D980930A019DCE00913B
:10138000170101112DC0133B49F4CD2B09F086CE76
:10139000CC2011F086E9E82E8E2D04C0133E21F4F6
:1013A00080910A0192DB1DC0173B29F460E070E0D8
:1013B00083E69AE013C01A3C59F48091BD018093F2
:1013C0001A018091BE0180931F01B0D966DB09C06C
:1013D0001A3B31F460E070E08BE69AE05EDD01C01C
:1013E00001E0802FDF91CF911F910F91FF90EF903F
:1013F000DF90CF90BF9008950F931F93CF938B01F1
:10140000C42F883091F48091BE0180938E01109298
:101410008D0180E0EDDA8091C00181114FC0809193
:101420008D018F5F80938D0133C0982F907F903B0B
:1014300021F580918D014817E8F08150883040F403
:101440009091B201992321F09091BE0189130DDC96
:10145000C8016DE570E00E942114069749F480915F
:101460008D018F5F80938D01C81740F188E303C021
:1014700082E101C080E0BCDA21C0903E79F4809125
:101480008D018823A1F0481790F080918E01EDDB4B
:1014900060E070E08DE097E000DD10C08A3049F434
:1014A0006091A50180918D01F90109953FD98CDCEE
:1014B00005C0893019F480918E01D7DB80E0CF918F
:1014C0001F910F91089527E732E043E095CF27E77A
:1014D00032E044E091CF29E436E045E08DCF27EBC0
:1014E00032E041E089CF27E433E042E085CF20E5D8
:1014F00033E042E081CF2BE633E041E07DCF2EE6C2
:1015000033E043E079CF91E09093B20124E733E0F8
:1015100048E072DF1092B2010895CF93C091170195
:10152000C11123C0813C29F460E070E082E09BE0BF
:1015300006C0823C31F460E070E084ED97E0C5DCE9
:1015400015C0833C51F48091200190E00196877092
:10155000992780932001EAD809C0873B31F460E0E5
:1015600070E083E79AE099DC01C0C1E08C2FCF9155
:101570000895CF93833C21F54091BE0160911D01F8
:1015800070911E01842F98E0282F30E02F5F3F4F8D
:1015900027703327822FFB0102C0F695E7952A9525
:1015A000E2F7E0FF0AC04817B9F05FDB8091BE01A7
:1015B00080931C01BBD8C0E010C0915029F7F3CF35
:1015C000C0911701C11108C0893B31F460E070E09F
:1015D00083E89AE062DC01C0C1E08C2FCF910895CE
:1015E00090912101992369F08093A80188E080936C
:1015F000A60181E08093A7018091BD018093A9019C
:101600000895F6C90F931F93CF938B018830A1F4EF
:1016100080E0E6DF8091A701082B1092B60180914F
:101620001C018093BE011092B001012B09F05AC039
:1016300081E08093BF0156C0813059F46931710552
:1016400008F450C0C091A701C1114CC08093BF01E4
:1016500003C1833041F58091B6018F3F19F08F5F50
:101660008093B60180911A01882361F080911B015B
:1016700090E062EC71E00E9404140817190710F062
:101680000E942C03B8018091300140DA809133012F
:10169000882341F190E062EC71E00E94041480170D
:1016A000910700F553C0813B99F481E090E00E94DE
:1016B000BC0296DF80911901811114C080910C0148
:1016C000811103C00831110568F061E070E02AC0A3
:1016D000813ED9F3813841F480910A0190E00E9463
:1016E000BC027EDFC0E0B8C0813C21F460910A01F9
:1016F00070E018C0823B81F41092B60180910D0118
:1017000090911701911180911801811103C086E910
:1017100090E0E5CF86E9E5CF823E59F0823C29F49E
:1017200066E970E08EEE97E00CC0833921F41092E8
:10173000A70180E0D6CF833C31F460E070E08DE813
:101740009AE0C3DBCFCF843C31F4A7D960E070E0EE
:1017500081E39CE0F6CF8D3B41F4F89488ED8FBD9A
:1017600088E880BF7894A895FFCF8F3C29F460E08B
:1017700070E085E493E0E5CFC09117018A3B79F4EE
:10178000672B69F4CC2331F088D9109217010E949D
:101790009603A8CF60E070E087E69AE05AC0C111D6
:1017A0005AC0833B29F460E070E089E49EE047C0C2
:1017B000873CA1F490913001892F82958F708F5FC3
:1017C00083708295807F9F70892B8093300160E0C9
:1017D00070E09CD90E94960360D93EC0873BD1F44B
:1017E00081E08093B101C8018F739927892B69F437
:1017F00090913001892F8F708F5F292F207F6BE0B0
:101800000E941514922B90933001B8018091300101
:101810007DD922C0873E19F41092B10106C08A3CDE
:1018200039F43BD981E0809317010E94960314C0DC
:10183000863C39F432D960E070E082EE9FE045DB0F
:101840000BC0893B41F4012B31F460E070E08FE67E
:101850009AE023DB01C0C1E08C2FCF911F910F9143
:1018600008950F931F93CF93DF93C82F8B01873B6E
:1018700019F480E0BDD87BC080798039B1F4209123
:101880000E0190910F018C2F8F70813021F4822FE7
:10189000921748F407C080911A01811104C0822F69
:1018A000291708F4892F9CDE0EC0803811F480E0DF
:1018B00097DEC83041F41092B60160E070E080918C
:1018C000310124D954C0C13039F40931110508F46B
:1018D00092C0C093BF0118C0C330D9F48091B60143
:1018E0008F3F19F08F5F8093B60180911A01882392
:1018F00059F080911B0190E062EC71E085D70817E8
:10190000190710F00E942C03B80180913101FED814
:1019100072C0C33C31F4C1D860E070E082E09BE06B
:1019200014C0C43C21F460910A0170E00CC0C43BB7
:1019300031F4C1D810921C0261E070E004C0C53CD3
:1019400031F466E970E08EEE97E0BFDA54C0C33B35
:1019500071F4C8016EE370E074D7892B41F460E044
:1019600070E083ECDF91CF911F910F9102CED09167
:101970001701D11142C0C73CA1F490913101892FC8
:1019800082958F708F5F83708295807F9F70892B87
:101990008093310160E070E0B9D80E9496037DD851
:1019A0002DC0C73BC9F481E08093B101C8018F739A
:1019B0009927892B61F490913101892F8F708F5F66
:1019C000292F207F6BE031D7922B90933101B80102
:1019D000809131019BD812C0C73E29F41092B10109
:1019E0000E9496030BC0CA3B41F460E070E08BE7B5
:1019F0009AE053DA03C0D0E001C0D1E08D2FDF912F
:101A0000CF911F910F9108950F931F93CF93109231
:101A1000C20180911A0290911B029C012F5F3F4FDF
:101A200088279078822B932B90931B0280931A0225
:101A30009091C0012FB1822F8095881F8827881F21
:101A40008093C001981729F11092BF018093C001C3
:101A500090911C02892F27FD0AC080699F709F30DA
:101A600009F08F5F80931C0280E090E00CC08F7EB5
:101A700095FD02C0806801C0806C80931C0280913B
:101A80001A0290911B020E94520110921B021092A6
:101A90001A0200911A0210911B028091BF01882343
:101AA000B1F0B80183E00E9401010E941B010134E2
:101AB000110528F00F701127012B09F049C0109271
:101AC000910181E08093E9010E94750132C0C091CB
:101AD0001C028C2F807F803B19F460E070E001C015
:101AE000B80181E00E940101C4FF13C0C5FF02C01C
:101AF000C8010CC008311105E0F010921B021092D1
:101B00001A02C062C0931C0280E090E00E94520161
:101B100010C0CC2371F0C5FD0AC00231110548F098
:101B2000C064C0931C0280E090E00E9452010E94B9
:101B3000560180919101811105C08FEE83B981E03A
:101B40008093DD01809191018F5F8F71809391016E
:101B5000CF911F910F9108958091E80181110E940A
:101B6000BA038091C20181114FCF0895EF92FF9285
:101B70000F931F93CF93DF93EC0108E017E082EC03
:101B8000E82EFF24F3942097D9F08091B7018111BA
:101B900019C08091BD01823028F482E00E94FB00D0
:101BA000C70104C080E00E94FB00C8010197F1F763
:101BB00080E00E94FB00D0DF0E941B012197E3CF51
:101BC00081E001C080E0DF91CF911F910F91FF90E4
:101BD000EF9008950F931F93CF93DF93C82F88231F
:101BE00011F006EA02C00CE0C1E0D091BE0110E0A5
:101BF000809120013AD882E30E94F804D093BE017C
:101C0000C801B4DF8091200130D880E00E94F80440
:101C1000D093BE018AEF90E0A9DFC15049F78D2F24
:101C200024D88AE992E0DF91CF911F910F919ECF46
:101C3000CF93DF9364E6F9D5282F892F6AE0F5D595
:101C4000EC01222341F0822FC5DF8C2FC3DF8D2FC3
:101C5000DF91CF91BFCFC111F8CFF9CFCF93DF93F1
:101C6000D82FC3E080910A010E94F80488EC90E02C
:101C70007DDFDD2319F080E991E078DF80E00E94CC
:101C8000F80488EC90E072DFC15061F7DF91CF91EA
:101C90000895FF920F931F93CF93DF93D82F8B015B
:101CA000C091AA0181E08093AC01C43009F0E5C085
:101CB000F090B0018D2F06D8FF2051F08091B00137
:101CC000811106C060E070E082E09BE0FED8D5C0E4
:101CD000D83021F481E080930301D1C0D23C19F4C3
:101CE0001092B001DEC0D13BC1F490910201012BF2
:101CF00049F4963610F08FEF03C0923018F481E06B
:101D00008093030180910301890F11F481E044C1A4
:101D1000873608F441C186E63FC1D13E31F4809157
:101D2000030181958093030107C1D23B61F481E0F7
:101D30008093030180910201823008F405C1815033
:101D40008093020101C1D13009F0AFC00932110501
:101D500011F4D093030190918901892F880F97FD89
:101D6000809590E069E070E04FD5292F809188013F
:101D7000682F660F87FD60958091010170E090E00B
:101D800043D5290F80918701682F660F87FD6095E5
:101D90008091000170E090E037D5920F60910201D0
:101DA00070E0690F711D8091B001813091F48091D4
:101DB000AD019091AE0125E0969587952A95E1F7C2
:101DC00024E730E0A901481B590BCA011DD5B90110
:101DD00038D5862F0E94F80400FD08C00E948501B6
:101DE000817090918901890F809389019091880178
:101DF00080918601890F809388010E94850165E2A8
:101E000014D580918701980F909387010E948501D6
:101E10008F7331F40E9485016DE007D590938601A0
:101E2000C0910101CC2339F00E9485018F7319F410
:101E3000C150C09301010E948501811108C00E9418
:101E400085016EE0F2D49093010110928801C09157
:101E50000001C33038F00E9485018F7119F4C15020
:101E6000C09300010E9485018F7709F099C00E94FC
:101E7000850187708093000193C0D83041F4809130
:101E800022018093AA0181E08093040187C0D13CA4
:101E900031F460E070E082E09BE017D87FC0D23C74
:101EA00031F48C2F90E0019617C0D13C91F3D33CD4
:101EB00071F48091BE018F5F87700E943506EC2F10
:101EC000F0E0E45FFE4F8091BE01878B5EC0D43CA2
:101ED00059F48C2F90E0059666E070E0C6D48093AC
:101EE00022018093AA0151C0D13B21F5C23090F468
:101EF00000FD54C0EC2FF0E0E45FFE4F858D909123
:101F00000401891B883020F08F3F69F58EEF2BC0CC
:101F100088E029C0C53009F041C090912B01809123
:101F20000401890F823010F482E026C0893720F145
:101F300088E722C0D13E31F48091040181958093DD
:101F4000040123C0D23BF9F481E080930401C23044
:101F500060F400FD23C0EC2FF0E0E45FFE4F858DC0
:101F60008F3FE1F08F5F858F19C0C530B9F4809144
:101F70002B01833018F0815080932B0180912B012D
:101F80000E94F8040BC0D23E19F40E94960306C0CA
:101F9000D13031F081E010C08093020180E00CC0AC
:101FA0000932110519F481E0809304018091BA018E
:101FB000080F0093BA01F2CFDF91CF911F910F91DB
:101FC000FF900895FF920F931F93CF93DF9300D05C
:101FD0001F92CDB7DEB78B838B01F0900A01807919
:101FE0008983803951F5EB81EF70E43020F0109255
:101FF000AB011A8276C091E09093AB01F0E0E45F10
:10200000FE4F87A12FEF280F263948F480930A014D
:102010001092AC0180911C018093BE010CC0909382
:10202000AC01873940F190E08759910966E070E092
:102030001CD48093AA011A820EC08981803849F489
:102040001092AB0180E00E94F80481E08093B70118
:1020500001C081E08A838091AB01882309F441C0EB
:102060008B81883051F48091AC01882331F0B80124
:1020700088E00FDE02C01A8203C08981803951F4E2
:1020800081E08093AB018091AC0181112AC08091E5
:102090000A0106C08981803831F41092AB0180E0DA
:1020A0000E94F8041EC08B818130D9F48091AB016D
:1020B000882349F08091AC01882309F44CC0B80111
:1020C00081E0E7DD0EC080E00E949A0180E00E947E
:1020D000EA04073381E0180708F43DC08B81809340
:1020E000BF01F0920A018B81883019F4B801B9DB85
:1020F00030C08B81813039F48091AB01811127C0D0
:10210000B80181E004C08B81833051F4B8010F9095
:102110000F900F90DF91CF911F910F91FF90A1CB66
:102120008B81833CA1F0863C49F40E944D0560E020
:1021300070E082E09BE00E94650709C08B81873BCD
:1021400041F460E070E08FE79AE00E944D0780E084
:1021500005C08A8103C0F0920A01CECF0F900F9084
:102160000F90DF91CF911F910F91FF9008951F92D3
:102170000F920FB60F9211242F933F938F939F933B
:10218000AF93BF93EF93FF938091E7018823E9F02A
:10219000E091E60120B131B1F0E0EE0FFF1FDF0169
:1021A000AE51BE4F2D933C93E252FE4F8081918100
:1021B0008217930708F401962817390708F4019746
:1021C0009183808381E08093E80181E08093E7013F
:1021D000FF91EF91BF91AF919F918F913F912F917F
:1021E0000F900FBE0F901F9018951F920F920FB671
:1021F0000F9211248F9381E08093C2018F910F90F1
:102200000FBE0F901F9018951F920F920FB60F924E
:1022100011248F9381E08093C1018F910F900FBEA5
:102220000F901F9018951F920F920FB60F921124C6
:102230002F933F938F939F9380911E0290E09093F2
:102240006D0080936C0020911F0230912002922F2C
:102250009F7780911D02890F220F232F221F330B9E
:102260003195982F991F9927991F290F20931E02A6
:102270008F7780931D029F918F913F912F910F90A7
:102280000FBE0F901F901895F89485B7877F85BF74
:1022900088ED90E00FB6F894A8958FBD90B7977F22
:1022A00090BF0FBE81E088B989E08CB98CE380BB18
:1022B00082EA8093720081E1809371008FEF90E059
:1022C000909369008093680080E882BB87BD8CB7DB
:1022D00088608CBFA89580E480BF0E9475017894C7
:1022E00081E00E94600160E070E085E897E00E9474
:1022F0004D071092B7010E944D059FB1892F80951F
:10230000881F8827881F8093C00197FF17C08CE023
:1023100091E09093B9018093B80182E00E9460013E
:10232000F89480E090E0B4D2853A09F046C000917C
:10233000B8011091B901C1E0D0E036C0C0E08C2FE7
:102340000E94F80483E190E011DC8C2F86950E94B6
:10235000F80483E190E00ADC9FB1892F8095881F03
:102360008827881F8093C00197FD13C0CF5FC034BA
:1023700031F765E181E00E9450030E949603C6E9AF
:102380008C2F0E94F80484E090E0F0DBC150C1F78C
:10239000BECFCC2309F4BBCF8C2F0E94F8048DE074
:1023A00090E0E4DBC150F5CFCE0172D2F801819309
:1023B0008F012196CD32D105B9F7789480911A0119
:1023C00081110E942C0360E070E089EB9AE00E948A
:1023D0004D0761E070E082E09BE00E944D0743E41E
:1023E000442E52E0552E60E4962E8824839477E0A4
:1023F000772ECC24C394D12CFDE06F2EA2E0AA2E20
:10240000ABE0BA2E0E941B018091C5019091C601DC
:10241000009751F06091C3017091C4010E9465075B
:102420001092C6011092C5018091BF01882309F462
:102430004EC080E00E94F804A89540BE1F989FB14E
:10244000892F8095881F8827881F8093C00197FF58
:10245000F6CF0E9456018CB788608CBF1092E801BD
:102460001092C2011092C1018091BF01882331F105
:102470008091E901882321F086B78F79806203C0BB
:1024800086B78F79806486BF86B7806186BF88955E
:1024900086B78F7E86BF8091C10181111092BF01E6
:1024A0008091E801882321F08092DD010E94BA0327
:1024B0008091C2018823C1F2A7DAD6CF50920B01D6
:1024C0008CB7877F8CBF0E947501A89590BE44DBB6
:1024D0001092B7018091D8019091D901F3E0853431
:1024E0009F0719F5C0E7D0E0FE0184918053803149
:1024F00010F470DB11C010E0812F81708295880F7D
:10250000807E0E94F80480E190E030DB1F5F19318B
:1025100099F78AE992E02ADB8CE291E027DB2196A9
:10252000F0E0C438DF0701F7EFC02EE089349207EE
:1025300079F03FE0823E930709F0CEC08091AC0174
:10254000813009F01BC18091AB01882309F416C1C9
:10255000C091AA01EC2FF0E0E45FFE4F87898093E1
:10256000BE01C230D1F030F0C330B9F1C53009F44A
:1025700096C048CFD58D86E90E94F804C11103C0EA
:1025800083E090E003C08D2F869590E0EFDA80E045
:102590000E94F8048D2F90E02AC1D0910A01C0E07A
:1025A000C11102C081E003C0C53019F485E00E946A
:1025B00035068D2F0E94F80481E290E0D7DA80E0A2
:1025C0000E94F80482E490E0D1DACF5FCA3041F78C
:1025D00080911C018093BE0115CF0E9485018F73ED
:1025E000E82EF12C0E948501672D1FD1E60102C063
:1025F000CC0FDD1F9A95E2F70E94850165E015D1A9
:10260000F60102C0EE0FFF1F9A95E2F7CE0FDF1F13
:102610000E94850190E0BE0128D1C80FD91FC7399B
:10262000D10514F0C6E9D0E08C2F0E94F804C70150
:102630009DDA8E0133E0159507953A95E1F7011182
:1026400001C001E010E0C70191DAC01BD10BD7FF38
:1026500002C0C0E0D0E08C2F0E94F8040E948501E7
:10266000837039F4C70182DACE01959587950E946F
:10267000F804C230D1053CF70E948501662DD5D003
:10268000E60102C0CC0FDD1F9A95E2F70E9485019A
:1026900090E0BE01D6D0C80FD91F80E0A5C0C09180
:1026A0002B01CC0FC73908F0C6E9D4E08C2F0E946B
:1026B000F80485E090E05ADA80912B010E94F8043A
:1026C00081E490E053DAD15089F780ED92E04EDA60
:1026D00080E00E94F80496CEFAE08D389F07E9F476
:1026E00088EE93E043DA8091DC01C5E06C2F9DD049
:1026F0009FDA8091DC016C2F98D0892F880F98DAAF
:1027000080911701882381F0B092C601A092C50183
:102710001092C4011092C30175CE27E0843D920748
:1027200031F48091DA0184DA88EE93E060C037E01A
:102730008B3A9307B9F48091C001811163CE8091E7
:102740000A010E94F80484E690E010DA80E00E941A
:10275000F80480912C0190E068EE73E055D0845627
:10276000910945C08357974049F480E077DA81E0CA
:1027700075DA80E073DA80ED97E039C0809121014D
:102780008823B9F18091A701882399F12091BD0197
:102790003091A80123130AC0822F0E94F8041092DE
:1027A000A7018091A9018093BC012CCE6091A60164
:1027B000231760F4832F821B38D0811101C081E080
:1027C000820F0E94F8048AE090E011C0862F90E00A
:1027D0006EE170E019D06091A901631B70E045D0F3
:1027E000EB0121968FEF820F0E94F804CE01BED933
:1027F00009CE86B78F7986BF86B7806186BF8895F8
:1028000086B78F7E86BFFECD0024552704C0080EF4
:10281000591F880F991F009729F076956795B8F38F
:102820007105B9F7802D952F0895991B79E004C0A3
:10283000991F961708F0961B881F7A95C9F78095FF
:102840000895AA1BBB1B51E107C0AA1FBB1FA617F7
:10285000B70710F0A61BB70B881F991F5A95A9F749
:1028600080959095BC01CD01089597FB072E16F435
:10287000009406D077FD08D0E4DF07FC05D03EF4D5
:10288000909581959F4F0895709561957F4F08951C
:10289000E199FECF1FBA8EBBE09A99278DB30895B8
:1028A000262FE199FECF1FBA8EBBE09A81500DB260
:1028B000021639F01CBA2DBB0FB6F894E29AE19AD1
:0828C0000FBE0895F894FFCF4C
:1028C800080E180101010004820146020001010AF4
:1028D8000A82828201070501000000000001000051
:1028E80000010400000000000029433202072D0007
:1028F80018390400781E98010504030E011101140B
:1029080001020100000000000000010000000000BA
:102918000000000100009101A502AF03B904C3053E
:10292800CD06DC07FF0723025002F7012102FD0153
:10293800210203022102090221020F0221021502CB
:0629480021021B02210226
:00000001FF
