:10000000AFC0C9C0EFCCC7C0C6C0C5C0C4C0C3C0A4
:100010009CCCC1C0C0C0BFC0D6CCBDC0BCC03033FA
:1000200031332E323032332D31322D30332B3531C6
:10003000233100000000000000000000000000006C
:1000400000000000000000000000000000000000B0
:1000500000000000000000000000000000000000A0
:100060000000000000000000000000000000000090
:100070000000000000010304050708090B0C0E0F27
:100080001113141618191B1D1F21232527292B2D89
:1000900030323437393B3E404346484B4E5154573B
:1000A0005A5D606366696D7073777A7E8185898D2C
:1000B0009094989CA0A5A9ADB1B6BABFC3C8CDD144
:1000C000D6DBE0E5EAEFF4FAFF01010202030304E4
:1000D0000405060708090A0C0D0E0F111314161853
:1000E0001A1D1F2224272A2D3033373B3E42464B10
:1000F0004F54595D63686E73797F868C939AA1A87B
:10010000B0B8C0C8D1D9E2ECF5FFFFFFFFFFFFFF99
:10011000FFFFFFFFFFFFFFFFFFFFFFFFFFFFFFFFEF
:10012000FFFFFFFFFFFFFFFFFFFFFFFFFFFFFFFFDF
:10013000FFFFFFFFFFFFFFFFFFFFFFFFFFFFFFFFCF
:10014000FFFFFFFFFFFFFFFFFFFFFFFFFFFFFFFFBF
:10015000FFFFFFFFFFFFFFFFFFFFFFFFFFFFFF00AE
:1001600011241FBECFE5D2E0DEBFCDBF10E0A0E678
:10017000B0E0E8E5FFE102C005900D92A039B107BB
:10018000D9F721E0A0E9B0E001C01D92A032B2078A
:10019000E1F737DCDFCE34CF482F9B01EDEEF0E006
:1001A00080E090E05081552331F001963396803104
:1001B0009105C1F709C063E070E06EDEFC01E35118
:1001C000FF4F40833283218308950F931F93CF9372
:1001D000DF93D091ED00DD2351F10091EE001091FD
:1001E000EF00C091CA00C150C7FD0DC0EC2FEE0F4B
:1001F000FF0BE553FF4F0190F081E02DB8018D2FEB
:1002000009958111F0CFEDEEF0E083818083848148
:10021000958192838183339681E0EA31F807A9F7CB
:1002200010921A0110921C0110921B01D2CFDF9183
:10023000CF911F910F910895BC0180911F01ACCF08
:1002400010921F0110921E0110921D0181E08093F7
:10025000BC00089590E822E048EA57E030E0815081
:1002600070F00FB6F89496BD26BD0FBEFA01319717
:10027000F1F70FB6F89496BD36BD0FBEF0CF0895D6
:100280008CE287B91092E9001092EA008FEE86B9ED
:10029000089586B383FB882780F991E089278093AE
:1002A000C3000895E0916600F09167003196FB70FD
:1002B000F460F0936700E09366008091BF008B5A72
:1002C0008093BF00E4918091BF008E0F0895CF937B
:1002D000C82F811103C019BC18BC03C08FEF8C0F4D
:1002E00015D0C093C100C093C000C63010F492E096
:1002F00005C0CF3010F491E001C090E080E80FB667
:10030000F89486BD96BD0FBECF91089590E0FC0194
:10031000E753FF4F2491FC01ED5CFF4F849129BD11
:1003200088BD089590E0FC01E753FF4F2491FC0144
:10033000ED5CFF4F949189B5811102C02F3F29F0E8
:1003400089B58F3F21F4211102C029BD0CC089B5A8
:10035000821718F489B58F5F05C089B5281718F47E
:1003600089B5815089BD88B5891718F488B58F5F24
:1003700005C088B5981718F488B5815088BD89B52F
:10038000281303C028B581E0921380E00895CF932D
:10039000DF9300D000D000D0CDB7DEB790916C00D5
:1003A0002091DB003091DC00285E374009F492E0B8
:1003B000843019F46093780021C06623F9F082300C
:1003C00019F427E9261B622F26E0E9E8F0E0DE01B8
:1003D000119601900D922A95E1F7E82FF0E0319700
:1003E000EE0FFF1F21E030E02C0F3D1FE20FF31F47
:1003F0000190F081E02DE90FF11D608326960FB684
:10040000F894DEBF0FBECDBFDF91CF910895BF92AC
:10041000CF92DF92EF92FF920F931F93CF93DF93D0
:10042000EC0140916C0090917700992311F0E2E08B
:1004300001C0E42FF0E0E459FF4F228120936900CE
:10044000858180936800E92FF0E0E459FF4F318502
:10045000622F70E0442349F0313039F49B01280FBA
:10046000311DC9019595879536C0C617D70794F1F8
:10047000682F70E06C177D0774F1411102C08C2F5A
:100480002AC0821B032F10E001501109E82EF12C25
:10049000C701B80132DD6093B9006695E62FF0E040
:1004A000822FC12CD12CB12CB316A9F0C601B801F2
:1004B00010DD822F860FCE0CDF1CAE01481B5109C8
:1004C00057FF03C0519541955109E417F5071CF4F6
:1004D000B394EACF822FDF91CF911F910F91FF90BC
:1004E000EF90DF90CF90BF9008958091B700882360
:1004F00051F09091C1009093B8008093B600109293
:10050000B5001092B4000895CF93C091C10089E165
:100510008C0F873908F080E0DADE82E09BDE8C2FDA
:10052000CF91D5CECF93C091C10080E0D0DE83E0E3
:1005300091DE8C2FCF91CBCE611160938200089514
:10054000662389F0813061F48091DD009091840010
:10055000891B681B6093840082E080936B0003C05A
:10056000635E6093830080918300873418F086E493
:10057000809383000895609385000895E82FF0E04C
:10058000E459FF4F618F089581E008958093BA0088
:100590009091C100981718F4282F291B02C0292F09
:1005A000281B3091AE00311106C030917C003323FE
:1005B00069F0223058F08093AF0084E08093AD0062
:1005C00081E08093AE009093B000089580CECF93E9
:1005D000DF938CE690E09093BE008093BD00F8948A
:1005E000C0E0D0E0E091BD00F091BE00EC0FFD1F37
:1005F00060812196CE019CDCCD31D10599F765EA69
:1006000080E090E095DC7894DF91CF91089510928E
:10061000EB0084B195B12091BF00829586958695B7
:100620008370990F990F890F820F8093BF0080917B
:10063000E000882309F4FDC01092E0008091E900F9
:1006400081113DC080916B00882349F06091E500E5
:100650007091E6007093E2006093E10004C0609145
:10066000E1007091E20020918200220F245096E078
:10067000769567959A95E1F780E09CED2ADC260F48
:100680002093DF008091AB00882311F0815007C0D8
:10069000213938F460E070E084E07EDD85E080930D
:1006A000AB008091C2008111BBC08FEA87B981E0A5
:1006B0008093E9001092EA008FEE86B9B1C08130D4
:1006C00009F0AEC080916B00882341F08091E70073
:1006D0009091E8009093E4008093E3008091E30020
:1006E0009091E400A0918400AC01F6E05695479506
:1006F000FA95E1F70A2E000CBB0B4A0F5B1F435122
:1007000051405093DE004093DD009C0185E036951A
:1007100027958A95E1F780916B00811127C0809120
:100720009A00E82FF0E0EE0FFF1FE556FF4F4081E3
:100730005181B901641B750B318320838F5F8770F2
:1007400080939A00CB01880F991F880F991F4091C1
:10075000830050E04D5E5E4F4A1B5B0B440F551FFC
:10076000841B950B820F931F23E00EC0EBE9F0E092
:100770002193319380E0EB3AF807D1F7D0CF00977F
:1007800009F00196215029F018161906C4F70197AF
:10079000F9CF18161906E4F477FD39C020919900B5
:1007A00012160CF1880F991FBC016350710977FF75
:1007B00002C06F5F7F4F759567951616170614F088
:1007C00061E070E088E1861B8093990085E026C097
:1007D0008C3F2FEF9207DCF477FF19C0209199002E
:1007E00027FF05C02450281B2093990018C024EE31
:1007F000281B209399002091DF00233980F06CEFB3
:100800007FEF681B790B7595679586E007C080912F
:10081000DF00823920F060E070E087E0BDDC30DD91
:1008200080916B00882329F080916B008150809328
:100830006B000895813019F410927A000895823087
:1008400019F460937B000895833019F46093790064
:100850000895843019F460936D000895853011F483
:1008600060937C000895CF93C0917700C1114DC073
:10087000883039F41092B7001092B5001092B4008D
:1008800045C0813B79F48091B70081508330E8F511
:1008900083E08093B7008093B6001092B500109269
:1008A000B40033C0853BA9F4CB016EE370E011DBEB
:1008B000892B61F58091B7008A3F40F58B5F80936B
:1008C000B7008093B6001092B5001092B4001CDE01
:1008D0001DC08130D1F48091B4009091B500019693
:1008E00088382EE0920728F49093B5008093B400E6
:1008F0000DC01092B5001092B4008091B70088230B
:1009000029F081508093B70001C0C1E08C2FCF91B6
:100910000895FF920F931F93CF93DF938C01EB0108
:10092000F42E8091DB009091DC00892B31F0E09176
:10093000DB00F091DC0089E009951093DC00009366
:10094000DB00012B39F0E091DB00F091DC00BE010F
:100950008F2D099581E08093BC00DF91CF911F918D
:100960000F91FF900895CF93DF93E091CA00EE239B
:1009700059F0E150E093CA00F0E0EE0FFF1FE5539D
:10098000FF4FC081D18102C0C0E0D0E0E091CA0039
:10099000EE2341F0F0E0EE0FFF1FE753FF4F8081A1
:1009A000918102C080E090E04AE060E070E0B1DF59
:1009B000CE01DF91CF910895883029F41092AC00D8
:1009C0001092940015C0813001F59091940091111E
:1009D00007C06032710570F18093940031DC2AC049
:1009E000913089F46B3B710528F082E0809394008C
:1009F00080E01FC061157105E9F06270862F880FD5
:100A0000880F8E5E16C0AFDF15C0813811F0813EB1
:100A100089F491E090939400813E21F48091AC00A0
:100A2000865F03C08091AC008F5F8093AC0008DCD0
:100A30008BE44DDC80E008959C019091CA009830D1
:100A400088F4E92FF0E0EE0FFF1FE553FF4F3183ED
:100A500020839F5F9093CA0048E0C9015ADF8091CC
:100A6000CA0008958FEF08950F931F93CF93DF93DC
:100A7000EC018B0178DFB801CE01DF91CF911F919E
:100A80000F91DACF843011F58091DB009091DC007A
:100A90002AE08536920729F469E170E089EC95E057
:100AA00013C0895C954061F49091C100923040F090
:100AB000892F869596959695890F68DD80E0089533
:100AC00060E070E088E798E0CFDFF8CF81E008953C
:100AD000813C29F460E070E088E798E006C0823C41
:100AE00031F460E070E08FE895E0BEDF14C0813B38
:100AF00041F4CB016EE370E0ECD9892B61F404DDA5
:100B00000AC0813E51F4CB016EE370E0E2D96F5F21
:100B1000609381005CDD80E0089581E00895CF93CB
:100B2000C0917700C11117C0813C29F460E070E0EA
:100B300088E798E006C0823C31F460E070E08FEA1C
:100B400095E092DF09C0873B31F460E070E080EF10
:100B500097E072DF01C0C1E08C2FCF910895813CF6
:100B600029F460E070E088E798E006C0823C31F448
:100B700060E070E088E695E077DF07C0873B39F4F6
:100B800060E070E084EF97E057DF80E0089581E057
:100B90000895BF92CF92DF92EF92FF920F931F932F
:100BA000CF93DF93182FEB01D0906900F09068008D
:100BB00080916C00882319F0B090B90002C0BB246A
:100BC000B394C0906D00809177008111C09078003F
:100BD000CC2051F081E0C81621F080916A008F1579
:100BE00018F0F6E9EF2E01C0EF2C0091B700BE011E
:100BF000812F39DE8091B700882339F001110CC0B4
:100C00009091C1009093B80007C0002329F060E0E4
:100C100070E088E798E032C0183029F01A30B9F453
:100C2000C0916A00D0E08D2D90E08C179D0738F4BC
:100C30008F2D90E0C817D90710F4C0936A00CE0139
:100C4000E6DBA4DC81E08093650000E06EC1113C2E
:100C5000F1F2123C59F48091C1008E1510F48E2DE2
:100C600002C080916A0092DC40DCEFCF143C41F47A
:100C700080E02DDB60E070E084E198E0F5DEE5CF18
:100C80009FE4910F923008F04CC080916C00882353
:100C900039F0CE0168E170E01CD9892B31F0D5CF55
:100CA0006091740070E0CE01F7CF0091AE000111A9
:100CB000CCCF2091C100209761F4123B11F48FEF4B
:100CC00005C02F15E0F7D216F8F081E0809365009B
:100CD0001BC0E0917400F0E0CF0166E371E0DCD866
:100CE0008C179D0710F42F1550F7CF016CE672E0BA
:100CF000D3D88C179D0740F4D21630F005DC60E0A5
:100D000070E084E198E0B0DE809165006B2D70E0CA
:100D1000082E000C990BC0D82091C100820F911DA4
:100D2000D4C09FE1910F923020F4809165008195AD
:100D30008ACF113009F078C0A99711F4109365009B
:100D4000882349F10091B80010E090E0B801A4D8E0
:100D5000EC01E091B600F0E0BF01CFD8262FCE0124
:100D6000801B910BBF01C9D8322F361B8091B40074
:100D70009091B5006EE370E0ACD8832F90E08CD8F2
:100D80006CE370E0A6D8261B622F09F461E0609343
:100D9000C0006093BA00D091C0008091C1002D2F97
:100DA00030E0281B310960919600709197006F5FC9
:100DB0007F4F70939700609396002115310509F4D9
:100DC00044CF37FF05C0833830F040E450E005C021
:100DD00040E052E002C040E051E05695479537FFB1
:100DE00002C02F5F3F4F3595279521153105A9F793
:100DF0004617570708F029CFD81710F4CFEF03C0D4
:100E00008D1718F4C1E0C80F01C0CD2F8FEF8C0FE4
:100E100089DA882321F08C2F5ADAD093C0001092FF
:100E200097001092960011CF1530A1F48091C10067
:100E3000833308F40ACF90E08C1B9D0B823391051D
:100E400034F08739910564F186E990E029C082E3A6
:100E500090E026C01630B1F49091C1008091BA00A4
:100E6000981708F0F2CEC90FD11D90E08C179D079E
:100E700034F0C233D10524F4C2E3D0E001C0EC0168
:100E80008C2F0EC0173079F49091C0008091C10072
:100E9000891710F48F5F04C0981708F0D6CE8150E0
:100EA0008093C000D2CE0091770001113DC0133C69
:100EB00091F481E090916C00911180E080936C003E
:100EC00086DB30DB8091C10090E0A1DA80936A007C
:100ED0005DDB0BDB2AC0133B49F4CD2B09F0B5CE0B
:100EE000CC2011F086E9E82E8E2D04C0133E21F4AB
:100EF00080916A004BDB19C0173B29F460E070E079
:100F000084EE97E00FC01A3C39F48091C1008093C1
:100F10007A005DDBF9DA09C01A3B31F460E070E079
:100F20008CEE97E089DD01C001E0802FDF91CF9149
:100F30001F910F91FF90EF90DF90CF90BF90089599
:100F4000883071F41092950080E0C1D98091C3007F
:100F5000811138C0809195008F5F8093950022C0E9
:100F6000982F907F903BB1F420919500421778F034
:100F7000CB016DE570E0ADD7069739F42F5F209374
:100F800095004217F8F088E303C082E101C080E0D9
:100F90009ED918C0903E61F480919500882389F015
:100FA000481778F060E070E08CED94E045DD0AC011
:100FB0008A3041F46091AC0080919500F901099567
:100FC00006DBD1DC80E0089527EC31E043E0B8CFC8
:100FD00027EC31E044E0B4CF2AE134E045E0B0CF83
:100FE0002CE932E041E0ACCF20EA32E042E0A8CF89
:100FF0002BEB32E041E0A4CF2EEB32E043E0A0CF78
:1010000081E0089590917C00992369F08093AF006E
:1010100088E08093AD0081E08093AE008091C100B4
:101020008093B000089553C90F931F93CF93DF931C
:10103000D82F8B0180798039B1F420916E00909186
:101040006F008D2F8F70813021F4822F921748F41A
:1010500007C080917A00811104C0822F291708F4FB
:10106000892FD0DF12C0803819F480E0CBDF05C0B3
:10107000D83019F41092BB0026C0D13031F40931B8
:10108000110568F1D093C2002AC0D33C31F43CDA98
:1010900060E070E088E798E014C0D43C21F46091EF
:1010A0006A0070E00CC0D43B31F43CDA10921F01AE
:1010B00061E070E004C0D53C31F466E970E089EC91
:1010C00095E0D2DC0CC0C0917700C1110AC0DA3BB8
:1010D00041F460E070E088EF97E0AEDC03C0C0E070
:1010E00001C0C1E08C2FDF91CF911F910F91089526
:1010F0000F931F93CF938B01883081F480E082DFC0
:101100008091AE00082B1092BB001092B700012B0B
:1011100009F052C081E08093C2004EC0813059F482
:101120006931710508F448C0C091AE00C11144C0D6
:101130008093C200B7C0833011F58091BB008F3F10
:1011400019F08F5F8093BB0020917A00222359F021
:1011500080917B0090E062EC71E09ED60817190741
:1011600010F020936A0080918500882329F190E097
:1011700062EC71E091D680179107F0F451C0813B89
:1011800091F481E090E043D93DDF809179008111B5
:1011900013C080916C00811103C00831110560F00B
:1011A00061E070E029C0813ED9F3813839F4809143
:1011B0006A0090E02CD926DFC0E074C0813C21F4A5
:1011C00060916A0070E018C0823B81F41092BB000D
:1011D00080916D009091770091118091780081113C
:1011E00003C086E990E0E6CF86E9E5CF823E59F07C
:1011F000823C29F466E970E089EC95E00CC0833903
:1012000021F41092AE0080E0D6CF833C31F460E050
:1012100070E08FE895E028DCCFCF843C31F474D9BE
:1012200060E070E084E198E0F6CF8D3B31F4F89413
:1012300088ED81BD7894A895FFCF8F3C29F460E0BC
:1012400070E080E098E0E7CFC09177008A3B79F4C6
:10125000672B69F4CC2329F057D910927700B7D9BE
:10126000ABCF60E070E088EE97E0E6DB1BC0C11119
:1012700018C0833B29F460E070E085E69AE00FC077
:101280008A3C31F441D981E080937700A0D90AC02B
:10129000863C39F439D960E070E081EE9BE0E4DB14
:1012A00001C0C1E08C2FCF911F910F9108950F9332
:1012B0001F93CF931092C50080911D0190911E0144
:1012C0009C012F5F3F4F88279078822B932B909320
:1012D0001E0180931D01C091C300DBD7C81729F1FF
:1012E0001092C2008093C30090911F01882359F08F
:1012F000892F80699F709F3009F08F5F80931F0155
:1013000080E090E00DC0892F8F7E95FD02C080683F
:1013100001C0806C80931F0180911D0190911E017E
:101320008BD710921E0110921D0100911D0110918A
:101330001E018091C200882339F0B80183E02CD7C8
:10134000CF911F910F9141C7C0911F018C2F807FBA
:10135000803B19F460E070E001C0B80181E01CD767
:10136000C4FF12C0C5FF02C0C8010CC0083111057E
:10137000C8F010921E0110921D01C062C0931F019F
:1013800080E090E059D70EC0CC2361F0C5FD09C0C4
:101390000231110538F0C064C0931F0180E090E075
:1013A0004BD74ED780919800811105C08FEE86B93A
:1013B00081E08093E000809198008F5F8F7180932F
:1013C0009800CF911F910F9108958091EB008111AA
:1013D0001ED98091C50081116ACF0895CF92DF9206
:1013E000EF92FF920F931F93CF93DF93EC0110E8DE
:1013F00000E080E3E82E87E0F82E9CECC92EDD2487
:10140000D394209709F18091BC0081111FC0809175
:10141000C100863040F482E00FB6F89416BD86BD58
:101420000FBEC60106C00FB6F89416BD06BD0FBEAE
:10143000C7010197F1F70FB6F89416BD06BD0FBEB0
:10144000C4DFC3D62197DDCF81E001C080E0DF910A
:10145000CF911F910F91FF90EF90DF90CF90089563
:10146000CF93C82F882381F089E131D786EA90E0B5
:10147000B5DF80E02CD78AEF90E0B0DFC150A1F754
:101480008AE992E0CF91AACF89E121D78AE090E062
:10149000A5DF80E01CD78AEF90E0A0DFF1CFCF93EB
:1014A000DF9364E60AD5282F892F6AE006D5EC0180
:1014B000222341F0822FD4DF8C2FD2DF8D2FDF91BA
:1014C000CF91CECFC111F8CFF9CFFF920F931F93D9
:1014D000CF93DF93D82F8B01C091B10081E080932F
:1014E000B300C33009F0DBC0F090B7008D2FBBD93B
:1014F000FF2051F08091B700811106C060E070E0DC
:1015000088E798E0B1DACBC0D83021F481E080934D
:101510006300C7C0D23C19F41092B700D4C0D13BCD
:10152000C1F490916200012B49F49E3610F08FEFC8
:1015300003C0923018F481E08093630080916300CF
:10154000890F11F481E034C18F3608F431C18EE681
:101550002FC1D13E31F48091630081958093630067
:10156000EDC0D23B61F481E0809363008091620022
:10157000823008F4EBC0815080936200E7C0D13024
:1015800009F0A5C00932110511F4D09363009091C0
:101590009300892F880F97FD809590E067E070E0B9
:1015A0007BD4292F80919200682F660F87FD60956C
:1015B0008091610070E090E06FD4290F80919100DC
:1015C000682F660F87FD60958091600070E090E065
:1015D00063D4920F6091620070E0690F711D809179
:1015E000B700813091F48091B4009091B50025E06E
:1015F000969587952A95E1F724E730E0A901481BE5
:10160000590BCA0149D4B90164D4862F60D600FDB4
:1016100007C048D6817090919300890F8093930002
:101620009091920080919000890F809392003AD619
:1016300065E243D480919100980F9093910032D647
:101640008F7329F42FD66DE038D490939000C09119
:101650006100CC2331F026D68F7319F4C150C093AA
:10166000610020D6811107C01DD66BE026D490936F
:10167000610010929200C0916000C33030F012D629
:101680008F7119F4C150C09360000CD68F7709F0A8
:1016900083C008D666E011D4909360007DC0D83036
:1016A00041F480917D008093B10081E080936400DB
:1016B00081C0D13C31F460E070E088E798E0D4D993
:1016C00079C0D23C31F48C2F90E0019607C0D13C18
:1016D00091F3D43C59F48C2F90E0049665E070E0CF
:1016E0000CD480937D008093B10050C0D13B21F594
:1016F000C23090F400FD5EC0EC2FF0E0E459FF4FE3
:10170000828990916400891B883020F08F3F69F5B1
:101710008EEF2BC088E029C0C43009F04BC09091F7
:10172000800080916400890F823010F482E026C02E
:10173000893720F188E722C0D13E31F480916400DE
:1017400081958093640022C0D23BF1F481E08093C4
:101750006400C23060F400FD2DC0EC2FF0E0E459CD
:10176000FF4F82898F3F31F18F5F828B23C0C4305E
:1017700009F580918000833018F0815080938000BB
:1017800080918000A4D516C0D23E11F420D712C09B
:10179000D13011F081E00FC00932110519F481E058
:1017A000809364008091BF00080F0093BF0002C0C7
:1017B0008093620080E0DF91CF911F910F91FF90A5
:1017C0000895FF920F931F93CF93DF9300D01F9242
:1017D000CDB7DEB78B838B01F0906A008079898367
:1017E000803931F5EB81EF70E43020F01092B200D7
:1017F0001A8268C091E09093B200F0E0E459FF4F84
:10180000818D2FEF280F263928F480936A001092DB
:10181000B3000CC09093B300873930F190E0875942
:10182000910965E070E069D38093B1001A820DC020
:101830008981803841F41092B20080E048D581E07F
:101840008093BC0001C081E08A838091B20088232C
:10185000C9F18B81883051F48091B300882331F035
:10186000B80188E032DE02C01A8203C08981803963
:1018700051F481E08093B2008091B300811122C0C5
:1018800080916A0006C08981803829F41092B200E4
:1018900080E01DD517C08B818130A1F48091B2000A
:1018A000882349F08091B300882309F442C0B8012D
:1018B00081E00BDE07C0073381E01807D0F18B8190
:1018C0008093C200F0926A008B81883019F4B801CD
:1018D000ABDB2DC08B81813039F48091B200811156
:1018E00024C0B80181E004C08B81833051F4B80179
:1018F0000F900F900F90DF91CF911F910F91FF905C
:1019000093CB8B81833C89F0863C39F4FDD560E034
:1019100070E088E798E0A8D808C08B81873B39F44D
:1019200060E070E08CEF97E087D880E005C08A81A6
:1019300003C0F0926A00D1CF0F900F900F90DF910B
:10194000CF911F910F91FF9008951F920F920FB6A4
:101950000F9211242F933F938F939F93AF93BF9335
:10196000EF93FF938091EA008823E9F0E091E9008A
:1019700024B135B1F0E0EE0FFF1FDF01AB51BF4FD7
:101980002D933C93EF51FF4F8081918182179307F4
:1019900008F401962817390708F40197918380838A
:1019A00081E08093EB0081E08093EA00FF91EF916A
:1019B000BF91AF919F918F913F912F910F900FBE4B
:1019C0000F901F9018951F920F920FB60F9211242F
:1019D0008F9381E08093C5008F910F900FBE0F9081
:1019E0001F9018951F920F920FB60F9211248F938C
:1019F00081E08093C4008F910F900FBE0F901F90D5
:101A00001895F89484B7877F84BF0FB6F894A8958B
:101A100081B5886181BD11BC0FBE83E187BB81E0C8
:101A200083BF91EA9ABD80BF80E68CBD8FEF8DBDEC
:101A300088E088BB85BB8BB780628BBFA89581B5DA
:101A4000886181BD80E481BD1BD4789481E002D49B
:101A500060E070E082E495E0EFD71092BC0054D5CE
:101A600018D4811113C08CE690E09093BE0080934F
:101A7000BD00F89480E090E053D2853AC1F5009122
:101A8000BD001091BE00C1E0D0E028C0C0E08C2FA6
:101A90001ED483E190E0A2DC8C2F869518D483E1DC
:101AA00090E09CDCF6D3882381F0CF5FC03479F7D7
:101AB00065E181E045D58BD5C6E98C2F08D484E05B
:101AC00090E08CDCC150C9F7CECFCC2361F28C2FD3
:101AD000FED38DE090E082DCC150F7CFCE0120D262
:101AE000F80181938F012196CE31D105B9F7789411
:101AF00080917A00811180936A0060E070E084EC4C
:101B000092E09AD761E070E088E798E095D743E4E7
:101B1000342E52E0452E60E4562E7724739477E0FD
:101B2000672ECC24C394D12CFCEF8F2EF3E09F2E94
:101B3000A8E7AA2EA8E0BA2E48D38091C8009091B9
:101B4000C900009749F06091C6007091C7008CD71A
:101B50001092C9001092C8008091C200882309F435
:101B60004BC080E0B4D3A89581B5886181BD31BCFC
:101B700037988FD38111FDCF63D38BB780628BBF32
:101B80001092EB001092C5001092C4008091C20028
:101B9000882339F18091EC00882321F085B7877E76
:101BA000886003C085B7877E806185BF85B7806206
:101BB00085BF889585B78F7D85BF8091C4008111D1
:101BC0001092C2008091EB00882329F070926B0084
:101BD0007092E0001CD58091C5008823B9F267DBC4
:101BE000D5CF40926B008BB78F7D8BBF49D3A89523
:101BF00081B5886181BD51BCE8DB1092BC00809149
:101C0000DB009091DC00F8E080309F0711F5CEE119
:101C1000D0E0FE0184918053803110F421DC10C0AB
:101C200010E0812F81708295880F807E50D380E1F3
:101C300090E0D4DB1F5F1931A1F78AE992E0CEDB97
:101C40008CE291E0CBDB2196F0E0C233DF0709F7AD
:101C5000B9C02AE08536920779F03BE0813E9307D0
:101C600009F0A0C08091B300813009F0D6C0809106
:101C7000B200882309F4D1C0C091B100C23001F193
:101C800020F0C43009F474C057CFEC2FF0E0E459D1
:101C9000FF4FD28986E91BD3C11109C0DA3220F483
:101CA000C4010197F1F707C081E090E003C08D2FD8
:101CB000869590E093DB80E00AD38D2F90E0DFC023
:101CC000F1D28F73E82EF12CEDD2662DF6D0E6011D
:101CD00002C0CC0FDD1F9A95E2F7E4D265E0EDD0AB
:101CE000F60102C0EE0FFF1F9A95E2F7CE0FDF1F3D
:101CF000D9D290E0BE0101D1C80FD91FC739D10593
:101D000014F0C6E9D0E08C2FE2D2C70167DB8E0168
:101D100033E0159507953A95E1F7011101C001E00F
:101D200010E0C7015BDBC01BD10BD7FF02C0C0E0D6
:101D3000D0E08C2FCCD2B6D2837031F4C7014EDB09
:101D4000CE0195958795C3D2C230D10554F7AAD25A
:101D50006DE0B3D0E60102C0CC0FDD1F9A95E2F72B
:101D6000A1D290E0BE01B5D0C80FD91F80E085C0D8
:101D7000C0918000CC0FC73908F0C6E9D4E08C2FA1
:101D8000A6D285E090E02ADB80918000A0D281E499
:101D900090E024DBD15099F780ED92E01FDB80E0EA
:101DA00096D2CACEF5E08F389F07A9F488EE93E06B
:101DB00015DB8091DF0065E080D071DB80917700DA
:101DC000882381F0B092C900A092C8001092C70089
:101DD0001092C600B1CE25E08F3A920731F480917F
:101DE000DD005DDB88EE93E04AC088569540A9F49B
:101DF0008091C3008111A0CE80916A0068D284E6F0
:101E000090E0ECDA80E063D28091810090E068EEAF
:101E100073E042D08456910932C080917C008823BF
:101E200081F18091AE00882361F12091C100309151
:101E3000AF00231305C0822F4AD21092AE007CCE91
:101E40006091AD00231758F4832F821B36D0811187
:101E500001C081E0820F3BD28AE090E010C0862F63
:101E600090E06EE170E018D06091B000631B70E00C
:101E700044D0EB0121968FEF820F29D2CE01AEDA4A
:101E80005BCE85B7877E85BF85B7806285BF889525
:101E900085B78F7D85BF50CE0024552704C0080E1E
:101EA000591F880F991F009729F076956795B8F309
:101EB0007105B9F7802D952F0895991B79E004C01D
:101EC000991F961708F0961B881F7A95C9F7809579
:101ED0000895AA1BBB1B51E107C0AA1FBB1FA61771
:101EE000B70710F0A61BB70B881F991F5A95A9F7C3
:101EF00080959095BC01CD01089597FB072E16F4AF
:101F0000009406D077FD08D0E4DF07FC05D03EF44E
:101F1000909581959F4F0895709561957F4F089595
:101F2000E199FECF9FBB8EBBE09A99278DB30895B0
:101F3000262FE199FECF9FBB8EBBE09A01970DB291
:101F4000021639F01CBA2DBB0FB6F894E29AE19A4A
:081F50000FBE0895F894FFCFC5
:101F5800060B180101010004960132020002010A71
:101F68001496967801070501000000000103294333
:101F78003202072D0000781E986E00710074000070
:00000001FF
