:10000000AFC0C9C09BCCC7C0C6C0C5C0C4C0C3C0F8
:1000100048CCC1C0C0C0BFC082CCBDC0BCC03035A0
:1000200033312E323032332D31322D30332B3531C6
:10003000233100000000000000000000000000006C
:1000400000000000000000000000000000000000B0
:1000500000000000000000000000000000000000A0
:10006000000000000000000102020304050607086A
:10007000090A0B0C0E0F10111214151618191B1C5F
:100080001E1F21232426282A2B2D2F3133353739C3
:100090003B3E40424447494B4E505356585B5E608E
:1000A0006366696C6F7275787C7F8286898C9094A8
:1000B000979B9FA2A6AAAEB2B6BABEC3C7CBD0D4F6
:1000C000D9DDE2E7EBF0F5FAFF01020203040506D1
:1000D0000708090B0D0E101215171A1C1F232629CD
:1000E0002D31353A3F43494E545A60666D747C83D6
:1000F0008B939CA5AEB8C2CCD7E2EDF9FFFFFFFF12
:10010000FFFFFFFFFFFFFFFFFFFFFFFFFFFFFFFFFF
:10011000FFFFFFFFFFFFFFFFFFFFFFFFFFFFFFFFEF
:10012000FFFFFFFFFFFFFFFFFFFFFFFFFFFFFFFFDF
:10013000FFFFFFFFFFFFFFFFFFFFFFFFFFFFFFFFCF
:10014000FFFFFFFFFFFFFFFFFFFFFFFFFFFFFFFFBF
:10015000FFFFFFFFFFFFFFFFFFFFFFFFFFFF0000AD
:1001600011241FBECFE5D2E0DEBFCDBF10E0A0E678
:10017000B0E0E4E9FEE102C005900D92AE39B107AE
:10018000D9F721E0AEE9B0E001C01D92AC32B20770
:10019000E1F7E3DB7DCE34CF482F9B01E9EFF0E0C0
:1001A00080E090E05081552331F001963396803104
:1001B0009105C1F709C063E070E00CDEFC01E75077
:1001C000FF4F40833283218308950F931F93CF9372
:1001D000DF93D091F900DD2351F10091FA001091E5
:1001E000FB00C091D600C150C7FD0DC0EC2FEE0F33
:1001F000FF0BE952FF4F0190F081E02DB8018D2FE8
:1002000009958111F0CFE9EFF0E08381808384814B
:10021000958192838183339681E0E632F807A9F7CE
:10022000109226011092280110922701D2CFDF915F
:10023000CF911F910F910895BC0180912B01ACCFFC
:1002400010922B0110922A011092290181E08093D3
:10025000C800089590E822E048EA57E030E0815075
:1002600070F00FB6F89496BD26BD0FBEFA01319717
:10027000F1F70FB6F89496BD36BD0FBEF0CF0895D6
:100280008CE287B91092F5001092F6008FEE86B9D5
:10029000089586B383FB882780F991E089278093AE
:1002A000CF000895E0916600F09167003196FB70F1
:1002B000F460F0936700E09366008091CB008B5A66
:1002C0008093CB00E4918091CB008E0F089590E055
:1002D000FC01E753FF4F2491FC01ED5CFF4F84913B
:1002E0002BBD89BD089590E0FC01E753FF4F249199
:1002F000FC01ED5CFF4F94918BB5811102C02F3F43
:1003000029F08BB58F3F21F4211102C02BBD0CC009
:100310008BB5821718F48BB58F5F05C08BB5281786
:1003200018F48BB581508BBD89B5891718F489B540
:100330008F5F05C089B5981718F489B5815089BDBC
:100340008BB5281303C029B581E0921380E008958E
:10035000CF93DF9300D000D000D0CDB7DEB790911F
:100360006C002091E7003091E8002252384009F4F7
:1003700092E0843019F46093780021C06623F9F08C
:10038000823019F427E9261B622F26E0E7E8F0E027
:10039000DE01119601900D922A95E1F7E82FF0E029
:1003A0003197EE0FFF1F21E030E02C0F3D1FE20FD1
:1003B000F31F0190F081E02DE90FF11D6083269677
:1003C0000FB6F894DEBF0FBECDBFDF91CF91089579
:1003D000BF92CF92DF92EF92FF920F931F93CF9332
:1003E000DF93EC0140916C0090917700992311F01C
:1003F000E2E001C0E42FF0E0E459FF4F22812093B6
:100400006900858180936800E92FF0E0E459FF4F8F
:100410003185622F70E0442349F0313039F49B017B
:10042000280F311DC9019595879536C0C617D70786
:1004300094F1682F70E06C177D0774F1411102C0D0
:100440008C2F2AC0821B032F10E001501109E82EC7
:10045000F12CC701B801EFDC6093C5006695E62F6B
:10046000F0E0822FC12CD12CB12CB316A9F0C6011B
:10047000B801CDDC822F860FCE0CDF1CAE01481BED
:10048000510957FF03C0519541955109E417F507EC
:100490001CF4B394EACF822FDF91CF911F910F917B
:1004A000FF90EF90DF90CF90BF9008958091C300B0
:1004B000882351F09091CD009093C4008093C200A6
:1004C0001092C1001092C0000895611160938200E3
:1004D0000895662389F0813061F48091E90090915C
:1004E0008400891B681B6093840082E080936B000A
:1004F00003C0635E6093830080918300873418F0AB
:1005000086E480938300089560938600089581E0D7
:100510000895CF93DF938CE690E09093CA00809388
:10052000C900F894C0E0D0E0E091C900F091CA00A1
:10053000EC0FFD1F60812196CE0198DCCB31D105F7
:1005400099F765EA80E090E091DC7894DF91CF91B3
:1005500008951092F70084B195B12091CB00829557
:10056000869586958370990F990F890F820F8093D6
:10057000CB008091EC00882309F408C11092EC00B4
:100580008091F5009091CE00992329F03798109230
:10059000F8001092F50081113CC080916B00882317
:1005A00049F06091F1007091F2007093EE00609359
:1005B000ED0004C06091ED007091EE00209182008A
:1005C000220F96E0769567959A95E1F780E09CED8D
:1005D0001EDC620F6093EB008091B900882311F05C
:1005E000815007C0613938F460E070E084E0D4DD08
:1005F00085E08093B9008091CE008111BEC08FEA62
:1006000087B981E08093F5001092F6008FEE86B9ED
:10061000B4C0813009F0B1C080916B00882341F0F3
:100620008091F3009091F4009093F0008093EF009C
:100630008091EF009091F000A0918400AC01F6E071
:1006400056954795FA95E1F70A2E000CBB0B4A0F19
:100650005B1F435151405093EA004093E9009C01D5
:1006600085E0369527958A95E1F780916B00811199
:1006700027C08091A800E82FF0E0EE0FFF1FE7559C
:10068000FF4F40815181B901641B750B3183208379
:100690008F5F87708093A800CB01880F991F880F08
:1006A000991F4091830050E04D5E5E4F4A1B5B0BEB
:1006B000440F551F841B950B820F931F23E00EC020
:1006C000E9EAF0E02193319380E0E93BF807D1F7C4
:1006D000D0CF009709F00196215029F0181619067D
:1006E000C4F70197F9CF18161906FCF477FD3CC042
:1006F0002091A700121624F1880F991FBC016350A6
:10070000710977FF02C0695F7F4F93E07595679528
:100710009A95E1F71616170614F061E070E088E18B
:10072000861B8093A70085E026C08C3F2FEF9207A1
:10073000DCF477FF19C02091A70027FF05C02450E3
:10074000281B2093A70018C024EE281B2093A70085
:100750002091EB00233980F06CEF7FEF681B790B61
:100760007595679586E007C08091EB00823920F08F
:1007700060E070E087E010DD83DD80916B0088230E
:1007800029F080916B00815080936B00089588233D
:1007900021F0813029F4BA9804C0BA98C29808951B
:1007A000BA9AC29A0895CF93C82F8091CE00811132
:1007B0000AC091E0C11101C090E081E0CF3208F49D
:1007C00080E0890FE4DFC11103C01BBC19BC03C06A
:1007D0008FEF8C0F7CDDC093CD00C093CC00CA306E
:1007E00010F492E005C0C43110F491E001C090E033
:1007F00080E80FB6F89486BD96BD0FBECF910895E0
:10080000CF93C091CD0089E18C0F873908F080E04B
:10081000CADF82E01FDD8C2FCF91C5CFCF93C0916F
:10082000CD0080E0C0DF83E015DD8C2FCF91BBCF02
:100830008093C6009091CD00981718F4282F291B9B
:1008400002C0292F281B3091BC00311106C0309105
:100850007C00332369F0223058F08093BD0084E09F
:100860008093BB0081E08093BC009093BE0008950C
:100870009ACF813019F410927A000895823019F4D9
:1008800060937B000895833019F460937900089594
:10089000843019F460936D000895853011F46093ED
:1008A0007C0008959091EB00913910F480E011C024
:1008B000953A28F466956170635086230AC0982F94
:1008C0009F70933030F06F70E62FF0E0E357FF4FEA
:1008D00080815DCFCF93C0917700C1114DC088302A
:1008E00039F41092C3001092C1001092C00045C0AC
:1008F000813B79F48091C30081508330E8F583E037
:100900008093C3008093C2001092C1001092C00077
:1009100033C0853BA9F4CB016EE370E078DA892B14
:1009200061F58091C3008A3F40F58B5F8093C300DF
:100930008093C2001092C1001092C00061DF1DC000
:100940008130D1F48091C0009091C1000196883827
:100950002EE0920728F49093C1008093C0000DC050
:100960001092C1001092C0008091C300882329F02A
:1009700081508093C30001C0C1E08C2FCF910895B6
:10098000FF920F931F93CF93DF938C01EB01F42E13
:100990008091E7009091E800892B31F0E091E70029
:1009A000F091E80089E009951093E8000093E700D2
:1009B000012B39F0E091E700F091E800BE018F2DA6
:1009C000099581E08093C800DF91CF911F910F912D
:1009D000FF900895CF93DF93E091D600EE2359F076
:1009E000E150E093D600F0E0EE0FFF1FE952FF4F19
:1009F000C081D18102C0C0E0D0E0E091D600EE23FA
:100A000041F0F0E0EE0FFF1FEB52FF4F808191812C
:100A100002C080E090E04AE060E070E0B1DFCE012B
:100A2000DF91CF910895883029F41092BA00109286
:100A3000A20015C0813001F59091A200911107C06C
:100A40006032710570F18093A200FADB2AC0913008
:100A500089F46B3B710528F082E08093A20080E06E
:100A60001FC061157105E9F06270862F880F880F2D
:100A70008E5E16C0AFDF15C0813811F0813E89F45B
:100A800091E09093A200813E21F48091BA00865FAC
:100A900003C08091BA008F5F8093BA00D1DB8BE4F2
:100AA00082DE80E008959C019091D600983088F411
:100AB000E92FF0E0EE0FFF1FE952FF4F3183208353
:100AC0009F5F9093D60048E0C9015ADF8091D6001D
:100AD00008958FEF08950F931F93CF93DF93EC0149
:100AE0008B0178DFB801CE01DF91CF911F910F917B
:100AF000DACF843011F58091E7009091E8002AE088
:100B00008434920729F469E170E080E096E013C034
:100B10008050964061F49091CD00923040F0892F42
:100B2000869596959695890F83DE80E0089560E01E
:100B300070E08AE498E0CFDFF8CF81E00895813C4F
:100B400029F460E070E08AE498E006C0823C31F469
:100B500060E070E086EC95E0BEDF14C0813B41F4BC
:100B6000CB016EE370E053D9892B61F449DE0AC0F2
:100B7000813E51F4CB016EE370E049D96F5F609321
:100B80008100C7DC80E0089581E00895CF93C09193
:100B90007700C11117C0813C29F460E070E08AE45D
:100BA00098E006C0823C31F460E070E086EE95E0AB
:100BB00092DF09C0873B31F460E070E08AE298E0A0
:100BC00072DF01C0C1E08C2FCF910895813C29F4E0
:100BD00060E070E08AE498E006C0823C31F460E0B6
:100BE00070E08FE995E077DF07C0873B39F460E07C
:100BF00070E08EE298E057DF80E0089581E008958C
:100C0000BF92CF92DF92EF92FF920F931F93CF93F9
:100C1000DF93182FEB01D0906900F090680080916D
:100C20006C00882319F0B090C50002C0BB24B394B7
:100C3000C0906D00809177008111C0907800CC2029
:100C400051F081E0C81621F080916A008F1518F0EC
:100C5000F6E9EF2E01C0EF2C0091C300BE01812FF9
:100C600039DE8091C300882339F001110CC09091C6
:100C7000CD009093C40007C0002329F060E070E02D
:100C80008AE498E032C0183029F01A30B9F4C091E3
:100C90006A00D0E08D2D90E08C179D0738F48F2DE1
:100CA00090E0C817D90710F4C0936A00CE0190DB1A
:100CB000BFDD81E08093650000E071C1113CF1F27D
:100CC000123C59F48091CD008E1510F48E2D02C087
:100CD00080916A00ADDDEADBEFCF143C41F480E0A7
:100CE00062DD60E070E08CEB9BE0F5DEE5CF9FE439
:100CF000910F923008F051C080916C00882339F038
:100D0000CE0168E170E083D8892B31F0D5CF6091B6
:100D1000740070E0CE01F7CF0091BC000111CCCF80
:100D20002091CD00209761F4123B11F48FEF05C0A4
:100D30002F15E0F7D216F8F081E0809365001BC014
:100D4000E0917400F0E0CF0166E371E043D88C17C6
:100D50009D0710F42F1550F7CF016CE672E03AD8DA
:100D60008C179D0740F4D21630F04ADD60E070E049
:100D70008CEB9BE0B0DE809165006B2D70E0082E5F
:100D8000000C990B27D82091CD00820F911D20DBFC
:100D900080936A004DDD8ADB02C19FE1910F9230A2
:100DA00020F480916500819585CF113009F078C0DD
:100DB000A99711F410936500882349F10091C400AC
:100DC00010E090E0B80106D8EC01E091C200F0E03C
:100DD000BF0131D8262FCE01801B910BBF012BD82C
:100DE000322F361B8091C0009091C1006EE370E0FD
:100DF0000ED8832F90E0EED76CE370E008D8261B66
:100E0000622F09F461E06093CC006093C600D0913A
:100E1000CC008091CD002D2F30E0281B310960914E
:100E2000A4007091A5006F5F7F4F7093A500609341
:100E3000A4002115310509F43FCF37FF05C08937DC
:100E400030F040E450E005C040E052E002C040E035
:100E500051E05695479537FF02C02F5F3F4F3595BC
:100E6000279521153105A9F74617570708F024CF14
:100E7000D81710F4CFEF03C08D1718F4C1E0C80FD6
:100E800001C0CD2F8FEF8C0F2EDA882321F08C2F0D
:100E90008ADCD093CC001092A5001092A4000CCF55
:100EA0001530A1F48091CD00803608F405CF90E094
:100EB0008C1B9D0B8F35910534F08739910564F1BA
:100EC00086E990E029C08FE590E026C01630B1F4A5
:100ED0009091CD008091C600981708F0EDCEC90F13
:100EE000D11D90E08C179D0734F0CF35D10524F447
:100EF000CFE5D0E001C0EC018C2F0EC0173079F4A3
:100F00009091CC008091CD00891710F48F5F04C0C0
:100F1000981708F0D1CE81508093CC00CDCE133CF1
:100F200081F481E090916C00911180E080936C00DD
:100F3000F0DA74DC8091CD0090E04ADA80936A00A8
:100F4000C9CE00917700011129C0133B49F4CD2B84
:100F500009F0B2CECC2011F086E9E82E8E2D04C027
:100F6000133E21F480916A0063DC19C0173B29F419
:100F700060E070E08EE198E00FC01A3C39F4809197
:100F8000CD0080937A00C5DA3BDC09C01A3B31F40E
:100F900060E070E086E298E086DD01C001E0802F2D
:100FA000DF91CF911F910F91FF90EF90DF90CF9045
:100FB000BF900895883071F41092A30080E0F3DBB5
:100FC0008091CF00811138C08091A3008F5F809302
:100FD000A30022C0982F907F903BB1F42091A300F2
:100FE000421778F0CB016DE570E011D7069739F420
:100FF0002F5F2093A3004217F8F088E303C082E13B
:1010000001C080E0D0DB18C0903E61F48091A30065
:10101000882389F0481778F060E070E083E195E07C
:1010200042DD0AC08A3041F46091BA008091A30089
:10103000F90109956EDACEDC80E0089528EA31E006
:1010400043E0B8CF28EA31E044E0B4CF29E334E00C
:1010500045E0B0CF25E632E041E0ACCF29E632E012
:1010600042E0A8CF24E832E041E0A4CF81E0089537
:1010700090917C00992369F08093BD0088E0809373
:10108000BB0081E08093BC008091CD008093BE00C6
:10109000089589CB0F931F93CF938B01883081F4F0
:1010A00080E0E6DF8091BC00082B1092C700109210
:1010B000C300012B09F057C081E08093CE0053C0DC
:1010C000813059F46931710508F44DC0C091BC00FC
:1010D000C11149C08093CE00B8C0833039F58091EA
:1010E000C7008F3F19F08F5F8093C70020917A006F
:1010F000222359F080917B0090E062EC71E06AD687
:101100000817190710F020936A0080918500602F5E
:101110008370C8DB80918600882329F190E062EC1F
:1011200071E058D680179107F0F451C0813B91F4DB
:1011300081E090E04DD99CDF80917900811113C04E
:1011400080916C00811103C00831110560F061E0ED
:1011500070E029C0813ED9F3813839F480916A006A
:1011600090E036D985DFC0E070C0813C21F4609109
:101170006A0070E018C0823B81F41092C700809131
:101180006D0090917700911180917800811103C0DA
:1011900086E990E0E6CF86E9E5CF823E59F0823CD1
:1011A00029F466E970E080E096E00CC0833921F410
:1011B0001092BC0080E0D6CF833C31F460E070E058
:1011C00086EC95E088DCCFCF843C31F419DB60E01D
:1011D00070E08CEB9BE0F6CF8F3C29F460E070E090
:1011E00086E398E0EFCFC09177008A3B79F4672BD4
:1011F00069F4CC2329F004DB109277008AD9B3CFAD
:1012000060E070E082E298E04EDC1FC0C1111CC0BB
:10121000833B31F460E070E084E49AE05CDC15C06C
:10122000873C51F49091850081E0890F9C7F837009
:10123000892B8093850006C08A3C31F4E1DA81E095
:101240008093770066D901C0C1E08C2FCF911F91A8
:101250000F9108950F931F93CF931092D100809117
:10126000290190912A019C012F5F3F4F8827907898
:10127000822B932B90932A0180932901C091CF0058
:1012800008D8C81729F11092CE008093CF00909112
:101290002B01882359F0892F80699F709F3009F0B6
:1012A0008F5F80932B0180E090E00DC0892F8F7EAF
:1012B00095FD02C0806801C0806C80932B018091F5
:1012C000290190912A01B8D710922A011092290180
:1012D0000091290110912A018091CE00882399F074
:1012E000B80183E059D771D70134110528F00F7088
:1012F0001127012B09F044C01092A60081E08093D1
:10130000F800BED72EC0C0912B018C2F807F803B70
:1013100019F460E070E001C0B80181E03DD7C4FF7E
:1013200012C0C5FF02C0C8010CC008311105C8F0C9
:1013300010922A0110922901C062C0932B0180E013
:1013400090E07AD70EC0CC2361F0C5FD09C0023110
:10135000110538F0C064C0932B0180E090E06CD799
:101360006FD78091A600811105C08FEE86B981E00C
:101370008093EC008091A6008F5F8F718093A60010
:10138000CF911F910F9108958091F7008111E1D8BD
:101390008091D10081115ECF0895CF92DF92EF92BC
:1013A000FF920F931F93CF93DF93EC0110E800E0BF
:1013B00080E3E82E87E0F82E9CECC92EDD24D39440
:1013C000209709F18091C80081111FC08091CD0044
:1013D0008A3040F482E00FB6F89416BD86BD0FBE89
:1013E000C60106C00FB6F89416BD06BD0FBEC701F4
:1013F0000197F1F70FB6F89416BD06BD0FBEC4DF16
:10140000E4D62197DDCF81E001C080E0DF91CF916C
:101410001F910F91FF90EF90DF90CF900895CF93A1
:10142000C82F882381F089E1BED986EA90E0B5DF34
:1014300080E0B9D98AEF90E0B0DFC150A1F78AE926
:1014400092E0CF91AACF89E1AED98AE090E0A5DF02
:1014500080E0A9D98AEF90E0A0DFF1CFCF93DF93AE
:1014600064E6C9D4282F892F6AE0C5D4EC01222371
:1014700041F0822FD4DF8C2FD2DF8D2FDF91CF91DF
:10148000CECFC111F8CFF9CFFF920F931F93CF9317
:10149000DF93D82F8B01C091BF00C33009F0DAC0B1
:1014A000F090C30017DAFF2051F08091C300811142
:1014B00006C060E070E08AE498E00DDBCBC0D83075
:1014C00021F481E080936300C7C0D23C19F41092EC
:1014D000C300D4C0D13BC1F490916200012B49F408
:1014E0009E3610F08FEF03C0923018F481E08093A5
:1014F000630080916300890F11F481E034C18F365D
:1015000008F431C18EE62FC1D13E31F480916300E1
:10151000819580936300EDC0D23B61F481E08093BC
:10152000630080916200823008F4EBC081508093A8
:101530006200E7C0D13009F0A5C00932110511F4ED
:10154000D09363009091A100892F880F97FD80951B
:1015500090E067E070E03ED4292F8091A000682FD2
:10156000660F87FD60958091610070E090E032D455
:10157000290F80919F00682F660F87FD60958091ED
:10158000600070E090E026D4920F6091620070E0FD
:10159000690F711D8091C300813091F48091C0006A
:1015A0009091C10025E0969587952A95E1F724E76B
:1015B00030E0A901481B590BCA010CD4B90127D44A
:1015C000862FF1D800FD07C06DD681709091A100E3
:1015D000890F8093A1009091A00080919E00890FB7
:1015E0008093A0005FD665E206D480919F00980F9B
:1015F00090939F0057D68F7329F454D66DE0FBD398
:1016000090939E00C0916100CC2331F04BD68F7334
:1016100019F4C150C093610045D6811107C042D66C
:101620006BE0E9D3909361001092A000C09160003C
:10163000C33030F037D68F7119F4C150C0936000B9
:1016400031D68F7709F083C02DD666E0D4D390933E
:1016500060007DC0D83041F480917D008093BF0050
:1016600081E08093640081C0D13C31F460E070E09F
:101670008AE498E030DA79C0D23C31F48C2F90E0E3
:10168000019607C0D13C91F3D43C59F48C2F90E0E3
:10169000049665E070E0CFD380937D008093BF0017
:1016A00050C0D13B21F5C23090F400FD5EC0EC2F5C
:1016B000F0E0E459FF4F828990916400891B8830E3
:1016C00020F08F3F69F58EEF2BC088E029C0C43031
:1016D00009F04BC09091800080916400890F8230A6
:1016E00010F482E026C0893720F188E722C0D13E7D
:1016F00031F48091640081958093640022C0D23BD4
:10170000F1F481E080936400C23060F400FD2DC0EC
:10171000EC2FF0E0E459FF4F82898F3F31F18F5F6A
:10172000828B23C0C43009F580918000833018F08B
:101730008150809380008091800035D816C0D23EC1
:1017400011F4E7D612C0D13011F081E00FC0093298
:10175000110519F481E0809364008091CB00080F9B
:101760000093CB0002C08093620080E0DF91CF91B4
:101770001F910F91FF9008950F931F93CF93DF93C5
:10178000C82F8B0180798039B1F420916E0090913F
:101790006F008C2F8F70813021F4822F921748F4C4
:1017A00007C080917A00811104C0822F291708F4A4
:1017B000892F5EDC13C0803819F480E059DC05C045
:1017C000C83019F41092C70046C0C13039F409314D
:1017D000110508F45DC0C093CE005AC0C330E9F4CF
:1017E0008091C7008F3F19F08F5F8093C7002091D1
:1017F0007A00222359F080917B0090E062EC71E046
:10180000E9D20817190710F020936A00809185002B
:10181000602F8695869546D83BC0C33C31F4F0D7FF
:1018200060E070E08AE498E014C0C43C21F4609168
:101830006A0070E00CC0C43B31F4F0D710922B0169
:1018400061E070E004C0C53C31F466E970E080E01E
:1018500096E041D91DC0D0917700D1111BC0C73C83
:1018600079F490918500892F869586958F5F837096
:10187000880F880F9370890F809385004AD60BC01C
:10188000CA3B41F460E070E082E398E00CD903C009
:10189000D0E001C0D1E08D2FDF91CF911F910F914A
:1018A00008951F920F920FB60F9211242F933F931A
:1018B0008F939F93AF93BF93EF93FF938091F60025
:1018C0008823E9F0E091F50024B135B1F0E0EE0FA6
:1018D000FF1FDF01AF50BF4F2D933C93E351FF4FEC
:1018E000808191818217930708F4019628173907A0
:1018F00008F401979183808381E08093F70081E071
:101900008093F600FF91EF91BF91AF919F918F91DE
:101910003F912F910F900FBE0F901F9018951F921F
:101920000F920FB60F9211248F9381E08093D10014
:101930008F910F900FBE0F901F9018951F920F92CE
:101940000FB60F9211248F9381E08093D0008F9176
:101950000F900FBE0F901F901895F89484B7877F53
:1019600084BF0FB6F894A89581B5886181BD11BC7C
:101970000FBE81E187BB81E083BF91EA9ABD80BF42
:1019800080E68CBD8FEF8DBD88E088BB85BB8BB7B3
:1019900080628BBFA89581B5886181BD80E481BDDF
:1019A0006FD4789481E056D460E070E089E795E0E8
:1019B0007AD81092C80024D76CD4811113C08CE659
:1019C00090E09093CA008093C900F89480E090E082
:1019D00045D2853AC1F50091C9001091CA00C1E015
:1019E000D0E028C0C0E08C2FDED683E190E0D5DCCB
:1019F0008C2F8695D8D683E190E0CFDC4AD488231B
:101A000081F0CF5FC03479F765E181E062D581D59F
:101A1000C6E98C2FC8D684E090E0BFDCC150C9F77E
:101A2000CECFCC2361F28C2FBED68DE090E0B5DC1A
:101A3000C150F7CFCE0112D2F80181938F012196C8
:101A4000CC31D105B9F7789480917A0081118093D7
:101A50006A0060E070E087E892E025D861E070E01D
:101A60008AE498E020D843E4342E52E0452E60E426
:101A7000562E7724739475E0672EEAE4AE2EE8E0E4
:101A8000BE2ECC24C394D12CACEF8A2EA3E09A2E88
:101A90009CD38091D4009091D500009749F060913B
:101AA000D2007091D30017D81092D5001092D400B4
:101AB0008091CE00882309F44BC080E074D6A895AD
:101AC00081B5886181BD31BC3798E3D38111FDCFE9
:101AD000B7D38BB780628BBF1092F7001092D10002
:101AE0001092D0008091CE00882339F18091F800C7
:101AF000882321F085B7877E886003C085B7877EFD
:101B0000806185BF85B7806285BF889585B78F7DE9
:101B100085BF8091D00081111092CE008091F70096
:101B2000882329F070926B007092EC0012D580919E
:101B3000D1008823B9F28EDBD5CF40926B008BB7F2
:101B40008F7D8BBF9DD3A89581B5886181BD51BC28
:101B50001BDC1092C8008091E7009091E800F8E04B
:101B600086339F0711F5CEE1D0E0FE0184918053CA
:101B7000803110F454DC10C010E0812F8170829508
:101B8000880F807E10D680E190E007DC1F5F19315E
:101B9000A1F78AE992E001DC8CE291E0FEDB21967C
:101BA000F0E0C233DF0709F7ABC02AE084349207C4
:101BB00009F096C0C091BF00C23001F120F0C430DE
:101BC00009F474C065CFEC2FF0E0E459FF4FD289DF
:101BD00086E9E9D5C11109C0DA3220F4C4010197C0
:101BE000F1F707C081E090E003C08D2F869590E06B
:101BF000D4DB80E0D8D58D2F90E0DFC053D38F7336
:101C0000E82EF12C4FD367E0F6D0E60102C0CC0FEE
:101C1000DD1F9A95E2F746D3662DEDD0F60102C09E
:101C2000EE0FFF1F9A95E2F7CE0FDF1F3BD390E038
:101C3000BE0101D1C80FD91FC739D10514F0C6E9BB
:101C4000D0E08C2FB0D5C701A8DB8E0133E015950D
:101C500007953A95E1F7011101C001E010E0C701D5
:101C60009CDBC01BD10BD7FF02C0C0E0D0E08C2FA3
:101C70009AD518D3837031F4C7018FDBCE019595C7
:101C8000879591D5C230D10554F70CD36DE0B3D010
:101C9000E60102C0CC0FDD1F9A95E2F703D390E076
:101CA000BE01B5D0C80FD91F80E085C0C0918000AB
:101CB000CC0FC73908F0C6E9D4E08C2F74D585E085
:101CC00090E06BDB809180006ED581E490E065DB75
:101CD000D15099F780ED92E060DB80E064D5D8CEFA
:101CE000F5E0863C9F07A9F488EE93E056DB8091EF
:101CF000EB00662D80D0B2DB80917700882381F0E5
:101D0000B092D500A092D4001092D3001092D200CD
:101D1000BFCE25E0863E920731F48091E9009EDB3C
:101D200088EE93E04AC08F599540A9F48091CF0086
:101D30008111AECE80916A0036D584E690E02DDB2D
:101D400080E031D58091810090E068EE73E042D070
:101D50008456910932C080917C00882381F1809162
:101D6000BC00882361F12091CD003091BD00231388
:101D700005C0822F18D51092BC008ACE6091BB009E
:101D8000231758F4832F821B36D0811101C081E0C4
:101D9000820F09D58AE090E010C0862F90E06EE1B6
:101DA00070E018D06091BE00631B70E044D0EB017E
:101DB00021968FEF820FF7D4CE01EFDA69CE85B787
:101DC000877E85BF85B7806285BF889585B78F7D03
:101DD00085BF5ECE0024552704C0080E591F880F0A
:101DE000991F009729F076956795B8F37105B9F7B3
:101DF000802D952F0895991B79E004C0991F96179F
:101E000008F0961B881F7A95C9F780950895AA1B3C
:101E1000BB1B51E107C0AA1FBB1FA617B70710F0D5
:101E2000A61BB70B881F991F5A95A9F78095909507
:101E3000BC01CD01089597FB072E16F4009406D03F
:101E400077FD08D0E4DF07FC05D03EF4909581953E
:101E50009F4F0895709561957F4F0895E199FECF4A
:101E60009FBB8EBBE09A99278DB30895262FE199E9
:101E7000FECF9FBB8EBBE09A01970DB2021639F0E0
:101E80001CBA2DBB0FB6F894E29AE19A0FBE0895E2
:041E9000F894FFCFF4
:101E9400060B18010101000470012E020001010A61
:101EA4000A70707001070501000000000103294356
:101EB400320207370009006E00710074000001024D
:0E1EC40001000000000000010000000000000E
:00000001FF
