:1000000039C1000054C1000052C1000050C10000BD
:100010004EC100004CC100000C94F31148C1000017
:1000200046C1000044C1000042C1000040C10000C0
:100030003EC100003CC100003AC1000038C10000D0
:1000400036C1000034C1000032C1000030C10000E0
:100050002EC100002CC100002AC1000028C10000F0
:100060000C94041224C100000C94B01120C10000B3
:100070001EC100001CC100001AC1000018C1000010
:1000800016C1000014C1000012C1000010C1000020
:10009000313633323D3D32302E323032332D313233
:1000A0002D30332B3531233100000105041410119C
:1000B000150000000000000000000000000000002B
:1000C000000000000000000000000000000000032D
:1000D0000303030303030303030000000000000005
:1000E0000000000000000000000000000000000010
:1000F0000000000000000000000000000000000000
:1001000000000000000000000000000000000000EF
:1001100000000000000000000000000000000000DF
:1001200000000000000000000003030303030303BA
:10013000030303030303030303030303030303038F
:10014000030303030303030600070009000B000E6B
:1001500000120017001E0025002E00380045005335
:1001600000640078008E00A800C400E5000A013396
:100170000161019301CC010A024F029B02EE024889
:1001800003AB03AC01DC01100248028502C6020C7D
:10019000035803A903FF03110012001400150017F0
:1001A0000019001B001D0020002200250028002A45
:1001B000002E003100340038003C0040004400486C
:1001C000004D00510056005C00610067006D007337
:1001D000007A00800088008F0097009F00A700B081
:1001E00000B900C200CC00D600E000EB00F600022F
:1001F000010E011B01270135014301510160016F0F
:10020000017F018F01A001B201C401D601E901FD06
:1002100001110226023C025202690280029802B1D8
:1002200002CB02E50200031C033803560374039358
:1002300003B303D303F503AD01BB01CA01D901E93F
:1002400001F90109021A022B023C024E02610274FA
:100250000287029B02AF02C402D902EF0205031C0F
:100260000333034B0363037B039503AF03C903E429
:1002700003FF030011241FBECFEFCDBFDFE7DEBFBA
:1002800010E7A0E0B0E7E6ECFBE202C005900D92BB
:10029000A833B107D9F720E7A8E3B0E701C01D9262
:1002A000AF3CB207E1F70E9414120C94B215A8CE2D
:1002B000F89498ED94BF809361008091650080FD73
:1002C000FCCF78940895E0E0F6E08485816084872F
:1002D0008285816082870895ECE9F0E720E030E0D4
:1002E0009081992339F02F5F3F4F339620313105AC
:1002F000B9F70BC0F901EE0FFF1F2E0F3F1FF901D9
:10030000E456FF4880836183728308950F931F939F
:10031000CF93DF93D0919C70DD2351F100919D70BC
:1003200010919E70C0917970C150C7FD0DC0EC2F27
:10033000EE0FFF0BE658FF480190F081E02DB80169
:100340008D2F09958111F0CFECE9F0E7838180834F
:100350008481958181839283339680E7E93CF80715
:10036000A9F71092C9701092CA701092CB70D2CFB8
:10037000DF91CF911F910F910895BC018091CE70B4
:10038000ABCF1092CE701092CC701092CD7081E0F5
:100390008093697008950F931F93CF93C82F05E141
:1003A0001CE0CC2349F083E083DFC8010197F1F71B
:1003B00080E07EDFC150F5CFCF911F910F9108955E
:1003C0001092B000E0E0F6E082E9808384E081836F
:1003D00081E082838AE180878081816080831092BE
:1003E0009870109299706FCF8EB18295817091E064
:1003F0008927809372700895E0910670F0910770DC
:100400003196FB70F460E0930670F0930770809172
:100410006C708B5A80936C70E49180916C708E0F2D
:100420000895FF920F931F93CF93DF9300D01F92F5
:10043000CDB7DEB7209168AB309169AB40916AAB24
:1004400029833A834B838E010F5F1F4F20E030E0FA
:10045000682F70E0E1E0F0E098E0F92ED8019D917E
:100460008D01A901440F551FDB0102C0B595A79569
:100470004A95E2F7AD01437081F04130C9F4A92FEC
:10048000B0E0AF0102C0440F551F9A95E2F74093C8
:100490000204A05FBB4FFC9215C0AF0102C0440F25
:1004A000551F9A95E2F740930104409306040AC051
:1004B000DF0102C0AA0FBB1F9A95E2F7A0930104C7
:1004C000A09305042F5F3F4F2330310539F6239663
:1004D000CDBFDEBFDF91CF911F910F91FF900895A7
:1004E000811102C081E001C082E09BCF811102C076
:1004F00085E001C08AE095CF811102C084E001C08F
:1005000088E08FCF811102C084E101C088E289CFE9
:10051000811102C080E101C080E283CF811102C05D
:1005200081E101C082E27DCF811102C085E101C07D
:100530008AE277CF81E0089590916F70911109C0A0
:10054000893238F49091640490689093640491E047
:1005500001C090E020916404206220936404209103
:100560008E702A3620F020910404277F03C020914A
:100570000404286020930404282F30E0F901EE0FD2
:10058000FF1FE95BFE4F4591549166E0440F551FF4
:100590006A95E1F7F901EF54FF4FE491883220F0BA
:1005A00080910404806803C0809104048F77809355
:1005B00004044093A2065093A306E093B20099234B
:1005C00039F083E0E8DE809164048F7780936404DF
:1005D000089590E0FC01EF54FF4FE4912091B200A8
:1005E000E2133DC02091A2063091A306E6E03695C5
:1005F0002795EA95E1F7FC01EE0FFF1FE95BFE4F3F
:1006000045915491CA01821B930B97FF03C09195AA
:100610008195910973E0959587957A95E1F78F5FBC
:1006200090E02417350718F42F5F3F4F05C042179D
:10063000530710F4215031099F5F891790F7C901C2
:1006400066E0880F991F6A95E1F78093A206909360
:10065000A30681E02417350719F080E0089581E0B2
:100660000895CF93DF93CDB7DEB72697CDBFDEBF1A
:1006700090910C7020918A7030918B702E553B4078
:1006800009F492E0843019F4609318701FC0662357
:10069000E9F0823019F427E9261B622F26E0EBE609
:1006A000FBEADE01119601900D922A95E1F79E0179
:1006B0002F5F3F4F280F311D280F311DF901329751
:1006C0000190F081E02DE90FF11D60832696CDBFEA
:1006D000DEBFDF91CF910895BF92CF92DF92EF926C
:1006E000FF920F931F93CF93DF93EC0140910C7017
:1006F00090911770992311F0E2E001C0E42FF0E02F
:10070000E45FFF48228120930970858180930870FF
:10071000E92FF0E0E45FFF483185622F70E0442369
:1007200049F0313039F49B01280F311DC9019595ED
:10073000879538C0C617D707A4F1682F70E06C17EB
:100740007D0784F1411102C08C2F2CC0821B032F26
:1007500010E001501109E82EF12CC701B8010E94E8
:100760003B15609365706695E62FF0E0822FC12CF3
:10077000D12CB12CB316B1F0C601B8010E942715D7
:10078000822F860FCE0CDF1CAE01481B510957FF8C
:1007900003C0519541955109E417F5071CF4B39432
:1007A000E9CF822FDF91CF911F910F91FF90EF90B2
:1007B000DF90CF90BF900895ECE0F0E786858093BE
:1007C0000A708389808B8093707008958091627025
:1007D000882351F090916F70909364708093617052
:1007E00010925F7010926070089520918E7080E07A
:1007F000E82FF0E0EC57F4459081291710F08E5F58
:10080000F7CF3197E081F0E0E755FF4F84910895ED
:100810000F931F93CF93C82F90918E70992341F01F
:1008200086E9890F873210F0933210F480E08AC095
:10083000EC2FEF7080916870811122C0C295CF704B
:100840008091327028E0829FC001112468177907D7
:10085000C0F420916770422F50E0481759078CF47C
:10086000222379F091E080916E708F3008F490E04F
:1008700081E0C23009F080E0C92FC82BCF5F36C0BD
:10088000C2E0E73088F1E730A9F400913D7010E054
:100890000F5F1F4FB1DD65E00E941B159801290F06
:1008A000311DC90166E070E00E943B1580933D70E8
:1008B000FC012DC0E830D1F480917170882311F0D3
:1008C0008FE001C083E090E068237923672B51F427
:1008D00080913D7090E0019666E070E00E943B15CB
:1008E00080933D70E0913D70F0E011C08091717097
:1008F000882319F07ADFE82F0DC0CB0196958795F4
:1009000063E070E00E942715FC01EE0FFF1FE65523
:10091000FF4FE491C33071F480913C7090E00196F8
:1009200063E170E00E94271580933C70DC01AF58B2
:10093000B445CC91CC2321F0C13019F0EE0F01C0A9
:10094000E0E08E2FCF911F910F916BCD81E0089544
:10095000823019F4609332700895611160932D70A4
:100960000895662389F0813061F480918C709091B4
:100970002F70891B681B60932F7082E080930B702F
:1009800003C0635E60932E7080912E70873418F0E0
:1009900086E480932E700895609333700895E82F55
:1009A000F0E0E45FFF4867A308957FEF780F409180
:1009B0001D7050911E70662359F021E030E002C096
:1009C000220F331F7A95E2F7CA01822B932B0AC0BC
:1009D00081E090E002C0880F991F7A95E2F7809538
:1009E0008423952380931D7090931E700895CF9358
:1009F000DF938CE090E780936A7090936B7082E055
:100A0000CADCF894C0E0D0E0E0916A70F0916B70BD
:100A1000EC0FFD1F60812196CE010E949115CB3213
:100A2000D10591F765EA80E090E00E9491157894F5
:100A3000DF91CF910895CF93C82F8091717081116C
:100A400001C0EFDC8091717081110BC0CC2331F0BB
:100A5000CCDEC53108F0880FE4DC27C080E0E1DCA3
:100A600002C0C11122C01092A2061092A3061092D9
:100A7000B200809104048F77809304048091640411
:100A800080688093640483E086DC809164048F77BF
:100A900080936404809104048860809304048091AE
:100AA00064048F7D809364040EC0E091707084E0D4
:100AB000E89FF0011124EA55F4450190F081E02D02
:100AC0008FEF8C0F099580916F70C81380936E70B3
:100AD000C0936F70C0936D70C83210F483E005C08E
:100AE000C83211F481E001C080E0CF91E1CBCF9317
:100AF000C0916F7089E18C0F873908F081E09BDF2E
:100B000082E049DC8C2FCF9196CFCF93C0916F704C
:100B100081E091DF83E03FDC8C2FCF918CCF8093FD
:100B2000667090916F70981718F4282F291B02C0D7
:100B3000292F281B30915970311106C03091217036
:100B4000332369F0223058F080935A7084E0809308
:100B5000587081E08093597090935B7008956BCFCB
:100B600010929A708091100690916C70890F80930A
:100B70006C7080918F70882309F469C110928F7016
:100B80009091987080917170882349F0809100064F
:100B90008E7F8093000610929B7010929870911136
:100BA0007BC080910B70882329F020919470309144
:100BB00095701AC020917170809190709091917091
:100BC0002223B9F0209194703091957053E03695BE
:100BD00027955A95E1F7280F391F63E09695879579
:100BE0006A95E1F7281B390B209390703093917030
:100BF00001C09C01C901A0E0B0E09C01AD01215001
:100C00003F4F4F4F5F4FABE2B0E00E947F1520E5B2
:100C100032E340E050E00E944E1580912D708750E5
:100C2000880F280F20938E7080915670882311F0C2
:100C300081500BC086E9820F873210F0233238F4DE
:100C400060E070E084E048DB85E08093567080913E
:100C500071708111F3C081E08093B00092E49093B1
:100C6000080690E49093030690E29093050692E1C3
:100C7000909300061092010694E0909301068093F1
:100C80000206909100069160909300068093987000
:100C90001092997018DBD2C0913009F0CFC08091CA
:100CA0000B70882341F0809196709091977080939B
:100CB000927090939370A0910411B09105112091BE
:100CC00006113091071184E0220F331F8A95E1F756
:100CD0008091927090919370281B390B0E9470152F
:100CE000DC01CB01905EAF4FBF4F2AE0B695A795D0
:100CF000979587952A95D1F720912F70FC0136E0C2
:100D0000F695E7953A95E1F7022E000C330BA90111
:100D1000435151404E0F5F1F40938C7050938D7024
:100D2000BC0145E0769567954A95E1F780910B7097
:100D300081112AC080914570E82FF0E0EE0FFF1F6F
:100D4000EA5BFF4840815181DB01A41BB50BAD017B
:100D5000608371838F5F87708093457080912E7060
:100D600090E08D5E9E4F821B930B880F991F9B0115
:100D7000281B390BC9019D01220F331F220F331F7E
:100D8000820F931F23E00EC0E6E4F0E761937193B6
:100D900080E7E635F807D1F7CDCF009709F0019647
:100DA000215029F018161906C4F70197F9CF181623
:100DB0001906E4F457FD39C02091447012160CF165
:100DC000880F991FBC016350710977FF02C06F5FE4
:100DD0007F4F759567951616170614F061E070E061
:100DE00088E1861B8093447085E026C08C3FAFEF7E
:100DF0009A07DCF457FF19C02091447027FF05C003
:100E00002450281B2093447018C024EE281B2093E4
:100E1000447020918E70233980F06CEF7FEF681B57
:100E2000790B7595679586E007C080918E70823941
:100E300020F060E070E087E04FDAC2DA80910B705A
:100E4000882329F080910B70815080930B70089556
:100E5000813019F410921A700895823019F4609359
:100E60001B700895833019F46093197008958430CD
:100E700019F460930D700895853011F4609321701A
:100E80000895CF93DF9390917070981759F0C82F01
:100E9000D0916F7080E0CFDDC09370708D2FDF91A7
:100EA000CF91C9CDDF91CF910895CF93C0911770A5
:100EB000C1114FC0883039F41092627010925F7087
:100EC0001092607047C0813B81F4809162708150C4
:100ED000833008F03EC083E080936270809361703D
:100EE00010925F701092607034C0853BB1F4CB01FA
:100EF0006EE370E00E942715892B61F58091627086
:100F00008A3F40F58B5F809362708093617010928E
:100F10005F7010926070EBDD1DC08130D1F4809164
:100F20005F7090916070019688382EE0920728F4E7
:100F300080935F70909360700DC010925F701092FC
:100F4000607080916270882329F081508093627074
:100F500001C0C1E08C2FCF910895FF920F931F9392
:100F6000CF93DF938C01EB01F42E80918A709091E6
:100F70008B70892B31F0E0918A70F0918B7089E051
:100F8000099500938A7010938B70012B39F0E091D2
:100F90008A70F0918B70BE018F2D099581E080934E
:100FA0006970DF91CF911F910F91FF900895CF93BA
:100FB000DF93E0917970EE2359F0E150E09379707E
:100FC000F0E0EE0FFF1FE658FF48C081D18102C05C
:100FD000C0E0D0E0E0917970EE2341F0F0E0EE0F58
:100FE000FF1FE858FF488081918102C080E090E0B7
:100FF0004AE060E070E0B1DFCE01DF91CF9108956B
:10100000883029F41092577010923E7015C08130CC
:1010100001F590913E70911107C06032710570F139
:1010200080933E70AED92AC0913089F46B3B710534
:1010300028F082E080933E7080E01FC0611571054A
:10104000E9F06270862F880F880F8E5E16C0AFDFC2
:1010500015C0813811F0813E89F491E090933E7083
:10106000813E21F480915770865F03C08091577054
:101070008F5F8093577085D98BE4DDDC80E0089525
:101080009C0190917970983088F4E92FF0E0EE0F90
:10109000FF1FE658FF48208331839F5F909379704C
:1010A00048E0C9015ADF8091797008958FEF089563
:1010B0000F931F93CF93DF93EC018B0178DFB8017F
:1010C000CE01DF91CF911F910F91DACF813C29F4AE
:1010D00060E070E085EF9BE006C0823C39F460E0A0
:1010E00070E080E89BE0E4DF80E0089581E008950F
:1010F000843011F580918A7090918B702FE08E333F
:10110000920729F469E170E081EE98E013C0815EF6
:10111000984061F490916F70923040F0892F8695DD
:1011200096959695890FFBDC80E0089560E070E06D
:1011300085EF9BE0BDDFF8CF81E00895813C29F485
:1011400060E070E085EF9BE006C0823C31F460E037
:1011500070E086E698E0ACDF16C0813B49F4CB0135
:101160006EE370E00E942715892B69F4C0DC0BC088
:10117000813E59F4CB016EE370E00E9427156F5F4A
:1011800060932C7034DC80E0089581E00895813C08
:1011900029F460E070E085EF9BE006C0823C31F40A
:1011A00060E070E08EE998E083DF07C0873B39F4A8
:1011B00060E070E08AE69BE063DF80E0089581E014
:1011C0000895BF92CF92DF92EF92FF920F931F93F9
:1011D000CF93DF93182FEB0180911C708093707078
:1011E000D0900970F090087080910C70882319F0ED
:1011F000B090657002C0BB24B394C0900D70809114
:1012000017708111C0901870CC2051F041E0C416C5
:1012100021F080910A708F1518F0F6E9EF2E01C0C9
:10122000EF2C00916270BE01812F3FDE2091627031
:10123000222339F001110CC080916F70809364708B
:1012400007C0002329F060E070E085EF9BE032C02A
:10125000183029F01A30B9F4C0910A70D0E08D2D01
:1012600090E08C179D0738F48F2D90E0C817D907B0
:1012700010F4C0930A70CE012FDA51DC81E0809324
:10128000057000E0A5C1113CF1F2123C59F48091C7
:101290006F708E1510F48E2D02C080910A703FDCA5
:1012A00095DAEFCF143C41F480E0C5DB60E070E0FC
:1012B00080E29DE0FDDEE5CF8FE4810F823008F013
:1012C0005AC080910C70882341F0CE0168E170E033
:1012D0000E942715892B31F0D4CF6091147070E0F3
:1012E000CE01F6CF009159700111CBCF80916F7074
:1012F000209761F4123B11F48FEF05C08F15E0F7D2
:10130000D81648F181E08093057025C020911470B3
:1013100030E066E371E0269FA001279F500D369FC5
:10132000500D11244C175D0710F48F1528F76CE64B
:1013300072E0269FA001279F500D369F500D11246B
:101340004C175D0740F4D81630F0D1DB60E070E058
:1013500080E29DE0ADDE3091057020916F704B2DE5
:101360003403C0011124820F911DB6D980930A70F5
:10137000D6DB2CDA2DC18FE1810F823020F48091F1
:10138000057081957CCF113009F084C0A99711F4C4
:1013900010930570222371F1C0916470C29F900177
:1013A0001124E0916170F0E0C901BF010E943B157A
:1013B000462FC9018C1B9109BF010E943B15242FA8
:1013C000261B80915F70909160706EE370E00E94C8
:1013D0002715269FC001279F900D11246CE370E014
:1013E0000E942715461B642F09F461E060936D701D
:1013F00060936670C0916D7020916F708C2F90E03B
:10140000821B910960914170709142706F5F7F4FB4
:101410006093417070934270009709F432CF97FF48
:1014200005C0233830F040E150E005C040E850E00E
:1014300002C040E450E05695479597FD019695957A
:1014400087950097C1F74617570708F01ACFC217BC
:1014500010F4CFEF03C02C1710F4C1E0C20FE091DD
:10146000707084E0E89FF0011124EA55F445028091
:10147000F381E02D8FEF8C0F0995882331F0D09107
:101480006D708C2FD8DAD0936D70109241701092DD
:101490004270F7CE1530A1F480916F70893208F454
:1014A000F0CE90E08C1B9D0B8832910534F087398B
:1014B00091056CF186E990E02AC088E290E027C0AF
:1014C0001630B9F490916F7080916670981708F09B
:1014D000D8CEC90FD11D90E08C179D0734F0C832CB
:1014E000D10524F4C8E2D0E001C0EC01C0936D70D6
:1014F000C8CE173079F490916D7080916F70891714
:1015000010F48F5F04C0981708F0BBCE8150809311
:101510006D70B7CE133C19F0163C41F517C06091C1
:101520001D7070911E7080E090E020E0AB01082EED
:1015300002C0569547950A94E2F74170240F019630
:101540008830910599F7223008F041C081E09091F0
:101550000C70911180E080930C7049DAD6DA80919A
:101560006F7090E0B9D880930A7099CE009117708F
:1015700001112DC0133B49F4CD2B09F082CECC20B4
:1015800011F086E9E82E8E2D04C0133E21F48091DF
:101590000A70C5DA1DC0173B29F460E070E08AE5E7
:1015A0009BE013C01A3C59F480916F7080931A70BD
:1015B0008091707080931F701ADA99DA09C01A3B13
:1015C00031F460E070E082E69BE05ADD01C001E0AA
:1015D000802FDF91CF911F910F91FF90EF90DF90BF
:1015E000CF90BF9008950F931F93CF938B01C42F7B
:1015F000883091F4809170708093407010923F70A9
:1016000080E019DA8091727081114FC080913F7033
:101610008F5F80933F7033C0982F907F903B21F570
:1016200080913F704817E8F08150883040F49091E5
:101630006370992321F090917070891322DCC801A6
:101640006DE570E00E942715069749F480913F7080
:101650008F5F80933F70C81740F188E303C082E139
:1016600001C080E0E8D921C0903E79F480913F70BC
:101670008823A1F0481790F08091407002DC60E070
:1016800070E080E098E0FCDC10C08A3049F46091A2
:10169000577080913F70F9010995A9D988DC05C080
:1016A000893019F480914070ECDB80E0CF911F917C
:1016B0000F91089521E333E043E095CF21E333E038
:1016C00044E091CF28E237E045E08DCF28EA34E0CE
:1016D00042E089CF21EB34E042E085CF2CEC34E0CE
:1016E00041E081CF2FEC34E043E07DCF91E0909357
:1016F000637025ED34E048E076DF10926370089562
:10170000CF93C0911770C11123C0813C29F460E0D0
:1017100070E085EF9BE006C0823C31F460E070E051
:1017200087EC98E0C5DC15C0833C51F480912070B3
:1017300090E00196877099278093207058D909C04E
:10174000873B31F460E070E086E69BE099DC01C005
:10175000C1E08C2FCF910895CF93833C21F5409128
:10176000707060911D7070911E70842F98E0282F0A
:1017700030E02F5F3F4F27703327822FFB0102C0DD
:10178000F695E7952A95E2F7E0FF0AC04817B9F009
:1017900078DB8091707080931C7029D9C0E010C0F4
:1017A000915029F7F3CFC0911770C11108C0893B40
:1017B00031F460E070E086E79BE062DC01C0C1E0EC
:1017C0008C2FCF91089590912170992369F0809387
:1017D0005A7088E08093587081E0809359708091AE
:1017E0006F7080935B70089526C90F931F93CF93FA
:1017F0008B018830A1F480E0E6DF80915970082BDE
:101800001092677080911C7080937070109262705B
:10181000012B09F05FC081E0809371705BC0813063
:1018200059F46931710508F455C0C0915970C1115E
:1018300051C080937170FFC0833069F580916770EB
:101840008F3F19F08F5F8093677080911A708823A3
:1018500071F040911B7022EC31E0429FC001439F28
:10186000900D11240817190710F00E94DC03B8012D
:10187000809130700E94080480913370882351F168
:1018800042EC51E0849F9001859F300D1124201778
:10189000310700F553C0813B99F481E090E00E944C
:1018A0006C0391DF80911970811114C080910C70CC
:1018B000811103C00831110568F061E070E02AC0B1
:1018C000813ED9F3813841F480910A7090E00E9402
:1018D0006C0379DFC0E0AFC0813C21F460910A70F5
:1018E00070E018C0823B81F41092677080910D7097
:1018F00090911770911180911870811103C086E941
:1019000090E0E5CF86E9E5CF823E59F0823C29F4AC
:1019100066E970E081EE98E00CC0833921F4109202
:10192000597080E0D6CF833C31F460E070E080E80D
:101930009BE0BEDBCFCF843C31F4D9D860E070E0CF
:1019400080E29DE0F6CF8D3B31F491E088ED84BFDD
:1019500090934100BFCF8F3C29F460E070E086EAAD
:1019600094E0E7CFC09117708A3B79F4672B69F454
:10197000CC2329F0BCD81092177039D8ABCF60E0D7
:1019800070E08EE59BE07CDB56C0C11153C0833B09
:1019900029F460E070E08EE39FE04AC0873CB1F438
:1019A00080913070982F92959F709F5F937040E167
:1019B000949F900111248F70822B8093307060E08F
:1019C00070E00E94080413D892D835C0873BD9F440
:1019D00081E080936870C8018F739927892B69F41F
:1019E00090913070892F8F708F5F292F207F6BE04F
:1019F0000E941B15922B90933070B801809130702B
:101A00000E94080418C0873E19F41092687006C03E
:101A10008A3C39F46CD881E0809317700E94F704F7
:101A20000AC0863C39F463D860E070E08EED90E146
:101A30003FDB01C0C1E08C2FCF911F910F91089522
:101A40000F931F93CF93DF93C82F8B01873B21F414
:101A500080E00E941B0582C080798039B1F420911A
:101A60000E7090910F708C2F8F70813021F4822F27
:101A7000921748F407C080911A70811104C0822F18
:101A8000291708F4892F9FDE0FC0803811F480E0F9
:101A90009ADEC83049F41092677060E070E080917F
:101AA00031700E9408045AC0C13039F4093111055F
:101AB00008F49DC0C09371701BC0C330F9F48091CD
:101AC00067708F3F19F08F5F8093677080911A70F5
:101AD000882371F040911B7022EC31E0429FC001DD
:101AE000439F900D11240817190710F00E94DC0382
:101AF000B801809131700E94080479C0C33C39F468
:101B00000E94770560E070E085EF9BE015C0C43C63
:101B100021F460910A7070E00DC0C43B39F40E945A
:101B200085051092CE7061E070E004C0C53C31F4D0
:101B300066E970E081EE98E0BBDA59C0C33B71F40E
:101B4000C8016EE370E083D7892B41F460E070E058
:101B500083ECDF91CF911F910F91FECDD091177043
:101B6000D11147C0C73CC1F480913170982F929534
:101B70009F709F5F937040E1949F900111248F703C
:101B8000822B8093317060E070E00E9408040E9414
:101B9000F7040E9477052EC0C73BD1F481E0809303
:101BA0006870C8018F739927892B61F49091317007
:101BB000892F8F708F5F292F207F6BE03CD7922B6E
:101BC00090933170B801809131700E94080412C066
:101BD000C73E29F4109268700E94F7040BC0CA3BFC
:101BE00041F460E070E08EE69BE04ADA03C0D0E0AA
:101BF00001C0D1E08D2FDF91CF911F910F910895FA
:101C00000F931F93CF93109274708091CC7090912A
:101C1000CD709C012F5F3F4F88279078822B932BAC
:101C20008093CC709093CD70C09172700E94F4013B
:101C3000C81731F110927170809372709091CE70CC
:101C4000882359F0892F80699F709F3009F08F5F3A
:101C50008093CE7080E090E00DC0892F8F7E95FD3F
:101C600002C0806801C0806C8093CE708091CC707F
:101C70009091CD700E94BD011092CC701092CD70E9
:101C80000091CC701091CD70809171708823B1F06B
:101C9000B80183E00E946C010E94860101341105A5
:101CA00028F00F701127012B09F047C010924370E4
:101CB00081E080939B700E94E00132C0C091CE70A1
:101CC0008C2F807F803B19F460E070E001C0B80188
:101CD00081E00E946C01C4FF13C0C5FF02C0C801AF
:101CE0000CC008311105E0F01092CC701092CD704C
:101CF000C062C093CE7080E090E00E94BD0110C031
:101D0000CC2371F0C5FD0AC00231110548F0C06452
:101D1000C093CE7080E090E00E94BD010E94C1019E
:101D2000C0914370C11105C00E94630181E080939E
:101D30008F70CF5FCF71C0934370CF911F910F9180
:101D4000089580919A7081110E94B00580917470FD
:101D5000811156CF0895EF92FF920F931F93CF9367
:101D6000DF93EC0108E51BE086EDE82E82E0F82E1B
:101D70002097D9F080916970811119C080916F709E
:101D8000883228F483E00E945801C70104C080E033
:101D90000E945801C8010197F1F780E00E945801A4
:101DA000D0DF0E9486012197E3CF81E001C080E06F
:101DB000DF91CF911F910F91FF90EF9008950F93B6
:101DC0001F93CF93DF93C82F882311F006EA02C038
:101DD0000AE0C1E0D091707010E08091207051D87D
:101DE00089E10E941B05D0937070C801B4DF809117
:101DF000207047D880E00E941B05D09370708AEF56
:101E000090E0A9DFC15049F78D2F3BD88AE992E0D5
:101E1000DF91CF911F910F919ECFCF93DF9364E617
:101E20000AD6282F892F6AE006D6EC01222341F03A
:101E3000822FC5DF8C2FC3DF8D2FDF91CF91BFCFD6
:101E4000C111F8CFF9CFCF93DF93D82FC3E08091A2
:101E50000A700E941B0588EC90E07DDFDD2319F0FD
:101E600080E991E078DF80E00E941B0588EC90E03B
:101E700072DFC15061F7DF91CF910895FF920F9308
:101E80001F93CF93DF93D82F8B01C0915C7081E0BB
:101E900080935E70C43009F0ECC0F09062708D2FBA
:101EA00004D8FF2051F080916270811106C060E07B
:101EB00070E085EF9BE0FCD8DCC0D83021F481E0F5
:101EC00080930370D8C0D23C19F410926270E5C0C0
:101ED000D13BC1F490910270012B49F49F3510F071
:101EE0008FEF03C0923018F481E0809303708091EB
:101EF0000370890F11F481E04BC1803608F448C1AA
:101F00008FE546C1D13E31F4809103708195809375
:101F100003700EC1D23B61F481E080930370809125
:101F20000270823008F40CC181508093027008C1A5
:101F3000D13009F0B6C00932110511F4D093037005
:101F400090913B70892F880F97FD80952CE0829FA0
:101F5000C001112430913A70232F220F37FD2095B4
:101F600080910170289F90011124232F290F9091B7
:101F70003970892F880F97FD809590910070899F07
:101F8000C0011124822F890F6091027070E0680FE8
:101F9000711D809162708130B9F480915F70909171
:101FA000607025E0969587952A95E1F724E730E063
:101FB000A901481B590B469FC001479F900D569F92
:101FC000900D1124B90143D5862F0E941B0500FDF9
:101FD00008C00E94FC01817090913B70890F809332
:101FE0003B7090913A7080913870890F80933A706D
:101FF0000E94FC0165E21FD580913970980F909383
:1020000039700E94FC018F7331F40E94FC016DE075
:1020100012D590933870C0910170CC2339F00E9492
:10202000FC018F7319F4C150C09301700E94FC0130
:10203000811108C00E94FC0162E1FDD490930170FF
:1020400010923A70C0910070C33038F00E94FC01C9
:102050008F7119F4C150C09300700E94FC018F77FA
:1020600009F09AC00E94FC016AE0E5D490930070E8
:1020700093C0D83041F48091227080935C7081E0ED
:102080008093047087C0D13C31F460E070E085EF4C
:102090009BE00ED87FC0D23C31F48C2F90E00196AB
:1020A00017C0D13C91F3D33C71F4809170708F5F75
:1020B00087700E944107EC2FF0E0E45FFF488091B9
:1020C0007070878B5EC0D43C59F48C2F90E00596DD
:1020D00066E070E0D0D48093227080935C7051C031
:1020E000D13B21F5C23090F400FD54C0EC2FF0E05C
:1020F000E45FFF48858D90910470891B883020F043
:102100008F3F69F58EEF2BC088E029C0C53009F0FC
:1021100041C090912B7080910470890F823010F42F
:1021200082E026C0893720F188E722C0D13E31F411
:102130008091047081958093047023C0D23BF9F4A0
:1021400081E080930470C23060F400FD23C0EC2F66
:10215000F0E0E45FFF48858D8F3FE1F08F5F858F72
:1021600019C0C530B9F480912B70833018F08150BC
:1021700080932B7080912B700E941B050BC0D23E68
:1021800019F40E94F70406C0D13031F081E010C08C
:102190008093027080E00CC00932110519F481E0CF
:1021A0008093047080916C70080F00936C70F2CF74
:1021B000DF91CF911F910F91FF900895FF920F93A0
:1021C0001F93CF93DF9300D01F92CDB7DEB78B83E1
:1021D0008B01F0900A7080798983803951F5EB8109
:1021E000EF70E43020F010925D701A8273C091E0BD
:1021F00090935D70F0E0E45FFF4887A12FEF280F18
:10220000263948F480930A7010925E7080911C7099
:10221000809370700CC090935E70873940F190E0AD
:102220008759910966E070E026D480935C701A8229
:102230000EC08981803849F410925D7080E00E9460
:102240001B0581E08093697001C081E08A838091E1
:102250005D70882309F43EC08B81883051F48091F1
:102260005E70882331F0B80188E008DE02C01A826F
:1022700003C08981803951F481E080935D70809141
:102280005E70811127C080910A7006C089818038F4
:1022900031F410925D7080E00E941B051BC08B81A1
:1022A0008130C1F480915D70882349F080915E7027
:1022B000882309F449C0B80181E0E0DD0BC080E06B
:1022C0000E941102073381E0180708F43DC08B819A
:1022D00080937170F0920A708B81883019F4B80184
:1022E000AFDB30C08B81813039F480915D7081111A
:1022F00027C0B80181E004C08B81833051F4B8015C
:102300002396CDBFDEBFDF91CF911F910F91FF903C
:1023100097CB8B81833CA1F0863C49F40E947705E2
:1023200060E070E085EF9BE00E94580809C08B8157
:10233000873B41F460E070E082E79BE00E94400848
:1023400080E005C08A8103C0F0920A70CECF239648
:10235000CDBFDEBFDF91CF911F910F91FF90089508
:102360001F920F920FB60F9211242F933F938F93CA
:102370009F93AF93BF93EF93FF9381E080930D06FC
:10238000809199708823F9F0E0919870209110065F
:1023900030911106F0E0EE0FFF1FDF01AC56BF4891
:1023A0002D933C93E057FF488081918182179307DA
:1023B00008F401962817390708F401978083918360
:1023C00081E080939A7081E080939970FF91EF9102
:1023D000BF91AF919F918F913F912F910F900FBE21
:1023E0000F901F9018951F920F920FB60F92112405
:1023F0008F9381E080935301809374708F910F903D
:102400000FBE0F901F9018951F920F920FB60F924C
:1024100011248F937C9A81E0809373708F910F9039
:102420000FBE0F901F901895F8941092400088ED01
:10243000A89584BF90910001907F9093000129E1BD
:1024400030E084BF209368008FE880B980EE8CB9BB
:1024500088E080931304909104049860909304049E
:102460008093140480931504809351048093520444
:102470008093530489E08093740484E0809376040D
:102480001092B20081E48093A0061092A2061092EE
:10249000A3061092000A1092000B1092100B1092DB
:1024A000800B8091740481608093740481E0809338
:1024B0005201809151018111FCCF81E48093500140
:1024C0000E94E001789481E00E94CB0160E070E01E
:1024D00088E798E00E944008109269700E94770592
:1024E0000E94F401811117C08CE090E780936A701C
:1024F00090936B7082E00E94CB01F89480E090E0B2
:1025000008D3853A09F040C000916A7010916B7051
:10251000C1E0D0E030C0C0E08C2F0E941B0583E1F9
:1025200090E019DC8C2F86950E941B0583E190E0DA
:1025300012DC0E94F401882399F0CF5FC03461F768
:1025400065E181E00E94B1040E94F704C6E98C2F86
:102550000E941B0584E090E0FEDBC150C1F7C4CFB0
:10256000CC2309F4C1CF8C2F0E941B058DE090E095
:10257000F2DBC150F5CFCE01CCD2F80181938F01AF
:102580002196CC32D105B9F7789480911A708111D7
:102590000E94DC0360E070E08CEA9BE00E9440084F
:1025A00061E070E085EF9BE00E94400899249394DD
:1025B00042E0242E51E4352E4424439467E0862ED5
:1025C0007DE0572EE8EEAE2EE3E0BE2EF5EFCF2EE7
:1025D000FBE0DF2E0E9486018091777090917870E9
:1025E000009751F060917570709176700E94580854
:1025F000109277701092787080917170882309F42E
:1026000064C080E00E941B059092520180915101AC
:102610008111FCCFF9E5F0935001809100068E7F87
:10262000809300060E94F4018111FCCF0E94C10139
:102630008091740481608093740410929A70109257
:1026400074701092737080917170882369F1809119
:102650009B70882329F080915000897F826004C09C
:1026600080915000897F8460809350008091500059
:102670008160809350008895809150008E7F809378
:1026800050008091737081111092717080919A70D6
:10269000882321F040928F700E94B0058091747061
:1026A000882389F2ADDACFCF20920B708091740429
:1026B000887F809374040E94E0019092520180917F
:1026C00051018111FCCF309250013BDB10926970B7
:1026D00080918A7090918B7028E0813E920751F42E
:1026E000C0916F700E94F503C53108F0880F0E94F9
:1026F000110255C1E4E0863A9E0719F5C0E9D0E021
:10270000FE0184918053803110F459DB11C010E038
:10271000812F81708295880F807E0E941B0580E149
:1027200090E019DB1F5F193199F78AE992E013DB1A
:102730008CE291E010DB2196F0E0C83ADF0701F768
:10274000F3C02FE08E33920779F0E0E18E3D9E07D3
:1027500009F0D2C080915E70813009F020C1809173
:102760005D70882309F41BC1C0915C70EC2FF0E010
:10277000E45FFF48878980937070C230D1F030F0F9
:10278000C330B9F1C53009F49AC024CFD58D86E99C
:102790000E941B05C11103C081E090E003C08D2F92
:1027A000869590E0D8DA81E00E941B058D2F90E09D
:1027B0002FC1D0910A70C0E0C11102C081E003C0F6
:1027C000C53019F485E00E9441078D2F0E941B053A
:1027D00081E290E0C0DA81E00E941B0582E490E093
:1027E000BADACF5FCA3041F780911C708093707065
:1027F000F1CE0E94FC018F73E82EF12C0E94FC01A7
:10280000682D19D101E010E0380102C0660C771C78
:102810009A95E2F70E94FC0165E00DD1E80102C043
:10282000CC0FDD1F9A95E2F76C0E7D1E0E94FC0115
:1028300090E0B30120D1E301C80FD91FC739D105FA
:1028400014F0C6E9D0E08C2F0E941B05C70183DA83
:102850008E0133E0159507953A95E1F7011101C016
:1028600001E010E0C70177DAC01BD10BD7FF02C02F
:10287000C0E0D0E08C2F0E941B050E94FC018370F9
:1028800039F4C70168DACE01959587950E941B053A
:10289000C230D1053CF70E94FC01652DCCD0C1E0CF
:1028A000D0E002C0CC0FDD1F9A95E2F70E94FC0138
:1028B00090E0BE01CCD0C80FD91F80E0A6C0C09167
:1028C0002B70CC0FC73908F0C6E9D4E08C2F0E94DA
:1028D0001B0585E090E03FDA80912B700E941B057C
:1028E00081E490E038DAD15089F780ED92E033DA74
:1028F00080E00E941B056ECEFBE080389F07E9F464
:1029000088EE93E028DA80918E70C5E06C2F93D02A
:1029100084DA80918E706C2F8ED0892F880F7DDAAB
:1029200080911770882381F0C0927770D092787070
:1029300010927570109276704DCE28E0873C920709
:1029400031F480918C7069DA88EE93E061C0E8E040
:102950008E399E07C1F48091727081113BCE8091B7
:102960000A700E941B0584E690E0F5D980E00E9481
:102970001B0520912C702A9DC0012B9D900D1124C8
:102980008456910945C08656984049F480E05BDA48
:1029900081E059DA80E057DA80ED97E039C0809124
:1029A00021708823B9F180915970882399F1209181
:1029B0006F7090915A7029130AC0822F0E941B05D4
:1029C0001092597080915B7080936E7003CE60910D
:1029D0005870291760F4892F821B2DD0811101C0F6
:1029E00081E0820F0E941B058AE090E011C08EE119
:1029F000689FA001112460915B70691B70E0CA019F
:102A00003AD0EB0121968FEF820F0E941B05CE0179
:102A1000A2D9E0CD80915000897F809350008091B1
:102A200050008160809350008895809150008E7F87
:102A300080935000CFCD991B79E004C0991F961761
:102A400008F0961B881F7A95C9F780950895AA1BF0
:102A5000BB1B51E107C0AA1FBB1FA617B70710F089
:102A6000A61BB70B881F991F5A95A9F780959095BB
:102A7000BC01CD01089597FB072E16F4009406D0F3
:102A800077FD08D0E4DF07FC05D03EF490958195F2
:102A90009F4F0895709561957F4F0895A1E21A2E7A
:102AA000AA1BBB1BFD010DC0AA1FBB1FEE1FFF1FF2
:102AB000A217B307E407F50720F0A21BB30BE40B42
:102AC000F50B661F771F881F991F1A9469F7609589
:102AD0007095809590959B01AC01BD01CF01089543
:102AE000A29FB001B39FC001A39F700D811D11244F
:102AF000911DB29F700D811D1124911D0895F0DF6D
:102B0000A59F900DB49F900DA49F800D911D112441
:102B1000089503D0808199270895FC01E050FC4E70
:102B20000895262FFADF0080021611F004D00197D5
:102B300001970895262FAF93BF93E0E0F0E1328133
:102B400031FDFDCF3DE934BF33E13083DC01A050DE
:102B5000BC4E2C933DE934BF20E020830196BF9109
:082B6000AF910895F894FFCF36
:102B68000001020E701170147002010000000000D4
:102B780000000100000000000000000100002D011D
:102B8800320237033C0441054606500764009101B0
:102B9800A502AF03B904C305CD06DC07FF079C02F5
:102BA800E90270029A0276029A027C029A02820272
:0E2BB8009A0288029A028E029A0294029A02EF
:102BC6000A1218010101000482013202000101010A
:102BD6001482827801070500000000000001000051
:102BE6000001040000000000002943320207320001
:082BF60019390400781E980053
:00000001FF
