:1000000037C1000052C1000050C100004EC10000C5
:100010004CC100004AC100000C94101246C10000FF
:100020000C94211242C1000040C100003EC10000FA
:100030003CC100003AC1000038C1000036C10000D8
:1000400034C1000032C1000030C100002EC10000E8
:100050002CC100002AC1000028C1000026C10000F8
:1000600024C1000022C100000C94CD111EC100006B
:100070001CC100001AC1000018C1000016C1000018
:1000800014C1000012C1000010C100000EC1000028
:10009000303136312E323032332D31322D30332B58
:1000A0003531233100000105041410111500000042
:1000B0000000000000000000000000000000000040
:1000C0000000000000000000000000030303030321
:1000D0000303030303000000000000000000000011
:1000E0000000000000000000000000000000000010
:1000F0000000000000000000000000000000000000
:1001000000000000000000000000000000000000EF
:1001100000000000000000000000000000000000DF
:1001200000000000030303030303030303030303AB
:10013000030303030303030303030303030303038F
:1001400003030303000500060009000C001000155E
:10015000001C0023002C0037004400530065007988
:10016000009000AA00C800EA000F01390168019C54
:1001700001D60116025B02A802FC025703BA03B2C1
:1001800001E20116024E028A02CB0210035A03AAB0
:1001900003FF0314001500170019001B001E0020A8
:1001A000002300250028002B002E003100350038E8
:1001B000003C004000440049004D00520057005DE3
:1001C00000620068006E0074007B0081008900906E
:1001D000009800A000A800B100B900C300CC00D670
:1001E00000E100EB00F70002010E011A01270134C3
:1001F00001420150015E016D017D018C019D01AE46
:1002000001BF01D101E401F7010A021F02330249D3
:10021000025F0275028D02A502BD02D602F0020B3A
:1002200003260342035F037C039B03BA03D903FA4B
:1002300003AE01BC01CB01D901E801F801080218A5
:1002400002280239024B025C026E0281029402A76C
:1002500002BB02CF02E402F9020E0324033B035166
:1002600003690381039903B203CB03E503FF030092
:1002700011241FBECFEFCDBFDFE7DEBF10E7A0E048
:10028000B0E7ECE4FCE202C005900D92A833B107A0
:10029000D9F720E7A8E3B0E701C01D92A03DB2075F
:1002A000E1F70E9431120C94F515AACEF89498ED5E
:1002B00094BF809361008091650080FDFCCF7894AD
:1002C0000895E0E0F6E0848581608487828581601E
:1002D00082870895EDE9F0E720E030E090819923EE
:1002E00039F02F5F3F4F339620313105B9F70BC0FE
:1002F000F901EE0FFF1F2E0F3F1FF901E356FF48D4
:1003000080836183728308950F931F93CF93DF934C
:10031000D0919D70DD2351F100919E7010919F70DE
:10032000C0917A70C150C7FD0DC0EC2FEE0FFF0BCE
:10033000E558FF480190F081E02DB8018D2F099517
:100340008111F0CFEDE9F0E783818083848195818D
:1003500081839283339680E7EA3CF807A9F71092ED
:10036000CA701092CB701092CC70D2CFDF91CF9127
:100370001F910F910895BC018091CF70ABCF109267
:10038000CF701092CD701092CE7081E08093697022
:1003900008950F931F93CF93C82F05E11CE0CC2342
:1003A00049F083E083DFC8010197F1F780E07EDF49
:1003B000C150F5CFCF911F910F9108951092B000C9
:1003C000E0E0F6E082E9808384E0818381E082835B
:1003D00089E180878081816080831092997010927A
:1003E0009A706FCF82B18295817091E08927809356
:1003F00073700895E0910670F09107703196FB706C
:10040000F460E0930670F093077080916C708B5AE3
:1004100080936C70E49180916C708E0F08958823A6
:1004200049F0813069F480E88093020488E0809389
:100430001704089580E880930104809306040895CA
:1004400080E880930104809305040895FF920F9340
:100450001F93CF93DF9300D01F92CDB7DEB72091CB
:10046000EEAB3091EFAB4091F0AB29833A834B83F5
:100470008E010F5F1F4F20E030E0682F70E0E1E059
:10048000F0E098E0F92ED8019D918D01A901440F6B
:10049000551FDB0102C0B595A7954A95E2F7AD015E
:1004A000437081F04130C9F4A92FB0E0AF0102C020
:1004B000440F551F9A95E2F740930204A05FBB4F8B
:1004C000FC9215C0AF0102C0440F551F9A95E2F788
:1004D00040930104409306040AC0DF0102C0AA0F42
:1004E000BB1F9A95E2F7A0930104A09305042F5F28
:1004F0003F4F2330310539F62396CDBFDEBFDF9164
:10050000CF911F910F91FF900895811102C081E05A
:1005100001C082E09BCF811102C085E001C08AE06A
:1005200095CF811102C084E001C088E08FCF811196
:1005300002C084E101C088E289CF811102C080E15C
:1005400001C080E283CF811102C081E101C082E25B
:100550007DCF811102C085E101C08AE277CF81E0C1
:100560000895CF93C82F80916E70882319F08C174F
:1005700008F4C82F8091727081110BC067DF91E081
:10058000C11101C090E081E0C33308F480E0890F1D
:1005900046DFC1111DC01092A2061092A306109250
:1005A000B200809164048F7D809364048091640420
:1005B00080618093640483E0ECDE809164048F7E2C
:1005C00080936404809104048F7B809304040EC0A4
:1005D000E091717084E0E89FF0011124E45DF3453F
:1005E0000190F081E02D8FEF8C0F09958091707054
:1005F000C81380936F70C0937070C0936D70C832D1
:1006000010F483E005C0C83211F481E001C080E03D
:10061000CF914CCE90E0FC01E355FF4FE491209147
:10062000B200E2132BC02091A2063091A30676E01F
:10063000369527957A95E1F7FC01EE0FFF1FED5BEC
:10064000FE4F459154912417350718F42F5F3F4F03
:1006500005C04217530710F421503109C90166E063
:10066000880F991F6A95E1F78093A2069093A306DD
:1006700081E02417350719F080E0089581E008959E
:1006800010929B7080919B708823E1F3209195706C
:1006900030919670C901A0E0B0E09C01AD012150FD
:1006A0003F4F4F4F5F4FABE2B0E00E94C21520E0DA
:1006B00032E340E050E00E949115822F0895CF93DD
:1006C000DF93CDB7DEB72697CDBFDEBF90910C701C
:1006D00020918B7030918C7022573B4009F492E04E
:1006E000843019F4609318701FC06623E9F08230DB
:1006F00019F427E9261B622F26E0E1EFFBEADE0171
:10070000119601900D922A95E1F79E012F5F3F4FC0
:10071000280F311D280F311DF90132970190F0810A
:10072000E02DE90FF11D60832696CDBFDEBFDF917E
:10073000CF910895BF92CF92DF92EF92FF920F93E5
:100740001F93CF93DF93EC0140910C709091177041
:10075000992311F0E2E001C0E42FF0E0E45FFF48EC
:10076000228120930970858180930870E92FF0E041
:10077000E45FFF483185622F70E0442349F0313057
:1007800039F49B01280F311DC9019595879538C013
:10079000C617D707A4F1682F70E06C177D0784F1A6
:1007A000411102C08C2F2CC0821B032F10E001507E
:1007B0001109E82EF12CC701B8010E947E15609343
:1007C00066706695E62FF0E0822FC12CD12CB12CFB
:1007D000B316B1F0C601B8010E946A15822F860FC8
:1007E000CE0CDF1CAE01481B510957FF03C05195C9
:1007F00041955109E417F5071CF4B394E9CF822F12
:10080000DF91CF911F910F91FF90EF90DF90CF90EC
:10081000BF900895ECE0F0E7868580930A708389A5
:10082000808B80937170089580916270882351F05D
:1008300090917070909365708093617010925F706A
:100840001092607008950F931F93CF9390918F70C3
:10085000992351F026E9290F273210F0933220F422
:1008600080E0F4DD80E09CC0E82FEF7020916370A1
:10087000211123C0C82FC295CF702091327088E01B
:10088000289F9001112462177307C0F4809168704B
:10089000482F50E0421753078CF4882379F021E069
:1008A00080916F708F3008F420E081E0C23009F051
:1008B00080E0822BC1E0C80F36C0C2E0E73088F18B
:1008C000E730A9F400913D7010E00F5F1F4F92DDFB
:1008D00065E00E945E159801290F311DC90166E08F
:1008E00070E00E947E1580933D70FC013AC0E830B4
:1008F000D1F480917270882311F02FE001C023E0C1
:1009000030E062237323672B51F480913D7090E0B7
:10091000019666E070E00E947E1580933D70E09144
:100920003D70F0E01EC080917270882381F080E0FD
:10093000E82FF0E0E65FF3452081921710F08E5F1C
:10094000F7CF3197E081F0E0EB55FF4F0CC0CB01C2
:100950009695879563E070E00E946A15FC01EE0FA2
:10096000FF1FEA55FF4FE491C33071F480913C7052
:1009700090E0019663E170E00E946A1580933C70FC
:10098000DC01A950B445CC91CC2329F0C13029F029
:10099000EE0FC2E002C0C0E0E0E08E2F57DD8C2FEA
:1009A000CF911F910F913BCDCF93C091707089E192
:1009B0008C0F873908F080E0D4DD82E0EADC8C2FF0
:1009C000CF91CFCDCF93C091707080E0CADD83E02E
:1009D000E0DC8C2FCF91C5CD81E00895823019F4F1
:1009E000609332700895611160932D7008956623AD
:1009F00089F0813061F480918D7090912F70891B06
:100A0000681B60932F7082E080930B7003C0635E5D
:100A100060932E7080912E70873418F086E4809356
:100A20002E700895609333700895E82FF0E0E45F2E
:100A3000FF4867A308957FEF780F40911D70509194
:100A40001E70662359F021E030E002C0220F331FF0
:100A50007A95E2F7CA01822B932B0AC081E090E0DD
:100A600002C0880F991F7A95E2F780958423952319
:100A700080931D7090931E7008958093677090917D
:100A80007070981718F4282F291B02C0292F281BD3
:100A900030915970311106C030912170332369F0C3
:100AA000223058F080935A7084E08093587081E02F
:100AB0008093597090935B70089553CDCF93DF93DB
:100AC0008CE090E780936A7090936B7082E061DCB9
:100AD000F894C0E0D0E0E0916A70F0916B70EC0F98
:100AE000FD1F60812196CE010E94D415CB32D10525
:100AF00091F765EA80E090E00E94D4157894DF9148
:100B0000CF910895CF93DF9390917170981759F01A
:100B1000C82FD091707080E024DDC09371708D2F4C
:100B2000DF91CF911ECDDF91CF910895909170709C
:100B3000911109C0893238F49091640490619093C6
:100B4000640491E001C090E02091040420642093AB
:100B50000404282F30E0F901EE0FFF1FED5BFE4F7C
:100B60004591549166E0440F551F6A95E1F7F901EC
:100B7000E355FF4FE491883220F080916404806255
:100B800003C0809164048F7D809364044093A20627
:100B90005093A306E093B200992339F083E0F9DB88
:100BA000809164048F7E80936404089510929B70FA
:100BB0008091100690916C70890F80936C70809179
:100BC0009070882309F469C1109290709091997087
:100BD00080917270882349F0809100068E7F809307
:100BE000000610929C701092997091117BC08091B8
:100BF0000B70882329F020919570309196701AC05F
:100C00002091727080919170909192702223B9F02E
:100C1000209195703091967053E0369527955A95AE
:100C2000E1F7280F391F63E0969587956A95E1F7FC
:100C3000281B390B209391703093927001C09C0156
:100C4000C901A0E0B0E09C01AD0121503F4F4F4FE2
:100C50005F4FABE2B0E00E94C21520E032E340E01B
:100C600050E00E94911580912D708750880F280FB9
:100C700020938F7080915670882311F081500BC0A3
:100C800086E9820F873210F0233238F460E070E09A
:100C900084E020DB85E08093567080917270811132
:100CA000F3C081E08093B00092E49093080690E452
:100CB0009093030690E29093050692E190930006CC
:100CC0001092010694E090930106809302069091A1
:100CD00000069160909300068093997010929A702C
:100CE000F0DAD2C0913009F0CFC080910B70882328
:100CF00041F0809197709091987080939370909349
:100D00009470A0910411B0910511209106113091B9
:100D1000071184E0220F331F8A95E1F780919370C9
:100D200090919470281B390B0E94B315DC01CB0104
:100D3000905EAF4FBF4F2AE0B695A79597958795E0
:100D40002A95D1F720912F70FC0136E0F695E795B2
:100D50003A95E1F7022E000C330BA90143515140A3
:100D60004E0F5F1F40938D7050938E70BC0145E015
:100D7000769567954A95E1F780910B7081112AC0AD
:100D800080914570E82FF0E0EE0FFF1FEA5BFF480F
:100D900040815181DB01A41BB50BAD0160837183E0
:100DA0008F5F87708093457080912E7090E08D5E8C
:100DB0009E4F821B930B880F991F9B01281B390B99
:100DC000C9019D01220F331F220F331F820F931F72
:100DD00023E00EC0E6E4F0E76193719380E7E63527
:100DE000F807D1F7CDCF009709F00196215029F0EF
:100DF00018161906C4F70197F9CF18161906E4F466
:100E000057FD39C02091447012160CF1880F991FBC
:100E1000BC016350710977FF02C06F5F7F4F75950A
:100E200067951616170614F061E070E088E1861BDE
:100E30008093447085E026C08C3FAFEF9A07DCF4C6
:100E400057FF19C02091447027FF05C02450281B6C
:100E50002093447018C024EE281B209344702091E6
:100E60008F70233980F06CEF7FEF681B790B7595DD
:100E7000679586E007C080918F70823920F060E02E
:100E800070E087E027DA9ADA80910B70882329F0E6
:100E900080910B70815080930B700895813019F40C
:100EA00010921A700895823019F460931B7008959F
:100EB000833019F4609319700895843019F46093A5
:100EC0000D700895853011F4609321700895CF93CB
:100ED000C0911770C1114FC0883039F41092627000
:100EE00010925F701092607047C0813B81F48091D6
:100EF00062708150833008F03EC083E0809362705E
:100F00008093617010925F701092607034C0853B66
:100F1000B1F4CB016EE370E00E946A15892B61F594
:100F2000809162708A3F40F58B5F809362708093FE
:100F3000617010925F701092607036DD1DC081305C
:100F4000D1F480915F7090916070019688382EE0A6
:100F5000920728F480935F70909360700DC0109298
:100F60005F701092607080916270882329F08150C8
:100F70008093627001C0C1E08C2FCF910895FF92E1
:100F80000F931F93CF93DF938C01EB01F42E80918D
:100F90008B7090918C70892B31F0E0918B70F09177
:100FA0008C7089E0099500938B7010938C70012BE5
:100FB00039F0E0918B70F0918C70BE018F2D099506
:100FC00081E080936970DF91CF911F910F91FF9025
:100FD0000895CF93DF93E0917A70EE2359F0E150BA
:100FE000E0937A70F0E0EE0FFF1FE558FF48C081F4
:100FF000D18102C0C0E0D0E0E0917A70EE2341F0F0
:10100000F0E0EE0FFF1FE758FF488081918102C09A
:1010100080E090E04AE060E070E0B1DFCE01DF9177
:10102000CF910895883029F41092577010923E7035
:1010300015C0813001F590913E70911107C060326A
:10104000710570F180933E709AD92AC0913089F46D
:101050006B3B710528F082E080933E7080E01FC0FA
:1010600061157105E9F06270862F880F880F8E5E1A
:1010700016C0AFDF15C0813811F0813E89F491E0D0
:1010800090933E70813E21F480915770865F03C03B
:10109000809157708F5F8093577071D98BE461DABC
:1010A00080E008959C0190917A70983088F4E92F3F
:1010B000F0E0EE0FFF1FE558FF48208331839F5F6C
:1010C00090937A7048E0C9015ADF80917A70089550
:1010D0008FEF08950F931F93CF93DF93EC018B0154
:1010E00078DFB801CE01DF91CF911F910F91DACF58
:1010F000813C29F460E070E08AE09CE006C0823C1C
:1011000039F460E070E084E99BE0E4DF80E008957A
:1011100081E00895843011F580918B7090918C70EE
:101120002FE08835920729F469E170E083EF98E0B9
:1011300013C0835F984061F490917070923040F0DA
:10114000892F869596959695890F97DC80E008956E
:1011500060E070E08AE09CE0BDDFF8CF81E00895B8
:10116000813C29F460E070E08AE09CE006C0823CAB
:1011700031F460E070E088E798E0ACDF16C0813BB6
:1011800049F4CB016EE370E00E946A15892B69F483
:101190000BDC0BC0813E59F4CB016EE370E00E9482
:1011A0006A156F5F60932C7089DC80E0089581E0A0
:1011B0000895813C29F460E070E08AE09CE006C07C
:1011C000823C31F460E070E080EB98E083DF07C0A0
:1011D000873B39F460E070E08EE79BE063DF80E0FE
:1011E000089581E00895BF92CF92DF92EF92FF922F
:1011F0000F931F93CF93DF93182FEB0180911C70F7
:1012000080937170D0900970F090087080910C708C
:10121000882319F0B090667002C0BB24B394C090CC
:101220000D70809117708111C0901870CC2051F012
:1012300041E0C41621F080910A708F1518F0F6E98C
:10124000EF2E01C0EF2C00916270BE01812F3FDEB6
:1012500020916270222339F001110CC080917070CE
:101260008093657007C0002329F060E070E08AE099
:101270009CE032C0183029F01A30B9F4C0910A70DD
:10128000D0E08D2D90E08C179D0738F48F2D90E0E5
:10129000C817D90710F4C0930A70CE014BDAEDDB02
:1012A00081E08093057000E0A5C1113CF1F2123C91
:1012B00059F4809170708E1510F48E2D02C08091BB
:1012C0000A70DBDBB1DAEFCF143C41F480E049D99E
:1012D00060E070E087E39DE0FDDEE5CF8FE4810F05
:1012E000823008F05AC080910C70882341F0CE0102
:1012F00068E170E00E946A15892B31F0D4CF6091CB
:10130000147070E0CE01F6CF009159700111CBCF6F
:1013100080917070209761F4123B11F48FEF05C03B
:101320008F15E0F7D81648F181E08093057025C04D
:101330002091147030E066E371E0269FA001279FA2
:10134000500D369F500D11244C175D0710F48F156A
:1013500028F76CE672E0269FA001279F500D369F6C
:10136000500D11244C175D0740F4D81630F01CDBEB
:1013700060E070E087E39DE0ADDE30910570209184
:1013800070704B2D3403C0011124820F911DD2D9EE
:1013900080930A7072DB48DA2DC18FE1810F8230B1
:1013A00020F48091057081957CCF113009F084C0C4
:1013B000A99711F410930570222371F1C091657003
:1013C000C29F90011124E0916170F0E0C901BF015A
:1013D0000E947E15462FC9018C1B9109BF010E94F6
:1013E0007E15242F261B80915F70909160706EE3B4
:1013F00070E00E946A15269FC001279F900D11245E
:101400006CE370E00E946A15461B642F09F461E0EA
:1014100060936D7060936770C0916D702091707073
:101420008C2F90E0821B9109609141707091427005
:101430006F5F7F4F6093417070934270009709F423
:1014400032CF97FF05C0233830F040E150E005C0AF
:1014500040E850E002C040E450E05695479597FDC3
:101460000196959587950097C1F74617570708F09D
:101470001ACFC21710F4CFEF03C02C1710F4C1E03D
:10148000C20FE091717084E0E89FF0011124E45DE7
:10149000F3450280F381E02D8FEF8C0F09958823AF
:1014A00031F0D0916D708C2F5CD8D0936D7010920C
:1014B000417010924270F7CE1530A1F48091707097
:1014C000893208F4F0CE90E08C1B9D0B8832910598
:1014D00034F0873991056CF186E990E02AC088E202
:1014E00090E027C01630B9F49091707080916770C9
:1014F000981708F0D8CEC90FD11D90E08C179D0722
:1015000034F0C832D10524F4C8E2D0E001C0EC01C7
:10151000C0936D70C8CE173079F490916D70809142
:101520007070891710F48F5F04C0981708F0BBCE55
:10153000815080936D70B7CE133C19F0163C41F585
:1015400017C060911D7070911E7080E090E020E0E7
:10155000AB01082E02C0569547950A94E2F74170F8
:10156000240F01968830910599F7223008F041C088
:1015700081E090910C70911180E080930C709EDA64
:1015800021DA8091707090E0D5D880930A7099CE5E
:101590000091177001112DC0133B49F4CD2B09F0B8
:1015A00082CECC2011F086E9E82E8E2D04C0133EA9
:1015B00021F480910A7061DA1DC0173B29F460E0C4
:1015C00070E08EE69BE013C01A3C59F48091707075
:1015D00080931A708091717080931F706FDAE4D9D4
:1015E00009C01A3B31F460E070E086E79BE05ADD09
:1015F00001C001E0802FDF91CF911F910F91FF90EB
:10160000EF90DF90CF90BF9008950F931F93CF93EB
:101610008B01C42F883099F4809171708093407051
:1016200010923F7080E00E94B1028091737081112E
:1016300050C080913F708F5F80933F7034C0982F6F
:10164000907F903B29F580913F704817E8F08150DA
:10165000883040F490916470992321F090917170DA
:10166000891350DAC8016DE570E00E946A1506978B
:1016700049F480913F708F5F80933F70C81748F1A5
:1016800088E303C082E101C080E00E94B10221C072
:10169000903E79F480913F708823A1F0481790F034
:1016A000809140702FDA60E070E082E198E0FADC2F
:1016B00010C08A3049F46091577080913F70F901F1
:1016C0000995FCD986DC05C0893019F480914070F9
:1016D00019DA80E0CF911F910F9108952FE533E043
:1016E00043E093CF2FE533E044E08FCF2EE437E0A3
:1016F00045E08BCF2EEE34E042E087CF27EF34E099
:1017000042E083CF22E135E041E07FCF25E135E0C3
:1017100043E07BCF91E0909364702BE135E048E0AB
:1017200074DF109264700895CF93C0911770C11147
:1017300023C0813C29F460E070E08AE09CE006C0B0
:10174000823C31F460E070E089ED98E0C3DC15C0C4
:10175000833C51F48091207090E001968770992726
:1017600080932070ABD909C0873B31F460E070E012
:101770008AE79BE097DC01C0C1E08C2FCF910895F0
:10178000CF93833C21F54091717060911D707091F1
:101790001E70842F98E0282F30E02F5F3F4F277076
:1017A0003327822FFB0102C0F695E7952A95E2F7D1
:1017B000E0FF0AC04817B9F0A5D9809171708093F5
:1017C0001C707CD9C0E010C0915029F7F3CFC091B4
:1017D0001770C11108C0893B31F460E070E08AE8FD
:1017E0009BE060DC01C0C1E08C2FCF910895909107
:1017F0002170992369F080935A7088E08093587023
:1018000081E0809359708091707080935B7008952F
:101810000C94B1020F931F93CF938B018830A1F4E6
:1018200080E0E5DF80915970082B109268708091FC
:101830001C708093717010926270012B09F05FC070
:1018400081E0809372705BC0813059F46931710519
:1018500008F455C0C0915970C11151C08093727085
:1018600001C1833069F5809168708F3F19F08F5FF7
:101870008093687080911A70882371F040911B707A
:1018800022EC31E0429FC001439F900D11240817C4
:10189000190710F00E940A04B801809130700E946C
:1018A000230480913370882351F142EC51E0849FEE
:1018B0009001859F300D11242017310700F553C08A
:1018C000813B99F481E090E00E949A0390DF80913F
:1018D0001970811114C080910C70811103C00831FE
:1018E000110568F061E070E02AC0813ED9F38138CB
:1018F00041F480910A7090E00E949A0378DFC0E082
:10190000B1C0813C21F460910A7070E018C0823B44
:1019100081F41092687080910D7090911770911100
:1019200080911870811103C086E990E0E5CF86E9C7
:10193000E5CF823E59F0823C29F466E970E083EFFE
:1019400098E00CC0833921F41092597080E0D6CF12
:10195000833C31F460E070E084E99BE0BBDBCFCFF7
:10196000843C31F421D860E070E087E39DE0F6CF5D
:101970008D3B31F491E088ED84BF90934100BFCF5F
:101980008F3C29F460E070E08CEE94E0E7CFC091EA
:1019900017708A3B79F4672B69F4CC2329F004D8BB
:1019A000109217708BD8ABCF60E070E082E79BE0BD
:1019B00079DB58C0C11155C0833B29F460E070E069
:1019C00088E59FE04CC0873CB9F480913070982F37
:1019D00092959F709F5F937040E1949F90011124B6
:1019E0008F70822B8093307060E070E00E9423043F
:1019F00065D80E94D40436C0873BD9F481E0809337
:101A00006370C8018F739927892B69F490913070A6
:101A1000892F8F708F5F292F207F6BE00E945E15CA
:101A2000922B90933070B801809130700E94230403
:101A300019C0873E19F41092637007C08A3C39F4CC
:101A40000E94D40481E08093177038D80BC0863C84
:101A500041F40E94D40460E070E088EF90E13ADB4A
:101A600001C0C1E08C2FCF911F910F9108950F936A
:101A70001F93CF93DF93C82F8B01873B21F480E026
:101A80000E94B10282C080798039B1F420910E7039
:101A900090910F708C2F8F70813021F4822F9217CC
:101AA00048F407C080911A70811104C0822F291751
:101AB00008F4892F9CDE0FC0803811F480E097DE97
:101AC000C83049F41092687060E070E08091317025
:101AD0000E9423045AC0C13039F40931110508F4B9
:101AE0009DC0C09372701BC0C330F9F480916870C0
:101AF0008F3F19F08F5F8093687080911A708823F0
:101B000071F040911B7022EC31E0429FC001439F75
:101B1000900D11240817190710F00E940A04B8014B
:101B2000809131700E94230479C0C33C39F40E9433
:101B3000D40460E070E08AE09CE015C0C43C21F46D
:101B400060910A7070E00DC0C43B39F40E94E20459
:101B50001092CF7061E070E004C0C53C31F466E9DA
:101B600070E083EF98E0B6DA59C0C33B71F4C80166
:101B70006EE370E0AFD7892B41F460E070E083EC56
:101B8000DF91CF911F910F91FBCDD0911770D111A3
:101B900047C0C73CC1F480913170982F92959F70D7
:101BA0009F5F937040E1949F900111248F70822B6E
:101BB0008093317060E070E00E9423040E945E0513
:101BC0000E94D4042EC0C73BD1F481E0809363709F
:101BD000C8018F739927892B61F490913170892FF7
:101BE0008F708F5F292F207F6BE068D7922B9093A7
:101BF0003170B801809131700E94230412C0C73E39
:101C000029F4109263700E945E050BC0CA3B41F438
:101C100060E070E082E89BE045DA03C0D0E001C0FC
:101C2000D1E08D2FDF91CF911F910F9108950F93E8
:101C30001F93CF93109275708091CD709091CE705C
:101C40009C012F5F3F4F88279078822B932B8093A6
:101C5000CD709093CE70C09173700E94F201C8173E
:101C600031F110927270809373709091CF708823CD
:101C700059F0892F80699F709F3009F08F5F8093A2
:101C8000CF7080E090E00DC0892F8F7E95FD02C05F
:101C9000806801C0806C8093CF708091CD709091EE
:101CA000CE700E94BB011092CD701092CE70009148
:101CB000CD701091CE70809172708823B1F0B80110
:101CC00083E00E946A010E9484010134110528F01A
:101CD0000F701127012B09F047C01092437081E06B
:101CE00080939C700E94DE0132C0C091CF708C2F17
:101CF000807F803B19F460E070E001C0B80181E0B2
:101D00000E946A01C4FF13C0C5FF02C0C8010CC015
:101D100008311105E0F01092CD701092CE70C062C3
:101D2000C093CF7080E090E00E94BB0110C0CC2334
:101D300071F0C5FD0AC00231110548F0C064C093BE
:101D4000CF7080E090E00E94BB010E94BF01C09173
:101D50004370C11105C00E94610181E080939070C1
:101D6000CF5FCF71C0934370CF911F910F910895B2
:101D700080919B7081110E94D605809175708111B0
:101D800056CF0895EF92FF920F931F93CF93DF9357
:101D9000EC0108E51BE086EDE82E82E0F82E2097A6
:101DA000D9F080916970811119C08091707088326A
:101DB00028F483E00E945601C70104C080E00E941D
:101DC0005601C8010197F1F780E00E945601D0DF6B
:101DD0000E9484012197E3CF81E001C080E0DF9180
:101DE000CF911F910F91FF90EF9008950F931F9344
:101DF000CF93DF93C82F882311F006EA02C00AE0D0
:101E0000C1E0D091717010E0809120700E94820535
:101E100089E10E94B102D0937170C801B3DF809153
:101E200020700E94820580E00E94B102D093717000
:101E30008AEF90E0A7DFC15039F78D2F0E9482050D
:101E40008AE992E0DF91CF911F910F919BCFCF93C1
:101E5000DF9364E633D6282F892F6AE02FD6EC0172
:101E6000222341F0822FC2DF8C2FC0DF8D2FDF9124
:101E7000CF91BCCFC111F8CFF9CFCF93DF93D82F3B
:101E8000C3E080910A700E94B10288EC90E07ADF92
:101E9000DD2319F080E991E075DF80E00E94B10256
:101EA00088EC90E06FDFC15061F7DF91CF9108952A
:101EB000FF920F931F93CF93DF93D82F8B01C09185
:101EC0005C7081E080935E70C43009F0ECC0F090EB
:101ED00062708D2F0E946707FF2051F08091627021
:101EE000811106C060E070E08AE09CE0F3D8DBC0BE
:101EF000D83021F481E080930370D7C0D23C19F42C
:101F000010926270E4C0D13BC1F490910270012B39
:101F100049F4963610F08FEF03C0923018F481E048
:101F20008093037080910370890F11F481E04AC19E
:101F3000873608F447C186E645C1D13E31F4809129
:101F400003708195809303700DC1D23B61F481E0F1
:101F50008093037080910270823008F40BC181502D
:101F60008093027007C1D13009F0B5C00932110564
:101F700011F4D093037090913B70892F880F97FDD7
:101F8000809529E0829FC001112430913A70232F5F
:101F9000220F37FD209580910170289F9001112418
:101FA000232F290F90913970892F880F97FD8095E5
:101FB00090910070899FC0011124822F890F609138
:101FC000027070E0680F711D809162708130B9F409
:101FD00080915F709091607025E0969587952A9525
:101FE000E1F724E730E0A901481B590B469FC001E7
:101FF000479F900D569F900D1124B9016BD5862FE8
:102000000E94B10200FD08C00E94FA018170909107
:102010003B70890F80933B7090913A70809138703B
:10202000890F80933A700E94FA0165E247D580914A
:102030003970980F909339700E94FA018F7331F4C0
:102040000E94FA016DE03AD590933870C09101700A
:10205000CC2339F00E94FA018F7319F4C150C09358
:1020600001700E94FA01811108C00E94FA016EE01D
:1020700025D59093017010923A70C0910070C330D2
:1020800038F00E94FA018F7119F4C150C0930070AA
:102090000E94FA018F7709F099C00E94FA018770B7
:1020A0008093007093C0D83041F480912270809367
:1020B0005C7081E08093047087C0D13C31F460E0B3
:1020C00070E08AE09CE006D87FC0D23C31F48C2FCF
:1020D00090E0019617C0D13C91F3D33C71F480910C
:1020E00071708F5F87700E948205EC2FF0E0E45FD3
:1020F000FF4880917170878B5EC0D43C59F48C2F5F
:1021000090E0059666E070E0F9D4809322708093A9
:102110005C7051C0D13B21F5C23090F400FD54C039
:10212000EC2FF0E0E45FFF48858D90910470891BEF
:10213000883020F08F3F69F58EEF2BC088E029C0F2
:10214000C53009F041C090912B7080910470890FC7
:10215000823010F482E026C0893720F188E722C05F
:10216000D13E31F48091047081958093047023C036
:10217000D23BF9F481E080930470C23060F400FD3A
:1021800023C0EC2FF0E0E45FFF48858D8F3FE1F046
:102190008F5F858F19C0C530B9F480912B70833063
:1021A00018F0815080932B7080912B700E94B102A7
:1021B0000BC0D23E19F40E945E0506C0D13031F04A
:1021C00081E010C08093027080E00CC009321105DC
:1021D00019F481E08093047080916C70080F009373
:1021E0006C70F2CFDF91CF911F910F91FF90089506
:1021F000FF920F931F93CF93DF9300D01F92CDB721
:10220000DEB78B838B01F0900A70807989838039E7
:1022100051F5EB81EF70E43020F010925D701A827E
:1022200076C091E090935D70F0E0E45FFF4887A195
:102230002FEF280F263948F480930A7010925E70B1
:1022400080911C70809371700CC090935E70873980
:1022500040F190E08759910966E070E04FD4809397
:102260005C701A820EC08981803849F410925D70CA
:1022700080E00E94B10281E08093697001C081E03A
:102280008A8380915D70882309F441C08B818830F6
:1022900051F480915E70882331F0B80188E008DE47
:1022A00002C01A8203C08981803951F481E0809391
:1022B0005D7080915E7081112AC080910A7006C0A5
:1022C0008981803831F410925D7080E00E94B10203
:1022D0001EC08B818130D9F480915D70882349F0D4
:1022E00080915E70882309F44CC0B80181E0E0DD84
:1022F0000EC080E00E94260280E00E940F02073399
:1023000081E0180708F43DC08B8180937270F092D1
:102310000A708B81883019F4B801A9DB30C08B8139
:10232000813039F480915D70811127C0B80181E05E
:1023300004C08B81833051F4B8012396CDBFDEBF3A
:10234000DF91CF911F910F91FF9091CB8B81833CB7
:10235000A1F0863C49F40E94D40460E070E08AE079
:102360009CE00E946A0809C08B81873B41F460E0D1
:1023700070E086E89BE00E94520880E005C08A81F8
:1023800003C0F0920A70CECF2396CDBFDEBFDF919F
:10239000CF911F910F91FF9008951F920F920FB64A
:1023A0000F9211242F933F938F939F93AF93BF93DB
:1023B000EF93FF9381E080930D0680919A708823BC
:1023C000F9F0E09199702091100630911106F0E03B
:1023D000EE0FFF1FDF01AB56BF482D933C93EF5626
:1023E000FF48808191818217930708F4019628178E
:1023F000390708F401978083918381E080939B7073
:1024000081E080939A70FF91EF91BF91AF919F917E
:102410008F913F912F910F900FBE0F901F901895A5
:102420001F920F920FB60F9211248F9381E0809329
:102430005301809375708F910F900FBE0F901F9076
:1024400018951F920F920FB60F9211248F931C9A1A
:1024500081E0809374708F910F900FBE0F901F904A
:102460001895F8941092400088EDA89584BF90913B
:102470000001907F9093000129E130E084BF209318
:1024800068008DEC80B980E78CB988E080931104F6
:1024900099E09093140480935104809352048093A4
:1024A000530494E090937604809377041092B200E2
:1024B00081E48093A0061092A2061092A306809158
:1024C000140481608093140481E080935201809110
:1024D00051018111FCCF81E4809350010E94DE0103
:1024E000789481E00E94C90160E070E08AE898E099
:1024F0000E9452081092697010926E7080E00E94E3
:10250000B10280E22CEF33E0F9013197F1F781500D
:10251000D9F70E944003082F10E00A36110518F47D
:1025200093E28CE002C091E988E1C1E0E92EF12C50
:10253000C82ED12C8C2F0E94B1020E94400390E043
:102540009801281B390BE816F90618F0C0936E7035
:1025500006C0C216D306D4F3CF5FCB3459F780E060
:102560000E94B10280916E70811105C00E94F2013B
:10257000882381F10BC08BE40E94C9010E94D4041E
:102580008BE40E94C9010E94D404F0CFC0E08C2FDC
:102590000E94B10283E190E0F5DB8C2F86950E94CA
:1025A000B10283E190E0EEDB0E94F201882341F169
:1025B000CF5FC03461F765E181E00E94F7040E94BB
:1025C0005E05C6E98C2F0E94B10284E090E0DADB60
:1025D000C150C1F78CE090E780936A7090936B7064
:1025E00082E00E94C901F89480E090E0D5D2853A5B
:1025F000D1F400916A7010916B70C1E0D0E00AC014
:10260000CC2341F38C2F0E94B1028DE090E0BADB25
:10261000C150F6CFCE01C0D2F80181938F0121962F
:10262000CC32D105B9F7789480911A7081110E944B
:102630000A0460E070E080EC9BE00E94520861E0D8
:1026400070E08AE09CE00E9452087724739442E094
:10265000242E51E4352E4424439467E0562E7DE029
:10266000672EE8EEAE2EE3E0BE2EFAE0CF2EFCE0C1
:10267000DF2EA4EA8A2EA0E09A2E0E948401809187
:10268000787090917970009751F0609176707091A8
:1026900077700E946A081092787010927970809119
:1026A0007270882309F464C080E00E94B1027092C5
:1026B0005201809151018111FCCFF9E5F093500155
:1026C000809100068E7F809300060E94F2018111A6
:1026D000FCCF0E94BF018091140481608093140498
:1026E00010929B701092757010927470809172703D
:1026F000882369F180919C70882329F08091500093
:10270000897F826004C080915000897F84608093BB
:102710005000809150008160809350008895809196
:1027200050008E7F809350008091747081111092C0
:10273000727080919B70882321F0409290700E946B
:10274000D60580917570882389F271DACFCF2092F7
:102750000B7080911404887F809314040E94DE0122
:1027600070925201809151018111FCCF3092500141
:10277000FFDA1092697080918B7090918C7024E0D8
:102780008C3E920711F5C0E9D0E0FE0184918053A0
:10279000803110F42BDB11C010E0812F8170829505
:1027A000880F807E0E94B10280E190E0EBDA1F5F2B
:1027B000193199F78AE992E0E5DA8CE291E0E2DA00
:1027C00021968C169D0609F7F2C0FFE088359F0719
:1027D00079F020E1883F920709F0D1C080915E70C6
:1027E000813009F01FC180915D70882309F41AC1FE
:1027F000C0915C70EC2FF0E0E45FFF488789809324
:102800007170C230D1F030F0C330B9F1C53009F485
:1028100099C033CFD58D86E90E94B102C11103C0A2
:1028200081E090E003C08D2F869590E0ABDA81E0E7
:102830000E94B1028D2F90E02EC1D0910A70C0E0AD
:10284000C11102C081E003C0C53019F485E00E94C7
:1028500082058D2F0E94B10281E290E093DA81E03F
:102860000E94B10282E490E08DDACF5FCA3041F776
:1028700080911C708093717000CF0E94FA018F7359
:10288000E82EF12C0E94FA01652D18D1C1E0D0E0AC
:102890008E0102C0000F111F9A95E2F70E94FA0103
:1028A00065E00CD102C0CC0FDD1F9A95E2F70C0F4A
:1028B0001D1F0E94FA0190E0B80120D1E801C80F65
:1028C000D91FC739D10514F0C6E9D0E08C2F0E947A
:1028D000B102C70157DA8E0133E0159507953A9595
:1028E000E1F7011101C001E010E0C7014BDAC01BA4
:1028F000D10BD7FF02C0C0E0D0E08C2F0E94B10204
:102900000E94FA01837039F4C7013CDACE01959533
:1029100087950E94B102C230D1053CF70E94FA01AE
:10292000662DCCD0C1E0D0E002C0CC0FDD1F9A955F
:10293000E2F70E94FA0190E0BE01CCD0C80FD91F87
:1029400080E0A6C0C0912B70CC0FC73908F0C6E953
:10295000D4E08C2F0E94B10285E090E013DA8091E0
:102960002B700E94B10281E490E00CDAD15089F71B
:1029700080ED92E007DA80E00E94B1027ECEEBE0CB
:1029800084399E07E9F488EE93E0FCD980918F703A
:10299000C5E06C2F93D05BDA80918F706C2F8ED056
:1029A000892F880F54DA80911770882381F0C092A4
:1029B0007870D092797010927670109277705DCEA8
:1029C000F8E0893D9F0731F480918D7040DA88EE00
:1029D00093E061C028E0803B9207C1F4809173705E
:1029E00081114BCE80910A700E94B10284E690E082
:1029F000C9D980E00E94B10220912C702A9DC001AB
:102A00002B9D900D11248456910945C088579840FC
:102A100049F480E032DA81E030DA80E02EDA80EDCD
:102A200097E039C0809121708823B9F18091597065
:102A3000882399F12091707090915A7029130AC0DF
:102A4000822F0E94B1021092597080915B70809326
:102A50006F7013CE60915870291760F4892F821B14
:102A60002DD0811101C081E0820F0E94B1028AE065
:102A700090E011C0FEE16F9FA001112460915B7096
:102A8000691B70E0CA013AD0EB0121968FEF820FEB
:102A90000E94B102CE0176D9F0CD80915000897F9D
:102AA0008093500080915000816080935000889501
:102AB000809150008E7F80935000DFCD991B79E08C
:102AC00004C0991F961708F0961B881F7A95C9F7BE
:102AD00080950895AA1BBB1B51E107C0AA1FBB1F0D
:102AE000A617B70710F0A61BB70B881F991F5A959A
:102AF000A9F780959095BC01CD01089597FB072E0D
:102B000016F4009406D077FD08D0E4DF07FC05D06A
:102B10003EF4909581959F4F0895709561957F4FF4
:102B20000895A1E21A2EAA1BBB1BFD010DC0AA1F0E
:102B3000BB1FEE1FFF1FA217B307E407F50720F026
:102B4000A21BB30BE40BF50B661F771F881F991FA1
:102B50001A9469F760957095809590959B01AC01EA
:102B6000BD01CF010895A29FB001B39FC001A39FF3
:102B7000700D811D1124911DB29F700D811D1124B6
:102B8000911D0895F0DFA59F900DB49F900DA49F17
:102B9000800D911D1124089503D0808199270895F7
:102BA000FC01E050FC4E0895262FFADF008002164B
:102BB00011F004D0019701970895262FAF93BF938A
:102BC000E0E0F0E1328131FDFDCF3DE934BF33E19A
:102BD0003083DC01A050BC4E2C933DE934BF20E093
:0E2BE00020830196BF91AF910895F894FFCF26
:102BEE000302000E7011701470020100000000004C
:102BFE0000000100000000000000000100002D0197
:102C0E00320237033C044105460650076400910129
:102C1E00A502AF03B904C305CD06DC07FF07960571
:102C2E000A038502AF028B02AF029102AF02970236
:0E2C3E00AF029D02AF02A302AF02A902AF02D5
:102C4C00080E180101010004820132020001010A80
:102C5C000A828282010705010000000000010000C9
:102C6C00000104000000000000294332020732007A
:082C7C0018390400781E9800CD
:00000001FF
