:10000000AFC0C9C0A1CCC7C0C6C0C5C0C4C0C3C0F2
:100010004ECCC1C0C0C0BFC088CCBDC0BCC0303396
:1000200032322E323032332D31322D30332B3531C6
:10003000233100000000000000000000000000006C
:1000400000000000000000000000000000000000B0
:1000500000000000000000000000000000000000A0
:100060000000000000000000000000000000000090
:100070000000000000010304050708090B0C0E0F27
:100080001113141618191B1D1F21232527292B2D89
:1000900030323437393B3E404346484B4E5154573B
:1000A0005A5D606366696D7073777A7E8185898D2C
:1000B0009094989CA0A5A9ADB1B6BABFC3C8CDD144
:1000C000D6DBE0E5EAEFF4FAFF01010202030304E4
:1000D0000405060708090A0C0D0E0F111314161853
:1000E0001A1D1F2224272A2D3033373B3E42464B10
:1000F0004F54595D63686E73797F868C939AA1A87B
:10010000B0B8C0C8D1D9E2ECF5FFFFFFFFFFFFFF99
:10011000FFFFFFFFFFFFFFFFFFFFFFFFFFFFFFFFEF
:10012000FFFFFFFFFFFFFFFFFFFFFFFFFFFFFFFFDF
:10013000FFFFFFFFFFFFFFFFFFFFFFFFFFFFFFFFCF
:10014000FFFFFFFFFFFFFFFFFFFFFFFFFFFFFFFFBF
:10015000FFFFFFFFFFFFFFFFFFFFFFFFFFFF0000AD
:1001600011241FBECFE5D2E0DEBFCDBF10E0A0E678
:10017000B0E0E6E9FEE102C005900D92AE39B107AC
:10018000D9F721E0AEE9B0E001C01D92AC32B20770
:10019000E1F7E9DB7ECE34CF482F9B01E9EFF0E0B9
:1001A00080E090E05081552331F001963396803104
:1001B0009105C1F709C063E070E00DDEFC01E75076
:1001C000FF4F40833283218308950F931F93CF9372
:1001D000DF93D091F900DD2351F10091FA001091E5
:1001E000FB00C091D600C150C7FD0DC0EC2FEE0F33
:1001F000FF0BE952FF4F0190F081E02DB8018D2FE8
:1002000009958111F0CFE9EFF0E08381808384814B
:10021000958192838183339681E0E632F807A9F7CE
:10022000109226011092280110922701D2CFDF915F
:10023000CF911F910F910895BC0180912B01ACCFFC
:1002400010922B0110922A011092290181E08093D3
:10025000C800089590E822E048EA57E030E0815075
:1002600070F00FB6F89496BD26BD0FBEFA01319717
:10027000F1F70FB6F89496BD36BD0FBEF0CF0895D6
:100280008CE287B91092F5001092F6008FEE86B9D5
:10029000089586B383FB882780F991E089278093AE
:1002A000CF000895E0916600F09167003196FB70F1
:1002B000F460F0936700E09366008091CB008B5A66
:1002C0008093CB00E4918091CB008E0F089590E055
:1002D000FC01E753FF4F2491FC01ED5CFF4F84913B
:1002E00029BD88BD089590E0FC01E753FF4F24919C
:1002F000FC01ED5CFF4F949189B5811102C02F3F45
:1003000029F089B58F3F21F4211102C029BD0CC00D
:1003100089B5821718F489B58F5F05C089B528178C
:1003200018F489B5815089BD88B5891718F488B546
:100330008F5F05C088B5981718F488B5815088BDBF
:1003400089B5281303C028B581E0921380E0089591
:10035000CF93DF9300D000D000D0CDB7DEB790911F
:100360006C002091E7003091E8002052384009F4F9
:1003700092E0843019F46093780021C06623F9F08C
:10038000823019F427E9261B622F26E0E7E8F0E027
:10039000DE01119601900D922A95E1F7E82FF0E029
:1003A0003197EE0FFF1F21E030E02C0F3D1FE20FD1
:1003B000F31F0190F081E02DE90FF11D6083269677
:1003C0000FB6F894DEBF0FBECDBFDF91CF91089579
:1003D000BF92CF92DF92EF92FF920F931F93CF9332
:1003E000DF93EC0140916C0090917700992311F01C
:1003F000E2E001C0E42FF0E0E459FF4F22812093B6
:100400006900858180936800E92FF0E0E459FF4F8F
:100410003185622F70E0442349F0313039F49B017B
:10042000280F311DC9019595879536C0C617D70786
:1004300094F1682F70E06C177D0774F1411102C0D0
:100440008C2F2AC0821B032F10E001501109E82EC7
:10045000F12CC701B801F0DC6093C5006695E62F6A
:10046000F0E0822FC12CD12CB12CB316A9F0C6011B
:10047000B801CEDC822F860FCE0CDF1CAE01481BEC
:10048000510957FF03C0519541955109E417F507EC
:100490001CF4B394EACF822FDF91CF911F910F917B
:1004A000FF90EF90DF90CF90BF9008958091C300B0
:1004B000882351F09091CD009093C4008093C200A6
:1004C0001092C1001092C0000895611160938200E3
:1004D0000895662389F0813061F48091E90090915C
:1004E0008400891B681B6093840082E080936B000A
:1004F00003C0635E6093830080918300873418F0AB
:1005000086E480938300089560938600089581E0D7
:100510000895CF93DF938CE690E09093CA00809388
:10052000C900F894C0E0D0E0E091C900F091CA00A1
:10053000EC0FFD1F60812196CE0199DCCB31D105F6
:1005400099F765EA80E090E092DC7894DF91CF91B2
:1005500008951092F70084B195B12091CB00829557
:10056000869586958370990F990F890F820F8093D6
:10057000CB008091EC00882309F406C11092EC00B6
:100580008091F5009091CE00992329F03798109230
:10059000F8001092F50081113DC080916B00882316
:1005A00049F06091F1007091F2007093EE00609359
:1005B000ED0004C06091ED007091EE00209182008A
:1005C000220F245096E0769567959A95E1F780E0A2
:1005D0009CED1EDC260F2093EB008091B900882350
:1005E00011F0815007C0213938F460E070E084E0F8
:1005F000D3DD85E08093B9008091CE008111BBC02E
:100600008FEA87B981E08093F5001092F6008FEEB3
:1006100086B9B1C0813009F0AEC080916B008823EB
:1006200041F08091F3009091F4009093F00080935A
:10063000EF008091EF009091F000A0918400AC0158
:10064000F6E056954795FA95E1F70A2E000CBB0B9C
:100650004A0F5B1F435151405093EA004093E90019
:100660009C0185E0369527958A95E1F780916B008E
:10067000811127C08091A800E82FF0E0EE0FFF1F46
:10068000E755FF4F40815181B901641B750B3183E0
:1006900020838F5F87708093A800CB01880F991FFC
:1006A000880F991F4091830050E04D5E5E4F4A1BBA
:1006B0005B0B440F551F841B950B820F931F23E088
:1006C0000EC0E9EAF0E02193319380E0E93BF807BE
:1006D000D1F7D0CF009709F00196215029F01816D4
:1006E0001906C4F70197F9CF18161906E4F477FD37
:1006F00039C02091A70012160CF1880F991FBC0178
:100700006350710977FF02C06F5F7F4F75956795E2
:100710001616170614F061E070E088E1861B8093DE
:10072000A70085E026C08C3F2FEF9207DCF477FF0F
:1007300019C02091A70027FF05C02450281B209333
:10074000A70018C024EE281B2093A7002091EB00DF
:10075000233980F06CEF7FEF681B790B75956795F7
:1007600086E007C08091EB00823920F060E070E005
:1007700087E012DD85DD80916B00882329F0809170
:100780006B00815080936B000895882321F08130A5
:1007900029F4BC9804C0BC98C4980895BC9AC49A23
:1007A0000895CF93C82F8091CE0081110AC091E0A7
:1007B000C11101C090E081E0C23408F480E0890FEB
:1007C000E4DFC11103C019BC18BC03C08FEF8C0F4C
:1007D0007EDDC093CD00C093CC00C63010F492E013
:1007E00005C0CF3010F491E001C090E080E80FB672
:1007F000F89486BD96BD0FBECF910895CF93C0915A
:10080000CD0089E18C0F873908F080E0CADF82E0F3
:1008100021DD8C2FCF91C5CFCF93C091CD0080E04B
:10082000C0DF83E017DD8C2FCF91BBCF8093C60054
:100830009091CD00981718F4282F291B02C0292F5A
:10084000281B3091BC00311106C030917C0033234D
:1008500069F0223058F08093BD0084E08093BB00A3
:1008600081E08093BC009093BE0008959ACF8130C0
:1008700019F410927A000895823019F460937B0085
:100880000895833019F4609379000895843019F441
:1008900060936D000895853011F460937C00089595
:1008A0009091EB00913910F480E011C0953A28F452
:1008B00066956170635086230AC0982F9F709330AD
:1008C00030F06F70E62FF0E0E357FF4F80815DCF8F
:1008D000CF93C0917700C1114DC0883039F4109288
:1008E000C3001092C1001092C00045C0813B79F452
:1008F0008091C30081508330E8F583E08093C3008A
:100900008093C2001092C1001092C00033C0853B9A
:10091000A9F4CB016EE370E07BDA892B61F580915D
:10092000C3008A3F40F58B5F8093C3008093C20071
:100930001092C1001092C00061DF1DC08130D1F45F
:100940008091C0009091C100019688382EE09207F6
:1009500028F49093C1008093C0000DC01092C10094
:100960001092C0008091C300882329F081508093A9
:10097000C30001C0C1E08C2FCF910895FF920F9367
:100980001F93CF93DF938C01EB01F42E8091E7004E
:100990009091E800892B31F0E091E700F091E800B8
:1009A00089E009951093E8000093E700012B39F0E6
:1009B000E091E700F091E800BE018F2D099581E0FC
:1009C0008093C800DF91CF911F910F91FF90089500
:1009D000CF93DF93E091D600EE2359F0E150E093FE
:1009E000D600F0E0EE0FFF1FE952FF4FC081D1812A
:1009F00002C0C0E0D0E0E091D600EE2341F0F0E08C
:100A0000EE0FFF1FEB52FF4F8081918102C080E00B
:100A100090E04AE060E070E0B1DFCE01DF91CF917D
:100A20000895883029F41092BA001092A20015C0DF
:100A3000813001F59091A200911107C060327105DB
:100A400070F18093A200FCDB2AC0913089F46B3BEB
:100A5000710528F082E08093A20080E01FC061153C
:100A60007105E9F06270862F880F880F8E5E16C0C0
:100A7000AFDF15C0813811F0813E89F491E0909389
:100A8000A200813E21F48091BA00865F03C080916C
:100A9000BA008F5F8093BA00D3DB8BE482DE80E004
:100AA00008959C019091D600983088F4E92FF0E0E9
:100AB000EE0FFF1FE952FF4F318320839F5F90931A
:100AC000D60048E0C9015ADF8091D60008958FEF23
:100AD00008950F931F93CF93DF93EC018B0178DF81
:100AE000B801CE01DF91CF911F910F91DACF843001
:100AF00011F58091E7009091E8002AE08A3492078E
:100B000029F469E170E08EEF95E013C08E5F9540A7
:100B100061F49091CD00923040F0892F86959695A2
:100B20009695890F83DE80E0089560E070E088E4A8
:100B300098E0CFDFF8CF81E00895813C29F460E0B0
:100B400070E088E498E006C0823C31F460E070E038
:100B500084EC95E0BEDF14C0813B41F4CB016EE331
:100B600070E056D9892B61F449DE0AC0813E51F408
:100B7000CB016EE370E04CD96F5F60938100C9DCFC
:100B800080E0089581E00895CF93C0917700C1116E
:100B900017C0813C29F460E070E088E498E006C06A
:100BA000823C31F460E070E084EE95E092DF09C0B1
:100BB000873B31F460E070E088E298E072DF01C0CA
:100BC000C1E08C2FCF910895813C29F460E070E062
:100BD00088E498E006C0823C31F460E070E08DE982
:100BE00095E077DF07C0873B39F460E070E08CE286
:100BF00098E057DF80E0089581E00895BF92CF929A
:100C0000DF92EF92FF920F931F93CF93DF93182FF2
:100C1000EB01D0906900F090680080916C0088230F
:100C200019F0B090C50002C0BB24B394C0906D0011
:100C3000809177008111C0907800CC2051F081E044
:100C4000C81621F080916A008F1518F0F6E9EF2E92
:100C500001C0EF2C0091C300BE01812F39DE8091CD
:100C6000C300882339F001110CC09091CD009093FE
:100C7000C40007C0002329F060E070E088E498E039
:100C800032C0183029F01A30B9F4C0916A00D0E0AF
:100C90008D2D90E08C179D0738F48F2D90E0C817AC
:100CA000D90710F4C0936A00CE0192DBBFDD81E06A
:100CB0008093650000E071C1113CF1F2123C59F4DF
:100CC0008091CD008E1510F48E2D02C080916A00A7
:100CD000ADDDECDBEFCF143C41F480E062DD60E0A1
:100CE00070E082EC9BE0F5DEE5CF9FE4910F92305F
:100CF00008F051C080916C00882339F0CE0168E182
:100D000070E086D8892B31F0D5CF6091740070E007
:100D1000CE01F7CF0091BC000111CCCF2091CD00C6
:100D2000209761F4123B11F48FEF05C02F15E0F707
:100D3000D216F8F081E0809365001BC0E09174004A
:100D4000F0E0CF0166E371E046D88C179D0710F400
:100D50002F1550F7CF016CE672E03DD88C179D0738
:100D600040F4D21630F04ADD60E070E082EC9BE0A7
:100D7000B0DE809165006B2D70E0082E000C990BA1
:100D80002AD82091CD00820F911D22DB80936A002A
:100D90004DDD8CDB02C19FE1910F923020F48091F8
:100DA0006500819585CF113009F078C0A99711F4BD
:100DB00010936500882349F10091C40010E090E091
:100DC000B80109D8EC01E091C200F0E0BF0134D8CD
:100DD000262FCE01801B910BBF012ED8322F361B40
:100DE0008091C0009091C1006EE370E011D8832F14
:100DF00090E0F1D76CE370E00BD8261B622F09F46A
:100E000061E06093CC006093C600D091CC008091EB
:100E1000CD002D2F30E0281B31096091A400709186
:100E2000A5006F5F7F4F7093A5006093A40021150C
:100E3000310509F43FCF37FF05C0813930F040E478
:100E400050E005C040E052E002C040E051E056955D
:100E5000479537FF02C02F5F3F4F359527952115E6
:100E60003105A9F74617570708F024CFD81710F413
:100E7000CFEF03C08D1718F4C1E0C80F01C0CD2F0C
:100E80008FEF8C0F30DA882321F08C2F8ADCD093FF
:100E9000CC001092A5001092A4000CCF1530A1F444
:100EA0008091CD00833308F405CF90E08C1B9D0B1F
:100EB0008233910534F08739910564F186E990E039
:100EC00029C082E390E026C01630B1F49091CD00A5
:100ED0008091C600981708F0EDCEC90FD11D90E0A3
:100EE0008C179D0734F0C233D10524F4C2E3D0E05F
:100EF00001C0EC018C2F0EC0173079F49091CC001A
:100F00008091CD00891710F48F5F04C0981708F006
:100F1000D1CE81508093CC00CDCE133C81F481E0C2
:100F200090916C00911180E080936C00F2DA74DC97
:100F30008091CD0090E04CDA80936A00C9CE009198
:100F40007700011129C0133B49F4CD2B09F0B2CE33
:100F5000CC2011F086E9E82E8E2D04C0133E21F43A
:100F600080916A0063DC19C0173B29F460E070E0EF
:100F70008CE198E00FC01A3C39F48091CD00809349
:100F80007A00C7DA3BDC09C01A3B31F460E070E05C
:100F900084E298E086DD01C001E0802FDF91CF91EF
:100FA0001F910F91FF90EF90DF90CF90BF90089529
:100FB000883071F41092A30080E0F3DB8091CF00C1
:100FC000811138C08091A3008F5F8093A30022C05D
:100FD000982F907F903BB1F42091A300421778F0B6
:100FE000CB016DE570E014D7069739F42F5F20939D
:100FF000A3004217F8F088E303C082E101C080E05B
:10100000D0DB18C0903E61F48091A300882389F062
:10101000481778F060E070E081E195E042DD0AC0B9
:101020008A3041F46091BA008091A300F9010995DA
:1010300070DACEDC80E0089528EA31E043E0B8CFF2
:1010400028EA31E044E0B4CF27E334E045E0B0CF14
:1010500025E632E041E0ACCF29E632E042E0A8CF1D
:1010600024E832E041E0A4CF81E0089590917C0033
:10107000992369F08093BD0088E08093BB0081E0F4
:101080008093BC008091CD008093BE00089589CBF1
:101090000F931F93CF938B01883081F480E0E6DFBC
:1010A0008091BC00082B1092C7001092C300012B46
:1010B00009F057C081E08093CE0053C0813059F4CD
:1010C0006931710508F44DC0C091BC00C11149C01F
:1010D0008093CE00C0C0833039F58091C7008F3F28
:1010E00019F08F5F8093C70020917A00222359F076
:1010F00080917B0090E062EC71E06DD608171907D3
:1011000010F020936A0080918500602F8370C8DB07
:1011100080918600882329F190E062EC71E05BD633
:1011200080179107F0F451C0813B91F481E090E089
:101130004FD99CDF80917900811113C080916C00A0
:10114000811103C00831110560F061E070E029C031
:10115000813ED9F3813839F480916A0090E038D922
:1011600085DFC0E078C0813C21F460916A0070E0C6
:1011700018C0823B81F41092C70080916D0090915D
:101180007700911180917800811103C086E990E089
:10119000E6CF86E9E5CF823E59F0823C29F466E944
:1011A00070E08EEF95E00CC0833921F41092BC0002
:1011B00080E0D6CF833C31F460E070E084EC95E0D1
:1011C00088DCCFCF843C31F419DB60E070E082EC46
:1011D0009BE0F6CF8D3B31F4F89488ED81BD789497
:1011E000A895FFCF8F3C29F460E070E084E398E09D
:1011F000E7CFC09177008A3B79F4672B69F4CC2361
:1012000029F0FCDA1092770084D9ABCF60E070E06F
:1012100080E298E046DC1FC0C1111CC0833B31F462
:1012200060E070E08AE49AE054DC15C0873C51F439
:101230009091850081E0890F9C7F8370892B80933A
:10124000850006C08A3C31F4D9DA81E080937700CA
:1012500060D901C0C1E08C2FCF911F910F910895EB
:101260000F931F93CF931092D100809129019091F9
:101270002A019C012F5F3F4F88279078822B932B68
:1012800090932A0180932901C091CF0002D8C817FA
:1012900029F11092CE008093CF0090912B018823EA
:1012A00059F0892F80699F709F3009F08F5F80937C
:1012B0002B0180E090E00DC0892F8F7E95FD02C04C
:1012C000806801C0806C80932B01809129019091EE
:1012D0002A01B2D710922A01109229010091290106
:1012E00010912A018091CE00882399F0B80183E003
:1012F00053D76BD70134110528F00F701127012B3C
:1013000009F044C01092A60081E08093F800B8D79D
:101310002EC0C0912B018C2F807F803B19F460E0A0
:1013200070E001C0B80181E037D7C4FF12C0C5FF2B
:1013300002C0C8010CC008311105C8F010922A0182
:1013400010922901C062C0932B0180E090E074D715
:101350000EC0CC2361F0C5FD09C00231110538F083
:10136000C064C0932B0180E090E066D769D780917C
:10137000A600811105C08FEE86B981E08093EC0054
:101380008091A6008F5F8F718093A600CF911F91EF
:101390000F9108958091F7008111DBD88091D100E1
:1013A00081115ECF0895CF92DF92EF92FF920F935B
:1013B0001F93CF93DF93EC0110E800E080E3E82E69
:1013C00087E0F82E9CECC92EDD24D394209709F1F8
:1013D0008091C80081111FC08091CD00863040F4FB
:1013E00082E00FB6F89416BD86BD0FBEC60106C0DA
:1013F0000FB6F89416BD06BD0FBEC7010197F1F7F1
:101400000FB6F89416BD06BD0FBEC4DFDED6219719
:10141000DDCF81E001C080E0DF91CF911F910F917E
:10142000FF90EF90DF90CF900895CF93C82F88233F
:1014300081F089E1B6D986EA90E0B5DF80E0B1D9E4
:101440008AEF90E0B0DFC150A1F78AE992E0CF9136
:10145000AACF89E1A6D98AE090E0A5DF80E0A1D9F2
:101460008AEF90E0A0DFF1CFCF93DF9364E6C4D49E
:10147000282F892F6AE0C0D4EC01222341F0822F6B
:10148000D4DF8C2FD2DF8D2FDF91CF91CECFC11142
:10149000F8CFF9CFFF920F931F93CF93DF93D82FFD
:1014A0008B01C091BF00C33009F0DAC0F090C300D7
:1014B0000FDAFF2051F08091C300811106C060E077
:1014C00070E088E498E005DBCBC0D83021F481E0FF
:1014D00080936300C7C0D23C19F41092C300D4C0FB
:1014E000D13BC1F490916200012B49F49E3610F07B
:1014F0008FEF03C0923018F481E0809363008091F5
:101500006300890F11F481E034C18F3608F431C1D2
:101510008EE62FC1D13E31F4809163008195809396
:101520006300EDC0D23B61F481E080936300809161
:101530006200823008F4EBC0815080936200E7C003
:10154000D13009F0A5C00932110511F4D093630020
:101550009091A100892F880F97FD809590E067E01A
:1015600070E039D4292F8091A000682F660F87FD85
:1015700060958091610070E090E02DD4290F8091FA
:101580009F00682F660F87FD60958091600070E076
:1015900090E021D4920F6091620070E0690F711D9C
:1015A0008091C300813091F48091C0009091C1007E
:1015B00025E0969587952A95E1F724E730E0A90183
:1015C000481B590BCA0107D4B90122D4862FE9D888
:1015D00000FD07C067D681709091A100890F8093AC
:1015E000A1009091A00080919E00890F8093A0009F
:1015F00059D665E201D480919F00980F90939F0087
:1016000051D68F7329F44ED66DE0F6D390939E0099
:10161000C0916100CC2331F045D68F7319F4C150CD
:10162000C09361003FD6811107C03CD66BE0E4D384
:10163000909361001092A000C0916000C33030F020
:1016400031D68F7119F4C150C09360002BD68F77BB
:1016500009F083C027D666E0CFD3909360007DC0A9
:10166000D83041F480917D008093BF0081E0809369
:10167000640081C0D13C31F460E070E088E498E01F
:1016800028DA79C0D23C31F48C2F90E0019607C063
:10169000D13C91F3D43C59F48C2F90E0049665E052
:1016A00070E0CAD380937D008093BF0050C0D13BCF
:1016B00021F5C23090F400FD5EC0EC2FF0E0E4595B
:1016C000FF4F828990916400891B883020F08F3F02
:1016D00069F58EEF2BC088E029C0C43009F04BC0FB
:1016E0009091800080916400890F823010F482E034
:1016F00026C0893720F188E722C0D13E31F480919D
:10170000640081958093640022C0D23BF1F481E0B3
:1017100080936400C23060F400FD2DC0EC2FF0E037
:10172000E459FF4F82898F3F31F18F5F828B23C055
:10173000C43009F580918000833018F08150809387
:101740008000809180002DD816C0D23E11F4E1D6E1
:1017500012C0D13011F081E00FC00932110519F427
:1017600081E0809364008091CB00080F0093CB0050
:1017700002C08093620080E0DF91CF911F910F91B2
:10178000FF9008950F931F93CF93DF93C82F8B0182
:1017900080798039B1F420916E0090916F008C2F88
:1017A0008F70813021F4822F921748F407C0809106
:1017B0007A00811104C0822F291708F4892F56DC82
:1017C00013C0803819F480E051DC05C0C83019F42A
:1017D0001092C70046C0C13039F40931110508F430
:1017E0005DC0C093CE005AC0C330E9F48091C700F9
:1017F0008F3F19F08F5F8093C70020917A002223DA
:1018000059F080917B0090E062EC71E0E4D208171F
:10181000190710F020936A0080918500602F86954B
:1018200086953ED83BC0C33C31F4E8D760E070E019
:1018300088E498E014C0C43C21F460916A0070E030
:101840000CC0C43B31F4E8D710922B0161E070E08A
:1018500004C0C53C31F466E970E08EEF95E039D9FB
:101860001DC0D0917700D1111BC0C73C79F4909175
:101870008500892F869586958F5F8370880F880FE6
:101880009370890F8093850044D60BC0CA3B41F406
:1018900060E070E080E398E004D903C0D0E001C0CC
:1018A000D1E08D2FDF91CF911F910F9108951F925D
:1018B0000F920FB60F9211242F933F938F939F9304
:1018C000AF93BF93EF93FF938091F6008823E9F0E5
:1018D000E091F50024B135B1F0E0EE0FFF1FDF011C
:1018E000AF50BF4F2D933C93E351FF4F80819181C7
:1018F0008217930708F401962817390708F401970F
:101900009183808381E08093F70081E08093F600EB
:10191000FF91EF91BF91AF919F918F913F912F9147
:101920000F900FBE0F901F9018951F920F920FB639
:101930000F9211248F9381E08093D1008F910F90AB
:101940000FBE0F901F9018951F920F920FB60F9217
:1019500011248F9381E08093D0008F910F900FBE60
:101960000F901F901895F89484B7877F84BF0FB6A7
:10197000F894A89581B5886181BD11BC0FBE83E044
:1019800087BB81E083BF81EA8ABD88E088BB85BBD5
:101990008BB780628BBFA89581B5886181BD80E4DB
:1019A00081BD6ED4789481E055D460E070E087E723
:1019B00095E077D81092C80021D76BD4811113C05D
:1019C0008CE690E09093CA008093C900F89480E080
:1019D00090E045D2853AC1F50091C9001091CA0046
:1019E000C1E0D0E028C0C0E08C2FDBD683E190E0DE
:1019F000DADC8C2F8695D5D683E190E0D4DC49D40F
:101A0000882381F0CF5FC03479F765E181E061D54B
:101A100080D5C6E98C2FC5D684E090E0C4DCC150E7
:101A2000C9F7CECFCC2361F28C2FBBD68DE090E0EE
:101A3000BADCC150F7CFCE0112D2F80181938F01E9
:101A40002196CC31D105B9F7789480917A00811133
:101A500080936A0060E070E087E892E022D861E05D
:101A600070E088E498E01DD843E4342E52E0452E1F
:101A700060E4562E7724739475E0672EE8E4AE2E6A
:101A8000E8E0BE2ECC24C394D12CACEF8A2EA3E088
:101A90009A2E9BD38091D4009091D500009749F065
:101AA0006091D2007091D30014D81092D50010929A
:101AB000D4008091CE00882309F44BC080E071D619
:101AC000A89581B5886181BD31BC3798E2D3811179
:101AD000FDCFB6D38BB780628BBF1092F700109208
:101AE000D1001092D0008091CE00882339F18091EE
:101AF000F800882321F085B7877E886003C085B70A
:101B0000877E806185BF85B7806285BF889585B7F0
:101B10008F7D85BF8091D00081111092CE00809181
:101B2000F700882329F070926B007092EC0011D5B9
:101B30008091D1008823B9F293DBD5CF40926B001E
:101B40008BB78F7D8BBF9CD3A89581B5886181BDF4
:101B500051BC20DC1092C8008091E7009091E80011
:101B6000F8E084339F0711F5CEE1D0E0FE018491C7
:101B70008053803110F459DC10C010E0812F817047
:101B80008295880F807E0DD680E190E00CDC1F5F8F
:101B90001931A1F78AE992E006DC8CE291E003DCDE
:101BA0002196F0E0C233DF0709F7ABC02AE08A34A0
:101BB000920709F096C0C091BF00C23001F120F039
:101BC000C43009F474C065CFEC2FF0E0E459FF4F46
:101BD000D28986E9E6D5C11109C0DA3220F4C40100
:101BE0000197F1F707C081E090E003C08D2F869543
:101BF00090E0D9DB80E0D5D58D2F90E0DFC052D3C7
:101C00008F73E82EF12C4ED367E0F6D0E60102C0C8
:101C1000CC0FDD1F9A95E2F745D3662DEDD0F60186
:101C200002C0EE0FFF1F9A95E2F7CE0FDF1F3AD3E7
:101C300090E0BE0101D1C80FD91FC739D10514F0FA
:101C4000C6E9D0E08C2FADD5C701ADDB8E0133E006
:101C5000159507953A95E1F7011101C001E010E0F3
:101C6000C701A1DBC01BD10BD7FF02C0C0E0D0E091
:101C70008C2F97D517D3837031F4C70194DBCE0135
:101C8000959587958ED5C230D10554F70BD36DE06D
:101C9000B3D0E60102C0CC0FDD1F9A95E2F702D364
:101CA00090E0BE01B5D0C80FD91F80E085C0C091BB
:101CB0008000CC0FC73908F0C6E9D4E08C2F71D56D
:101CC00085E090E070DB809180006BD581E490E04E
:101CD0006ADBD15099F780ED92E065DB80E061D559
:101CE000D8CEF5E0843C9F07A9F488EE93E05BDB57
:101CF0008091EB00662D80D0B7DB80917700882340
:101D000081F0B092D500A092D4001092D30010922E
:101D1000D200BFCE25E0843E920731F48091E900E5
:101D2000A3DB88EE93E04AC08D599540A9F48091D9
:101D3000CF008111AECE80916A0033D584E690E069
:101D400032DB80E02ED58091810090E068EE73E078
:101D500042D08456910932C080917C00882381F161
:101D60008091BC00882361F12091CD003091BD00AD
:101D7000231305C0822F15D51092BC008ACE609126
:101D8000BB00231758F4832F821B36D0811101C06A
:101D900081E0820F06D58AE090E010C0862F90E0A7
:101DA0006EE170E018D06091BE00631B70E044D01B
:101DB000EB0121968FEF820FF4D4CE01F4DA69CED5
:101DC00085B7877E85BF85B7806285BF889585B7D3
:101DD0008F7D85BF5ECE0024552704C0080E591F95
:101DE000880F991F009729F076956795B8F37105CC
:101DF000B9F7802D952F0895991B79E004C0991F9C
:101E0000961708F0961B881F7A95C9F78095089554
:101E1000AA1BBB1B51E107C0AA1FBB1FA617B70710
:101E200010F0A61BB70B881F991F5A95A9F780952C
:101E30009095BC01CD01089597FB072E16F40094F0
:101E400006D077FD08D0E4DF07FC05D03EF490957E
:101E500081959F4F0895709561957F4F0895E19901
:101E6000FECF9FBB8EBBE09A99278DB30895262F96
:101E7000E199FECF9FBB8EBBE09A01970DB202168F
:101E800039F01CBA2DBB0FB6F894E29AE19A0FBE56
:061E90000895F894FFCF55
:101E9600060B180101010004780141020001010A44
:101EA6000A7878780107050100000000010329433C
:101EB6003202072D0009006E007100740000010255
:0E1EC60001000000000000010000000000000C
:00000001FF
