:1000000072C100008DC100000C945E1489C1000013
:1000100087C100000C944F1483C1000081C100000F
:100020007FC100007DC100007BC1000079C10000DC
:1000300077C1000075C100000C94111471C100005B
:100040006FC100006DC100006BC1000069C10000FC
:1000500067C1000065C1000063C1000061C100000C
:100060005FC100005DC100005BC1000059C100001C
:10007000303236322E323032332D31322D30332B76
:1000800035312331000001050414101115FF3F52D2
:1000900035DB291C3C7E2E0320E3316A26E22F6FDC
:1000A00034B82BAB2EFC2F4B30EF2F202FFF2DA47D
:1000B0002C1F2BCD2CDD2A7C2B632969294627F3A5
:1000C000266926B725A223DB220022192128200435
:1000D00020FC1EF41DF01CF01BF51A001A11192A41
:1000E0001849170F1644152B1423132D1246116EA1
:1000F00010650F710E8E0D8A0C9B0B930AA209C519
:1001000008B007B506D105E304ED03F402FF01FFD3
:1001100001FF01FF01FF01FF01FF01FF01FF01FFDF
:1001200001FF01FF01FF01FF01FF01FF01FF01FFCF
:1001300001FF01FF01FF01FF01FF01FF01FF01FFBF
:1001400001FF01FF01FF01FF01FF01FF01FF01FFAF
:1001500001FF01FF01FF01FF01FF01FF01FF01FF9F
:1001600001FF01FF01FF01FF01FF01FF01FF01FF8F
:1001700001FF01FF01FF01FF01FF01FF01FF01FF7F
:1001800001FF01FF01FF01FF01FF01FF01FF01FF6F
:1001900001FF01FF01FF01FF01FF01FF01FF01FF5F
:1001A00001FF01FF01FF01FF01FF01FF01FF01FF4F
:1001B00001FF01FF01FF01FF010100010001000239
:1001C0000002000200030003000400050005000611
:1001D000000700080009000A000B000C000D000FCA
:1001E000001000120013001500160018001A001C61
:1001F000001D001F0021002300250028002A002CDC
:10020000002E00300032003400360038003A003B47
:10021000003D003E003F00400041004200420042DD
:10022000004200410040003E003C003A00360032EF
:10023000002E00290023001C0014001500160018D1
:100240000019001A001B001D001E002000210023C1
:10025000002500260028002A002C002E0030003245
:10026000003500370039003C003F004100440047A2
:10027000004A004D005000530057005A005E0062D3
:100280000066006A006E00720076007B00800084C9
:100290000089008E00940099009F00A400AA00B07D
:1002A00000B700BD00C400CA00D100D800E000E7DC
:1002B00000EF00F700FF0007011001190122012BD8
:1002C0000135013E01480153015D01680173017E62
:1002D000018A019601A201AE01BB01C801D501E36B
:1002E00001F101FF010011241FBECFEFD4E0DEBFFA
:1002F000CDBF11E0A0E0B1E0EAE8FFE202C0059066
:100300000D92AE3BB107D9F722E0AEEBB1E001C0F0
:100310001D92A735B207E1F70E946D140C94C31724
:100320006FCEF89498ED9FBD83BF78940895482FC1
:100330009B01E4E2F2E080E090E05081552331F04F
:100340000196339680319105C1F70AC063E070E0F1
:100350000E942A17FC01EC5DFD4F4083328321830C
:1003600008950F931F93CF93DF93D0912402DD2341
:1003700051F10091250210912602C0910102C15055
:10038000C7FD0DC0EC2FEE0FFF0BEE5FFD4F019090
:10039000F081E02DB8018D2F09958111F0CFE4E2B5
:1003A000F2E0838180838481958192838183339677
:1003B00082E0E135F807A9F710925102109253023A
:1003C00010925202D2CFDF91CF911F910F910895D9
:1003D000BC0180915602ABCF10925602109255028A
:1003E0001092540281E08093F20108950F931F93BD
:1003F000CF93C82F08EA17E0CC2349F082E091DFC1
:10040000C8010197F1F780E08CDFC150F5CFCF91A3
:100410001F910F91089586E884B9E1E6F0E08081AC
:100420008260808388E082B91092200210922102BB
:100430008FEE83B90895AF92BF92CF92DF92EF9281
:10044000FF920F93CF93DF935C016B01EA01790177
:10045000BA0180E090E0202F30E040E050E00E94C0
:100460003B1761587F4F8F4F9F4F2FEF30E040E099
:1004700050E00E948717C901BE01621B730BE21690
:10048000F30630F48E199F09680F791FC70109C060
:10049000E616F70630F4C9018E199F09860F971FDB
:1004A000B701F50171836083F60191838083DF9149
:1004B000CF910F91FF90EF90DF90CF90BF90AF90D2
:1004C0000895E0910701F09108013196FB70F46006
:1004D000F0930801E09307018091F5018B5A809316
:1004E000F501E4918091F5018E0F08950F931F930C
:1004F000CF93DF9300D01F92CDB7DEB72091530189
:10050000309154014091550129833A834B83FE0178
:10051000319640E050E090E061E070E0B1919A01E6
:10052000220F331F8C0102C0159507952A95E2F71B
:100530009801237061F02130D1F4A0B39B0101C078
:10054000220FBA95EAF7322F30953A2318C0A0B39C
:100550009B0101C0220FBA95EAF720953A2F32236A
:1005600030BB32B3322332BB31B323230EC0A0B32E
:100570009B0101C0220FBA95EAF73A2F322B30BB0C
:1005800032B3322B32BB31B3232B21BB4F5F5F4FD2
:100590004330510519F60F900F900F90DF91CF91D6
:1005A0001F910F910895811102C081E001C082E086
:1005B0009DCF811102C085E001C08AE097CF8111F3
:1005C00002C084E001C088E091CF811102C084E1C3
:1005D00001C088E28BCF811102C080E101C080E2BE
:1005E00085CF811102C081E101C082E27FCF8111FC
:1005F00002C085E101C08AE279CF81E008959C01C3
:10060000A0916C00B0916D00E0916A00F0916B00D8
:10061000892BC1F461157105A9F410926D00109237
:100620006C0010926B0010926A008FEF91E0909333
:1006300069008093680010926F0010926E00889895
:10064000899808952115310511F0889A01C088987C
:100650006115710511F0899A01C0899881E0AB2B71
:1006600009F480E091E0EF2B09F490E0982B3093AF
:100670006D0020936C0070936B0060936A00992367
:1006800051F09A012052310960916E0070916F0013
:1006900026173707C8F350936900409368009111FB
:1006A00004C010926F0010926E000895282F30E061
:1006B000220F331FF901E754FE4F85919491F90100
:1006C000E357FF4F4591549160E070E098CF90E080
:1006D000880F991FFC01E754FE4F65917491FC014E
:1006E000E357FF4F4591549180E090E088CF282F49
:1006F00030E0220F331FF901E754FE4F85919491AA
:10070000F901E357FF4F45915491BC0178CFEF9227
:10071000FF920F93CF93DF9300D000D0CDB7DEB719
:1007200090E0880F991FFC01E754FE4F45915491CA
:10073000FC01E357FF4FE590F490E0910C01F0E0ED
:10074000E25FFE4F05899701BE016F5F7F4FCE01CB
:10075000039671DE69817A81A7018B819C814FDFCD
:100760000F900F900F900F90DF91CF910F91FF900E
:10077000EF900895CF92DF92EF92FF920F93CF9375
:10078000DF9300D000D0CDB7DEB790E09C01220F00
:10079000331FF901E754FE4FE590F490F901E35758
:1007A000FF4FC590D4906FEF70E00E942A1766E962
:1007B00070E00E946017062FE0910C01F0E0E25F0C
:1007C000FE4F858986FD00959601A701BE016F5FEA
:1007D0007F4FCE0103962FDE69817A81A6018B813E
:1007E0009C810DDF0F900F900F900F90DF91CF91B4
:1007F0000F91FF90EF90DF90CF90089520916C00C3
:1008000030916D002817390738F420916C00309131
:100810006D002F5F3F4F0DC020916C0030916D0037
:100820008217930750F420916C0030916D00215095
:10083000310930936D0020936C0020916A00309153
:100840006B002617370738F420916A0030916B004F
:100850002F5F3F4F0DC020916A0030916B006217EF
:10086000730750F420916A0030916B0021503109D8
:1008700030936B0020936A0020916C0030916D00E2
:100880008217930741F420916A0030916B0081E058
:100890006217730709F080E00895E82FF0E0EE0F8B
:1008A000FF1FE754FE4F8591949160E070E0A6CF62
:1008B000E82FF0E0EE0FFF1FE754FE4F65917491B3
:1008C00080E090E09BCFE82FF0E0EE0FFF1FE754B1
:1008D000FE4F85919491BC0191CF0F93CF93DF93FD
:1008E00000D000D0CDB7DEB790E0880F991FFC0193
:1008F000E754FE4F45915491FC01E357FF4F25917A
:100900003491E0910C01F0E0E25FFE4F0589BE01F9
:100910006F5F7F4FCE0103968EDD69817A818B8177
:100920009C816CDF0F900F900F900F90DF91CF9113
:100930000F910895EF92FF920F93CF93DF9300D022
:1009400000D0CDB7DEB790E09C01220F331FF90134
:10095000E754FE4FE590F490F901E357FF4F2591DE
:1009600034916FEF70E00E942A1766E970E00E94F0
:100970006017062FE0910C01F0E0E25FFE4F8589E1
:1009800086FD0095A701BE016F5F7F4FCE010396E4
:1009900052DD69817A818B819C8130DF0F900F90CD
:1009A0000F900F90DF91CF910F91FF90EF900895EE
:1009B000CF93DF9300D000D000D0CDB7DEB79091B9
:1009C0000E0120911202309113022D5F3C4009F478
:1009D00092E0843019F460931A0121C06623F9F083
:1009E000823019F427E9261B622F26E0E6E5F1E0C4
:1009F000DE01119601900D922A95E1F7E82FF0E0C3
:100A00003197EE0FFF1F21E030E02C0F3D1FE20F6A
:100A1000F31F0190F081E02DE90FF11D6083269610
:100A20000FB6F894DEBF0FBECDBFDF91CF91089512
:100A3000813019F460933B010895823011F4609382
:100A400052010895BF92CF92DF92EF92FF920F93DF
:100A50001F93CF93DF93EC0140910E019091190108
:100A6000992311F0E2E001C0E42FF0E0E25FFE4FD5
:100A7000228120930A01858180930901E92FF0E00A
:100A8000E25FFE4F3185622F70E0442349F0313040
:100A900039F49B01280F311DC9019595879538C000
:100AA000C617D707A4F1682F70E06C177D0784F193
:100AB000411102C08C2F2CC0821B032F10E001506B
:100AC0001109E82EF12CC701B8010E947417609338
:100AD000EF016695E62FF0E0822FC12CD12CB12CCE
:100AE000B316B1F0C601B8010E946017822F860FBD
:100AF000CE0CDF1CAE01481B510957FF03C05195B6
:100B000041955109E417F5071CF4B394E9CF822FFE
:100B1000DF91CF911F910F91FF90EF90DF90CF90D9
:100B2000BF90089580911C0180930B018091210159
:100B300080931E0180930C01E3E2F1E084858193B0
:100B400081E0EF32F807D1F708958091EB01882317
:100B500051F09091F8019093EE018093EA01109288
:100B6000E9011092E801089581E00895823019F4B6
:100B700060934D01089561116093480108956623C3
:100B800089F0813061F48091140290914A01891BAF
:100B9000681B60934A0182E080930D0103C0635E8D
:100BA0006093490180914901873418F086E480936D
:100BB0004901089560934E010895E82FF0E0E25B4B
:100BC000FE4F608308957FEF780F40911F01509191
:100BD0002001662359F021E030E002C0220F331FCC
:100BE0007A95E2F7CA01822B932B0AC081E090E04C
:100BF00002C0880F991F7A95E2F780958423952388
:100C00009093200180931F010895CF93DF938EE08E
:100C100091E09093F4018093F30182E0E7DBF89494
:100C2000C0E0D0E0E091F301F091F401EC0FFD1F82
:100C300060812196CE010E94B117C534D10591F78C
:100C400065EA80E090E00E94B1177894DF91CF913F
:100C500008951092220280B191B12091F501829500
:100C6000869586958370990F990F890F820F8093CF
:100C7000F50180911702882309F41AC11092170216
:100C8000809120029091F901992329F01F981092E8
:100C9000230210922002811151C080910D018823FE
:100CA00029F080911C0290911D021AC08091F901D7
:100CB00020911802309119028823B9F080911C020A
:100CC00090911D0243E0969587954A95E1F7820F32
:100CD000931F53E0369527955A95E1F7821B930BA6
:100CE000909319028093180201C0C9012091480114
:100CF0002750220F6AE171E00E946017260F2093AF
:100D000016028091DF01882311F0815007C021393C
:100D100038F460E070E084E00ADB85E08093DF0176
:100D20008091F9018111BBC08EE884B981E0809384
:100D30002002109221028FEE83B9B1C0813009F0F8
:100D4000AEC080910D01882341F080911E029091E8
:100D50001F0290931B0280931A0280911A029091B5
:100D60001B0260914A019C01A6E036952795AA9541
:100D7000E1F7062E000C770B260F371F2E5031405F
:100D80003093150220931402B5E096958795BA9595
:100D9000E1F720910D01211128C02091CE01E22F11
:100DA000F0E0EE0FFF1FE153FE4F40815181DC0167
:100DB000A41BB50BAD01918380832F5F2770209317
:100DC000CE019D01220F331F220F331F820F931F6D
:100DD0002091490130E0261B370B225F3E4F220F46
:100DE000331F821B930B23E00EC0EFECF1E08193E5
:100DF0009193B1E0EF3DFB07D1F7CFCF009709F01A
:100E00000196215029F018161906C4F70197F9CF59
:100E100018161906E4F457FD39C02091CD011216B9
:100E20000CF1880F991FBC016350710977FF02C054
:100E30006F5F7F4F759567951616170614F061E082
:100E400070E088E1861B8093CD0185E026C08C3F51
:100E50002FEF9207DCF457FF19C02091CD0127FF37
:100E600005C02450281B2093CD0118C024EE281B58
:100E70002093CD0120911602233980F06CEF7FEF93
:100E8000681B790B7595679586E007C080911602FF
:100E9000823920F060E070E087E049DABCDA8091C6
:100EA0000D01882329F080910D01815080930D015F
:100EB0000895882321F0813031F4829805C082980A
:100EC00092988A980895829A929A8A9A0895CF93CE
:100ED000C82F8091F801811109C0CC2339F080918D
:100EE0005201C81718F4F3DF82E080DA8091F9012B
:100EF00081110BC0FBDA91E0C11101C090E081E0EB
:100F0000C73408F480E0890FD4DFC11108C04FEF67
:100F100051E060E070E080E090E071DB0FC0809114
:100F20000C0190E065E070E00E942A178F579E4FF9
:100F3000DC01ED91FC918FEF8C0F09958091F80108
:100F4000C8138093F701C093F801C093F601C23033
:100F500010F482E005C0CA3010F481E001C080E0E6
:100F6000CF91DFC9CF93C091F80188E28C0F873908
:100F700008F080E0ACDF83E039DA8C2FCF91A7CF87
:100F8000CF93C091F80180E0A2DF83E02FDA8C2FAD
:100F9000CF919DCF8093F0019091F801981718F4AC
:100FA000282F291B02C0292F281B3091E201311163
:100FB00006C030913C01332369F0223058F0809311
:100FC000E30184E08093E10181E08093E20190936A
:100FD000E40108957CCF0F931F93CF939091160255
:100FE0002FEF290F203920F480E080DA80E09EC0C6
:100FF000E82FEF702091EC01211125C0C82FC29578
:10100000CF7020914D0130E043E0220F331F4A950D
:10101000E1F762177307C0F48091F101482F50E0A7
:10102000421753078CF4882379F021E08091F7016F
:101030008F3008F420E081E0C23009F080E0822B9C
:10104000C1E0C80F36C0C2E0E73088F1E730A9F44C
:101050000091C60110E00F5F1F4F33DA65E00E9478
:1010600054179801290F311DC90166E070E00E94F4
:1010700074178093C601FC013AC0E830D1F4809126
:10108000F901882311F02FE001C023E030E0622352
:101090007323672B51F48091C60190E0019666E0BE
:1010A00070E00E9474178093C601E091C601F0E0E1
:1010B0001EC08091F901882381F080E0E82FF0E0E4
:1010C000E159FE4F2081921710F08E5FF7CF3197D4
:1010D000E081F0E0EB57FF4F0CC0CB019695879570
:1010E00063E070E00E946017FC01EE0FFF1FEA57FB
:1010F000FF4FE491C33071F48091C50190E00196F7
:1011000063E170E00E9460178093C501DC01A45A7E
:10111000BE4FCC91CC2329F0C13029F0EE0FC2E0B4
:1011200002C0C0E0E0E08E2FE1D98C2FCF911F915B
:101130000F91BFCECF93DF9390910C01981759F088
:10114000C82FD091F80180E0C2DEC0930C018D2F32
:10115000DF91CF91BCCEDF91CF910895813019F40A
:1011600010921C010895823019F460931D010895B6
:10117000833019F460931B010895843019F460934F
:101180000F010895853011F460933C010895CF93C9
:10119000C0911901C1114FC0883039F41092EB0190
:1011A0001092E9011092E80147C0813B81F48091DF
:1011B000EB018150833008F03EC083E08093EB0167
:1011C0008093EA011092E9011092E80134C0853B56
:1011D000B1F4CB016EE370E00E946017892B61F5DA
:1011E0008091EB018A3F40F58B5F8093EB01809308
:1011F000EA011092E9011092E801B4DE1DC08130CD
:10120000D1F48091E8019091E901019688382EE0AF
:10121000920728F49093E9018093E8010DC01092A1
:10122000E9011092E8018091EB01882329F08150B7
:101230008093EB0101C0C1E08C2FCF910895FF9204
:101240000F931F93CF93DF938C01EB01F42E8091CA
:10125000120290911302892B31F0E0911202F09169
:10126000130289E009951093130200931202012BD7
:1012700039F0E0911202F0911302BE018F2D099511
:1012800081E08093F201DF91CF911F910F91FF9048
:101290000895CF93DF93E0910102EE2359F0E150DE
:1012A000E0930102F0E0EE0FFF1FEE5FFD4FC08103
:1012B000D18102C0C0E0D0E0E0910102EE2341F014
:1012C000F0E0EE0FFF1FE050FE4F8081918102C0E1
:1012D00080E090E04AE060E070E0B1DFCE01DF91B5
:1012E000CF910895883029F41092E0011092C7013F
:1012F00015C0813001F59091C701911107C060328E
:10130000710570F18093C70167D82AC0913089F4C4
:101310006B3B710528F082E08093C70180E01FC01D
:1013200061157105E9F06270862F880F880F8E5E57
:1013300016C0AFDF15C0813811F0813E89F491E00D
:101340009093C701813E21F48091E001865F03C044
:101350008091E0018F5F8093E0013ED88BE4B7DDA0
:1013600080E008959C0190910102983088F4E92F63
:10137000F0E0EE0FFF1FEE5FFD4F318320839F5F94
:101380009093010248E0C9015ADF8091010208955B
:101390008FEF08950F931F93CF93DF93EC018B0191
:1013A00078DFB801CE01DF91CF911F910F91DACF95
:1013B000813C29F460E070E08EE49EE006C0823C4F
:1013C00039F460E070E083E29DE0E4DF80E00895BE
:1013D00081E00895843011F58091120290911302FA
:1013E00021E18E39920729F469E170E083E59AE002
:1013F00013C083559A4061F49091F801923040F007
:10140000892F869596959695890FC4DD80E008957D
:1014100060E070E08EE49EE0BDDFF8CF81E00895EB
:10142000813C29F460E070E08EE49EE006C0823CDE
:1014300031F460E070E088ED99E0ACDF16C0813BEC
:1014400049F4CB016EE370E00E946017892B69F4C8
:1014500089DD0BC0813E59F4CB016EE370E00E9440
:1014600060176F5F60934701D0DB80E0089581E0F3
:101470000895813C29F460E070E08EE49EE006C0AF
:10148000823C31F460E070E080E19AE083DF07C0E5
:10149000873B39F460E070E08DE09DE063DF80E041
:1014A000089581E00895BF92CF92DF92EF92FF926C
:1014B0000F931F93CF93DF93C82F8B0180911E0151
:1014C00080930C01D0900A01F090090180910E01E7
:1014D000882319F0B090EF0102C0BB24B394C090F0
:1014E0000F01809119018111C0901A01CC2051F097
:1014F00081E0C81621F080910B018F1518F0F6E9F4
:10150000EF2E01C0EF2CD091EB01B8018C2F3FDE04
:101510008091EB01882339F0D1110CC09091F80132
:101520009093EE0107C0DD2329F060E070E08EE4C7
:101530009EE032C0C83029F0CA30B9F400910B01E6
:1015400010E08D2D90E08017910738F48F2D90E0FA
:101550000817190710F400930B01C80173DA1ADD9C
:1015600081E080930601D0E0D2C1C13CF1F2C23CDF
:1015700059F48091F8018E1510F48E2D02C08091DF
:101580000B0108DDE2DAEFCFC43C41F480E09FDCE0
:1015900060E070E08DE79FE0FDDEE5CF9FE49C0F0B
:1015A000923008F056C080910E01882341F0C801A6
:1015B00068E170E00E946017892B31F0D4CF609110
:1015C000160170E0C801F6CFD091E201D111CBCF66
:1015D0002091F8010115110561F4C23B11F48FEF60
:1015E00005C02F15E0F7D21608F181E080930601BF
:1015F0001DC0E0911601F0E0CF0166E371E00E94AA
:101600002A178017910710F42F1548F7CF016CE6C1
:1016100072E00E942A178017910740F4D21630F02A
:10162000A1DC60E070E08DE79FE0B4DE8091060110
:101630006B2D70E0082E000C990B0E942A17209148
:10164000F801820F911DFED980930B01A3DC7DDA96
:101650005EC19FE19C0F923020F48091060181953C
:1016600080CFC13009F089C00932110511F4C0934F
:101670000601882379F10091EE0110E090E0B801B5
:101680000E942A17EC01E091EA01F0E0BF010E94FC
:101690007417262FCE01801B910BBF010E94741777
:1016A000322F361B8091E8019091E9016EE370E0E2
:1016B0000E946017832F90E00E942A176CE370E06D
:1016C0000E946017261B622F09F461E06093F60107
:1016D0006093F001C091F6012091F8018C2F90E009
:1016E000821B91096091CA017091CB016F5F7F4F9E
:1016F0007093CB016093CA01009709F434CF97FF30
:1017000005C0233830F040E450E005C040E052E02E
:1017100002C040E051E05695479597FD019695959A
:1017200087950097C1F74617570708F01CCFC217D7
:1017300010F4CFEF03C02C1710F4C1E0C20F80915A
:101740000C0190E065E070E00E942A178F579E4FD1
:10175000DC011296ED91FC9113978FEF8C0F099598
:10176000882331F0D091F6018C2FB1DBD093F601B4
:101770001092CB011092CA01F6CEC530A1F480912F
:10178000F801823408F4EFCE90E0801B910B813495
:10179000910534F0873991056CF186E990E02AC013
:1017A00081E490E027C0C630B9F49091F8018091AF
:1017B000F001981708F0D7CE090F111D90E080179F
:1017C000910734F00134110524F401E410E001C064
:1017D0008C010093F601C7CEC73079F49091F601E1
:1017E0008091F801891710F48F5F04C0981708F0F2
:1017F000BACE81508093F601B6CEC33C19F0C63CF8
:1018000041F517C060911F017091200180E090E0C8
:1018100020E0AB01082E02C0569547950A94E2F7E6
:101820004170240F01968C30910599F7223008F011
:101830006DC081E090910E01911180E080930E01C6
:10184000E4D99EDB8091F80190E0FCD880930B01F5
:1018500098CED0911901D11159C08DE48C0F8230EE
:10186000C0F4C33B69F480910C0190E065E070E046
:101870000E942A178F579E4FFC018481811146C018
:10188000012B09F070CECC2011F086E9E82E8E2DC8
:1018900016C08DE18C0F8230A0F4C33E71F48091AC
:1018A0000C0190E065E070E00E942A178F579E4F70
:1018B000DC0114968C91811129C080910B016ADBA7
:1018C00026C0C73B29F460E070E089EF9CE01CC0B3
:1018D000CA3CA1F48091F80180931C0180910C0115
:1018E00080932101E3E2F1E08FE291E021912387EF
:1018F0008E179F07D9F789D935DB09C0CA3B31F468
:1019000060E070E081E09DE02DDD01C0D1E08D2F31
:10191000DF91CF911F910F91FF90EF90DF90CF90CB
:10192000BF9008950F931F93CF938B01C42F8830DE
:1019300091F480910C018093C9011092C80180E05C
:10194000C6DA8091FA0181114FC08091C8018F5F82
:101950008093C80133C0982F907F903B21F58091F0
:10196000C8014817E8F081508C3040F49091ED01A7
:10197000992321F090910C018913DCDBC8016DE5FE
:1019800070E00E946017069749F48091C8018F5F4C
:101990008093C801C81740F188E303C082E101C009
:1019A00080E095DA21C0903E79F48091C8018823C7
:1019B000A1F0481790F08091C901BCDB60E070E0B5
:1019C00082E799E0CFDC10C08A3049F46091E001F1
:1019D0008091C801F901099518D95BDC05C08930EF
:1019E00019F48091C901A6DB80E0CF911F910F917E
:1019F000089528ED34E043E095CF28ED34E044E04D
:101A000091CF2EEA38E045E08DCF28E135E042E085
:101A100089CF26EB35E042E085CF2FEB35E042E081
:101A200081CF2AED35E041E07DCF2DED35E043E07B
:101A300079CF91E09093ED0123EE35E04CE072DF39
:101A40001092ED010895CF93C0911901C11125C0E5
:101A5000813C29F460E070E08EE49EE006C0823CA8
:101A600031F460E070E089E39AE094DC17C0833CD5
:101A700061F48091220190E001966CE070E00E9498
:101A8000741780932201C1D809C0873B31F460E00C
:101A900070E089E09DE066DC01C0C1E08C2FCF9151
:101AA0000895CF92DF92EF92FF920F931F93CF93FF
:101AB000DF93E0910C01833CE1F400911F01109150
:101AC00020018E2F2CE0CCE0D0E090E00196BE010A
:101AD0000E947417A801082E02C0569547950A94D3
:101AE000E2F740FF03C0E81319C016C0215069F7A0
:101AF000FACFF0E0E25FFE4FC589833B09F08CC06E
:101B00006115710529F481E08093C4011092C3012D
:101B10008091C401811109C0C1E0A4C00BDB809198
:101B20000C0180931E0171D89CC0309105011316E1
:101B30001CF4CF3F39F455C0332309F452C0CC23F1
:101B400009F44FC020913B012223A9F0CB0168E1A9
:101B500070E00E946017892B09F083C0223008F4DE
:101B60004DC0622F70E0615071098EEF90E00E94CD
:101B70007417862F01C081E0632F330F770B90E03D
:101B80000E942A177C01EC0EF11CF7FC39C08FEF84
:101B9000E816F10409F0B4F5211102C0CE2D33C0CE
:101BA000C22ED12C81E0C81AD1088FEF90E0B60187
:101BB0000E9474176695E62FF0E000E010E0C8017F
:101BC000B6010E946017C62FC701861B9109E8174E
:101BD000F907CCF401501F4F802F8195821778F3BD
:101BE00012C08091C201C8130EC08091C30181113F
:101BF00001C0C6D981E08093C30105C0CFE703C00F
:101C0000C0E001C0CFEFC093C201E0910C01F0E051
:101C1000E25FFE4FC58B14C0833EB1F41092C40145
:101C2000C11102C081E005C0CF3F31F080910501B4
:101C300081958093050102C0C09305010E940506AD
:101C40008091F80144D90DC0C0911901C11164CF30
:101C5000893B09F061CF60E070E089E19DE082DBC3
:101C600001C0C0E08C2FDF91CF911F910F91FF90A9
:101C7000EF90DF90CF90089590913C01992369F007
:101C80008093E30188E08093E10181E08093E201A9
:101C90008091F8018093E401089519C90F931F936F
:101CA000CF938B018830A1F480E0E6DF8091E201E0
:101CB000082B1092F10180911E0180930C0110926B
:101CC000EB01012B09F05AC081E08093F90156C065
:101CD000813059F46931710508F450C0C091E201B6
:101CE000C1114CC08093F90103C1833041F580914B
:101CF000F1018F3F19F08F5F8093F10180911C01FA
:101D0000882361F080911D0190E062EC71E00E94F7
:101D10002A170817190710F00E949205B801809140
:101D20004B0159D980914E01882341F190E062EC3A
:101D300071E00E942A178017910700F553C0813B7C
:101D400099F481E090E00E94220596DF80911B01CA
:101D5000811114C080910E01811103C00831110559
:101D600068F061E070E02AC0813ED9F3813841F427
:101D700080910B0190E00E9422057EDFC0E0B8C098
:101D8000813C21F460910B0170E018C0823B81F42A
:101D90001092F10180910F019091190191118091A0
:101DA0001A01811103C086E990E0E5CF86E9E5CF0D
:101DB000823E59F0823C29F466E970E083E59AE0BE
:101DC0000CC0833921F41092E20180E0D6CF833C2D
:101DD00031F460E070E083E29DE0DCDACFCF843C58
:101DE00031F4C0D860E070E08DE79FE0F6CF8D3B26
:101DF00041F4F89488ED8FBD88E880BF7894A89569
:101E0000FFCF8F3C29F460E070E084EB95E0E5CFF4
:101E1000C09119018A3B79F4672B69F4CC2331F026
:101E2000A1D8109219010E940506A8CF60E070E0C9
:101E30008DEF9CE05AC0C1115AC0833B29F460E089
:101E400070E08EE991E147C0873CA1F490914B018D
:101E5000892F82958F708F5F83708295807F9F70AE
:101E6000892B80934B0160E070E0B5D80E94050695
:101E700079D83EC0873BD1F481E08093EC01C80162
:101E80008F739927892B69F490914B01892F8F705B
:101E90008F5F292F207F6BE00E945417922B909325
:101EA0004B01B80180914B0196D822C0873E19F4AE
:101EB0001092EC0106C08A3C39F454D881E080933A
:101EC00019010E94050614C0863C39F44BD860E025
:101ED00070E08CE393E15EDA0BC0893B41F4012BA7
:101EE00031F460E070E085E09DE03CDA01C0C1E0E3
:101EF0008C2FCF911F910F9108950F931F93CF9324
:101F0000DF93C82F8B01873B21F480E00E94670795
:101F10007DC080798039B1F4209110019091110138
:101F20008C2F8F70813021F4822F921748F407C0D4
:101F300080911C01811104C0822F291708F4892F78
:101F40009BDE0EC0803811F480E096DEC83041F48C
:101F50001092F10160E070E080914C013CD856C0D5
:101F6000C13039F40931110508F497C0C093F90163
:101F700018C0C330D9F48091F1018F3F19F08F5F01
:101F80008093F10180911C01882359F080911D01FB
:101F900090E062EC71E05ED70817190710F00E941C
:101FA0009205B80180914C0116D877C0C33C39F432
:101FB0000E94B20760E070E08EE49EE015C0C43C71
:101FC00021F460910B0170E00DC0C43B39F40E9414
:101FD000C0071092560261E070E004C0C53C31F4C5
:101FE00066E970E083E59AE0D5D957C0C33B71F448
:101FF000C8016EE370E064D7892B41F460E070E0C3
:1020000083ECDF91CF911F910F914BCDD0911901AE
:10201000D11145C0C73CB1F490914C01892F8295F4
:102020008F708F5F83708295807F9F70892B8093E4
:102030004C0160E070E00E94EB070E9405060E94E0
:10204000B2072EC0C73BD1F481E08093EC01C801F8
:102050008F739927892B61F490914C01892F8F7090
:102060008F5F292F207F6BE01FD7922B90934C011D
:10207000B80180914C010E94EB0712C0C73E29F4C1
:102080001092EC010E9405060BC0CA3B41F460E0CF
:1020900070E081E19DE066D903C0D0E001C0D1E0ED
:1020A0008D2FDF91CF911F910F9108950F931F9363
:1020B000CF931092FC0180915402909155029C01A3
:1020C0002F5F3F4F88279078822B932B9093550258
:1020D000809354029091FA012FB1822F8095881F2E
:1020E0008827881F8093FA01981729F11092F90127
:1020F0008093FA0190915602892F27FD0AC08069CA
:102100009F709F3009F08F5F8093560280E090E0CF
:102110000CC08F7E95FD02C0806801C0806C8093EA
:10212000560280915402909155020E94E80110924B
:102130005502109254020091540210915502809160
:10214000F9018823B1F0B80183E00E9497010E9451
:10215000B1010134110528F00F701127012B09F08E
:1021600049C01092CC0181E0809323020E940B02AF
:1021700032C0C09156028C2F807F803B19F460E002
:1021800070E001C0B80181E00E949701C4FF13C054
:10219000C5FF02C0C8010CC008311105E0F0109263
:1021A000550210925402C062C093560280E090E043
:1021B0000E94E80110C0CC2371F0C5FD0AC00231B5
:1021C000110548F0C064C093560280E090E00E9480
:1021D000E8010E94EC018091CC01811105C08FEED5
:1021E00083B981E0809317028091CC018F5F8F715A
:1021F0008093CC01CF911F910F910895809122027D
:1022000081110E9429068091FC0181114FCF089510
:10221000EF92FF920F931F93CF93DF93EC0100E3B4
:1022200017E08CECE82EFF24F3942097D9F08091EE
:10223000F201811119C08091F801823028F482E006
:102240000E949101C70104C080E00E949101C80171
:102250000197F1F780E00E949101D0DF0E94B10167
:102260002197E3CF81E001C080E0DF91CF911F9102
:102270000F91FF90EF9008950F931F93CF93DF93EB
:10228000C82F882311F006EA02C00CE0C1E0D0910B
:102290000C0110E0809122010E949A0888E20E94BD
:1022A0006707D0930C01C801B3DF809122010E941F
:1022B0009A0880E00E946707D0930C018AEF90E0B3
:1022C000A7DFC15039F78D2F0E949A088AE992E062
:1022D000DF91CF911F910F919BCFCF93DF9364E656
:1022E000E3D5282F892F6AE0DFD5EC01222341F0C6
:1022F000822FC2DF8C2FC0DF8D2FDF91CF91BCCF1B
:10230000C111F8CFF9CFCF93DF93D82FC3E08091DD
:102310000B010E94670788EC90E07ADFDD2319F05B
:1023200080E991E075DF80E00E94670788EC90E02B
:102330006FDFC15061F7DF91CF910895FF920F9346
:102340001F93CF93DF93D82F8B01C091E50181E0DC
:102350008093E701C43009F0E6C0F090EB018D2FC7
:102360000E94C708FF2051F08091EB01811106C047
:1023700060E070E08EE49EE00DD8D5C0D83021F446
:1023800081E080930301D1C0D23C19F41092EB019B
:10239000DFC0D13BC1F490910201012B49F4963684
:1023A00010F08FEF03C0923018F481E080930301A6
:1023B00080910301890F11F481E048C1873608F448
:1023C00045C186E643C1D13E31F480910301819538
:1023D000809303010BC1D23B61F481E08093030140
:1023E00080910201823008F409C18150809302017A
:1023F00005C1D13009F0B0C00932110511F4D093F4
:1024000003019091C101892F880F97FD809590E07D
:1024100069E070E01FD5292F8091C001682F660FF9
:1024200087FD60958091010170E090E013D5290F40
:102430008091BF01682F660F87FD60958091000134
:1024400070E090E007D5920F6091020170E0690F93
:10245000711D8091EB01813091F48091E8019091A0
:10246000E90125E0969587952A95E1F724E730E084
:10247000A901481B590BCA01EDD4B90121D5862FFA
:102480000E94670700FD08C00E9461028170909160
:10249000C101890F8093C1019091C0018091BE015B
:1024A000890F8093C0010E94610265E2FDD4809192
:1024B000BF01980F9093BF010E9461028F7331F4A6
:1024C0000E9461026DE0F0D49093BE01C0910101C1
:1024D000CC2339F00E9461028F7319F4C150C0936C
:1024E00001010E946102811108C00E9461026EE038
:1024F000DBD4909301011092C001C0910001C33060
:1025000038F00E9461028F7119F4C150C09300012C
:102510000E9461028F7709F09DC00E94610287705E
:102520008093000197C0D83041F480913D018093A1
:10253000E50181E0809304018BC0D13C39F460E077
:1025400070E08EE49EE00E94CA0982C0D23C31F461
:102550008C2F90E001961AC0D13C89F3D33C89F4CA
:1025600080910C0190E001966CE070E0BDD40E9477
:102570009A08EC2FF0E0E25FFE4F80910C0180ABF7
:102580005EC0D43C59F48C2F90E0059666E070E074
:10259000ABD480933D018093E50151C0D13B21F53F
:1025A000C23090F400FD54C0EC2FF0E0E25FFE4F2B
:1025B00086A990910401891B883020F08F3F69F52E
:1025C0008EEF2BC088E029C0C53009F041C0909142
:1025D000460180910401890F823010F482E026C008
:1025E000893720F188E722C0D13E31F4809104017F
:1025F00081958093040123C0D23BF9F481E080935C
:102600000401C23060F400FD23C0EC2FF0E0E25F73
:10261000FE4F86A98F3FE1F08F5F86AB19C0C530B2
:10262000B9F480914601833018F0815080934601BF
:10263000809146010E9467070BC0D23E19F40E94A8
:10264000050606C0D13031F081E010C08093020150
:1026500080E00CC00932110519F481E08093040177
:102660008091F501080F0093F501F2CFDF91CF9132
:102670001F910F91FF900895FF920F931F93CF9397
:10268000DF9300D01F92CDB7DEB78B838B01F09024
:102690000B0180798983803951F5EB81EF70E4304B
:1026A00020F01092E6011A8276C091E09093E60144
:1026B000F0E0E25BFE4F80812FEF280F263948F4CF
:1026C00080930B011092E70180911E0180930C0111
:1026D0000CC09093E701873940F190E08759910948
:1026E00066E070E001D48093E5011A820EC0898112
:1026F000803849F41092E60180E00E94670781E08B
:102700008093F20101C081E08A838091E6018823F1
:1027100009F441C08B81883051F48091E70188230E
:1027200031F0B80188E00ADE02C01A8203C0898154
:10273000803951F481E08093E6018091E7018111B5
:102740002AC080910B0106C08981803831F4109233
:10275000E60180E00E9467071EC08B818130D9F4BA
:102760008091E601882349F08091E701882309F4EC
:102770004CC0B80181E0E2DD0EC080E00E9476022C
:1027800080E00E945907073381E0180708F43DC034
:102790008B818093F901F0920B018B81883019F4C1
:1027A000B801ABDB30C08B81813039F48091E60118
:1027B000811127C0B80181E004C08B81833051F4BE
:1027C000B8010F900F900F90DF91CF911F910F9153
:1027D000FF9093CB8B81833CA1F0863C49F40E940F
:1027E000B20760E070E08EE49EE00E94CA0909C072
:1027F0008B81873B41F460E070E085E19DE00E94C1
:10280000B20980E005C08A8103C0F0920B01CECFEF
:102810000F900F900F90DF91CF911F910F91FF902C
:1028200008951F920F920FB60F9211242F933F938A
:102830008F939F93AF93BF93EF93FF938091210268
:102840008823E9F0E091200220B131B1F0E0EE0FF1
:10285000FF1FDF01A45EBD4F2D933C93E85EFD4F4B
:10286000808191818217930708F401962817390710
:1028700008F401979183808381E08093220281E0B4
:1028800080932102FF91EF91BF91AF919F918F9122
:102890003F912F910F900FBE0F901F9018951F9290
:1028A0000F920FB60F9211248F9381E08093FC0159
:1028B0008F910F900FBE0F901F9018951F920F923F
:1028C0000FB60F9211248F9381E08093FB018F91BB
:1028D0000F900FBE0F901F901895F89485B7877FC3
:1028E00085BF88ED90E00FB6F894A8958FBD90B79E
:1028F000977F90BF0FBE88E08CB98FE780BB82EADC
:102900008093720081E1809371008FEF91E090934A
:1029100069008093680080E882BB87BD8CB78860BF
:102920008CBFA89580E480BF0E940B02789481E060
:102930000E94F60160E070E08AEE99E00E94B20920
:102940001092F2010E94B2079FB1892F8095881FD3
:102950008827881F8093FA0197FF17C08EE091E0C7
:102960009093F4018093F30182E00E94F601F894C1
:1029700080E090E0EED2853A09F046C00091F30184
:102980001091F401C1E0D0E036C0C0E08C2F0E946D
:10299000670783E190E03CDC8C2F86950E946707F7
:1029A00083E190E035DC9FB1892F8095881F8827CF
:1029B000881F8093FA0197FD13C0CF5FC03431F7B1
:1029C00065E181E00E94BF050E940506C6E98C2FE3
:1029D0000E94670784E090E01BDCC150C1F7BECFC6
:1029E000CC2309F4BBCF8C2F0E9467078DE090E0C9
:1029F0000FDCC150F5CFCE01ACD2F80181938F012D
:102A00002196C634D105B9F7789480911C018111C3
:102A10000E94920560E070E081E59DE00E94B209AD
:102A200061E070E08EE49EE00E94B20943E4442E2F
:102A300052E0552E60E4862E7724739477E0672E5B
:102A4000CC24C394D12CF5E09F2EAEE4AA2EAEE0A8
:102A5000BA2E0E94B1018091FF019091000200976F
:102A600051F06091FD017091FE010E94CA0910921F
:102A700000021092FF018091F901882309F44EC0F1
:102A800080E00E946707A89540BE1F989FB1892FDC
:102A90008095881F8827881F8093FA0197FFF6CFBB
:102AA0000E94EC018CB788608CBF109222021092B9
:102AB000FC011092FB018091F901882331F1809192
:102AC0002302882321F086B78F79806203C086B7FE
:102AD0008F79806486BF86B7806186BF889586B708
:102AE0008F7E86BF8091FB0181111092F901809148
:102AF0002202882321F0709217020E9429068091F9
:102B0000FC018823C1F2D2DAD6CF50920D018CB7E6
:102B1000877F8CBF0E940B02A89580BE6FDB10924E
:102B2000F2018091120290911302F5E0843B9F071D
:102B300019F5C0E7D0E0FE0184918053803110F494
:102B40009BDB11C010E0812F81708295880F807E01
:102B50000E94670780E190E05BDB1F5F193199F706
:102B60008AE992E055DB8CE291E052DB2196F0E0BD
:102B7000C438DF0701F7EEC021E18E39920779F002
:102B800033E18C33930709F0CEC08091E7018130A7
:102B900009F01AC18091E601882309F415C1C0919A
:102BA000E501EC2FF0E0E25FFE4F80A980930C017D
:102BB000C230D1F030F0C330B9F1C53009F496C05D
:102BC00048CFD6A986E90E946707C11103C082E0F9
:102BD00090E003C08D2F869590E01ADB80E00E9484
:102BE00067078D2F90E029C1D0910B01C0E0C11182
:102BF00002C080E003C0C53019F481E00E949A0849
:102C00008D2F0E94670781E290E002DB80E00E9446
:102C1000670782E490E0FCDACF5FCA3041F7809129
:102C20001E0180930C0115CF0E9461028F73E82E64
:102C3000F12C0E946102662D37D1E60102C0CC0F53
:102C4000DD1F9A95E2F70E946102692D2DD1F601F0
:102C500002C0EE0FFF1F9A95E2F7CE0FDF1F0E9412
:102C6000610290E0BE0140D1C80FD91FC739D1051C
:102C700014F0C6E9D0E08C2F0E946707C701C8DABC
:102C80008E0133E0159507953A95E1F7011101C0E2
:102C900001E010E0C701BCDAC01BD10BD7FF02C0B6
:102CA000C0E0D0E08C2F0E9467070E946102837011
:102CB00039F4C701ADDACE01959587950E94670773
:102CC000C230D1053CF70E9461026DE0EDD0E60113
:102CD00002C0CC0FDD1F9A95E2F70E94610290E0DE
:102CE000BE01EED0C80FD91F80E0A4C0C09146013C
:102CF000CC0FC73908F0C6E9D4E08C2F0E946707D3
:102D000085E090E085DA809146010E94670781E4C2
:102D100090E07EDAD15089F780ED92E079DA80E0B8
:102D20000E94670796CEFDE083329F07E1F488EEAC
:102D300093E06EDA80911602692DB6D0CEDA8091DA
:102D40001602692DB1D0892F880FC7DA8091190139
:102D5000882381F0B0920002A092FF011092FE0140
:102D60001092FD0176CE2AE08933920731F48091EA
:102D70001402B3DA88EE93E060C03AE08031930742
:102D8000B9F48091FA01811164CE80910B010E9407
:102D9000670784E690E03CDA80E00E946707809154
:102DA000470190E068EE73E055D08456910945C024
:102DB000885D994049F480E0A6DA81E0A4DA80E0F9
:102DC000A2DA80ED97E039C080913C018823B9F107
:102DD0008091E201882399F12091F8013091E3017B
:102DE00023130AC0822F0E9467071092E20180918C
:102DF000E4018093F7012DCE6091E101231760F487
:102E0000832F821B51D0811101C081E0820F0E946B
:102E100067078AE090E011C0862F90E06EE170E0D5
:102E200019D06091E401631B70E05ED0EB01219644
:102E30008FEF820F0E946707CE01EAD90ACE86B7CC
:102E40008F7986BF86B7806186BF889586B78F7E6B
:102E500086BFFFCD0024552704C0080E591F880FD8
:102E6000991F009729F076956795B8F37105B9F722
:102E7000802D952F0895EE27FF27AA27BB2708C08E
:102E8000A20FB31FE41FF51F220F331F441F551F4E
:102E9000969587957795679598F37040A9F7009771
:102EA00099F7BD01CF010895991B79E004C0991FDE
:102EB000961708F0961B881F7A95C9F78095089594
:102EC000AA1BBB1B51E107C0AA1FBB1FA617B70750
:102ED00010F0A61BB70B881F991F5A95A9F780956C
:102EE0009095BC01CD01089597FB072E16F4009430
:102EF00006D077FD08D0E4DF07FC05D03EF49095BE
:102F000081959F4F0895709561957F4F0895A1E237
:102F10001A2EAA1BBB1BFD010DC0AA1FBB1FEE1F53
:102F2000FF1FA217B307E407F50720F0A21BB30B9E
:102F3000E40BF50B661F771F881F991F1A9469F71A
:102F400060957095809590959B01AC01BD01CF0176
:102F50000895E199FECF1FBA8EBBE09A99278DB3F1
:102F60000895262FE199FECF1FBA8EBBE09A8150BB
:102F70000DB2021639F01CBA2DBB0FB6F894E29AC6
:0A2F8000E19A0FBE0895F894FFCF08
:102F8A00080E18010101010004820A460302000129
:102F9A000A0A0A8282820107050100000000031F53
:102FAA000003030000008000000000000000000091
:102FBA000000800000000000000000000104000082
:102FCA000000000029433202072D0018390400824C
:102FDA001E991505040310011301160102010000D0
:102FEA0000000000000100000000000000000100D5
:102FFA00009101A502AF03B904C305CD06DC07FFA2
:10300A000756034D0400670358040077036304005E
:10301A0087036D0401BA039A0401D302FD0200D9A1
:10302A0002FD0200DF02FD0200E502FD0200EB02E2
:0E303A00FD0200F102FD0200F702FD0200009F
:00000001FF
