:1000000072C100008DC100008BC100000C94EB1187
:1000100087C100000C94DC1183C1000081C1000085
:100020007FC100007DC100007BC1000079C10000DC
:1000300077C1000075C100000C949E1171C10000D1
:100040006FC100006DC100006BC1000069C10000FC
:1000500067C1000065C1000063C1000061C100000C
:100060005FC100005DC100005BC1000059C100001C
:10007000303237342E323032332D31322D30332B73
:1000800035312331000001050414101115FF3FFF25
:100090003FE62D6239DF2397302F3583363536F82A
:1000A000342533F130EB33E130D431E131752EE3D7
:1000B0002D352FCD2D412C342C632AD92916292AF0
:1000C0002820270126D42452240B235A220B214115
:1000D000206B1F231E491D6B1C8C1B611A8A19740F
:1000E000186A17A6167D1597148E139612AD11ACCB
:1000F00010BE0FBF0EB40DBF0CC20BC00AD509D085
:1001000008CE07E306E805E104E203ED02F101FF92
:1001100000FF00FF00FF00FF00FF00FF00FF00FFE7
:1001200000FF00FF00FF00FF00FF00FF00FF00FFD7
:1001300000FF00FF00FF00FF00FF00FF00FF00FFC7
:1001400000FF00FF00FF00FF00FF00FF00FF00FFB7
:1001500000FF00FF00FF00FF00FF00FF00FF00FFA7
:1001600000FF00FF00FF00FF00FF00FF00FF00FF97
:1001700000FF00FF00FF00FF00FF00FF00FF00FF87
:1001800000FF00FF00FF00FF00FF00FF00FF00FF77
:1001900000FF00FF00FF00FF00FF00FF00FF00FF67
:1001A00000FF00FF00FF00FF00FF00FF00FF00FF57
:1001B00000FF00FF00FF00FF000000000000000043
:1001C000000000000000000000000000000000002F
:1001D000000000000000000000000000000000001F
:1001E000000000000000000000000000000000000F
:1001F00000000000000000000000000000000000FF
:1002000000000000000000000000000000000000EE
:1002100000000000000000000000000000000000DE
:1002200000000000000000000000000000000000CE
:10023000000000000000000000000009141E293426
:100240003F4B5763707D8A97A5B3C2D0E0EFFF00A4
:1002500001010202030405060708090B0C0E101128
:100260001316181A1D1F2225282B2E3135383C3F16
:1002700043474A4E5256595D606367696C6E7072AF
:100280007374747372706D6A655F5951473C3022A4
:100290001314151617181A1B1C1E1F20222425279D
:1002A000292B2D2F313335383A3D3F4245484B4EAF
:1002B0005154585B5F63676B6F73777C81858A8F5E
:1002C000959A9FA5ABB1B7BDC4CBD2D9E0E7EFF704
:1002D000FFFFFFFFFFFFFFFFFFFFFFFFFFFFFFFF2E
:1002E000FFFFFFFF000011241FBECFEFD4E0DEBFF1
:1002F000CDBF11E0A0E0B1E0E4E2FAE202C0059077
:100300000D92A638B107D9F722E0A6E8B1E001C006
:100310001D92AD31B207E1F70E94FA110C9410154D
:100320006FCEF89498ED9FBD83BF78940895482FC1
:100330009B01EAEEF1E080E090E05081552331F03E
:100340000196339680319105C1F70AC063E070E0F1
:100350000E94B214FC01E651FE4F40833283218398
:1003600008950F931F93CF93DF93D091EA01DD237C
:1003700051F10091EB011091EC01C091C701C15006
:10038000C7FD0DC0EC2FEE0FFF0BE853FE4F0190A1
:10039000F081E02DB8018D2F09958111F0CFEAEEA3
:1003A000F1E0838180838481958192838183339678
:1003B00082E0E731F807A9F71092170210921902AC
:1003C00010921802D2CFDF91CF911F910F91089513
:1003D000BC0180911C02ABCF10921C0210921B0238
:1003E00010921A0281E08093B70108950F931F9332
:1003F000CF93C82F08EA17E0CC2349F082E091DFC1
:10040000C8010197F1F780E08CDFC150F5CFCF91A3
:100410001F910F91089586E884B9E1E6F0E08081AC
:100420008260808388E082B91092E6011092E70131
:100430008FEE83B908958BB182FB882780F991E014
:1004400089278093C0010895E0910601F09107018A
:100450003196FB70F460F0930701E0930601809100
:10046000BA018B5A8093BA01E4918091BA018E0F40
:1004700008950F931F93CF93DF9300D01F92CDB7B2
:10048000DEB7209138013091390140913A0129833A
:100490003A834B83FE01319640E050E090E061E00A
:1004A00070E0B1919A01220F331F8C0102C01595A3
:1004B00007952A95E2F79801237061F02130D1F475
:1004C000A0B39B0101C0220FBA95EAF7322F3095F5
:1004D0003A2318C0A0B39B0101C0220FBA95EAF7D6
:1004E00020953A2F322330BB32B3322332BB31B3A3
:1004F00023230EC0A0B39B0101C0220FBA95EAF7D7
:100500003A2F322B30BB32B3322B32BB31B3232BD9
:1005100021BB4F5F5F4F4330510519F60F900F908D
:100520000F90DF91CF911F910F910895811102C01B
:1005300081E001C082E09DCF811102C085E001C051
:100540008AE097CF811102C084E001C088E091CF9A
:10055000811102C084E101C088E28BCF811102C009
:1005600080E101C080E285CF811102C081E101C03C
:1005700082E27FCF811102C085E101C08AE279CF9A
:1005800081E00895689A90E0FC01E15BFD4FE49101
:100590004E2F50E0FC01E754FE4FE4912E2F30E047
:1005A000FC01EE0FFF1FE357FF4F659174915093CD
:1005B0006D0040936C0030936B0020936A00809133
:1005C000BD019B0120523109882339F040916E0012
:1005D00050916F0024173507B8F37093690060934A
:1005E0006800811104C010926F0010926E0008958F
:1005F00090E0FC01E15BFD4FE4912E2F30E0FC0127
:10060000E754FE4FE491F0E080916C0090916D0012
:10061000892B19F42F3F310551F080916C00909196
:100620006D008F3F910541F42115310529F4309378
:100630006D0020936C001DC080916C0090916D0046
:100640008217930730F480916C0090916D000196B1
:100650000CC080916C0090916D002817390748F408
:1006600080916C0090916D00019790936D00809344
:100670006C0080916A0090916B008E179F0730F498
:1006800080916A0090916B0001960CC080916A0085
:1006900090916B00E817F90748F480916A009091F7
:1006A0006B00019790936B0080936A0080916C00BF
:1006B00090916D002817390741F420916A0030911C
:1006C0006B0081E0E217F30709F080E00895CF9313
:1006D000DF9300D000D000D0CDB7DEB790910C01F1
:1006E0002091D8013091D90123553B4009F492E083
:1006F000843019F46093180121C06623F9F0823028
:1007000019F427E9261B622F26E0EBE3F1E0DE0176
:10071000119601900D922A95E1F7E82FF0E03197BC
:10072000EE0FFF1F21E030E02C0F3D1FE20FF31F03
:100730000190F081E02DE90FF11D608326960FB640
:10074000F894DEBF0FBECDBFDF91CF910895813009
:1007500011F4609337010895BF92CF92DF92EF9228
:10076000FF920F931F93CF93DF93EC0140910C0105
:1007700090911701992311F0E2E001C0E42FF0E01D
:10078000E45FFE4F22812093090185818093080157
:10079000E92FF0E0E45FFE4F3185622F70E04423E3
:1007A00049F0313039F49B01280F311DC90195956D
:1007B000879538C0C617D707A4F1682F70E06C176B
:1007C0007D0784F1411102C08C2F2CC0821B032FA6
:1007D00010E001501109E82EF12CC701B8010E9468
:1007E000E3146093B4016695E62FF0E0822FC12CEC
:1007F000D12CB12CB316B1F0C601B8010E94CF14B0
:10080000822F860FCE0CDF1CAE01481B510957FF0B
:1008100003C0519541955109E417F5071CF4B394B1
:10082000E9CF822FDF91CF911F910F91FF90EF9031
:10083000DF90CF90BF900895ECE0F1E08685809343
:100840000A018389808B8093BE0108958091B00155
:10085000882351F09091BD019093B3018093AF0133
:100860001092AE011092AD01089581E0089582309A
:1008700019F4609332010895611160932D01089578
:10088000662389F0813061F48091DA0190912F0123
:10089000891B681B60932F0182E080930B0103C0CA
:1008A000635E60932E0180912E01873418F086E4F8
:1008B00080932E010895609333010895E82FF0E0AE
:1008C000E45FFE4F67A308957FEF780F40911D010D
:1008D00050911E01662359F021E030E002C0220F42
:1008E000331F7A95E2F7CA01822B932B0AC081E06D
:1008F00090E002C0880F991F7A95E2F780958423D3
:10090000952390931E0180931D010895CF93DF934B
:100910008CE091E09093B9018093B80182E066DDAC
:10092000F894C0E0D0E0E091B801F091B901EC0F8B
:10093000FD1F60812196CE010E94FE14CC32D105AC
:1009400091F765EA80E090E00E94FE147894DF91D0
:10095000CF9108951092E80180B191B12091BA0130
:100960008295869586958370990F990F890F820FCE
:100970008093BA018091DD01882309F41AC1109295
:10098000DD018091E6019091BF01992329F01F9824
:100990001092E9011092E601811151C080910B0182
:1009A000882329F08091E2019091E3011AC080919F
:1009B000BF012091DE013091DF018823B9F08091E1
:1009C000E2019091E30143E0969587954A95E1F71E
:1009D000820F931F53E0369527955A95E1F7821BB6
:1009E000930B9093DF018093DE0101C0C901209138
:1009F0002D012750220F6AE171E00E94CF14260FCB
:100A00002093DC018091A401882311F0815007C05C
:100A1000213938F460E070E084E089DC85E080937F
:100A2000A4018091BF018111BBC08EE884B981E02F
:100A30008093E6011092E7018FEE83B9B1C0813057
:100A400009F0AEC080910B01882341F08091E40150
:100A50009091E5019093E1018093E0018091E001A4
:100A60009091E10160912F019C01A6E036952795B8
:100A7000AA95E1F7062E000C770B260F371F2E5094
:100A800031403093DB012093DA01B5E096958795EC
:100A9000BA95E1F720910B01211128C02091930113
:100AA000E22FF0E0EE0FFF1FEC56FE4F4081518128
:100AB000DC01A41BB50BAD01918380832F5F2770F0
:100AC000209393019D01220F331F220F331F820FAA
:100AD000931F20912E0130E0261B370B225F3E4FE3
:100AE000220F331F821B930B23E00EC0E4E9F1E0D9
:100AF00081939193B1E0E43AFB07D1F7CFCF009710
:100B000009F00196215029F018161906C4F701972B
:100B1000F9CF18161906E4F457FD39C02091920157
:100B200012160CF1880F991FBC016350710977FFF1
:100B300002C06F5F7F4F759567951616170614F004
:100B400061E070E088E1861B8093920185E026C019
:100B50008C3F2FEF9207DCF457FF19C020919201D0
:100B600027FF05C02450281B2093920118C024EEB3
:100B7000281B209392012091DC01233980F06CEF37
:100B80007FEF681B790B7595679586E007C08091AC
:100B9000DC01823920F060E070E087E0C8DB3BDCFC
:100BA00080910B01882329F080910B018150809363
:100BB0000B010895882321F0813031F4829805C01B
:100BC000829892988A980895829A929A8A9A089519
:100BD000CF93C82F8091BD01811109C0CC2339F07A
:100BE00080913701C81718F4F3DF82E0FFDB8091B2
:100BF000BF0181110BC03DDC91E0C11101C090E04B
:100C000081E0C73408F480E0890FD4DFC1110EC041
:100C100010926D0010926C0010926B0010926A009E
:100C200010926F0010926E0068980FC0E091BE01A4
:100C3000F0E0EE0FFF1FEE0FFF1FEA59FE4F01908D
:100C4000F081E02D8FEF8C0F09958091BD01C813C5
:100C50008093BC01C093BD01C093BB01C43010F4AC
:100C600082E005C0CC3010F481E001C080E0CF917B
:100C700058CBCF93C091BD0182E38C0F873908F028
:100C800080E0A6DF83E0B2DB8C2FCF91A1CFCF93A2
:100C9000C091BD0180E09CDF83E0A8DB8C2FCF9169
:100CA00097CF8093B5019091BD01981718F4282F24
:100CB000291B02C0292F281B3091A701311106C022
:100CC00030912101332369F0223058F08093A8013C
:100CD00084E08093A60181E08093A7019093A9010D
:100CE000089576CF0F931F93CF939091DC012FEF50
:100CF000290F203920F480E0BCDB80E09EC0E82F83
:100D0000EF702091B101211125C0C82FC295CF707D
:100D10002091320130E043E0220F331F4A95E1F782
:100D200062177307C0F48091B601482F50E0421754
:100D300053078CF4882379F021E08091BC018F3037
:100D400008F420E081E0C23009F080E0822BC1E0AD
:100D5000C80F36C0C2E0E73088F1E730A9F400914F
:100D60008B0110E00F5F1F4F6FDB65E00E94C31423
:100D70009801290F311DC90166E070E00E94E3145B
:100D800080938B01FC013AC0E830D1F48091BF011F
:100D9000882311F02FE001C023E030E062237323A9
:100DA000672B51F480918B0190E0019666E070E032
:100DB0000E94E31480938B01E0918B01F0E01EC050
:100DC0008091BF01882381F080E0E82FF0E0EC5AA9
:100DD000FE4F2081921710F08E5FF7CF3197E081A0
:100DE000F0E0EB57FF4F0CC0CB019695879563E081
:100DF00070E00E94CF14FC01EE0FFF1FEA57FF4F77
:100E0000E491C33071F480918A0190E0019663E12E
:100E100070E00E94CF1480938A01DC01AF5BBE4F6B
:100E2000CC91CC2329F0C13029F0EE0FC2E002C0F2
:100E3000C0E0E0E08E2F1DDB8C2FCF911F910F9132
:100E4000B9CECF93DF939091BE01981759F0C82F78
:100E5000D091BD0180E0BCDEC093BE018D2FDF913B
:100E6000CF91B6CEDF91CF910895813019F41092D1
:100E70001A010895823019F460931B01089583309C
:100E800019F4609319010895843019F460930D01E9
:100E90000895853011F4609321010895CF93C09196
:100EA0001701C1114FC0883039F41092B00110926F
:100EB000AE011092AD0147C0813B81F48091B00139
:100EC0008150833008F03EC083E08093B00180936E
:100ED000AF011092AE011092AD0134C0853BB1F468
:100EE000CB016EE370E00E94CF14892B61F58091F5
:100EF000B0018A3F40F58B5F8093B0018093AF01D2
:100F00001092AE011092AD01B4DE1DC08130D1F45B
:100F10008091AD019091AE01019688382EE0920744
:100F200028F49093AE018093AD010DC01092AE01F4
:100F30001092AD018091B001882329F081508093F7
:100F4000B00101C0C1E08C2FCF910895FF920F93A3
:100F50001F93CF93DF938C01EB01F42E8091D80186
:100F60009091D901892B31F0E091D801F091D9010C
:100F700089E009951093D9010093D801012B39F02C
:100F8000E091D801F091D901BE018F2D099581E042
:100F90008093B701DF91CF911F910F91FF9008953A
:100FA000CF93DF93E091C701EE2359F0E150E09336
:100FB000C701F0E0EE0FFF1FE853FE4FC081D18163
:100FC00002C0C0E0D0E0E091C701EE2341F0F0E0C4
:100FD000EE0FFF1FEA53FE4F8081918102C080E037
:100FE00090E04AE060E070E0B1DFCE01DF91CF91A8
:100FF0000895883029F41092A50110928C0115C033
:10100000813001F590918C01911107C0603271051A
:1010100070F180938C01E0D92AC0913089F46B3B48
:10102000710528F082E080938C0180E01FC061157B
:101030007105E9F06270862F880F880F8E5E16C0EA
:10104000AFDF15C0813811F0813E89F491E09093B3
:101050008C01813E21F48091A501865F03C08091BF
:10106000A5018F5F8093A501B7D98BE4B1DD80E046
:1010700008959C019091C701983088F4E92FF0E021
:10108000EE0FFF1FE853FE4F318320839F5F909345
:10109000C70148E0C9015ADF8091C70108958FEF69
:1010A00008950F931F93CF93DF93EC018B0178DFAB
:1010B000B801CE01DF91CF911F910F91DACF813C22
:1010C00029F460E070E08EEE9BE006C0823C39F4CB
:1010D00060E070E089E79BE0E4DF80E0089581E074
:1010E0000895843011F58091D8019091D9012FE0B5
:1010F0008F32920729F469E170E08AED98E013C01D
:101100008A5D984061F49091BD01923040F0892F42
:10111000869596959695890FC4DD80E0089560E0E8
:1011200070E08EEE9BE0BDDFF8CF81E00895813C5A
:1011300029F460E070E08EEE9BE006C0823C31F462
:1011400060E070E08FE598E0ACDF16C0813B49F4C9
:10115000CB016EE370E00E94CF14892B69F489DD26
:101160000BC0813E59F4CB016EE370E00E94CF14B6
:101170006F5F60932C01CADB80E0089581E00895E1
:10118000813C29F460E070E08EEE9BE006C0823C7A
:1011900031F460E070E087E998E083DF07C0873BC7
:1011A00039F460E070E083E69BE063DF80E008955F
:1011B00081E00895BF92CF92DF92EF92FF920F935A
:1011C0001F93CF93DF93182FEB0180911C01809325
:1011D000BE01D0900901F090080180910C01882394
:1011E00019F0B090B40102C0BB24B394C0900D01BB
:1011F000809117018111C0901801CC2051F081E03D
:10120000C81621F080910A018F1518F0F6E9EF2E2B
:1012100001C0EF2C0091B001BE01812F3FDE809113
:10122000B001882339F001110CC09091BD01909359
:10123000B30107C0002329F060E070E08EEE9BE070
:1012400032C0183029F01A30B9F4C0910A01D0E048
:101250008D2D90E08C179D0738F48F2D90E0C817E6
:10126000D90710F4C0930A01CE0176DA1ADD81E0C5
:101270008093050100E0A1C1113CF1F2123C59F448
:101280008091BD018E1510F48E2D02C080910A014F
:1012900008DDDCDAEFCF143C41F480E099DC60E05B
:1012A00070E08CE19DE0FDDEE5CF9FE4910F923090
:1012B00008F055C080910C01882341F0CE0168E10F
:1012C00070E00E94CF14892B31F0D4CF60911401CB
:1012D00070E0CE01F6CF0091A7010111CBCF209194
:1012E000BD01209761F4123B11F48FEF05C02F155B
:1012F000E0F7D21608F181E0809305011DC0E0916E
:101300001401F0E0CF0166E371E00E94B2148C1783
:101310009D0710F42F1548F7CF016CE672E00E948C
:10132000B2148C179D0740F4D21630F0A2DC60E0B6
:1013300070E08CE19DE0B5DE809105016B2D70E0E1
:10134000082E000C990B0E94B2142091BD01820F4F
:10135000911D02DA80930A01A4DC78DA2EC19FE1A4
:10136000910F923020F480910501819581CF113049
:1013700009F086C0A99711F410930501882379F12B
:101380000091B30110E090E0B8010E94B214EC01AA
:10139000E091AF01F0E0BF010E94E314262FCE01DF
:1013A000801B910BBF010E94E314322F361B8091EA
:1013B000AD019091AE016EE370E00E94CF14832FD7
:1013C00090E00E94B2146CE370E00E94CF14261BE0
:1013D000622F09F461E06093BB016093B501C09195
:1013E000BB012091BD018C2F90E0821B910960917F
:1013F0008F01709190016F5F7F4F709390016093A8
:101400008F01009709F436CF97FF05C0233830F0DD
:1014100040E450E005C040E052E002C040E051E04E
:101420005695479597FD0196959587950097C1F735
:101430004617570708F01ECFC21710F4CFEF03C0AE
:101440002C1710F4C1E0C20FE091BE01F0E0EE0FE6
:10145000FF1FEE0FFF1FEA59FE4F0280F381E02DC0
:101460008FEF8C0F0995882331F0D091BB018C2F21
:10147000AFDBD093BB011092900110928F01FACE96
:101480001530A1F48091BD01833408F4F3CE90E0CF
:101490008C1B9D0B8234910534F08739910564F1E2
:1014A00086E990E029C082E490E026C01630B1F4CD
:1014B0009091BD018091B501981708F0DBCEC90F5E
:1014C000D11D90E08C179D0734F0C234D10524F46F
:1014D000C2E4D0E001C0EC018C2F0EC0173079F4CB
:1014E0009091BB018091BD01891710F48F5F04C0FA
:1014F000981708F0BFCE81508093BB01BBCE133C40
:1015000019F0163C41F517C060911D0170911E0144
:1015100080E090E020E0AB01082E02C05695479590
:101520000A94E2F74170240F01968830910599F7EB
:10153000223008F041C081E090910C01911180E0CF
:1015400080930C01E3D9A3DB8091BD0190E004D925
:1015500080930A019DCE0091170101112DC0133B0C
:1015600049F4CD2B09F086CECC2011F086E9E82E87
:101570008E2D04C0133E21F480910A0192DB1DC020
:10158000173B29F460E070E08FE49BE013C01A3C45
:1015900059F48091BD0180931A018091BE0180931E
:1015A0001F01B4D966DB09C01A3B31F460E070E07A
:1015B00087E59BE05EDD01C001E0802FDF91CF91E8
:1015C0001F910F91FF90EF90DF90CF90BF90089503
:1015D0000F931F93CF938B01C42F883091F4809188
:1015E000BE0180938E0110928D0180E0F1DA80912E
:1015F000C00181114FC080918D018F5F80938D015B
:1016000033C0982F907F903B21F580918D01481732
:10161000E8F08150883040F49091B201992321F094
:101620009091BE0189130DDCC8016DE570E00E9448
:10163000CF14069749F480918D018F5F80938D01BF
:10164000C81740F188E303C082E101C080E0C0DA3E
:1016500021C0903E79F480918D018823A1F0481734
:1016600090F080918E01EDDB60E070E089EF97E013
:1016700000DD10C08A3049F46091A50180918D0190
:10168000F901099543D98CDC05C0893019F48091A2
:101690008E01D7DB80E0CF911F910F91089527E64F
:1016A00033E043E095CF27E633E044E091CF25E3F4
:1016B00037E045E08DCF27EA33E041E089CF27E3EB
:1016C00034E042E085CF20E434E042E081CF2BE5F6
:1016D00034E041E07DCF2EE534E043E079CF91E086
:1016E0009093B20124E634E048E072DF1092B20138
:1016F0000895CF93C0911701C11123C0813C29F4F3
:1017000060E070E08EEE9BE006C0823C31F460E069
:1017100070E080EC98E0C5DC15C0833C51F480910A
:10172000200190E001968770992780932001EED8E0
:1017300009C0873B31F460E070E08FE59BE099DC05
:1017400001C0C1E08C2FCF910895CF93833C21F548
:101750004091BE0160911D0170911E01842F98E09F
:10176000282F30E02F5F3F4F27703327822FFB0158
:1017700002C0F695E7952A95E2F7E0FF0AC0481700
:10178000B9F05FDB8091BE0180931C01BFD8C0E03F
:1017900010C0915029F7F3CFC0911701C11108C0B3
:1017A000893B31F460E070E08FE69BE062DC01C0D1
:1017B000C1E08C2FCF91089590912101992369F078
:1017C0008093A80188E08093A60181E08093A7011F
:1017D0008091BD018093A9010895FAC90F931F93C9
:1017E000CF938B018830A1F480E0E6DF8091A701E0
:1017F000082B1092B60180911C018093BE011092BB
:10180000B001012B09F05AC081E08093BF0156C09E
:10181000813059F46931710508F450C0C091A701B5
:10182000C1114CC08093BF0102C1833041F580914A
:10183000B6018F3F19F08F5F8093B60180911A0136
:10184000882361F080911B0190E062EC71E00E94BE
:10185000B2140817190710F00E941C04B8018091F7
:10186000300140DA80913301882341F190E062EC4D
:1018700071E00E94B2148017910700F553C0813BBC
:1018800099F481E090E00E94AC0396DF8091190109
:10189000811114C080910C01811103C00831110520
:1018A00068F061E070E02AC0813ED9F3813841F4EC
:1018B00080910A0190E00E94AC037EDFC0E0B7C0D7
:1018C000813C21F460910A0170E018C0823B81F4F0
:1018D0001092B60180910D019091170191118091A4
:1018E0001801811103C086E990E0E5CF86E9E5CFD4
:1018F000823E59F0823C29F466E970E08AED98E076
:101900000CC0833921F41092A70180E0D6CF833C2C
:1019100031F460E070E089E79BE0C3DBCFCF843C2B
:1019200031F4A7D960E070E08CE19DE0F6CF8D3B0B
:1019300041F4F89488ED8FBD88E880BF7894A8952D
:10194000FFCF8F3C29F460E070E085E394E0E5CFC1
:10195000C09117018A3B79F4672B69F4CC2331F0ED
:1019600088D9109217010E948604A8CF60E070E029
:1019700083E59BE059C0C11159C0833B29F460E065
:1019800070E08FE29FE046C0873CA1F49091300167
:10199000892F82958F708F5F83708295807F9F7073
:1019A000892B8093300160E070E09CD90E9486040E
:1019B00060D93DC0873BC9F481E08093B101C80183
:1019C0008F739927892B61F490913001892F8F7043
:1019D0008F5F292F207F6BE0D6D7922B9093300119
:1019E000B801809130017ED922C0873E19F410924F
:1019F000B10106C08A3C39F43CD981E080931701DB
:101A00000E94860414C0863C39F433D960E070E04B
:101A100089EC90E146DB0BC0893B41F4012B31F4AA
:101A200060E070E08BE59BE024DB01C0C1E08C2F1F
:101A3000CF911F910F9108950F931F93CF93DF9331
:101A4000C82F8B01873B19F480E0C2D87BC0807916
:101A50008039B1F420910E0190910F018C2F8F707D
:101A6000813021F4822F921748F407C080911A0127
:101A7000811104C0822F291708F4892F9DDE0EC022
:101A8000803811F480E098DEC83041F41092B6013D
:101A900060E070E08091310125D954C0C13039F443
:101AA0000931110508F492C0C093BF0118C0C330BA
:101AB000D9F48091B6018F3F19F08F5F8093B60102
:101AC00080911A01882359F080911B0190E062EC0B
:101AD00071E048D70817190710F00E941C04B801DC
:101AE00080913101FFD872C0C33C31F4C2D860E0AC
:101AF00070E08EEE9BE014C0C43C21F460910A01BA
:101B000070E00CC0C43B31F4C2D810921C0261E0FA
:101B100070E004C0C53C31F466E970E08AED98E0FD
:101B2000C0DA54C0C33B71F4C8016EE370E037D72C
:101B3000892B41F460E070E083ECDF91CF911F913D
:101B40000F9103CED0911701D11142C0C73CA1F42F
:101B500090913101892F82958F708F5F837082956C
:101B6000807F9F70892B8093310160E070E0BAD84C
:101B70000E9486047ED82DC0C73BC9F481E08093C3
:101B8000B101C8018F739927892B61F490913101BC
:101B9000892F8F708F5F292F207F6BE0F4D6922BD7
:101BA00090933101B801809131019CD812C0C73E99
:101BB00029F41092B1010E9486040BC0CA3B41F483
:101BC00060E070E087E69BE054DA03C0D0E001C03B
:101BD000D1E08D2FDF91CF911F910F9108950F9339
:101BE0001F93CF931092C20180911A0290911B0211
:101BF0009C012F5F3F4F88279078822B932B9093E7
:101C00001B0280931A02C091C0010E941B02C817D8
:101C100031F11092BF018093C00190911C02882382
:101C200059F0892F80699F709F3009F08F5F8093F2
:101C30001C0280E090E00DC0892F8F7E95FD02C0D0
:101C4000806801C0806C80931C0280911A02909180
:101C50001B020E94E80110921B0210921A020091CE
:101C60001A0210911B028091BF018823B1F0B801C4
:101C700083E00E9497010E94B1010134110528F010
:101C80000F701127012B09F049C01092910181E0DA
:101C90008093E9010E940B0232C0C0911C028C2F7C
:101CA000807F803B19F460E070E001C0B80181E002
:101CB0000E949701C4FF13C0C5FF02C0C8010CC039
:101CC00008311105E0F010921B0210921A02C06256
:101CD000C0931C0280E090E00E94E80110C0CC2379
:101CE00071F0C5FD0AC00231110548F0C064C0930F
:101CF0001C0280E090E00E94E8010E94EC018091CB
:101D00009101811105C08FEE83B981E08093DD01DF
:101D1000809191018F5F8F7180939101CF911F917D
:101D20000F9108958091E80181110E94AA04809189
:101D3000C201811154CF0895EF92FF920F931F9328
:101D4000CF93DF93EC0100E317E08CECE82EFF2447
:101D5000F3942097D9F08091B701811119C0809137
:101D6000BD01843028F482E00E949101C70104C0C3
:101D700080E00E949101C8010197F1F780E00E9484
:101D80009101D0DF0E94B1012197E3CF81E001C032
:101D900080E0DF91CF911F910F91FF90EF90089518
:101DA0000F931F93CF93DF93C82F882311F006EA78
:101DB00002C00CE0C1E0D091BE0110E08091200192
:101DC00040D882E30E94E805D093BE01C801B4DF89
:101DD0008091200136D880E00E94E805D093BE01B2
:101DE0008AEF90E0A9DFC15049F78D2F2AD88AE900
:101DF00092E0DF91CF911F910F919ECFCF93DF9310
:101E000064E6C1D5282F892F6AE0BDD5EC012223D5
:101E100041F0822FC5DF8C2FC3DF8D2FDF91CF9153
:101E2000BFCFC111F8CFF9CFCF93DF93D82FC3E045
:101E300080910A010E94E80588EC90E07DDFDD23B7
:101E400019F080E991E078DF80E00E94E80588ECF5
:101E500090E072DFC15061F7DF91CF910895FF925A
:101E60000F931F93CF93DF93D82F8B01C091AA01BB
:101E700081E08093AC01C43009F0E6C0F090B0017D
:101E80008D2F0CD8FF2051F08091B001811106C038
:101E900060E070E08EEE9BE004D9D6C0D83021F42B
:101EA00081E080930301D2C0D23C19F41092B001BA
:101EB000DFC0D13BC1F490910201012B49F4993666
:101EC00010F08FEF03C0923018F481E0809303018B
:101ED00080910301890F11F481E045C18A3608F42D
:101EE00042C189E640C1D13E31F480910301819520
:101EF0008093030108C1D23B61F481E08093030128
:101F000080910201823008F406C181508093020161
:101F100002C1D13009F0B0C00932110511F4D093DB
:101F2000030190918901892F880F97FD809590E09A
:101F300069E070E017D5292F80918801682F660F1E
:101F400087FD60958091010170E090E00BD5290F2D
:101F500080918701682F660F87FD60958091000151
:101F600070E090E0FFD4920F6091020170E0690F81
:101F7000711D8091B001813091F48091AD019091FB
:101F8000AE0125E0969587952A95E1F724E730E0A4
:101F9000A901481B590BCA01E5D4B90100D5862F08
:101FA0000E94E80500FD08C00E9424028170909103
:101FB0008901890F80938901909188018091860120
:101FC000890F809388010E94240265E2DCD480910D
:101FD0008701980F909387010E9424028F7331F438
:101FE0000E9424026DE0CFD490938601C09101013C
:101FF000CC2339F00E9424028F7319F4C150C0938E
:1020000001010E942402811108C00E9424026DE097
:10201000BAD49093010110928801C0910001C3309D
:1020200038F00E9424028F7119F4C150C09300014E
:102030000E9424028F7709F09AC00E94240267E070
:10204000A2D49093000193C0D83041F48091220132
:102050008093AA0181E08093040187C0D13C31F4D0
:1020600060E070E08EEE9BE01CD87FC0D23C31F483
:102070008C2F90E0019617C0D13C91F3D33C71F4C2
:102080008091BE018F5F87700E942107EC2FF0E0E6
:10209000E45FFE4F8091BE01878B5EC0D43C59F453
:1020A0008C2F90E0059666E070E08DD4809322013D
:1020B0008093AA0151C0D13B21F5C23090F400FDBC
:1020C00054C0EC2FF0E0E45FFE4F858D9091040149
:1020D000891B883020F08F3F69F58EEF2BC088E098
:1020E00029C0C53009F041C090912B0180910401B5
:1020F000890F823010F482E026C0893720F188E70A
:1021000022C0D13E31F48091040181958093040175
:1021100023C0D23BF9F481E080930401C23060F423
:1021200000FD23C0EC2FF0E0E45FFE4F858D8F3F74
:10213000E1F08F5F858F19C0C530B9F480912B0114
:10214000833018F0815080932B0180912B010E94E5
:10215000E8050BC0D23E19F40E94860406C0D130B7
:1021600031F081E010C08093020180E00CC00932A0
:10217000110519F481E0809304018091BA01080FE0
:102180000093BA01F2CFDF91CF911F910F91FF9091
:102190000895FF920F931F93CF93DF9300D01F9268
:1021A000CDB7DEB78B838B01F0900A0180798983EC
:1021B000803951F5EB81EF70E43020F01092AB01E3
:1021C0001A8276C091E09093AB01F0E0E45FFE4F9D
:1021D00087A12FEF280F263948F480930A01109227
:1021E000AC0180911C018093BE010CC09093AC01A6
:1021F000873940F190E08759910966E070E0E3D3B8
:102200008093AA011A820EC08981803849F4109205
:10221000AB0180E00E94E80581E08093B70101C036
:1022200081E08A838091AB01882309F441C08B81CE
:10223000883051F48091AC01882331F0B80188E0F6
:102240000EDE02C01A8203C08981803951F481E018
:102250008093AB018091AC0181112AC080910A0169
:1022600006C08981803831F41092AB0180E00E9471
:10227000E8051EC08B818130D9F48091AB018823A1
:1022800049F08091AC01882309F44CC0B80181E089
:10229000E6DD0EC080E00E94390280E00E94DA058F
:1022A000073381E0180708F43DC08B818093BF019C
:1022B000F0920A018B81883019F4B801BDDB30C07F
:1022C0008B81813039F48091AB01811127C0B80135
:1022D00081E004C08B81833051F4B8010F900F90DE
:1022E0000F90DF91CF911F910F91FF90A5CB8B8124
:1022F000833CA1F0863C49F40E94390660E070E01E
:102300008EEE9BE00E94510809C08B81873B41F40F
:1023100060E070E08BE69BE00E94390880E005C039
:102320008A8103C0F0920A01CECF0F900F900F90D8
:10233000DF91CF911F910F91FF9008951F920F92FF
:102340000FB60F9211242F933F938F939F93AF93C8
:10235000BF93EF93FF938091E7018823E9F0E09129
:10236000E60120B131B1F0E0EE0FFF1FDF01AE5109
:10237000BE4F2D933C93E252FE4F80819181821794
:10238000930708F401962817390708F401979183F9
:10239000808381E08093E80181E08093E701FF91F1
:1023A000EF91BF91AF919F918F913F912F910F909E
:1023B0000FBE0F901F9018951F920F920FB60F929D
:1023C00011248F9381E08093C2018F910F900FBEF3
:1023D0000F901F9018951F920F920FB60F92112415
:1023E0008F9381E08093C1018F910F900FBE0F906A
:1023F0001F901895F89485B7877F85BF88ED90E08A
:102400000FB6F894A8958FBD90B7977F90BF0FBE79
:1024100089E08CB98CE780BB82EA8093720081E10D
:10242000809371008FEF90E0909369008093680033
:1024300084E08EB988BD8CB780618CBFA89580E49C
:1024400080BF0E940B02789481E00E94F60160E058
:1024500070E081E798E00E9439081092B7010E946D
:1024600039060E941B02811117C08CE091E0909305
:10247000B9018093B80182E00E94F601F89480E0EF
:1024800090E0B4D2853A09F040C00091B8011091B3
:10249000B901C1E0D0E030C0C0E08C2F0E94E80557
:1024A00083E190E049DC8C2F86950E94E80583E16A
:1024B00090E042DC0E941B02882399F0CF5FC03479
:1024C00061F765E181E00E9440040E948604C6E94C
:1024D0008C2F0E94E80584E090E02EDCC150C1F70B
:1024E000C4CFCC2309F4C1CF8C2F0E94E8058DE026
:1024F00090E022DCC150F5CFCE0178D2F801819373
:102500008F012196CD32D105B9F7789480911A01C7
:1025100081110E941C0460E070E085EA9BE00E944B
:10252000390861E070E08EEE9BE00E94390843E4D8
:10253000242E52E0352E60E4462E992493947CEFAD
:10254000A72E73E0B72EE7E08E2EFDE05F2EAEEEF5
:10255000CA2EABE0DA2E0E94B1018091C5019091A4
:10256000C601009751F06091C3017091C4010E94AF
:1025700051081092C6011092C5018091BF018823B5
:1025800009F448C080E00E94E805A89520BE1F9885
:102590000E941B028111FCCF0E94EC018CB780616C
:1025A0008CBF1092E8011092C2011092C10180917B
:1025B000BF01882331F18091E901882321F086B79A
:1025C0008F79806203C086B78F79806486BF86B7B3
:1025D000806186BF889586B78F7E86BF8091C10156
:1025E00081111092BF018091E801882321F090921F
:1025F000DD010E94AA048091C2018823C1F2EFDAB2
:10260000D6CF30920B018CB78F7E8CBF0E940B020D
:10261000A89540BE87DB1092B7018091D8019091B8
:10262000D901F4E085339F0719F5C0E7D0E0FE013A
:1026300084918053803110F4B3DB11C010E0812FFE
:1026400081708295880F807E0E94E80580E190E08D
:1026500073DB1F5F193199F78AE992E06DDB8CE239
:1026600091E06ADB2196F0E0C438DF0701F7FAC099
:102670002FE08F32920779F0E0E1893C9E0709F064
:10268000D9C08091AC01813009F026C18091AB01A5
:10269000882309F421C1C091AA01EC2FF0E0E45F86
:1026A000FE4F87898093BE01C23009F138F0C330F4
:1026B00009F43DC0C53009F4A0C04DCFD58D86E9E1
:1026C0000E94E805C11109C0DA3220F4C501019762
:1026D000F1F707C081E090E003C08D2F869590E070
:1026E0002BDB80E00E94E8058D2F90E02EC1D09179
:1026F0000A01C0E0C11102C081E003C0C53019F475
:1027000085E00E9421078D2F0E94E80581E290E07C
:1027100013DB80E00E94E80582E490E00DDBCF5FF0
:10272000CA3041F780911C018093BE0114CF0E94F2
:1027300024028F73E82EF12C0E942402682D23D1ED
:1027400001E010E0380102C0660C771C9A95E2F7B0
:102750000E94240265E017D1E80102C0CC0FDD1F02
:102760009A95E2F76C0E7D1E0E94240290E0B30160
:102770002AD1E301C80FD91FC739D10514F0C6E922
:10278000D0E08C2F0E94E805C701D6DA8E0133E035
:10279000159507953A95E1F7011101C001E010E0A8
:1027A000C701CADAC01BD10BD7FF02C0C0E0D0E01E
:1027B0008C2F0E94E8050E942402837039F4C7011F
:1027C000BBDACE01959587950E94E805C230D10508
:1027D0003CF70E942402652DD6D0C1E0D0E002C0B3
:1027E000CC0FDD1F9A95E2F70E94240290E0BE0113
:1027F000D6D0C80FD91F80E0A5C0C0912B01CC0F47
:10280000C73908F0C6E9D4E08C2F0E94E80585E0BE
:1028100090E092DA80912B010E94E80581E490E03B
:102820008BDAD15089F780ED92E086DA80E00E9461
:10283000E80591CEFBE089379F07E9F488EE93E045
:102840007BDA8091DC01C5E06C2F9DD0D7DA8091D6
:10285000DC016C2F98D0892F880FD0DA8091170176
:10286000882381F0D092C601C092C5011092C401A4
:102870001092C30170CE28E0803C920731F4809121
:10288000DA01BCDA88EE93E060C0E8E087399E07A1
:10289000B9F48091C00181115ECE80910A010E943D
:1028A000E80584E690E048DA80E00E94E80580913F
:1028B0002C0190E068EE73E055D08456910945C034
:1028C0008F55984049F480E0AFDA81E0ADDA80E0DE
:1028D000ABDA80ED97E039C0809121018823B9F10E
:1028E0008091A701882399F12091BD013091A80121
:1028F00023130AC0822F0E94E8051092A70180913D
:10290000A9018093BC0127CE6091A601231760F432
:10291000832F821B38D0811101C081E0820F0E9479
:10292000E8058AE090E011C0862F90E06EE170E04B
:1029300019D06091A901631B70E045D0EB0121968D
:102940008FEF820F0E94E805CE01F6D904CE86B73C
:102950008F7986BF86B7806186BF889586B78F7E60
:1029600086BFF9CD0024552704C0080E591F880FD3
:10297000991F009729F076956795B8F37105B9F717
:10298000802D952F0895991B79E004C0991F961703
:1029900008F0961B881F7A95C9F780950895AA1BA1
:1029A000BB1B51E107C0AA1FBB1FA617B70710F03A
:1029B000A61BB70B881F991F5A95A9F7809590956C
:1029C000BC01CD01089597FB072E16F4009406D0A4
:1029D00077FD08D0E4DF07FC05D03EF490958195A3
:1029E0009F4F0895709561957F4F0895E199FECFAF
:1029F0001FBA8EBBE09A99278DB30895262FE199CF
:102A0000FECF1FBA8EBBE09A81500DB2021639F08C
:102A10001CBA2DBB0FB6F894E29AE19A0FBE089546
:042A2000F894FFCF58
:102A2400070D180101010004820A460200010A0A86
:102A34000A828282010705010000000000010000F3
:102A440000010400000000000029433202072D00A9
:102A540018390400781E98150504030E0111011499
:102A6400010201000000000000000100000000005D
:102A74000000000100009101A502AF03B904C305E1
:102A8400CD06DC07FF07C202F8029602C0029C02D0
:102A9400C002A202C002A802C002AE02C002B40276
:062AA400C002BA02C002EC
:00000001FF
