:10000000BDC10000D8C100000C941F12D4C1000073
:10001000D2C100000C941012CEC10000CCC100006F
:10002000CAC100000C942E12C6C10000C4C1000059
:10003000C2C10000C0C100000C94D211BCC10000BC
:10004000BAC10000B8C10000B6C10000B4C10000D0
:10005000B2C10000B0C10000AEC10000ACC10000E0
:10006000AAC10000A8C10000A6C10000A4C10000F0
:10007000303133372E323032332D31322D30332B75
:100080003531233100000105041410111500000062
:100090000000000000000000000000000000000060
:1000A0000000000000000000000000000000000050
:1000B0000000000000000000000000000000000040
:1000C0000000000000000000000000000000000030
:1000D0000000000000000000000000000000000020
:1000E0000000000000000000000000000000000010
:1000F0000000000000000000000000000000000000
:100100000000000000000000000000000000000AE5
:10011000141F2A35414C5865717E8B98A6B4C2D104
:10012000E0EFFF0000020003000500070009000BDC
:10013000000E001100140018001C00210026002CE5
:1001400000320039004000480051005B006500703B
:10015000007D008A009800A700B800C900DC00F10B
:100160000007011E01370151016D018B01AB01CD6B
:1001700001F10117023F026A029702C702F9022E3B
:10018000036603A103E00321046604AE04FA0449F4
:10019000059D05F4055006B00614077D07EB075DC5
:1001A00008D5085209D4095C0AEA0A7D0B170CB776
:1001B0000C5E0D0B0EBF0E7A0F3C100611D811B15C
:1001C0001293137D146F156A166F177C189419B566
:1001D0001ADF1B151D541E9F1FF5205622C2233BFC
:1001E00025BF265128EF299A2B522D182FEC30CEFF
:1001F00032BF34BF36CE38ED3A1B3D5A3FAA410BD1
:10020000447D460049964B3F4EFA50C853AA56A02B
:1002100059AA5CC95FFE624866A8691F6DAC70513F
:10022000740D78E27B807F807F807F807F807F80FD
:100230007F807F807F807F807F807F807F807F80C6
:100240007F807F807F807F807F807F807F00000035
:100250000001000200030004000500060007000979
:10026000000A000C000E0011001300160019001CFB
:10027000002000240029002D00320038003E0045F7
:10028000004C0054005C0065006E00790084008F13
:10029000009C00A900B800C700D700E800FB000ED2
:1002A00001230139015001680182019E01BA01D97F
:1002B00001F9011B023E0264028B02B502E0020E4C
:1002C000033D037003A403DB03150451049004D120
:1002D0000416055E05A905F70548069D06F50651B5
:1002E00007B10714087C08E7085709CB09440AC17D
:1002F0000A430BCA0B560CE70C7E0D190EBB0E629F
:100300000F0F10C1107B113A120013CC13A0147AF6
:10031000155C16451735182D192D1A351B451C5E11
:100320001D801EAA1FDD201A226023B02409266D1D
:1003300027DB28532AD72B652DFF2EA430543211EA
:1003400034DA35AF379139803B7D3D863F9E41C3DE
:1003500043F74539488A4AEB4C5A4FDA51695409F8
:1003600057B9597A5C4D5F316227652F68496B77C1
:100370006EB7710B757378EF7B807F0011241FBE01
:10038000CFEFD4E0DEBFCDBF11E0A0E0B1E0E2E00E
:10039000FBE202C005900D92A638B107D9F722E022
:1003A000A6E8B1E001C01D92A032B207E1F70E94B9
:1003B0005F120C947F1524CEF89498ED9FBD83BFF7
:1003C00078940895482F9B01E9EEF1E080E090E0F9
:1003D0005081552331F00196339680319105C1F754
:1003E0000AC063E070E00E942115FC01E751FE4F56
:1003F00040833283218308950F931F93CF93DF931C
:10040000D091E901DD2351F10091EA011091EB0156
:10041000C091C601C150C7FD0DC0EC2FEE0FFF0B00
:10042000E953FE4F0190F081E02DB8018D2F099521
:100430008111F0CFE9EEF1E08381808384819581A1
:1004400092838183339682E0E631F807A9F7109210
:1004500016021092180210921702D2CFDF91CF919C
:100460001F910F910895BC0180911B02ABCF109298
:100470001B0210921A021092190281E08093B701B8
:1004800008950F931F93CF93C82F08EA17E0CC234A
:1004900049F082E091DFC8010197F1F780E08CDF3D
:1004A000C150F5CFCF911F910F91089586E884B97F
:1004B000E1E6F0E080818260808388E082B910927A
:1004C000E5011092E6018FEE83B90895E0910601EF
:1004D000F09107013196FB70F460F0930701E0930F
:1004E00006018091BA018B5A8093BA01E491809100
:1004F000BA018E0F08950F931F93CF93DF9300D00F
:100500001F92CDB7DEB72091330130913401409175
:10051000350129833A834B83FE01319640E050E058
:1005200090E061E070E0B1919A01220F331F8C01DD
:1005300002C0159507952A95E2F79801237061F09E
:100540002130D1F4A0B39B0101C0220FBA95EAF784
:10055000322F30953A2318C0A0B39B0101C0220F5F
:10056000BA95EAF720953A2F322330BB32B33223C3
:1005700032BB31B323230EC0A0B39B0101C0220FB5
:10058000BA95EAF73A2F322B30BB32B3322B32BB5B
:1005900031B3232B21BB4F5F5F4F4330510519F619
:1005A0000F900F900F90DF91CF911F910F910895B1
:1005B000811102C081E001C082E09DCF811102C0A3
:1005C00085E001C08AE097CF811102C084E001C0BC
:1005D00088E091CF811102C084E101C088E28BCF15
:1005E000811102C080E101C080E285CF811102C08B
:1005F00081E101C082E27FCF811102C085E101C0AB
:100600008AE279CF81E00895889A90931F028093BF
:100610001E02880F892F881F990B919580931D02C8
:10062000992790936D0080936C0068BB8AB78068AF
:100630008ABF8091BC01811104C010926F0010929A
:100640006E000895E82FF0E0EE0FFF1FE15BFD4F15
:100650008591949160E0D8CF682F70E0FB01EE0F98
:10066000FF1FED5DFE4F85919491FB01E357FF4F16
:100670006491CACFAC0180911E0290911F02803814
:100680002FE7920721F44115510539F00AC040388F
:100690002FE7520731F4892B21F450931F02409326
:1006A0001E0284E098B3961718F498B39F5F05C0B4
:1006B00098B3691718F498B3915098BB815091F78B
:1006C00020911E0230911F02732F769590E024171F
:1006D000350718F42F5F3F4F05C04217530710F43A
:1006E000215031099F5F791790F730931F022093B3
:1006F0001E024217530721F498B381E0691380E08A
:100700000895E82FF0E0EE0FFF1FE15BFD4F8591AC
:10071000949160E0AFCF682F70E0FB01EE0FFF1FF8
:10072000ED5DFE4F85919491FB01E357FF4F64917E
:10073000A1CFCF93DF9300D000D000D0CDB7DEB7EC
:1007400090910D012091D7013091D8012E583B4056
:1007500009F492E0843019F46093190121C06623F2
:10076000F9F0823019F427E9261B622F26E0E6E330
:10077000F1E0DE01119601900D922A95E1F7E82F44
:10078000F0E03197EE0FFF1F21E030E02C0F3D1F0E
:10079000E20FF31F0190F081E02DE90FF11D60835E
:1007A00026960FB6F894DEBF0FBECDBFDF91CF9176
:1007B0000895813011F4609332010895BF92CF9271
:1007C000DF92EF92FF920F931F93CF93DF93EC0191
:1007D00040910D0190911801992311F0E2E001C0C0
:1007E000E42FF0E0E35FFE4F228120930901858131
:1007F00080930801E92FF0E0E35FFE4F3185622F1F
:1008000070E0442349F0313039F49B01280F311D49
:10081000C9019595879538C0C617D707A4F1682FE9
:1008200070E06C177D0784F1411102C08C2F2CC041
:10083000821B032F10E001501109E82EF12CC70193
:10084000B8010E9452156093B4016695E62FF0E05E
:10085000822FC12CD12CB12CB316B1F0C601B80136
:100860000E943E15822F860FCE0CDF1CAE01481B66
:10087000510957FF03C0519541955109E417F507F8
:100880001CF4B394E9CF822FDF91CF911F910F9188
:10089000FF90EF90DF90CF90BF900895EDE0F1E0F2
:1008A000868580930A018389808B80930B0108954C
:1008B0008091B001882351F09091BD019093B301D4
:1008C0008093AF011092AE011092AD01089581E0C6
:1008D0000895823019F460932D0108956111609399
:1008E00028010895662389F0813061F48091D9014F
:1008F00090912A01891B681B60932A0182E08093F2
:100900000C0103C0635E6093290180912901873443
:1009100018F086E480932901089560932E010895CC
:10092000E82FF0E0E35FFE4F61A308957FEF780FBB
:1009300040911E0150911F01662359F021E030E0E3
:1009400002C0220F331F7A95E2F7CA01822B932B44
:100950000AC081E090E002C0880F991F7A95E2F703
:1009600080958423952390931F0180931E01089501
:10097000CF93DF938DE091E09093B9018093B8011C
:1009800082E07FDDF894C0E0D0E0E091B801F09122
:10099000B901EC0FFD1F60812196CE010E946D15FB
:1009A000C632D10591F765EA80E090E00E946D15AE
:1009B0007894DF91CF9108951092E70180B191B1C1
:1009C0002091BA018295869586958370990F990F2B
:1009D000890F820F8093BA018091DC01882309F48A
:1009E0001AC11092DC018091E5019091BE0199231A
:1009F00029F01F981092E8011092E501811151C071
:100A000080910C01882329F08091E1019091E2010D
:100A10001AC08091BE012091DD013091DE01882352
:100A2000B9F08091E1019091E20143E096958795BC
:100A30004A95E1F7820F931F53E0369527955A9513
:100A4000E1F7821B930B9093DE018093DD0101C0DF
:100A5000C901209128012750220F6AE171E00E940C
:100A60003E15260F2093DB018091A401882311F00D
:100A7000815007C0213938F460E070E084E0A2DCE6
:100A800085E08093A4018091BE018111BBC08EE8F6
:100A900084B981E08093E5011092E6018FEE83B97D
:100AA000B1C0813009F0AEC080910C01882341F0C3
:100AB0008091E3019091E4019093E0018093DF0144
:100AC0008091DF019091E00160912A019C01A6E0F4
:100AD00036952795AA95E1F7062E000C770B260F81
:100AE000371F2E5031403093DA012093D901B5E001
:100AF00096958795BA95E1F720910C01211128C0B0
:100B000020919301E22FF0E0EE0FFF1FEC56FE4F15
:100B100040815181DC01A41BB50BAD019183808321
:100B20002F5F2770209393019D01220F331F220F07
:100B3000331F820F931F2091290130E0261B370BB2
:100B4000225F3E4F220F331F821B930B23E00EC008
:100B5000E4E9F1E081939193B1E0E43AFB07D1F746
:100B6000CFCF009709F00196215029F018161906E9
:100B7000C4F70197F9CF18161906E4F457FD39C0E8
:100B80002091920112160CF1880F991FBC0163503D
:100B9000710977FF02C06F5F7F4F759567951616D5
:100BA000170614F061E070E088E1861B80939201E3
:100BB00085E026C08C3F2FEF9207DCF457FF19C069
:100BC0002091920127FF05C02450281B20939201F9
:100BD00018C024EE281B209392012091DB012339B9
:100BE00080F06CEF7FEF681B790B7595679586E059
:100BF00007C08091DB01823920F060E070E087E07F
:100C0000E1DB54DC80910C01882329F080910C01F8
:100C1000815080930C010895882321F0813031F4B4
:100C2000829805C0829892988A980895829A929A9A
:100C30008A9A0895CF93C82F8091BD01811109C070
:100C4000CC2339F080913201C81718F4F3DF82E029
:100C500018DC8091BE0181110BC04DDC91E0C11107
:100C600001C090E081E0C73408F480E0890FD4DF50
:100C7000C11117C08AB78F778ABF10921F021092D6
:100C80001E0210926D0010926C0010926B00109278
:100C90006A0018BA10926F0010926E0088988998B6
:100CA0000FC0E0910B01F0E0EE0FFF1FEE0FFF1FF2
:100CB000EF59FE4F0190F081E02D8FEF8C0F0995D9
:100CC0008091BD01C8138093BC01C093BD01C09346
:100CD000BB01CA3010F482E005C0C43110F481E0D9
:100CE00001C080E0CF9168CBCF93C091BD018DE270
:100CF0008C0F873908F080E09DDF83E0C2DB8C2F0A
:100D0000CF9198CFCF93C091BD0180E093DF83E076
:100D1000B8DB8C2FCF918ECF8093B5019091BD0120
:100D2000981718F4282F291B02C0292F281B30914F
:100D3000A701311106C030912201332369F022301E
:100D400058F08093A80184E08093A60181E080930D
:100D5000A7019093A90108956DCF0F931F93CF938F
:100D60009091DB012FEF290F203920F480E0C3DBC5
:100D700080E09EC0E82FEF702091B101211125C0C5
:100D8000C82FC295CF7020912D0130E043E0220F93
:100D9000331F4A95E1F762177307C0F48091B601DB
:100DA000482F50E0421753078CF4882379F021E054
:100DB0008091BC018F3008F420E081E0C23009F05E
:100DC00080E0822BC1E0C80F36C0C2E0E73088F176
:100DD000E730A9F400918B0110E00F5F1F4F76DB25
:100DE00065E00E9432159801290F311DC90166E0A6
:100DF00070E00E94521580938B01FC013AC0E830EC
:100E0000D1F48091BE01882311F02FE001C023E0CE
:100E100030E062237323672B51F480918B0190E0C3
:100E2000019666E070E00E94521580938B01E0917C
:100E30008B01F0E01EC08091BE01882381F080E02C
:100E4000E82FF0E0E15BFE4F2081921710F08E5FFB
:100E5000F7CF3197E081F0E0EB57FF4F0CC0CB01AB
:100E60009695879563E070E00E943E15FC01EE0FB9
:100E7000FF1FEA57FF4FE491C33071F480918A015C
:100E800090E0019663E170E00E943E1580938A0134
:100E9000DC01A45CBE4FCC91CC2329F0C13029F0F9
:100EA000EE0FC2E002C0C0E0E0E08E2F24DB8C2F0A
:100EB000CF911F910F91B0CECF93DF9390910B0103
:100EC000981759F0C82FD091BD0180E0B3DEC093D0
:100ED0000B018D2FDF91CF91ADCEDF91CF91089592
:100EE000813019F410921B010895823019F4609337
:100EF0001C010895833019F460931A010895843019
:100F000019F460930E010895853011F46093220165
:100F10000895CF93C0911801C1114FC0883039F4A2
:100F20001092B0011092AE011092AD0147C0813B0A
:100F300081F48091B0018150833008F03EC083E09D
:100F40008093B0018093AF011092AE011092AD0179
:100F500034C0853BB1F4CB016EE370E00E943E15D6
:100F6000892B61F58091B0018A3F40F58B5F8093BA
:100F7000B0018093AF011092AE011092AD01B4DECA
:100F80001DC08130D1F48091AD019091AE010196E8
:100F900088382EE0920728F49093AE018093AD013B
:100FA0000DC01092AE011092AD018091B001882366
:100FB00029F081508093B00101C0C1E08C2FCF9106
:100FC0000895FF920F931F93CF93DF938C01EB0152
:100FD000F42E8091D7019091D801892B31F0E091C6
:100FE000D701F091D80189E009951093D8010093B9
:100FF000D701012B39F0E091D701F091D801BE0162
:101000008F2D099581E08093B701DF91CF911F91DA
:101010000F91FF900895CF93DF93E091C601EE23E7
:1010200059F0E150E093C601F0E0EE0FFF1FE953E5
:10103000FE4FC081D18102C0C0E0D0E0E091C60186
:10104000EE2341F0F0E0EE0FFF1FEB53FE4F8081E7
:10105000918102C080E090E04AE060E070E0B1DFA2
:10106000CE01DF91CF910895883029F41092A50127
:1010700010928C0115C0813001F590918C01911175
:1010800007C06032710570F180938C01F0D92AC0DD
:10109000913089F46B3B710528F082E080938C01DC
:1010A00080E01FC061157105E9F06270862F880F1E
:1010B000880F8E5E16C0AFDF15C0813811F0813EFB
:1010C00089F491E090938C01813E21F48091A501F7
:1010D000865F03C08091A5018F5F8093A501C7D96A
:1010E0008BE4A8DD80E008959C019091C6019830C2
:1010F00088F4E92FF0E0EE0FFF1FE953FE4F318334
:1011000020839F5F9093C60148E0C9015ADF809118
:10111000C60108958FEF08950F931F93CF93DF9328
:10112000EC018B0178DFB801CE01DF91CF911F91E7
:101130000F91DACF813C29F460E070E08EE29CE010
:1011400006C0823C39F460E070E084EB9BE0E4DFB1
:1011500080E0089581E00895843011F58091D701F1
:101160009091D8012FE08537920729F469E170E06A
:1011700085E199E013C08551994061F49091BD01DA
:10118000923040F0892F869596959695890FC4DD0B
:1011900080E0089560E070E08EE29CE0BDDFF8CF73
:1011A00081E00895813C29F460E070E08EE29CE0EB
:1011B00006C0823C31F460E070E08AE998E0ACDF80
:1011C00016C0813B49F4CB016EE370E00E943E15EE
:1011D000892B69F489DD0BC0813E59F4CB016EE3A4
:1011E00070E00E943E156F5F60932701C1DB80E0D5
:1011F000089581E00895813C29F460E070E08EE27A
:101200009CE006C0823C31F460E070E082ED98E042
:1012100083DF07C0873B39F460E070E08EE99BE034
:1012200063DF80E0089581E00895BF92CF92DF925E
:10123000EF92FF920F931F93CF93DF93182FEB0141
:1012400080911D0180930B01D0900901F09008015D
:1012500080910D01882319F0B090B40102C0BB2425
:10126000B394C0900E01809118018111C0901901B2
:10127000CC2051F081E0C81621F080910A018F1531
:1012800018F0F6E9EF2E01C0EF2C0091B001BE017D
:10129000812F3FDE8091B001882339F001110CC00D
:1012A0009091BD019093B30107C0002329F060E045
:1012B00070E08EE29CE032C0183029F01A30B9F4A8
:1012C000C0910A01D0E08D2D90E08C179D0738F475
:1012D0008F2D90E0C817D90710F4C0930A01CE01F2
:1012E0006DDA1ADD81E08093050100E0A1C1113CB7
:1012F000F1F2123C59F48091BD018E1510F48E2D3F
:1013000002C080910A0108DDD3DAEFCF143C41F42A
:1013100080E090DC60E070E08DE59DE0FDDEE5CFF3
:101320009FE4910F923008F055C080910D01882301
:1013300041F0CE0168E170E00E943E15892B31F04A
:10134000D4CF6091150170E0CE01F6CF0091A701D6
:101350000111CBCF2091BD01209761F4123B11F414
:101360008FEF05C02F15E0F7D21608F181E08093CA
:1013700005011DC0E0911501F0E0CF0166E371E0C9
:101380000E9421158C179D0710F42F1548F7CF01E7
:101390006CE672E00E9421158C179D0740F4D2166E
:1013A00030F0A2DC60E070E08DE59DE0B5DE80917C
:1013B00005016B2D70E0082E000C990B0E94211581
:1013C0002091BD01820F911DF9D980930A01A4DCFF
:1013D0006FDA2EC19FE1910F923020F480910501C8
:1013E000819581CF113009F086C0A99711F410932F
:1013F0000501882379F10091B30110E090E0B80174
:101400000E942115EC01E091AF01F0E0BF010E94C4
:101410005215262FCE01801B910BBF010E94521541
:10142000322F361B8091AD019091AE016EE370E0DA
:101430000E943E15832F90E00E9421156CE370E01E
:101440000E943E15261B622F09F461E06093BB01E8
:101450006093B501C091BB012091BD018C2F90E03C
:10146000821B910960918F01709190016F5F7F4F96
:101470007093900160938F01009709F436CF97FF26
:1014800005C0233830F040E450E005C040E052E0B1
:1014900002C040E051E05695479597FD019695951D
:1014A00087950097C1F74617570708F01ECFC21758
:1014B00010F4CFEF03C02C1710F4C1E0C20FE0917D
:1014C0000B01F0E0EE0FFF1FEE0FFF1FEF59FE4F75
:1014D0000280F381E02D8FEF8C0F0995882331F086
:1014E000D091BB018C2FA6DBD093BB011092900151
:1014F00010928F01FACE1530A1F48091BD01833393
:1015000008F4F3CE90E08C1B9D0B8233910534F0F0
:101510008739910564F186E990E029C082E390E083
:1015200026C01630B1F49091BD018091B501981795
:1015300008F0DBCEC90FD11D90E08C179D0734F069
:10154000C233D10524F4C2E3D0E001C0EC018C2FFA
:101550000EC0173079F49091BB018091BD018917BD
:1015600010F48F5F04C0981708F0BFCE81508093AD
:10157000BB01BBCE133C19F0163C41F517C060917E
:101580001E0170911F0180E090E020E0AB01082E69
:1015900002C0569547950A94E2F74170240F0196D0
:1015A0008930910599F7223008F041C081E090918F
:1015B0000D01911180E080930D01DAD9A3DB8091B8
:1015C000BD0190E0FBD880930A019DCE00911801E7
:1015D00001112DC0133B49F4CD2B09F086CECC2050
:1015E00011F086E9E82E8E2D04C0133E21F480917F
:1015F0000A0192DB1DC0173B29F460E070E08AE825
:101600009BE013C01A3C59F48091BD0180931B01EB
:1016100080910B0180932001ABD966DB09C01A3B96
:1016200031F460E070E082E99BE05EDD01C001E042
:10163000802FDF91CF911F910F91FF90EF90DF905E
:10164000CF90BF9008950F931F93CF938B01C42F1A
:10165000883091F480910B0180938E0110928D015E
:1016600080E0E8DA8091BF0181114FC080918D0147
:101670008F5F80938D0133C0982F907F903B21F531
:1016800080918D014817E8F08150893040F49091A5
:10169000B201992321F090910B0189130DDCC8014F
:1016A0006DE570E00E943E15069749F480918D012A
:1016B0008F5F80938D01C81740F188E303C082E1FA
:1016C00001C080E0B7DA21C0903E79F480918D01AD
:1016D0008823A1F0481790F080918E01EDDB60E047
:1016E00070E084E398E000DD10C08A3049F4609136
:1016F000A50180918D01F90109953AD98CDC05C0CD
:10170000893019F480918E01D7DB80E0CF911F9151
:101710000F91089529E933E043E095CF29E933E0BB
:1017200044E091CF20E737E045E08DCF29ED33E06D
:1017300041E089CF29E634E042E085CF22E734E07A
:1017400042E081CF2DE834E041E07DCF20E934E074
:1017500043E079CF91E09093B20126E934E049E08B
:1017600072DF1092B2010895CF93C0911801C11198
:1017700025C0813C29F460E070E08EE29CE006C068
:10178000823C31F460E070E08BEF98E0C5DC17C07C
:10179000833C61F48091210190E0019669E070E062
:1017A0000E94521580932101E3D809C0873B31F490
:1017B00060E070E08AE99BE097DC01C0C1E08C2F1B
:1017C000CF910895CF93DF93833C29F530910B019E
:1017D000E0911E01F0911F01832F29E0C9E0D0E0C4
:1017E00090E00196BE010E945215AF01082E02C082
:1017F000569547950A94E2F740FF0AC03817B9F0AA
:101800005BDB80910B0180931D01B2D8C0E010C05A
:10181000215031F7F3CFC0911801C11108C0893BA5
:1018200031F460E070E08AEA9BE05EDC01C0C1E078
:101830008C2FDF91CF91089590912201992369F027
:101840008093A80188E08093A60181E08093A7019E
:101850008091BD018093A9010895ECC90F931F9356
:10186000CF938B018830A1F480E0E6DF8091A7015F
:10187000082B1092B60180911D0180930B011092EC
:10188000B001012B09F05AC081E08093BE0156C01F
:10189000813059F46931710508F450C0C091A70135
:1018A000C1114CC08093BE0103C1833041F58091CA
:1018B000B6018F3F19F08F5F8093B60180911B01B5
:1018C000882361F080911C0190E062EC71E00E943D
:1018D00021150817190710F00E944E04B8018091D5
:1018E0002B013BDA80912E01882341F190E062ECDC
:1018F00071E00E9421158017910700F553C0813BCC
:1019000099F481E090E00E94DE0396DF80911A0155
:10191000811114C080910D01811103C0083111059E
:1019200068F061E070E02AC0813ED9F3813841F46B
:1019300080910A0190E00E94DE037EDFC0E0B8C023
:10194000813C21F460910A0170E018C0823B81F46F
:101950001092B60180910E01909118019111809121
:101960001901811103C086E990E0E5CF86E9E5CF52
:10197000823E59F0823C29F466E970E085E199E005
:101980000CC0833921F41092A70180E0D6CF833CAC
:1019900031F460E070E084EB9BE0BEDBCFCF843CB1
:1019A00031F4A2D960E070E08DE59DE0F6CF8D3B8B
:1019B00041F4F89488ED8FBD88E880BF7894A895AD
:1019C000FFCF8F3C29F460E070E087E694E0E5CF3C
:1019D000C09118018A3B79F4672B69F4CC2331F06C
:1019E00083D9109218010E94B804A8CF60E070E07B
:1019F0008EE89BE05AC0C1115AC0833B29F460E0D5
:101A000070E085E79FE047C0873CA1F490912B01EF
:101A1000892F82958F708F5F83708295807F9F70F2
:101A2000892B80932B0160E070E097D90E94B80465
:101A30005BD93EC0873BD1F481E08093B101C801FE
:101A40008F739927892B69F490912B01892F8F70BF
:101A50008F5F292F207F6BE00E943215922B90938D
:101A60002B01B80180912B0178D922C0873E19F44F
:101A70001092B10106C08A3C39F436D981E08093D6
:101A800018010E94B80414C0863C39F42DD960E0D6
:101A900070E08DEF90E140DB0BC0893B41F4012BFE
:101AA00031F460E070E086E99BE01EDB01C0C1E03C
:101AB0008C2FCF911F910F9108950F931F93CF9368
:101AC000DF93C82F8B01873B19F480E0B3D87BC02C
:101AD00080798039B1F420910F01909110018C2F01
:101AE0008F70813021F4822F921748F407C08091C3
:101AF0001B01811104C0822F291708F4892F9CDE55
:101B00000EC0803811F480E097DEC83041F41092A6
:101B1000B60160E070E080912C011FD954C0C13043
:101B200039F40931110508F492C0C093BE0118C000
:101B3000C330D9F48091B6018F3F19F08F5F809345
:101B4000B60180911B01882359F080911C0190E01F
:101B500062EC71E076D70817190710F00E944E0466
:101B6000B80180912C01F9D872C0C33C31F4BCD8C3
:101B700060E070E08EE29CE014C0C43C21F460910F
:101B80000A0170E00CC0C43B31F4BCD810921B02B7
:101B900061E070E004C0C53C31F466E970E085E1C5
:101BA00099E0BADA54C0C33B71F4C8016EE370E047
:101BB00065D7892B41F460E070E083ECDF91CF9131
:101BC0001F910F91FFCDD0911801D11142C0C73C98
:101BD000A1F490912C01892F82958F708F5F837073
:101BE0008295807F9F70892B80932C0160E070E04C
:101BF000B4D80E94B80478D82DC0C73BC9F481E09E
:101C00008093B101C8018F739927892B61F490915A
:101C10002C01892F8F708F5F292F207F6BE022D7B7
:101C2000922B90932C01B80180912C0196D812C070
:101C3000C73E29F41092B1010E94B8040BC0CA3B00
:101C400041F460E070E082EA9BE04EDA03C0D0E04D
:101C500001C0D1E08D2FDF91CF911F910F91089599
:101C60000F931F93CF931092C1018091190290910D
:101C70001A029C012F5F3F4F88279078822B932B6D
:101C800090931A02809319029091BF012FB1822F75
:101C90008095881F8827881F8093BF01981729F196
:101CA0001092BE018093BF0190911B02892F27FDE6
:101CB0000AC080699F709F3009F08F5F80931B027C
:101CC00080E090E00CC08F7E95FD02C0806801C06E
:101CD000806C80931B028091190290911A020E94DD
:101CE000330210921A0210921902009119021091F7
:101CF0001A028091BE018823B1F0B80183E00E94EE
:101D0000E2010E94FC010134110528F00F70112737
:101D1000012B09F049C01092910181E08093E80104
:101D20000E94560232C0C0911B028C2F807F803BE4
:101D300019F460E070E001C0B80181E00E94E201A6
:101D4000C4FF13C0C5FF02C0C8010CC00831110593
:101D5000E0F010921A0210921902C062C0931B02A6
:101D600080E090E00E94330210C0CC2371F0C5FDEA
:101D70000AC00231110548F0C064C0931B0280E024
:101D800090E00E9433020E943702809191018111FC
:101D900005C08FEE83B981E08093DC0180919101D1
:101DA0008F5F8F7180939101CF911F910F91089553
:101DB0008091E70181110E94DC048091C1018111B1
:101DC0004FCF0895EF92FF920F931F93CF93DF931E
:101DD000EC0108E017E082ECE82EFF24F394209752
:101DE000D9F08091B701811119C08091BD018A306D
:101DF00028F482E00E94DC01C70104C080E00E9458
:101E0000DC01C8010197F1F780E00E94DC01D0DF1E
:101E10000E94FC012197E3CF81E001C080E0DF91C7
:101E2000CF911F910F91FF90EF9008950F931F9303
:101E3000CF93DF93C82F882311F006EA02C00CE08D
:101E4000C1E0D0910B0110E08091210135D88DE2E5
:101E50000E941A06D0930B01C801B4DF80912101C2
:101E60002BD880E00E941A06D0930B018AEF90E0F5
:101E7000A9DFC15049F78D2F1FD88AE992E0DF9181
:101E8000CF911F910F919ECFCF93DF9364E6EAD558
:101E9000282F892F6AE0E6D5EC01222341F0822F1A
:101EA000C5DF8C2FC3DF8D2FDF91CF91BFCFC11145
:101EB000F8CFF9CFCF93DF93D82FC3E080910A01F9
:101EC0000E941A0688EC90E07DDFDD2319F080E99E
:101ED00091E078DF80E00E941A0688EC90E072DFE3
:101EE000C15061F7DF91CF910895FF920F931F9337
:101EF000CF93DF93D82F8B01C091AA0181E080930B
:101F0000AC01C43009F0E5C0F090B0018D2F01D8CC
:101F1000FF2051F08091B001811106C060E070E0B7
:101F20008EE29CE0F9D8D5C0D83021F481E08093CE
:101F30000301D1C0D23C19F41092B001DEC0D13BF4
:101F4000C1F490910201012B49F4963610F08FEF05
:101F500003C0923018F481E0809303018091030163
:101F6000890F11F481E040C1873608F43DC186E64F
:101F70003BC1D13E31F480910301819580930301EF
:101F8000F7C0D23B61F481E08093030180910201AC
:101F9000823008F4F5C0815080930201F1C0D13045
:101FA00009F0AFC00932110511F4D09303019091EB
:101FB0008901892F880F97FD809590E069E070E096
:101FC00040D5292F80918801682F660F87FD609585
:101FD0008091010170E090E034D5290F8091870154
:101FE000682F660F87FD60958091000170E090E09A
:101FF00028D5920F6091020170E0690F711D8091E8
:10200000B001813091F48091AD019091AE0125E055
:10201000969587952A95E1F724E730E0A901481BBA
:10202000590BCA010ED5B90129D5862F0E941A066F
:1020300000FD08C00E946602817090918901890F9D
:10204000809389019091880180918601890F809306
:1020500088010E94660265E205D580918701980F8C
:10206000909387010E9466028F7331F40E9466028A
:102070006DE0F8D490938601C0910101CC2339F032
:102080000E9466028F7319F4C150C09301010E942F
:102090006602811108C00E9466026EE0E3D490934C
:1020A000010110928801C0910001C33038F00E94F4
:1020B00066028F7119F4C150C09300010E9466023C
:1020C0008F7709F085C00E946602877080930001B7
:1020D0007FC0D83041F4809123018093AA0181E030
:1020E0008093040183C0D13C31F460E070E08EE263
:1020F0009CE012D87BC0D23C31F48C2F90E001964A
:1021000007C0D13C91F3D43C59F48C2F90E0059654
:1021100066E070E0C7D4809323018093AA0151C088
:10212000D13B21F5C23090F400FD60C0EC2FF0E00F
:10213000E35FFE4F878990910401891B883020F06E
:102140008F3F69F58EEF2BC088E029C0C53009F0BC
:102150004DC09091260180910401890F823010F4C6
:1021600082E026C0893720F188E722C0D13E31F4D1
:102170008091040181958093040123C0D23BF9F43E
:1021800081E080930401C23060F400FD2FC0EC2F89
:10219000F0E0E35FFE4F87898F3F41F18F5F878BD0
:1021A00025C0C53019F580912601833018F0815083
:1021B00080932601809126010E941A0617C0D23E04
:1021C00019F40E94B80412C0D13011F081E00FC0A0
:1021D0000932110519F481E0809304018091BA015C
:1021E000080F0093BA0102C08093020180E0DF91E2
:1021F000CF911F910F91FF900895FF920F931F931E
:10220000CF93DF9300D01F92CDB7DEB78B838B01C6
:10221000F0900A0180798983803951F5EB81EF7064
:10222000E43020F01092AB011A8276C091E09093D6
:10223000AB01F0E0E35FFE4F81A12FEF280F2639BD
:1022400048F480930A011092AC0180911D018093A3
:102250000B010CC09093AC01873940F190E0875995
:10226000910966E070E01ED48093AA011A820EC024
:102270008981803849F41092AB0180E00E941A06EF
:1022800081E08093B70101C081E08A838091AB0136
:10229000882309F441C08B81883051F48091AC01CE
:1022A000882331F0B80188E020DE02C01A8203C022
:1022B0008981803951F481E08093AB018091AC0138
:1022C00081112AC080910A0106C08981803831F4C9
:1022D0001092AB0180E00E941A061EC08B818130F3
:1022E000D9F48091AB01882349F08091AC01882317
:1022F00009F44CC0B80181E0F8DD0EC080E00E9416
:102300007B0280E00E940C06073381E0180708F486
:102310003DC08B818093BE01F0920A018B81883091
:1023200019F4B801CADB30C08B81813039F4809157
:10233000AB01811127C0B80181E004C08B818330DB
:1023400051F4B8010F900F900F90DF91CF911F9132
:102350000F91FF90B2CB8B81833CA1F0863C49F476
:102360000E94740660E070E08EE29CE00E948C089F
:1023700009C08B81873B41F460E070E086EA9BE016
:102380000E94740880E005C08A8103C0F0920A01AF
:10239000CECF0F900F900F90DF91CF911F910F91A3
:1023A000FF9008951F920F920FB60F9211242F9352
:1023B0003F938F939F93AF93BF93EF93FF9380913E
:1023C000E6018823E9F0E091E50120B131B1F0E0C8
:1023D000EE0FFF1FDF01AF51BE4F2D933C93E35231
:1023E000FE4F808191818217930708F40196281788
:1023F000390708F401979183808381E08093E70196
:1024000081E08093E601FF91EF91BF91AF919F91A1
:102410008F913F912F910F900FBE0F901F901895A5
:102420001F920F920FB60F9211248F9381E0809329
:10243000C1018F910F900FBE0F901F9018951F92A2
:102440000F920FB60F9211248F9381E08093C001F9
:102450008F910F900FBE0F901F9018951F920F92A3
:102460000FB60F9211242F933F938F939F938091D8
:102470001D0290E090936D0080936C0020911E02ED
:1024800030911F02922F9F7780911C02890F220F9B
:10249000232F221F330B3195982F991F9927991FAE
:1024A000290F20931D028F7780931C029F918F919B
:1024B0003F912F910F900FBE0F901F901895F89499
:1024C00085B7877F85BF88ED90E00FB6F894A89513
:1024D0008FBD90B7977F90BF0FBE81E088B998E01D
:1024E0009CB99FE790BB92EA9093720091E1909320
:1024F000710091E89BBB8ABB8FEF90E090936900DD
:102500008093680080E882BB87BD8CB788608CBFF1
:10251000A89580E480BF0E945602789481E00E94D2
:10252000410260E070E08CEA98E00E94740810922A
:10253000B7010E9474069FB1892F8095881F882754
:10254000881F8093BF0197FF17C08DE091E09093A3
:10255000B9018093B80182E00E944102F89480E0C2
:1025600090E0B3D2853A09F046C00091B8011091CD
:10257000B901C1E0D0E036C0C0E08C2F0E941A063D
:1025800083E190E01FDC8C2F86950E941A0683E180
:1025900090E018DC9FB1892F8095881F8827881FBD
:1025A0008093BF0197FD13C0CF5FC03431F765E161
:1025B00081E00E9472040E94B804C6E98C2F0E9438
:1025C0001A0684E090E0FEDBC150C1F7BECFCC23F9
:1025D00009F4BBCF8C2F0E941A068DE090E0F2DB4D
:1025E000C150F5CFCE0171D2F80181938F012196B0
:1025F000C732D105B9F7789480911B0181110E94EF
:102600004E0460E070E082EE9BE00E94740861E09E
:1026100070E08EE29CE00E94740843E4342E52E0A5
:10262000452E60E4C62E7724739477E0672EE5E0AC
:10263000DE2EFDE05F2EAEE2AA2EACE0BA2E0E94A6
:10264000FC018091C4019091C501009751F0609107
:10265000C2017091C3010E948C081092C5011092B2
:10266000C4018091BE01882309F44EC080E00E941D
:102670001A06A89530BE1F989FB1892F8095881F94
:102680008827881F8093BF0197FFF6CF0E943702EB
:102690008CB788608CBF1092E7011092C101109234
:1026A000C0018091BE01882331F18091E801882327
:1026B00021F086B78F79806203C086B78F798064F6
:1026C00086BF86B7806186BF889586B78F7E86BFB6
:1026D0008091C00181111092BE018091E701882391
:1026E00021F07092DC010E94DC048091C1018823FA
:1026F000C1F2B6DAD6CF40920C018CB7877F8CBF7F
:102700000E945602A895C0BE53DB1092B70180917B
:10271000D7019091D801F4E087369F0719F5C0E7FB
:10272000D0E0FE0184918053803110F47FDB11C032
:1027300010E0812F81708295880F807E0E941A069A
:1027400080E190E03FDB1F5F193199F78AE992E061
:1027500039DB8CE291E036DB2196F0E0C438DF070C
:1027600001F7EFC02FE08537920779F0E0E18D3F68
:102770009E0709F0CFC08091AC01813009F01BC1E8
:102780008091AB01882309F416C1C091AA01C2301F
:10279000F1F030F0C330D9F1C53009F49EC04FCF0D
:1027A000EC2FF0E0E35FFE4FD78986E90E941A061E
:1027B000C11103C081E090E003C08D2F869590E0A9
:1027C00001DB80E00E941A068D2F90E02DC1D09190
:1027D0000A01C0E0C11102C082E003C0C53019F493
:1027E00086E00E945C078D2F0E941A0681E290E02D
:1027F000E9DA80E00E941A0682E490E0E3DACF5F33
:10280000CA3041F780911D0180930B0118CF0E94BF
:1028100066028F73E82EF12C0E946602662D22D18B
:1028200001E010E0480102C0880C991C9A95E2F77B
:102830000E9466026D2D16D1E80102C0CC0FDD1F8B
:102840009A95E2F78C0E9D1E0E94660290E0B401FC
:1028500029D1E401C80FD91FC739D10514F0C6E941
:10286000D0E08C2F0E941A06C701ACDA8E0133E04B
:10287000159507953A95E1F7011101C001E010E0C7
:10288000C701A0DAC01BD10BD7FF02C0C0E0D0E067
:102890008C2F0E941A060E946602837039F4C701C9
:1028A00091DACE01959587950E941A06C230D1051E
:1028B0003CF70E946602652DD5D0C1E0D0E002C091
:1028C000CC0FDD1F9A95E2F70E94660290E0BE01F0
:1028D000D5D0C80FD91F80E0A4C0C0912601CC0F6D
:1028E000C73908F0C6E9D4E08C2F0E941A0685E0AB
:1028F00090E068DA809126010E941A0681E490E057
:1029000061DAD15089F780ED92E05CDA80E00E94D4
:102910001A0695CEFBE0843B9F07E1F488EE93E036
:1029200051DA8091DB016D2D9DD0AEDA8091DB0113
:102930006D2D98D0892F880FA7DA809118018823F0
:1029400081F0B092C501A092C4011092C30110920F
:10295000C20175CE28E08B3F920731F48091D901F6
:1029600093DA88EE93E060C0E8E0823D9E07B9F418
:102970008091BF01811163CE80910A010E941A06E5
:1029800084E690E01FDA80E00E941A068091270119
:1029900090E068EE73E055D08456910945C08A599D
:1029A000984049F480E086DA81E084DA80E082DAD7
:1029B00080ED97E039C0809122018823B9F18091A0
:1029C000A701882399F12091BD013091A80123131B
:1029D0000AC0822F0E941A061092A7018091A901B5
:1029E0008093BC012CCE6091A601231760F4832F45
:1029F000821B38D0811101C081E0820F0E941A062B
:102A00008AE090E011C0862F90E06EE170E019D06E
:102A10006091A901631B70E045D0EB0121968FEF17
:102A2000820F0E941A06CE01CDD909CE86B78F79C2
:102A300086BF86B7806186BF889586B78F7E86BF42
:102A4000FECD0024552704C0080E591F880F991F7A
:102A5000009729F076956795B8F37105B9F7802D41
:102A6000952F0895991B79E004C0991F961708F0D7
:102A7000961B881F7A95C9F780950895AA1BBB1BE2
:102A800051E107C0AA1FBB1FA617B70710F0A61B6E
:102A9000B70B881F991F5A95A9F780959095BC018F
:102AA000CD01089597FB072E16F4009406D077FD0C
:102AB00008D0E4DF07FC05D03EF4909581959F4F48
:102AC0000895709561957F4F0895E199FECF1FBAE3
:102AD0008EBBE09A99278DB30895262FE199FECFFA
:102AE0001FBA8EBBE09A81500DB2021639F01CBAA3
:102AF0002DBB0FB6F894E29AE19A0FBE0895F894B0
:022B0000FFCF05
:102B0200080E1801010100049601460102000101AC
:102B12000A0A9682820107050100000000010200F4
:102B22000101010429433202072D001839040082F1
:102B32001E99160504030F0112011501020100007E
:102B42000000000000010000000000000000010081
:102B5200009101A502AF03B904C305CD06DC07FF4E
:102B620007220381032C038B03D8020203DE020235
:102B720003E4020203EA020203F0020203F6020283
:062B820003FC0202030047
:00000001FF
