:1000000072C100008DC100000C94CF1189C10000A5
:1000100087C100000C94C01183C1000081C10000A1
:100020007FC100007DC100007BC1000079C10000DC
:1000300077C1000075C100000C94821171C10000ED
:100040006FC100006DC100006BC1000069C10000FC
:1000500067C1000065C1000063C1000061C100000C
:100060005FC100005DC100005BC1000059C100001C
:10007000303131332E323032332D31322D30332B7B
:1000800035312331000001050414101115FF0F8DC7
:100090000A800C020ED609DA0A120BEB0A910A1B2F
:1000A0000A9709160A6C09C708D0082B080E0873AE
:1000B0000744070A07C90645060606C50584054321
:1000C000050405C6048A0451041A04E503B2038238
:1000D0000355032A030003DA02B5029202710252A9
:1000E0000234021802F701E501CE01B701A2018E28
:1000F0000180016E016101540147013F0133012A72
:100100000124011C01180111010D010A010701045C
:1001100001020100010001FF00FF00FF00FF00FFDE
:1001200000FF00FF00FF00FF00FF00FF00FF00FFD7
:1001300000FF00FF00FF00FF00FF00FF00FF00FFC7
:1001400000FF00FF00FF00FF00FF00FF00FF00FFB7
:1001500000FF00FF00FF00FF00FF00FF00FF00FFA7
:1001600000FF00FF00FF00FF00FF00FF00FF00FF97
:1001700000FF00FF00FF00FF00FF00FF00FF00FF87
:1001800000FF00FF00FF00FF00FF00FF00FF00FF77
:1001900000FF00FF00FF00FF00FF00FF00FF00FF67
:1001A00000FF00FF00FF00FF00FF00FF00FF00FF57
:1001B00000FF00FF00FF00FF000000000000000043
:1001C000000000000000000000000000000000002F
:1001D000000000000000000000000000000000001F
:1001E000000000000000000000000000000000000F
:1001F00000000000000000000000000000000000FF
:100200000000000002040507090B0D0F111315175C
:10021000191B1D20222427292B2E313336393B3E32
:100220004144474A4D5053565A5D6064676B6E7245
:1002300075797D8185898D9195999DA2A6AAAFB387
:10024000B8BDC1C6CBD0D5DADFE4E9EFF4F9FF01E0
:10025000010203030405060708090B0C0D0F101219
:100260001315171A1B1C1E20222426282A2C2E3078
:10027000323436383A3C3E40424446474A4C4E506F
:100280005255575A5D6064676B70747A7F858C93A2
:100290009AA3ABB6C0CBD7E4F1FFFFFFFFFFFFFF90
:1002A000FFFFFFFFFFFFFFFFFFFFFFFFFFFFFFFF5E
:1002B000FFFFFFFFFFFFFFFFFFFFFFFFFFFFFFFF4E
:1002C000FFFFFFFFFFFFFFFFFFFFFFFFFFFFFFFF3E
:1002D000FFFFFFFFFFFFFFFFFFFFFFFFFFFFFFFF2E
:1002E000FFFFFFFF000011241FBECFEFD4E0DEBFF1
:1002F000CDBF11E0A0E0B1E0E0E3FAE202C005907A
:100300000D92A638B107D9F722E0A6E8B1E001C006
:100310001D92AD31B207E1F70E94DE110C94161563
:100320006FCEF89498ED9FBD83BF78940895482FC1
:100330009B01EAEEF1E080E090E05081552331F03E
:100340000196339680319105C1F70AC063E070E0F1
:100350000E949614FC01E651FE4F408332832183B4
:1003600008950F931F93CF93DF93D091EA01DD237C
:1003700051F10091EB011091EC01C091C701C15006
:10038000C7FD0DC0EC2FEE0FFF0BE853FE4F0190A1
:10039000F081E02DB8018D2F09958111F0CFEAEEA3
:1003A000F1E0838180838481958192838183339678
:1003B00082E0E731F807A9F71092170210921902AC
:1003C00010921802D2CFDF91CF911F910F91089513
:1003D000BC0180911C02ABCF10921C0210921B0238
:1003E00010921A0281E08093B70108950F931F9332
:1003F000CF93C82F08EA17E0CC2349F082E091DFC1
:10040000C8010197F1F780E08CDFC150F5CFCF91A3
:100410001F910F9108958DE084B988E082B9109200
:10042000E6011092E7018FEE83B908958FB182FB48
:10043000882780F991E089278093C0010895E09191
:100440000601F09107013196FB70F460F09307010B
:10045000E09306018091BA018B5A8093BA01E4912E
:100460008091BA018E0F08950F931F93CF93DF935E
:1004700000D01F92CDB7DEB72091370130913801FF
:100480004091390129833A834B83FE01319640E044
:1004900050E090E061E070E0B1919A01220F331FCB
:1004A0008C0102C0159507952A95E2F798012370F3
:1004B00061F02130D1F4A0B39B0101C0220FBA95A5
:1004C000EAF7322F30953A2318C0A0B39B0101C040
:1004D000220FBA95EAF720953A2F322330BB32B378
:1004E000322332BB31B323230EC0A0B39B0101C022
:1004F000220FBA95EAF73A2F322B30BB32B3322BA8
:1005000032BB31B3232B21BB4F5F5F4F43305105CB
:1005100019F60F900F900F90DF91CF911F910F91CF
:100520000895811102C081E001C082E09DCF811158
:1005300002C085E001C08AE097CF811102C084E04B
:1005400001C088E091CF811102C084E101C088E23E
:100550008BCF811102C080E101C080E285CF811183
:1005600002C081E101C082E27FCF811102C085E13A
:1005700001C08AE279CF81E0089590E0FC01E15B5F
:10058000FD4FE4914E2F50E0FC01E754FE4FE49103
:100590002E2F30E0FC01EE0FFF1FE357FF4F659158
:1005A000749150936D0040936C0030936B002093D6
:1005B0006A008091BD019B0120523109882339F0E6
:1005C00040916E0050916F0024173507B8F3709377
:1005D000690060936800811104C010926F0010924E
:1005E0006E00089590E0FC01E15BFD4FE4912E2F39
:1005F00030E0FC01E754FE4FE491F0E080916C00A4
:1006000090916D00892B19F42F3F310551F08091A5
:100610006C0090916D008F3F910541F421153105DB
:1006200029F430936D0020936C001DC080916C0004
:1006300090916D008217930730F480916C00909137
:100640006D0001960CC080916C0090916D00281790
:10065000390748F480916C0090916D000197909358
:100660006D0080936C0080916A0090916B008E17F2
:100670009F0730F480916A0090916B0001960CC046
:1006800080916A0090916B00E817F90748F4809117
:100690006A0090916B00019790936B0080936A00C1
:1006A00080916C0090916D002817390741F42091DA
:1006B0006A0030916B0081E0E217F30709F080E0F7
:1006C0000895CF93DF9300D000D000D0CDB7DEB730
:1006D00090910C012091D8013091D90125543B40D3
:1006E00009F492E0843019F46093180121C0662364
:1006F000F9F0823019F427E9261B622F26E0EAE39D
:10070000F1E0DE01119601900D922A95E1F7E82FB4
:10071000F0E03197EE0FFF1F21E030E02C0F3D1F7E
:10072000E20FF31F0190F081E02DE90FF11D6083CE
:1007300026960FB6F894DEBF0FBECDBFDF91CF91E6
:100740000895BF92CF92DF92EF92FF920F931F9383
:10075000CF93DF93EC0140910C0190911701992305
:1007600011F0E2E001C0E42FF0E0E45FFE4F2281EF
:1007700020930901858180930801E92FF0E0E45F6F
:10078000FE4F3185622F70E0442349F0313039F457
:100790009B01280F311DC9019595879538C0C61753
:1007A000D707A4F1682F70E06C177D0784F1411121
:1007B00002C08C2F2CC0821B032F10E001501109A6
:1007C000E82EF12CC701B8010E94C7146093B40150
:1007D0006695E62FF0E0822FC12CD12CB12CB316F8
:1007E000B1F0C601B8010E94B314822F860FCE0C5F
:1007F000DF1CAE01481B510957FF03C051954195BD
:100800005109E417F5071CF4B394E9CF822FDF9167
:10081000CF911F910F91FF90EF90DF90CF90BF90FD
:100820000895ECE0F1E0868580930A018389808B4E
:100830008093BE0108958091B001882351F090917A
:10084000BD019093B3018093AF011092AE0110925D
:10085000AD01089581E00895823019F4609332016A
:100860000895611160932D010895662389F0813008
:1008700061F48091DA0190912F01891B681B6093CC
:100880002F0182E080930B0103C0635E60932E0111
:1008900080912E01873418F086E480932E0108950C
:1008A000609333010895E82FF0E0E45FFE4F67A303
:1008B00008957FEF780F40911D0150911E0166232E
:1008C00059F021E030E002C0220F331F7A95E2F7A1
:1008D000CA01822B932B0AC081E090E002C0880FEE
:1008E000991F7A95E2F780958423952390931E01B2
:1008F00080931D010895CF93DF938CE091E0909356
:10090000B9018093B80182E071DDF894C0E0D0E0D5
:10091000E091B801F091B901EC0FFD1F60812196C3
:10092000CE010E940415CB32D10591F765EA80E033
:1009300090E00E9404157894DF91CF910895CF93B1
:100940001092E80180B191B12091BA01829586950B
:1009500086958370990F990F890F820F8093BA0142
:100960008091DD01882309F423C11092DD0180917B
:10097000E6019091BF01992329F01F981092E90197
:100980001092E60181115AC080910B01882329F051
:100990002091E2013091E3011AC02091BF018091C2
:1009A000DE019091DF012223B9F02091E201309124
:1009B000E30143E0369527954A95E1F7280F391F63
:1009C00053E0969587955A95E1F7281B390B30939C
:1009D000DF012093DE0101C09C01C0912D01CC0FED
:1009E000C65084E0369527958A95E1F740E050E0BF
:1009F00060E070E783E090E00E94DA14C20FC093D9
:100A0000DC018091A401882311F0815007C0C13915
:100A100038F460E070E084E08ADC85E08093A40133
:100A20008091BF018111BBC08EE884B981E08093C1
:100A3000E6011092E7018FEE83B9B1C0813009F071
:100A4000AEC080910B01882341F08091E401909128
:100A5000E5019093E1018093E0018091E0019091A4
:100A6000E10160912F019C01A6E036952795AA959A
:100A7000E1F7062E000C770B260F371F2E50314062
:100A80003093DB012093DA01B5E096958795BA950E
:100A9000E1F720910B01211128C020919301E22F51
:100AA000F0E0EE0FFF1FEC56FE4F40815181DC015C
:100AB000A41BB50BAD01918380832F5F277020931A
:100AC00093019D01220F331F220F331F820F931FAB
:100AD00020912E0130E0261B370B225F3E4F220F64
:100AE000331F821B930B23E00EC0E4E9F1E08193F6
:100AF0009193B1E0E43AFB07D1F7CFCF009709F02B
:100B00000196215029F018161906C4F70197F9CF5C
:100B100018161906E4F457FD39C0209192011216F7
:100B20000CF1880F991FBC016350710977FF02C057
:100B30006F5F7F4F759567951616170614F061E085
:100B400070E088E1861B8093920185E026C08C3F8F
:100B50002FEF9207DCF457FF19C02091920127FF75
:100B600005C02450281B2093920118C024EE281B96
:100B7000209392012091DC01233980F06CEF7FEF0C
:100B8000681B790B7595679586E007C08091DC013D
:100B9000823920F060E070E087E0C9DB3CDC8091C6
:100BA0000B01882329F080910B01815080930B0168
:100BB000CF910895882321F0813031F4819805C0C8
:100BC0008198919889980895819A919A899A08951F
:100BD000CF93C82F8091BF0181110BC045DC91E0FC
:100BE000C11101C090E081E0C33308F480E0890FB7
:100BF000E1DFC1110DC010926D0010926C001092D7
:100C00006B0010926A0010926F0010926E000FC07D
:100C1000E091BE01F0E0EE0FFF1FEE0FFF1FEB595A
:100C2000FE4F0190F081E02D8FEF8C0F09958091A0
:100C3000BD01C8138093BC01C093BD01C093BB012B
:100C4000C53010F482E005C0C43110F481E001C069
:100C500080E0CF9166CBCF93C091BD0189E18C0F2D
:100C6000873908F080E0B4DF82E0C0DB8C2FCF91C1
:100C7000AFCFCF93C091BD0180E0AADF83E0B6DBA8
:100C80008C2FCF91A5CF8093B5019091BD0198177E
:100C900018F4282F291B02C0292F281B3091A701E7
:100CA000311106C030912101332369F0223058F010
:100CB0008093A80184E08093A60181E08093A7013E
:100CC0009093A901089584CF0F931F93CF93909190
:100CD000DC012FEF290F203920F480E0C5DB80E014
:100CE0009EC0E82FEF702091B101211125C0C82FBF
:100CF000C295CF702091320130E043E0220F331FC4
:100D00004A95E1F762177307C0F48091B601482F46
:100D100050E0421753078CF4882379F021E080914A
:100D2000BC018F3008F420E081E0C23009F080E09F
:100D3000822BC1E0C80F36C0C2E0E73088F1E7304F
:100D4000A9F400918B0110E00F5F1F4F78DB65E085
:100D50000E94A7149801290F311DC90166E070E0B7
:100D60000E94C71480938B01FC013AC0E830D1F493
:100D70008091BF01882311F02FE001C023E030E013
:100D800062237323672B51F480918B0190E00196CD
:100D900066E070E00E94C71480938B01E0918B01A4
:100DA000F0E01EC08091BF01882381F080E0E82F31
:100DB000F0E0ED5AFE4F2081921710F08E5FF7CFD2
:100DC0003197E081F0E0EB57FF4F0CC0CB019695D7
:100DD000879563E070E00E94B314FC01EE0FFF1FE3
:100DE000EA57FF4FE491C33071F480918A0190E09B
:100DF000019663E170E00E94B31480938A01DC01E4
:100E0000A05CBE4FCC91CC2329F0C13029F0EE0F6D
:100E1000C2E002C0C0E0E0E08E2F26DB8C2FCF9135
:100E20001F910F91C7CECF93DF939091BE0198177A
:100E300059F0C82FD091BD0180E0CADEC093BE0139
:100E40008D2FDF91CF91C4CEDF91CF910895813066
:100E500019F410921A010895823019F460931B015D
:100E60000895833019F4609319010895843019F4BA
:100E700060930D010895853011F460932101089568
:100E8000CF93C0911701C1114FC0883039F410922F
:100E9000B0011092AE011092AD0147C0813B81F4C8
:100EA0008091B0018150833008F03EC083E0809390
:100EB000B0018093AF011092AE011092AD0134C029
:100EC000853BB1F4CB016EE370E00E94B314892B33
:100ED00061F58091B0018A3F40F58B5F8093B0014E
:100EE0008093AF011092AE011092AD01B4DE1DC02F
:100EF0008130D1F48091AD019091AE010196883896
:100F00002EE0920728F49093AE018093AD010DC0BE
:100F10001092AE011092AD018091B001882329F0AA
:100F200081508093B00101C0C1E08C2FCF91089512
:100F3000FF920F931F93CF93DF938C01EB01F42E5D
:100F40008091D8019091D901892B31F0E091D8019D
:100F5000F091D90189E009951093D9010093D80146
:100F6000012B39F0E091D801F091D901BE018F2D0C
:100F7000099581E08093B701DF91CF911F910F9187
:100F8000FF900895CF93DF93E091C701EE2359F0CE
:100F9000E150E093C701F0E0EE0FFF1FE853FE4F72
:100FA000C081D18102C0C0E0D0E0E091C701EE2352
:100FB00041F0F0E0EE0FFF1FEA53FE4F8081918178
:100FC00002C080E090E04AE060E070E0B1DFCE0176
:100FD000DF91CF910895883029F41092A5011092E5
:100FE0008C0115C0813001F590918C01911107C0E1
:100FF0006032710570F180938C01EED92AC0913076
:1010000089F46B3B710528F082E080938C0180E0CD
:101010001FC061157105E9F06270862F880F880F77
:101020008E5E16C0AFDF15C0813811F0813E89F4A5
:1010300091E090938C01813E21F48091A501865F1F
:1010400003C08091A5018F5F8093A501C5D98BE472
:10105000BFDD80E008959C019091C701983088F42D
:10106000E92FF0E0EE0FFF1FE853FE4F318320839E
:101070009F5F9093C70148E0C9015ADF8091C70183
:1010800008958FEF08950F931F93CF93DF93EC0193
:101090008B0178DFB801CE01DF91CF911F910F91C5
:1010A000DACF813C29F460E070E08CED9BE006C073
:1010B000823C39F460E070E087E69BE0E4DF80E0AA
:1010C000089581E00895843011F58091D8019091C0
:1010D000D9012FE08431920729F469E170E08CECAA
:1010E00098E013C08C5C984061F49091BD019230FF
:1010F00040F0892F869596959695890FC4DD80E0FE
:10110000089560E070E08CED9BE0BDDFF8CF81E0FA
:101110000895813C29F460E070E08CED9BE006C00E
:10112000823C31F460E070E081E598E0ACDF16C00D
:10113000813B49F4CB016EE370E00E94B314892B2C
:1011400069F489DD0BC0813E59F4CB016EE370E098
:101150000E94B3146F5F60932C01CDDB80E0089593
:1011600081E00895813C29F460E070E08CED9BE023
:1011700006C0823C31F460E070E089E898E083DFEB
:1011800007C0873B39F460E070E081E59BE063DFF6
:1011900080E0089581E00895BF92CF92DF92EF92B0
:1011A000FF920F931F93CF93DF93182FEB01809142
:1011B0001C018093BE01D0900901F090080180913C
:1011C0000C01882319F0B090B40102C0BB24B39481
:1011D000C0900D01809117018111C0901801CC20A1
:1011E00051F081E0C81621F080910A018F1518F0A6
:1011F000F6E9EF2E01C0EF2C0091B001BE01812F66
:101200003FDE8091B001882339F001110CC090912C
:10121000BD019093B30107C0002329F060E070E0A6
:101220008CED9BE032C0183029F01A30B9F4C0912F
:101230000A01D0E08D2D90E08C179D0738F48F2D9A
:1012400090E0C817D90710F4C0930A01CE0179DAEB
:101250001ADD81E08093050100E0A1C1113CF1F2AB
:10126000123C59F48091BD018E1510F48E2D02C0F0
:1012700080910A0108DDDFDAEFCF143C41F480E011
:10128000A7DC60E070E081E09DE0FDDEE5CF9FE45B
:10129000910F923008F055C080910C01882341F0E5
:1012A000CE0168E170E00E94B314892B31F0D4CFF5
:1012B0006091140170E0CE01F6CF0091A7010111F9
:1012C000CBCF2091BD01209761F4123B11F48FEF39
:1012D00005C02F15E0F7D21608F181E080930501D3
:1012E0001DC0E0911401F0E0CF0166E371E00E94BF
:1012F00096148C179D0710F42F1548F7CF016CE654
:1013000072E00E9496148C179D0740F4D21630F0BC
:10131000A2DC60E070E081E09DE0B5DE8091050137
:101320006B2D70E0082E000C990B0E9496142091F2
:10133000BD01820F911D05DA80930A01A4DC7BDADE
:101340002EC19FE1910F923020F48091050181958B
:1013500081CF113009F086C0A99711F410930501CF
:10136000882379F10091B30110E090E0B8010E9468
:101370009614EC01E091AF01F0E0BF010E94C714A8
:10138000262FCE01801B910BBF010E94C714322F64
:10139000361B8091AD019091AE016EE370E00E942A
:1013A000B314832F90E00E9496146CE370E00E94C7
:1013B000B314261B622F09F461E06093BB016093B4
:1013C000B501C091BB012091BD018C2F90E0821B23
:1013D000910960918F01709190016F5F7F4F7093C1
:1013E000900160938F01009709F436CF97FF05C0F5
:1013F0002F3630F040E450E005C040E052E002C03B
:1014000040E051E05695479597FD01969595879553
:101410000097C1F74617570708F01ECFC21710F400
:10142000CFEF03C02C1710F4C1E0C20FE091BE0152
:10143000F0E0EE0FFF1FEE0FFF1FEB59FE4F028093
:10144000F381E02D8FEF8C0F0995882331F0D09137
:10145000BB018C2FBDDBD093BB0110929001109289
:101460008F01FACE1530A1F48091BD01873408F4C4
:10147000F3CE90E08C1B9D0B8634910534F08739B8
:10148000910564F186E990E029C086E490E026C0E9
:101490001630B1F49091BD018091B501981708F014
:1014A000DBCEC90FD11D90E08C179D0734F0C634F8
:1014B000D10524F4C6E4D0E001C0EC018C2F0EC0AD
:1014C000173079F49091BB018091BD01891710F418
:1014D0008F5F04C0981708F0BFCE81508093BB0186
:1014E000BBCE133C19F0163C41F517C060911D01AD
:1014F00070911E0180E090E020E0AB01082E02C058
:10150000569547950A94E2F74170240F019688306A
:10151000910599F7223008F041C081E090910C01CB
:10152000911180E080930C01E6D9A3DB8091BD018D
:1015300090E007D980930A019DCE00911701011117
:101540002DC0133B49F4CD2B09F086CECC2011F0F1
:1015500086E9E82E8E2D04C0133E21F480910A0105
:1015600092DB1DC0173B29F460E070E081E49BE052
:1015700013C01A3C59F48091BD0180931A018091E7
:10158000BE0180931F01B7D966DB09C01A3B31F455
:1015900060E070E089E49BE05EDD01C001E0802F47
:1015A000DF91CF911F910F91FF90EF90DF90CF903F
:1015B000BF9008950F931F93CF938B01C42F883052
:1015C00091F48091BE0180938E0110928D0180E094
:1015D000FFDA8091C00181114FC080918D018F5F32
:1015E00080938D0133C0982F907F903B21F580919F
:1015F0008D014817E8F08150883040F49091B20195
:10160000992321F09091BE0189130DDCC8016DE58D
:1016100070E00E94B314069749F480918D018F5FAA
:1016200080938D01C81740F188E303C082E101C0B7
:1016300080E0CEDA21C0903E79F480918D0188233C
:10164000A1F0481790F080918E01EDDB60E070E032
:101650008BEE97E000DD10C08A3049F46091A5015F
:1016600080918D01F901099546D98CDC05C089303E
:1016700019F480918E01D7DB80E0CF911F910F91FB
:10168000089521E633E043E095CF21E633E044E0DE
:1016900091CF27E237E045E08DCF2CE234E042E005
:1016A00089CF25E334E042E085CF20E534E041E016
:1016B00081CF23E534E043E07DCF91E09093B20108
:1016C00029E534E048E076DF1092B2010895CF9327
:1016D000C0911701C11123C0813C29F460E070E082
:1016E0008CED9BE006C0823C31F460E070E082EB60
:1016F00098E0C9DC15C0833C51F48091200190E052
:1017000001968770992780932001F5D809C0873BFF
:1017100031F460E070E08DE49BE09DDC01C0C1E04D
:101720008C2FCF910895CF93833C21F54091BE013A
:1017300060911D0170911E01842F98E0282F30E0E8
:101740002F5F3F4F27703327822FFB0102C0F69592
:10175000E7952A95E2F7E0FF0AC04817B9F063DB86
:101760008091BE0180931C01C6D8C0E010C091508A
:1017700029F7F3CFC0911701C11108C0893B31F49B
:1017800060E070E08DE59BE066DC01C0C1E08C2F7D
:10179000CF91089590912101992369F08093A80138
:1017A00088E08093A60181E08093A7018091BD012C
:1017B0008093A90108950CCA0F931F93CF938B01B7
:1017C0008830A1F480E0E6DF8091A701082B109219
:1017D000B60180911C018093BE011092B001012BD3
:1017E00009F05AC081E08093BF0156C0813059F49E
:1017F0006931710508F450C0C091A701C1114CC0F6
:101800008093BF01F9C0833041F58091B6018F3FCD
:1018100019F08F5F8093B60180911A01882361F0DF
:1018200080911B0190E062EC71E00E949614081711
:10183000190710F00E941104B8018091300144DAB8
:1018400080913301882341F190E062EC71E00E94C5
:1018500096148017910700F553C0813B99F481E0FD
:1018600090E00E94A10396DF80911901811114C0BC
:1018700080910C01811103C00831110568F061E00D
:1018800070E02AC0813ED9F3813841F480910A0189
:1018900090E00E94A1037EDFC0E0AEC0813C21F455
:1018A00060910A0170E018C0823B81F41092B60189
:1018B00080910D0190911701911180911801811172
:1018C00003C086E990E0E5CF86E9E5CF823E59F096
:1018D000823C29F466E970E08CEC98E00CC0833916
:1018E00021F41092A70180E0D6CF833C31F460E070
:1018F00070E087E69BE0C7DBCFCF843C31F4ABD907
:1019000060E070E081E09DE0F6CF8D3B41F4F8941B
:1019100088ED8FBD88E880BF7894A895FFCF8F3C75
:1019200029F460E070E08AE294E0E5CFC09117010D
:101930008A3B81F4672B71F4CC2331F08CD910925F
:1019400017010E947B04A8CF60E070E085E49BE073
:1019500082DB52C0C1114FC0833B29F460E070E0CC
:1019600084E19FE046C0873CA1F490913001892F2B
:1019700082958F708F5F83708295807F9F70892B97
:101980008093300160E070E09FD90E947B0463D9AE
:1019900033C0873BC9F481E08093B101C8018F73E4
:1019A0009927892B61F490913001892F8F708F5F77
:1019B000292F207F6BE0CBD7922B90933001B80179
:1019C0008091300181D918C0873E19F41092B1017D
:1019D00006C08A3C39F43FD981E0809317010E9408
:1019E0007B040AC0863C39F436D960E070E08DEAA9
:1019F00090E149DB01C0C1E08C2FCF911F910F9185
:101A000008950F931F93CF93DF93C82F8B01873BCC
:101A100019F480E0DDD87BC080798039B1F4209161
:101A20000E0190910F018C2F8F70813021F4822F45
:101A3000921748F407C080911A01811104C0822FC7
:101A4000291708F4892FA6DE0EC0803811F480E033
:101A5000A1DEC83041F41092B60160E070E08091E0
:101A6000310132D954C0C13039F40931110508F4BB
:101A700092C0C093BF0118C0C330D9F48091B601A1
:101A80008F3F19F08F5F8093B60180911A018823F0
:101A900059F080911B0190E062EC71E047D7081784
:101AA000190710F00E941104B801809131010CD97E
:101AB00072C0C33C31F4CFD860E070E08CED9BE0A5
:101AC00014C0C43C21F460910A0170E00CC0C43B16
:101AD00031F4CFD810921C0261E070E004C0C53C24
:101AE00031F466E970E08CEC98E0CDDA54C0C33B89
:101AF00071F4C8016EE370E036D7892B41F460E0E1
:101B000070E083ECDF91CF911F910F910CCED091BB
:101B10001701D11142C0C73CA1F490913101892F26
:101B200082958F708F5F83708295807F9F70892BE5
:101B30008093310160E070E0C7D80E947B048BD8AD
:101B40002DC0C73BC9F481E08093B101C8018F73F8
:101B50009927892B61F490913101892F8F708F5FC4
:101B6000292F207F6BE0F3D6922B90933101B8019F
:101B700080913101A9D812C0C73E29F41092B10159
:101B80000E947B040BC0CA3B41F460E070E085E535
:101B90009BE061DA03C0D0E001C0D1E08D2FDF917E
:101BA000CF911F910F9108950F931F93CF93109290
:101BB000C20180911A0290911B029C012F5F3F4F3E
:101BC00088279078822B932B90931B0280931A0284
:101BD000C091C0010E941602C81731F11092BF01D6
:101BE0008093C00190911C02882359F0892F80694D
:101BF0009F709F3009F08F5F80931C0280E090E01F
:101C00000DC0892F8F7E95FD02C0806801C0806C59
:101C100080931C0280911A0290911B020E94E8019D
:101C200010921B0210921A0200911A0210911B02CC
:101C30008091BF018823B1F0B80183E00E94970131
:101C40000E94B1010134110528F00F701127012BFA
:101C500009F049C01092910181E08093E9010E944E
:101C60000B0232C0C0911C028C2F807F803B19F484
:101C700060E070E001C0B80181E00E949701C4FFFC
:101C800013C0C5FF02C0C8010CC008311105E0F047
:101C900010921B0210921A02C062C0931C0280E0D4
:101CA00090E00E94E80110C0CC2371F0C5FD0AC08D
:101CB0000231110548F0C064C0931C0280E090E03E
:101CC0000E94E8010E94EC0180919101811105C000
:101CD0008FEE83B981E08093DD01809191018F5F68
:101CE0008F7180939101CF911F910F9108958091F1
:101CF000E80181110E949F048091C201811154CF9B
:101D00000895EF92FF920F931F93CF93DF93EC010F
:101D100000E317E08CECE82EFF24F3942097D9F031
:101D20008091B701811119C08091BD01853028F4DF
:101D300082E00E949101C70104C080E00E949101ED
:101D4000C8010197F1F780E00E949101D0DF0E9465
:101D5000B1012197E3CF81E001C080E0DF91CF9115
:101D60001F910F91FF90EF9008950F931F93CF93C2
:101D7000DF93C82F882311F006EA02C00AE0C1E011
:101D8000D091BE0110E0809120014DD889E10E94E0
:101D9000E805D093BE01C801B4DF8091200143D88B
:101DA00080E00E94E805D093BE018AEF90E0A9DFB1
:101DB000C15049F78D2F37D88AE992E0DF91CF9152
:101DC0001F910F919ECFCF93DF9364E6C0D5282F4C
:101DD000892F6AE0BCD5EC01222341F0822FC5DFB8
:101DE0008C2FC3DF8D2FDF91CF91BFCFC111F8CFE3
:101DF000F9CFCF93DF93D82FC3E080910A010E94DF
:101E0000E80588EC90E07DDFDD2319F080E991E0C2
:101E100078DF80E00E94E80588EC90E072DFC15036
:101E200061F7DF91CF910895FF920F931F93CF93A6
:101E3000DF93D82F8B01C091AA0181E08093AC0180
:101E4000C43009F0E5C0F090B0018D2F19D8FF2003
:101E500051F08091B001811106C060E070E08CED1E
:101E60009BE011D9D5C0D83021F481E080930301E3
:101E7000D1C0D23C19F41092B001DEC0D13BC1F404
:101E800090910201012B49F4963610F08FEF03C0B8
:101E9000923018F481E08093030180910301890F4F
:101EA00011F481E044C1873608F441C186E63FC1A0
:101EB000D13E31F48091030181958093030107C1E4
:101EC000D23B61F481E08093030180910201823072
:101ED00008F405C181508093020101C1D13009F09D
:101EE000AFC00932110511F4D0930301909189011B
:101EF000892F880F97FD809590E069E070E016D5F6
:101F0000292F80918801682F660F87FD6095809149
:101F1000010170E090E00AD5290F80918701682FB8
:101F2000660F87FD60958091000170E090E0FED41F
:101F3000920F6091020170E0690F711D8091B001F4
:101F4000813091F48091AD019091AE0125E096959C
:101F500087952A95E1F724E730E0A901481B590B42
:101F6000CA01E4D4B901FFD4862F0E94E80500FD20
:101F700008C00E941F02817090918901890F80938F
:101F800089019091880180918601890F8093880151
:101F90000E941F0265E2DBD480918701980F909325
:101FA00087010E941F028F7331F40E941F026DE0AF
:101FB000CED490938601C0910101CC2339F00E94C8
:101FC0001F028F7319F4C150C09301010E941F02B8
:101FD000811108C00E941F026EE0B9D490930101E4
:101FE00010928801C0910001C33038F00E941F0296
:101FF0008F7119F4C150C09300010E941F028F77A6
:1020000009F099C00E941F0287708093000193C05D
:10201000D83041F4809122018093AA0181E080931D
:10202000040187C0D13C31F460E070E08CED9BE0AE
:102030002AD87FC0D23C31F48C2F90E0019617C093
:10204000D13C91F3D33C71F48091BE018F5F8770D6
:102050000E941307EC2FF0E0E45FFE4F8091BE0179
:10206000878B5EC0D43C59F48C2F90E0059666E0D7
:1020700070E08DD4809322018093AA0151C0D13B9E
:1020800021F5C23090F400FD54C0EC2FF0E0E45F85
:10209000FE4F858D90910401891B883020F08F3F81
:1020A00069F58EEF2BC088E029C0C53009F041C02A
:1020B00090912B0180910401890F823010F482E00D
:1020C00026C0893720F188E722C0D13E31F48091C3
:1020D000040181958093040123C0D23BF9F481E08F
:1020E00080930401C23060F400FD23C0EC2FF0E0C7
:1020F000E45FFE4F858D8F3FE1F08F5F858F19C0C4
:10210000C530B9F480912B01833018F08150809351
:102110002B0180912B010E94E8050BC0D23E19F4DF
:102120000E947B0406C0D13031F081E010C0809362
:10213000020180E00CC00932110519F481E080939E
:1021400004018091BA01080F0093BA01F2CFDF9128
:10215000CF911F910F91FF900895FF920F931F93BE
:10216000CF93DF9300D01F92CDB7DEB78B838B0167
:10217000F0900A0180798983803951F5EB81EF7005
:10218000E43020F01092AB011A8276C091E0909377
:10219000AB01F0E0E45FFE4F87A12FEF280F263957
:1021A00048F480930A011092AC0180911C01809345
:1021B000BE010CC09093AC01873940F190E0875983
:1021C000910966E070E0E3D38093AA011A820EC001
:1021D0008981803849F41092AB0180E00E94E805C3
:1021E00081E08093B70101C081E08A838091AB01D7
:1021F000882309F441C08B81883051F48091AC016F
:10220000882331F0B80188E00FDE02C01A8203C0D3
:102210008981803951F481E08093AB018091AC01D8
:1022200081112AC080910A0106C08981803831F469
:102230001092AB0180E00E94E8051EC08B818130C6
:10224000D9F48091AB01882349F08091AC018823B7
:1022500009F44CC0B80181E0E7DD0EC080E00E94C7
:10226000340280E00E94DA05073381E0180708F4A1
:102270003DC08B818093BF01F0920A018B81883031
:1022800019F4B801BEDB30C08B81813039F4809104
:10229000AB01811127C0B80181E004C08B8183307C
:1022A00051F4B8010F900F900F90DF91CF911F91D3
:1022B0000F91FF90A6CB8B81833CA1F0863C49F423
:1022C0000E942B0660E070E08CED9BE00E944308CA
:1022D00009C08B81873B41F460E070E089E59BE0B9
:1022E0000E942B0880E005C08A8103C0F0920A0199
:1022F000CECF0F900F900F90DF91CF911F910F9144
:10230000FF9008951F920F920FB60F9211242F93F2
:102310003F938F939F93AF93BF93EF93FF938091DE
:10232000E7018823E9F0E091E60120B131B1F0E066
:10233000EE0FFF1FDF01AE51BE4F2D933C93E252D3
:10234000FE4F808191818217930708F40196281728
:10235000390708F401979183808381E08093E80135
:1023600081E08093E701FF91EF91BF91AF919F9141
:102370008F913F912F910F900FBE0F901F90189546
:102380001F920F920FB60F9211248F9381E08093CA
:10239000C2018F910F900FBE0F901F9018951F9242
:1023A0000F920FB60F9211248F9381E08093C10199
:1023B0008F910F900FBE0F901F901895F89485B7CE
:1023C000877F85BF88ED90E00FB6F894A8958FBD04
:1023D00090B7977F90BF0FBE88E08CB98AE780BB2B
:1023E00082EA8093720081E1809371008FEF90E028
:1023F000909369008093680084E082BB87BD8CB7AE
:1024000088608CBFA89580E480BF0E940B027894FE
:1024100081E00E94F60160E070E083E698E00E94AF
:102420002B081092B7010E942B060E941602811100
:1024300017C08CE091E09093B9018093B80182E0DD
:102440000E94F601F89480E090E0D6D2853A09F037
:1024500040C00091B8011091B901C1E0D0E030C096
:10246000C0E08C2F0E94E80583E190E04ADC8C2FCD
:1024700086950E94E80583E190E043DC0E94160205
:10248000882399F0CF5FC03461F765E181E00E9455
:1024900035040E947B04C6E98C2F0E94E80584E085
:1024A00090E02FDCC150C1F7C4CFCC2309F4C1CFD9
:1024B0008C2F0E94E8058DE090E023DCC150F5CF21
:1024C000CE019AD2F80181938F012196CC32D105A9
:1024D000B9F7789480911A0181110E94110460E08B
:1024E00070E083E99BE00E942B0861E070E08CEDD6
:1024F0009BE00E942B0843E4242E52E0352E60E43A
:10250000462E992493947CEFA72E73E0B72EE7E034
:102510008E2EFDE05F2EACEDCA2EABE0DA2E0E94CF
:10252000B1018091C5019091C601009751F0609171
:10253000C3017091C4010E9443081092C601109219
:10254000C5018091BF01882309F448C080E00E9442
:10255000E805A89520BE1F980E9416028111FCCFA5
:102560000E94EC018CB788608CBF1092E801109239
:10257000C2011092C1018091BF01882331F1809185
:10258000E901882321F086B78F79806203C086B77E
:102590008F79806486BF86B7806186BF889586B74D
:1025A0008F7E86BF8091C10181111092BF01809101
:1025B000E801882321F09092DD010E949F04809120
:1025C000C2018823C1F2F0DAD6CF30920B018CB76A
:1025D000877F8CBF0E940B02A89540BE88DB1092BB
:1025E000B7018091D8019091D901F4E08A329F0718
:1025F00019F5C0E7D0E0FE0184918053803110F4DA
:10260000B4DB11C010E0812F81708295880F807E2D
:102610000E94E80580E190E074DB1F5F193199F7B3
:102620008AE992E06EDB8CE291E06BDB2196F0E0D0
:10263000C438DF0701F7FAC02FE08431920779F040
:10264000E0E18D3A9E0709F0D9C08091AC0181305C
:1026500009F026C18091AB01882309F421C1C09102
:10266000AA01EC2FF0E0E45FFE4F87898093BE0162
:10267000C23009F138F0C33009F43DC0C53009F467
:10268000A0C04DCFD58D86E90E94E805C11109C0D3
:10269000DA3220F4C5010197F1F707C081E090E03C
:1026A00003C08D2F869590E02CDB80E00E94E8052A
:1026B0008D2F90E02EC1D0910A01C0E0C11102C05F
:1026C00081E003C0C53019F485E00E9413078D2F07
:1026D0000E94E80581E290E014DB80E00E94E805BA
:1026E00082E490E00EDBCF5FCA3041F780911C019D
:1026F0008093BE0114CF0E941F028F73E82EF12C2D
:102700000E941F02682D23D101E010E0380102C0B1
:10271000660C771C9A95E2F70E941F0265E017D1BC
:10272000E80102C0CC0FDD1F9A95E2F76C0E7D1E0A
:102730000E941F0290E0B3012AD1E301C80FD91F04
:10274000C739D10514F0C6E9D0E08C2F0E94E80506
:10275000C701D7DA8E0133E0159507953A95E1F771
:10276000011101C001E010E0C701CBDAC01BD10BA1
:10277000D7FF02C0C0E0D0E08C2F0E94E8050E9485
:102780001F02837039F4C701BCDACE019595879595
:102790000E94E805C230D1053CF70E941F02652D5A
:1027A000D6D0C1E0D0E002C0CC0FDD1F9A95E2F791
:1027B0000E941F0290E0BE01D6D0C80FD91F80E052
:1027C000A5C0C0912B01CC0FC73908F0C6E9D4E0F1
:1027D0008C2F0E94E80585E090E093DA80912B0130
:1027E0000E94E80581E490E08CDAD15089F780ED11
:1027F00092E087DA80E00E94E80591CEFBE0873620
:102800009F07E9F488EE93E07CDA8091DC01C5E073
:102810006C2F9DD0D8DA8091DC016C2F98D0892F55
:10282000880FD1DA80911701882381F0D092C601F8
:10283000C092C5011092C4011092C30170CE28E06D
:10284000823B920731F48091DA01BDDA88EE93E0A1
:1028500060C0E8E089389E07B9F48091C001811119
:102860005ECE80910A010E94E80584E690E049DA94
:1028700080E00E94E80580912C0190E068EE73E012
:1028800055D08456910945C08155984049F480E05F
:10289000B0DA81E0AEDA80E0ACDA80ED97E039C002
:1028A000809121018823B9F18091A701882399F1B2
:1028B0002091BD013091A80123130AC0822F0E94EC
:1028C000E8051092A7018091A9018093BC0127CE51
:1028D0006091A601231760F4832F821B38D08111E9
:1028E00001C081E0820F0E94E8058AE090E011C0FB
:1028F000862F90E06EE170E019D06091A901631B12
:1029000070E045D0EB0121968FEF820F0E94E80521
:10291000CE01F7D904CE86B78F7986BF86B780619E
:1029200086BF889586B78F7E86BFF9CD0024552750
:1029300004C0080E591F880F991F009729F076953B
:102940006795B8F37105B9F7802D952F0895991BF8
:1029500079E004C0991F961708F0961B881F7A9596
:10296000C9F780950895AA1BBB1B51E107C0AA1F98
:10297000BB1FA617B70710F0A61BB70B881F991F20
:102980005A95A9F780959095BC01CD01089597FBC4
:10299000072E16F4009406D077FD08D0E4DF07FC7C
:1029A00005D03EF4909581959F4F0895709561955F
:1029B0007F4F0895A1E21A2EAA1BBB1BFD010DC07B
:1029C000AA1FBB1FEE1FFF1FA217B307E407F507DF
:1029D00020F0A21BB30BE40BF50B661F771F881FBB
:1029E000991F1A9469F760957095809590959B0151
:1029F000AC01BD01CF010895E199FECF1FBA8EBB96
:102A0000E09A99278DB30895262FE199FECF1FBA3A
:102A10008EBBE09A81500DB2021639F01CBA2DBB64
:102A20000FB6F894E29AE19A0FBE0895F894FFCF9A
:102A3000080E180101010004820132020001011494
:102A400014828264010705010000000000010000FB
:102A500000010400000000000029433202072D009D
:102A600018390400781E980504030E0111011401A1
:102A70000201000000000000000100000000000052
:102A800000000100009101A502AF03B904C305CD08
:102A900006DC07FF07BD02F2029102BB029702BBF0
:102AA000029D02BB02A302BB02A902BB02AF02BB92
:062AB00002B502BB0200AA
:00000001FF
