:1000000027C1000042C1000040C100000C947211E1
:100010003CC100000C94631138C1000036C10000DF
:1000200034C1000032C1000030C100002EC1000008
:100030002CC100002AC100000C94251126C100002B
:1000400024C1000022C1000020C100001EC1000028
:100050001CC100001AC1000018C1000016C1000038
:1000600014C1000012C1000010C100000EC1000048
:10007000303132352E323032332D31322D30332B78
:1000800035312331000001050414101115FF3FFF25
:100090003F7430CC1FC62C6C39212B9332E3351FB3
:1000A000372C377A364935C033F7316A3408320194
:1000B0003361308C304630B12FE02EE22DC32C8BD3
:1000C0002B962B292AD4295029BD270E2748267183
:1000D0002537253E243F23C522BA21262118207525
:1000E0001FC91EBF1D101D5D1C611BB01A001A1612
:1000F0001934188F17BB16EF152B1546146D13C343
:1001000012DB1122115310730FA10EDD0D0C0D49DE
:100110000C7C0BA90AD10908093D086F07A106D379
:100120000506052E0467039602CB01FF00FF00FFC2
:1001300000FF00FF00FF00FF00FF00FF00FF00FFC7
:1001400000FF00FF00FF00FF00FF00FF00FF00FFB7
:1001500000FF00FF00FF00FF00FF00FF00FF00FFA7
:1001600000FF00FF00FF00FF00FF00FF00FF00FF97
:1001700000FF00FF00FF00FF00FF00FF00FF00FF87
:1001800000FF00FF00FF00FF00FF00FF00FF00FF77
:1001900000FF00FF00FF00FF00FF00FF00FF00FF67
:1001A00000FF00FF00FF00FF00FF00FF00FF00FF57
:1001B00000FF00FF00FF00FF000001010102030338
:1001C0000405060708090A0B0D0E1011131517195F
:1001D0001B1D1F2224272A2C2F3235393C3F434632
:1001E0004A4D5155585C6063676B6E7175787B7EC4
:1001F000808285868889898989888785827E7A75C3
:100200006F6860574C4134261617191A1B1C1D1EA7
:10021000202122242527282A2B2D2F313335373929
:100220003B3D3F424446494C4E5154575A5D6063F2
:10023000676A6E7175797D8185898E92979BA0A57D
:10024000AAAFB5BAC0C5CBD1D7DEE4EAF1F8FF005A
:1002500011241FBECFEFD4E0DEBFCDBF11E0A0E080
:10026000B1E0E6E3F9E202C005900D92A638B107CD
:10027000D9F722E0A6E8B1E001C01D92AD31B20786
:10028000E1F70E9481110C949914BACEF89498ED7C
:100290009FBD83BF78940895482F9B01EAEEF1E05B
:1002A00080E090E05081552331F001963396803103
:1002B0009105C1F70AC063E070E00E943B14FC01A5
:1002C000E651FE4F40833283218308950F931F939D
:1002D000CF93DF93D091EA01DD2351F10091EB013F
:1002E0001091EC01C091C701C150C7FD0DC0EC2FAA
:1002F000EE0FFF0BE853FE4F0190F081E02DB801A7
:100300008D2F09958111F0CFEAEEF1E08381808392
:100310008481958192838183339682E0E731F80767
:10032000A9F7109217021092190210921802D2CF58
:10033000DF91CF911F910F910895BC0180911C0214
:10034000ABCF10921C0210921B0210921A0281E095
:100350008093B70108950F931F93CF93C82F08EA96
:1003600017E0CC2349F082E091DFC8010197F1F753
:1003700080E08CDFC150F5CFCF911F910F91089590
:1003800086E884B9E1E6F0E080818260808388E0DD
:1003900082B91092E6011092E7018FEE83B90895B9
:1003A0008BB182FB882780F991E089278093C00177
:1003B0000895E0910601F09107013196FB70F46019
:1003C000F0930701E09306018091BA018B5A809364
:1003D000BA01E4918091BA018E0F08950F931F9393
:1003E000CF93DF9300D01F92CDB7DEB720913801B5
:1003F0003091390140913A0129833A834B83FE01C0
:10040000319640E050E090E061E070E0B1919A01F7
:10041000220F331F8C0102C0159507952A95E2F72C
:100420009801237061F02130D1F4A0B39B0101C089
:10043000220FBA95EAF7322F30953A2318C0A0B3AD
:100440009B0101C0220FBA95EAF720953A2F32237B
:1004500030BB32B3322332BB31B323230EC0A0B33F
:100460009B0101C0220FBA95EAF73A2F322B30BB1D
:1004700032B3322B32BB31B3232B21BB4F5F5F4FE3
:100480004330510519F60F900F900F90DF91CF91E7
:100490001F910F910895811102C081E001C082E097
:1004A0009DCF811102C085E001C08AE097CF811104
:1004B00002C084E001C088E091CF811102C084E1D4
:1004C00001C088E28BCF811102C080E101C080E2CF
:1004D00085CF811102C081E101C082E27FCF81110D
:1004E00002C085E101C08AE279CF81E00895689A6F
:1004F00090E0FC01E754FE4FE4912E2F30E0FC0128
:10050000EE0FFF1FE357FF4F4591549130936D005D
:1005100020936C0010926B0010926A008091BD01D4
:100520009A0120523109882339F060916E00709150
:100530006F0026173707B8F350936900409368009F
:10054000811104C010926F0010926E000895E82F80
:10055000F0E0E754FE4FE491F0E080916C00909160
:100560006D008E179F0730F480916C0090916D00A4
:1005700001960CC080916C0090916D00E817F9070E
:1005800048F480916C0090916D00019790936D00FC
:1005900080936C0020916C0030916D0081E0E21737
:1005A000F30709F080E00895CF93DF9300D000D0E7
:1005B00000D0CDB7DEB790910C012091D8013091D9
:1005C000D9012B5D3A4009F492E0843019F460932C
:1005D000180121C06623F9F0823019F427E9261B9F
:1005E000622F26E0EBE3F1E0DE01119601900D921F
:1005F0002A95E1F7E82FF0E03197EE0FFF1F21E099
:1006000030E02C0F3D1FE20FF31F0190F081E02D31
:10061000E90FF11D608326960FB6F894DEBF0FBE7A
:10062000CDBFDF91CF910895813011F460933701F0
:100630000895BF92CF92DF92EF92FF920F931F9394
:10064000CF93DF93EC0140910C0190911701992316
:1006500011F0E2E001C0E42FF0E0E45FFE4F228100
:1006600020930901858180930801E92FF0E0E45F80
:10067000FE4F3185622F70E0442349F0313039F468
:100680009B01280F311DC9019595879538C0C61764
:10069000D707A4F1682F70E06C177D0784F1411132
:1006A00002C08C2F2CC0821B032F10E001501109B7
:1006B000E82EF12CC701B8010E946C146093B301BD
:1006C0006695E62FF0E0822FC12CD12CB12CB31609
:1006D000B1F0C601B8010E945814822F860FCE0CCB
:1006E000DF1CAE01481B510957FF03C051954195CE
:1006F0005109E417F5071CF4B394E9CF822FDF9179
:10070000CF911F910F91FF90EF90DF90CF90BF900E
:100710000895ECE0F1E0868580930A018389808B5F
:100720008093BE0108958091B001882351F090918B
:10073000BD019093B2018093AF011092AE0110926F
:10074000AD0108952091DC0180E0E82FF0E0EC5A43
:10075000FE4F9081291710F08E5FF7CF3197E0811F
:10076000F0E0EB57FF4F8491089581E008958230C7
:1007700019F4609332010895611160932D01089579
:10078000662389F0813061F48091DA0190912F0124
:10079000891B681B60932F0182E080930B0103C0CB
:1007A000635E60932E0180912E01873418F086E4F9
:1007B00080932E010895609333010895E82FF0E0AF
:1007C000E45FFE4F67A308957FEF780F40911D010E
:1007D00050911E01662359F021E030E002C0220F43
:1007E000331F7A95E2F7CA01822B932B0AC081E06E
:1007F00090E002C0880F991F7A95E2F780958423D4
:10080000952390931E0180931D010895CF93DF934C
:100810008CE091E09093B9018093B80182E09BDD78
:10082000F894C0E0D0E0E091B801F091B901EC0F8C
:10083000FD1F60812196CE010E948714CC32D10524
:1008400091F765EA80E090E00E9487147894DF9148
:10085000CF9108951092E80180B191B12091BA0131
:100860008295869586958370990F990F890F820FCF
:100870008093BA018091DD01882309F41AC1109296
:10088000DD018091E6019091BF01992329F01F9825
:100890001092E9011092E601811151C080910B0183
:1008A000882329F08091E2019091E3011AC08091A0
:1008B000BF012091DE013091DF018823B9F08091E2
:1008C000E2019091E30143E0969587954A95E1F71F
:1008D000820F931F53E0369527955A95E1F7821BB7
:1008E000930B9093DF018093DE0101C0C901209139
:1008F0002D012750220F6AE171E00E945814260F43
:100900002093DC018091A401882311F0815007C05D
:10091000213938F460E070E084E0BEDC85E080934B
:10092000A4018091BF018111BBC08EE884B981E030
:100930008093E6011092E7018FEE83B9B1C0813058
:1009400009F0AEC080910B01882341F08091E40151
:100950009091E5019093E1018093E0018091E001A5
:100960009091E10160912F019C01A6E036952795B9
:10097000AA95E1F7062E000C770B260F371F2E5095
:1009800031403093DB012093DA01B5E096958795ED
:10099000BA95E1F720910B01211128C02091930114
:1009A000E22FF0E0EE0FFF1FEC56FE4F4081518129
:1009B000DC01A41BB50BAD01918380832F5F2770F1
:1009C000209393019D01220F331F220F331F820FAB
:1009D000931F20912E0130E0261B370B225F3E4FE4
:1009E000220F331F821B930B23E00EC0E4E9F1E0DA
:1009F00081939193B1E0E43AFB07D1F7CFCF009711
:100A000009F00196215029F018161906C4F701972C
:100A1000F9CF18161906E4F457FD39C02091920158
:100A200012160CF1880F991FBC016350710977FFF2
:100A300002C06F5F7F4F759567951616170614F005
:100A400061E070E088E1861B8093920185E026C01A
:100A50008C3F2FEF9207DCF457FF19C020919201D1
:100A600027FF05C02450281B2093920118C024EEB4
:100A7000281B209392012091DC01233980F06CEF38
:100A80007FEF681B790B7595679586E007C08091AD
:100A9000DC01823920F060E070E087E0FDDB70DC93
:100AA00080910B01882329F080910B018150809364
:100AB0000B010895882321F0813031F4829805C01C
:100AC000829892988A980895829A929A8A9A08951A
:100AD0000F931F93CF939091DC019150903920F4A4
:100AE00080E07CDC80E091C0E82FEF709091B6014F
:100AF000911125C0C82FC295CF702091320130E0EE
:100B000043E0220F331F4A95E1F762177307C0F4E1
:100B10008091B501482F50E0421753078CF4882389
:100B200079F091E08091BC018F3008F490E081E091
:100B3000C23009F080E0892BC1E0C80F36C0C2E0A6
:100B4000E73088F1E730A9F400918B0110E00F5FE6
:100B50001F4F2FDC65E00E944C149801290F311DB6
:100B6000C90166E070E00E946C1480938B01FC0167
:100B70002DC0E830D1F48091BF01882311F02FE01F
:100B800001C023E030E062237323672B51F480918E
:100B90008B0190E0019666E070E00E946C148093F7
:100BA0008B01E0918B01F0E011C08091BF0188239F
:100BB00019F0C8DDE82F0DC0CB019695879563E04D
:100BC00070E00E945814FC01EE0FFF1FEA57FF4F20
:100BD000E491C33071F480918A0190E0019663E161
:100BE00070E00E94581480938A01DC01AF5BBE4F15
:100BF000CC91CC2329F0C13029F0EE0FC2E002C025
:100C0000C0E0E0E08E2FEADB8C2FCF911F910F9197
:100C100051CFCF93C82F8091BD01811109C0CC2342
:100C200039F080913701C81718F4F3DF82E093DBC5
:100C30008091BF0181110AC091E0C11101C090E013
:100C400081E0C33308F480E0890F34DF8091BF0175
:100C5000811113C0CC2329F075DDCA3118F0880F3B
:100C600001C080E0BBDB91E0C11101C090E081E0F8
:100C7000C33308F480E0890F1DDFC1110EC010924C
:100C80006D0010926C0010926B0010926A0010922E
:100C90006F0010926E0068980FC0E091BE01F0E006
:100CA000EE0FFF1FEE0FFF1FEA59FE4F0190F0817C
:100CB000E02D8FEF8C0F09958091BD01C8138093B3
:100CC000BC01C093BD01C093BB01C43010F482E0ED
:100CD00005C0CC3010F481E001C080E0CF91D6CACD
:100CE000CF93C091BD0182E38C0F873908F080E07B
:100CF00090DF83E030DB8C2FCF918BCFCF93C091EF
:100D0000BD0180E086DF83E026DB8C2FCF9181CF91
:100D10008093B4019091BD01981718F4282F291BD6
:100D200002C0292F281B3091A701311106C0309134
:100D30002101332369F0223058F08093A80184E028
:100D40008093A60181E08093A7019093A901089563
:100D500060CF813019F410921A010895823019F48D
:100D600060931B010895833019F46093190108956D
:100D7000843019F460930D010895853011F4609367
:100D800021010895CF93DF939091BE01981759F0F8
:100D9000C82FD091BD0180E03CDFC093BE018D2FF4
:100DA000DF91CF9136CFDF91CF910895CF93C0914E
:100DB0001701C1114FC0883039F41092B001109260
:100DC000AE011092AD0147C0813B81F48091B0012A
:100DD0008150833008F03EC083E08093B00180935F
:100DE000AF011092AE011092AD0134C0853BB1F459
:100DF000CB016EE370E00E945814892B61F580915D
:100E0000B0018A3F40F58B5F8093B0018093AF01C2
:100E10001092AE011092AD0163DF1DC08130D1F49C
:100E20008091AD019091AE01019688382EE0920735
:100E300028F49093AE018093AD010DC01092AE01E5
:100E40001092AD018091B001882329F081508093E8
:100E5000B00101C0C1E08C2FCF910895FF920F9394
:100E60001F93CF93DF938C01EB01F42E8091D80177
:100E70009091D901892B31F0E091D801F091D901FD
:100E800089E009951093D9010093D801012B39F01D
:100E9000E091D801F091D901BE018F2D099581E033
:100EA0008093B701DF91CF911F910F91FF9008952B
:100EB000CF93DF93E091C701EE2359F0E150E09327
:100EC000C701F0E0EE0FFF1FE853FE4FC081D18154
:100ED00002C0C0E0D0E0E091C701EE2341F0F0E0B5
:100EE000EE0FFF1FEA53FE4F8081918102C080E028
:100EF00090E04AE060E070E0B1DFCE01DF91CF9199
:100F00000895883029F41092A50110928C0115C023
:100F1000813001F590918C01911107C0603271050B
:100F200070F180938C010DDA2AC0913089F46B3B0B
:100F3000710528F082E080938C0180E01FC061156C
:100F40007105E9F06270862F880F880F8E5E16C0DB
:100F5000AFDF15C0813811F0813E89F491E09093A4
:100F60008C01813E21F48091A501865F03C08091B0
:100F7000A5018F5F8093A501E4D98BE44ADE80E070
:100F800008959C019091C701983088F4E92FF0E012
:100F9000EE0FFF1FE853FE4F318320839F5F909336
:100FA000C70148E0C9015ADF8091C70108958FEF5A
:100FB00008950F931F93CF93DF93EC018B0178DF9C
:100FC000B801CE01DF91CF911F910F91DACF813C13
:100FD00029F460E070E086E79BE006C0823C39F4CB
:100FE00060E070E081E09BE0E4DF80E0089581E074
:100FF0000895843011F58091D8019091D9012EE0A7
:10100000873B920729F469E170E082E698E013C01B
:101010008256984061F49091BD01923040F0892F42
:10102000869596959695890F73DE80E0089560E029
:1010300070E086E79BE0BDDFF8CF81E00895813C5A
:1010400029F460E070E086E79BE006C0823C31F462
:1010500060E070E087EE97E0ACDF16C0813B49F4BA
:10106000CB016EE370E00E945814892B69F438DEDE
:101070000BC0813E59F4CB016EE370E00E9458141E
:101080006F5F60932C01C2DB80E0089581E00895DA
:10109000813C29F460E070E086E79BE006C0823C7A
:1010A00031F460E070E08FE198E083DF07C0873BB8
:1010B00039F460E070E08BEE9AE063DF80E0089541
:1010C00081E00895BF92CF92DF92EF92FF920F934B
:1010D0001F93CF93DF93182FEB0180911C01809316
:1010E000BE01D0900901F090080180910C01882385
:1010F00019F0B090B30102C0BB24B394C0900D01AD
:10110000809117018111C0901801CC2051F081E02D
:10111000C81621F080910A018F1518F0F6E9EF2E1C
:1011200001C0EF2C0091B001BE01812F3FDE809104
:10113000B001882339F001110CC09091BD0190934A
:10114000B20107C0002329F060E070E086E79BE071
:1011500032C0183029F01A30B9F4C0910A01D0E039
:101160008D2D90E08C179D0738F48F2D90E0C817D7
:10117000D90710F4C0930A01CE015BDAC9DD81E022
:101180008093050100E0A1C1113CF1F2123C59F439
:101190008091BD018E1510F48E2D02C080910A0140
:1011A000B7DDC1DAEFCF143C41F480E032DD60E01E
:1011B00070E084EA9CE0FDDEE5CF9FE4910F923081
:1011C00008F055C080910C01882341F0CE0168E100
:1011D00070E00E945814892B31F0D4CF6091140133
:1011E00070E0CE01F6CF0091A7010111CBCF209185
:1011F000BD01209761F4123B11F48FEF05C02F154C
:10120000E0F7D21608F181E0809305011DC0E0915E
:101210001401F0E0CF0166E371E00E943B148C17EB
:101220009D0710F42F1548F7CF016CE672E00E947D
:101230003B148C179D0740F4D21630F051DD60E06E
:1012400070E084EA9CE0B5DE809105016B2D70E0D2
:10125000082E000C990B0E943B142091BD01820FB7
:10126000911DE7D980930A0153DD5DDA2EC19FE11C
:10127000910F923020F480910501819581CF11303A
:1012800009F086C0A99711F410930501882379F11C
:101290000091B20110E090E0B8010E943B14EC0113
:1012A000E091AF01F0E0BF010E946C14262FCE0147
:1012B000801B910BBF010E946C14322F361B809152
:1012C000AD019091AE016EE370E00E945814832F3F
:1012D00090E00E943B146CE370E00E945814261BBF
:1012E000622F09F461E06093BB016093B401C09187
:1012F000BB012091BD018C2F90E0821B9109609170
:101300008F01709190016F5F7F4F70939001609398
:101310008F01009709F436CF97FF05C02D3830F0C4
:1013200040E450E005C040E052E002C040E051E03F
:101330005695479597FD0196959587950097C1F726
:101340004617570708F01ECFC21710F4CFEF03C09F
:101350002C1710F4C1E0C20FE091BE01F0E0EE0FD7
:10136000FF1FEE0FFF1FEA59FE4F0280F381E02DB1
:101370008FEF8C0F0995882331F0D091BB018C2F12
:1013800048DCD093BB011092900110928F01FACEED
:101390001530A1F48091BD01813508F4F3CE90E0C1
:1013A0008C1B9D0B8035910534F08739910564F1D4
:1013B00086E990E029C080E590E026C01630B1F4BF
:1013C0009091BD018091B401981708F0DBCEC90F50
:1013D000D11D90E08C179D0734F0C035D10524F461
:1013E000C0E5D0E001C0EC018C2F0EC0173079F4BD
:1013F0009091BB018091BD01891710F48F5F04C0EB
:10140000981708F0BFCE81508093BB01BBCE133C30
:1014100019F0163C41F517C060911D0170911E0135
:1014200080E090E020E0AB01082E02C05695479581
:101430000A94E2F74170240F01968830910599F7DC
:10144000223008F041C081E090910C01911180E0C0
:1014500080930C01DBD952DC8091BD0190E0E9D88A
:1014600080930A019DCE0091170101112DC0133BFD
:1014700049F4CD2B09F086CECC2011F086E9E82E78
:101480008E2D04C0133E21F480910A0141DC1DC061
:10149000173B29F460E070E087ED9AE013C01A3C36
:1014A00059F48091BD0180931A018091BE0180930F
:1014B0001F01ACD915DC09C01A3B31F460E070E0C3
:1014C0008FED9AE05EDD01C001E0802FDF91CF91CA
:1014D0001F910F91FF90EF90DF90CF90BF900895F4
:1014E0000F931F93CF938B01C42F883091F4809179
:1014F000BE0180938E0110928D0180E08ADB809185
:10150000C00181114FC080918D018F5F80938D014B
:1015100033C0982F907F903B21F580918D01481723
:10152000E8F08150883040F49091B101992321F086
:101530009091BE01891326DCC8016DE570E00E9420
:101540005814069749F480918D018F5F80938D0127
:10155000C81740F188E303C082E101C080E059DB95
:1015600021C0903E79F480918D018823A1F0481725
:1015700090F080918E0106DC60E070E081E897E0F9
:1015800000DD10C08A3049F46091A50180918D0181
:10159000F90109953BD98CDC05C0893019F480919B
:1015A0008E01F0DB80E0CF911F910F91089524ED23
:1015B00032E043E095CF24ED32E044E091CF29EAD8
:1015C00036E045E08DCF24E133E041E089CF27EBE1
:1015D00033E042E085CF20EC33E042E081CF2BEDD9
:1015E00033E041E07DCF2EED33E043E079CF91E071
:1015F0009093B10124EE33E048E072DF1092B10124
:101600000895CF93C0911701C11123C0813C29F4E3
:1016100060E070E086E79BE006C0823C31F460E069
:1016200070E088E498E0C5DC15C0833C51F48091FB
:10163000200190E001968770992780932001E6D8D9
:1016400009C0873B31F460E070E087EE9AE099DCF6
:1016500001C0C1E08C2FCF910895CF93833C21F539
:101660004091BE0160911D0170911E01842F98E090
:10167000282F30E02F5F3F4F27703327822FFB0149
:1016800002C0F695E7952A95E2F7E0FF0AC04817F1
:10169000B9F078DB8091BE0180931C01B7D8C0E01F
:1016A00010C0915029F7F3CFC0911701C11108C0A4
:1016B000893B31F460E070E087EF9AE062DC01C0C2
:1016C000C1E08C2FCF91089590912101992369F069
:1016D0008093A80188E08093A60181E08093A70110
:1016E0008091BD018093A901089593CA0F931F9320
:1016F000CF938B018830A1F480E0E6DF8091A701D1
:10170000082B1092B50180911C018093BE011092AC
:10171000B001012B09F05AC081E08093BF0156C08F
:10172000813059F46931710508F450C0C091A701A6
:10173000C1114CC08093BF0102C1833041F580913B
:10174000B5018F3F19F08F5F8093B50180911A0129
:10175000882361F080911B0190E062EC71E00E94AF
:101760003B140817190710F00E948903B8018091F3
:101770003001AED980913301882341F190E062ECD1
:1017800071E00E943B148017910700F553C0813B24
:1017900099F481E090E00E94190396DF809119018D
:1017A000811114C080910C01811103C00831110511
:1017B00068F061E070E02AC0813ED9F3813841F4DD
:1017C00080910A0190E00E9419037EDFC0E0B7C05B
:1017D000813C21F460910A0170E018C0823B81F4E1
:1017E0001092B50180910D01909117019111809196
:1017F0001801811103C086E990E0E5CF86E9E5CFC5
:10180000823E59F0823C29F466E970E082E698E075
:101810000CC0833921F41092A70180E0D6CF833C1D
:1018200031F460E070E081E09BE0C3DBCFCF843C2B
:1018300031F456DA60E070E084EA9CE0F6CF8D3B4C
:1018400041F4F89488ED8FBD88E880BF7894A8951E
:10185000FFCF8F3C29F460E070E085EB93E0E5CFAB
:10186000C09117018A3B79F4672B69F4CC2331F0DE
:1018700037DA109217010E940604A8CF60E070E0EA
:101880008BED9AE059C0C11159C0833B29F460E047
:1018900070E087EB9EE046C0873CA1F49091300158
:1018A000892F82958F708F5F83708295807F9F7064
:1018B000892B8093300160E070E00AD90E94060411
:1018C0000FDA3DC0873BC9F481E08093B601C801BF
:1018D0008F739927892B61F490913001892F8F7034
:1018E0008F5F292F207F6BE0D7D7922B9093300109
:1018F000B80180913001ECD822C0873E19F41092D3
:10190000B60106C08A3C39F4EBD981E08093170117
:101910000E94060414C0863C39F4E2D960E070E00D
:1019200080E590E146DB0BC0893B41F4012B31F4AB
:1019300060E070E083EE9AE024DB01C0C1E08C2F10
:10194000CF911F910F9108950F931F93CF93DF9322
:10195000C82F8B01873B19F480E05BD97BC080796D
:101960008039B1F420910E0190910F018C2F8F706E
:10197000813021F4822F921748F407C080911A0118
:10198000811104C0822F291708F4892F9DDE0EC013
:10199000803811F480E098DEC83041F41092B5012F
:1019A00060E070E08091310193D854C0C13039F4C7
:1019B0000931110508F492C0C093BF0118C0C330AB
:1019C000D9F48091B5018F3F19F08F5F8093B501F5
:1019D00080911A01882359F080911B0190E062ECFC
:1019E00071E049D70817190710F00E948903B80160
:1019F000809131016DD872C0C33C31F471D960E07F
:101A000070E086E79BE014C0C43C21F460910A01B9
:101A100070E00CC0C43B31F471D910921C0261E03B
:101A200070E004C0C53C31F466E970E082E698E0FD
:101A3000C0DA54C0C33B71F4C8016EE370E038D71C
:101A4000892B41F460E070E083ECDF91CF911F912E
:101A50000F9103CED0911701D11142C0C73CA1F420
:101A600090913101892F82958F708F5F837082955D
:101A7000807F9F70892B8093310160E070E028D8CF
:101A80000E9406042DD92DC0C73BC9F481E0809384
:101A9000B601C8018F739927892B61F490913101A8
:101AA000892F8F708F5F292F207F6BE0F5D6922BC7
:101AB00090933101B801809131010AD812C0C73E1C
:101AC00029F41092B6010E9406040BC0CA3B41F4EF
:101AD00060E070E08FEE9AE054DA03C0D0E001C01D
:101AE000D1E08D2FDF91CF911F910F9108950F932A
:101AF0001F93CF931092C20180911A0290911B0202
:101B00009C012F5F3F4F88279078822B932B9093D7
:101B10001B0280931A02C091C0010E94D001C81715
:101B200031F11092BF018093C00190911C02882373
:101B300059F0892F80699F709F3009F08F5F8093E3
:101B40001C0280E090E00DC0892F8F7E95FD02C0C1
:101B5000806801C0806C80931C0280911A02909171
:101B60001B020E949D0110921B0210921A0200910A
:101B70001A0210911B028091BF018823B1F0B801B5
:101B800083E00E944C010E9466010134110528F097
:101B90000F701127012B09F049C01092910181E0CB
:101BA0008093E9010E94C00132C0C0911C028C2FB9
:101BB000807F803B19F460E070E001C0B80181E0F3
:101BC0000E944C01C4FF13C0C5FF02C0C8010CC075
:101BD00008311105E0F010921B0210921A02C06247
:101BE000C0931C0280E090E00E949D0110C0CC23B5
:101BF00071F0C5FD0AC00231110548F0C064C09300
:101C00001C0280E090E00E949D010E94A101809151
:101C10009101811105C08FEE83B981E08093DD01D0
:101C2000809191018F5F8F7180939101CF911F916E
:101C30000F9108958091E80181110E942A048091FA
:101C4000C201811154CF0895EF92FF920F931F9319
:101C5000CF93DF93EC0100E317E08CECE82EFF2438
:101C6000F3942097D9F08091B701811119C0809128
:101C7000BD01843028F482E00E944601C70104C0FF
:101C800080E00E944601C8010197F1F780E00E94C0
:101C90004601D0DF0E9466012197E3CF81E001C0B9
:101CA00080E0DF91CF911F910F91FF90EF90089509
:101CB0000F931F93CF93DF93C82F882311F006EA69
:101CC00002C00CE0C1E0D091BE0110E08091200183
:101CD00059D882E30E940906D093BE01C801B4DF3F
:101CE000809120014FD880E00E940906D093BE0168
:101CF0008AEF90E0A9DFC15049F78D2F43D88AE9D8
:101D000092E0DF91CF911F910F919ECFCF93DF9300
:101D100064E6C2D5282F892F6AE0BED5EC012223C4
:101D200041F0822FC5DF8C2FC3DF8D2FDF91CF9144
:101D3000BFCFC111F8CFF9CFCF93DF93D82FC3E036
:101D400080910A010E94090688EC90E07DDFDD2386
:101D500019F080E991E078DF80E00E94090688ECC4
:101D600090E072DFC15061F7DF91CF910895FF924B
:101D70000F931F93CF93DF93D82F8B01C091AA01AC
:101D800081E08093AC01C43009F0E5C0F090B0016F
:101D90008D2F0CD8FF2051F08091B001811106C029
:101DA00060E070E086E79BE004D9D5C0D83021F42C
:101DB00081E080930301D1C0D23C19F41092B001AC
:101DC000DEC0D13BC1F490910201012B49F496365B
:101DD00010F08FEF03C0923018F481E0809303017C
:101DE00080910301890F11F481E044C1873608F422
:101DF00041C186E63FC1D13E31F480910301819516
:101E00008093030107C1D23B61F481E08093030119
:101E100080910201823008F405C181508093020153
:101E200001C1D13009F0AFC00932110511F4D093CE
:101E3000030190918901892F880F97FD809590E08B
:101E400069E070E018D5292F80918801682F660F0E
:101E500087FD60958091010170E090E00CD5290F1D
:101E600080918701682F660F87FD60958091000142
:101E700070E090E000D5920F6091020170E0690F70
:101E8000711D8091B001813091F48091AD019091EC
:101E9000AE0125E0969587952A95E1F724E730E095
:101EA000A901481B590BCA01E6D4B90101D5862FF7
:101EB0000E94090600FD08C00E94D901817090911E
:101EC0008901890F80938901909188018091860111
:101ED000890F809388010E94D90165E2DDD4809149
:101EE0008701980F909387010E94D9018F7331F475
:101EF0000E94D9016DE0D0D490938601C091010178
:101F0000CC2339F00E94D9018F7319F4C150C093CA
:101F100001010E94D901811108C00E94D9016EE01F
:101F2000BBD49093010110928801C0910001C3308D
:101F300038F00E94D9018F7119F4C150C09300018B
:101F40000E94D9018F7709F099C00E94D90187704A
:101F50008093000193C0D83041F480912201809396
:101F6000AA0181E08093040187C0D13C31F460E094
:101F700070E086E79BE01DD87FC0D23C31F48C2F07
:101F800090E0019617C0D13C91F3D33C71F480915D
:101F9000BE018F5F87700E94C206EC2FF0E0E45F05
:101FA000FE4F8091BE01878B5EC0D43C59F48C2FCC
:101FB00090E0059666E070E08FD4809322018093D4
:101FC000AA0151C0D13B21F5C23090F400FD54C0AC
:101FD000EC2FF0E0E45FFE4F858D90910401891BAA
:101FE000883020F08F3F69F58EEF2BC088E029C044
:101FF000C53009F041C090912B0180910401890FF7
:10200000823010F482E026C0893720F188E722C0B0
:10201000D13E31F48091040181958093040123C065
:10202000D23BF9F481E080930401C23060F400FDFA
:1020300023C0EC2FF0E0E45FFE4F858D8F3FE1F091
:102040008F5F858F19C0C530B9F480912B01833023
:1020500018F0815080932B0180912B010E9409067A
:102060000BC0D23E19F40E94060406C0D13031F0F4
:1020700081E010C08093020180E00CC0093211059C
:1020800019F481E0809304018091BA01080F009354
:10209000BA01F2CFDF91CF911F910F91FF90089578
:1020A000FF920F931F93CF93DF9300D01F92CDB772
:1020B000DEB78B838B01F0900A01807989838039A8
:1020C00051F5EB81EF70E43020F01092AB011A82F1
:1020D00076C091E09093AB01F0E0E45FFE4F87A102
:1020E0002FEF280F263948F480930A011092AC0193
:1020F00080911C018093BE010CC09093AC01873984
:1021000040F190E08759910966E070E0E5D3809353
:10211000AA011A820EC08981803849F41092AB015D
:1021200080E00E94090681E08093B70101C081E050
:102130008A838091AB01882309F441C08B81883068
:1021400051F48091AC01882331F0B80188E00FDEB2
:1021500002C01A8203C08981803951F481E08093E2
:10216000AB018091AC0181112AC080910A0106C0A7
:102170008981803831F41092AB0180E00E94090619
:102180001EC08B818130D9F48091AB01882349F046
:102190008091AC01882309F44CC0B80181E0E7DDEF
:1021A0000EC080E00E94EE0180E00E945A050733D5
:1021B00081E0180708F43DC08B818093BF01F09245
:1021C0000A018B81883019F4B801BEDB30C08B81E5
:1021D000813039F48091AB01811127C0B80181E0D1
:1021E00004C08B81833051F4B8010F900F900F9091
:1021F000DF91CF911F910F91FF90A6CB8B81833CF4
:10220000A1F0863C49F40E94700660E070E086E729
:102210009BE00E94D90709C08B81873B41F460E0B5
:1022200070E083EF9AE00E94C10780E005C08A81D8
:1022300003C0F0920A01CECF0F900F900F90DF9164
:10224000CF911F910F91FF9008951F920F920FB69B
:102250000F9211242F933F938F939F93AF93BF932C
:10226000EF93FF938091E7018823E9F0E091E60185
:1022700020B131B1F0E0EE0FFF1FDF01AE51BE4FD4
:102280002D933C93E252FE4F8081918182179307F8
:1022900008F401962817390708F401979183808381
:1022A00081E08093E80181E08093E701FF91EF9165
:1022B000BF91AF919F918F913F912F910F900FBE42
:1022C0000F901F9018951F920F920FB60F92112426
:1022D0008F9381E08093C2018F910F900FBE0F907A
:1022E0001F9018951F920F920FB60F9211248F9383
:1022F00081E08093C1018F910F900FBE0F901F90CE
:102300001895F89485B7877F85BF88ED90E00FB664
:10231000F894A8958FBD90B7977F90BF0FBE89E0C6
:102320008CB98CE780BB82EA8093720081E1809354
:1023300071008FEF90E0909369008093680084E0D3
:102340008EB988BD8CB780618CBFA89580E480BFB2
:102350000E94C001789481E00E94AB0160E070E0CF
:1023600089EF97E00E94C1071092B7010E947006A2
:102370000E94D001811117C08CE091E09093B901C7
:102380008093B80182E00E94AB01F89480E090E075
:10239000B6D2853A09F040C00091B8011091B90158
:1023A000C1E0D0E030C0C0E08C2F0E94090683E17C
:1023B00090E04ADC8C2F86950E94090683E190E02C
:1023C00043DC0E94D001882399F0CF5FC03461F7CD
:1023D00065E181E00E94C0030E940604C6E98C2FDB
:1023E0000E94090684E090E02FDCC150C1F7C4CF01
:1023F000CC2309F4C1CF8C2F0E9409068DE090E018
:1024000023DCC150F5CFCE017AD2F80181938F0140
:102410002196CD32D105B9F7789480911A018111B6
:102420000E94890360E070E08DE29BE00E94C1079A
:1024300061E070E086E79BE00E94C10743E4442E20
:1024400052E0552E60E4962E8824839477E0772E10
:10245000CC24C394D12CFDE06F2EA6E7AA2EABE0CE
:10246000BA2E0E9466018091C5019091C601009725
:1024700051F06091C3017091C4010E94D90710927C
:10248000C6011092C5018091BF01882309F448C09C
:1024900080E00E940906A89540BE1F980E94D001C6
:1024A0008111FCCF0E94A1018CB780618CBF10927A
:1024B000E8011092C2011092C1018091BF018823EE
:1024C00031F18091E901882321F086B78F7980620C
:1024D00003C086B78F79806486BF86B7806186BF68
:1024E000889586B78F7E86BF8091C1018111109239
:1024F000BF018091E801882321F08092DD010E94D4
:102500002A048091C2018823C1F2F1DAD6CF509219
:102510000B018CB78F7E8CBF0E94C001A89590BE26
:1025200089DB1092B7018091D8019091D901F8E030
:1025300082369F0751F4C091BD010E94A203CA31A7
:1025400008F0880F0E94EE0150C123E0853B9207FE
:1025500019F5C0E7D0E0FE0184918053803110F47A
:10256000A7DB11C010E0812F81708295880F807EDB
:102570000E94090680E190E067DB1F5F193199F73F
:102580008AE992E061DB8CE291E05EDB2196F0E08B
:10259000C438DF0701F7EFC02EE0873B920779F0E0
:1025A00030E18035930709F0CEC08091AC018130D5
:1025B00009F01BC18091AB01882309F416C1C091B9
:1025C000AA01EC2FF0E0E45FFE4F87898093BE0103
:1025D000C230D1F030F0C330B9F1C53009F496C043
:1025E00040CFD58D86E90E940906C11103C082E063
:1025F00090E003C08D2F869590E026DB80E00E945E
:1026000009068D2F90E02AC1D0910A01C0E0C111C6
:1026100002C081E003C0C53019F485E00E94C20603
:102620008D2F0E94090681E290E00EDB80E00E947F
:10263000090682E490E008DBCF5FCA3041F7809161
:102640001C018093BE010DCF0E94D9018F73E82E2B
:10265000F12C0E94D901672D1FD1E60102C0CC0FD9
:10266000DD1F9A95E2F70E94D90165E015D1F601C8
:1026700002C0EE0FFF1F9A95E2F7CE0FDF1F0E94F8
:10268000D90190E0BE0128D1C80FD91FC739D105A3
:1026900014F0C6E9D0E08C2F0E940906C701D4DAF5
:1026A0008E0133E0159507953A95E1F7011101C0C8
:1026B00001E010E0C701C8DAC01BD10BD7FF02C090
:1026C000C0E0D0E08C2F0E9409060E94D9018370DF
:1026D00039F4C701B9DACE01959587950E940906AC
:1026E000C230D1053CF70E94D901662DD5D0E60154
:1026F00002C0CC0FDD1F9A95E2F70E94D90190E04D
:10270000BE01D6D0C80FD91F80E0A5C0C0912B0153
:10271000CC0FC73908F0C6E9D4E08C2F0E94090617
:1027200085E090E091DA80912B010E94090681E416
:1027300090E08ADAD15089F780ED92E085DA80E086
:102740000E9409068ECEFBE081309F07E9F488EEF7
:1027500093E07ADA8091DC01C5E06C2F9DD0D6DA67
:102760008091DC016C2F98D0892F880FCFDA80916F
:102770001701882381F0B092C601A092C501109282
:10278000C4011092C3016DCE28E08834920731F461
:102790008091DA01BBDA88EE93E060C038E08F31D7
:1027A0009307B9F48091C00181115BCE80910A0139
:1027B0000E94090684E690E047DA80E00E9409065C
:1027C00080912C0190E068EE73E055D08456910919
:1027D00045C0875E974049F480E0AEDA81E0ACDA2C
:1027E00080E0AADA80ED97E039C08091210188234A
:1027F000B9F18091A701882399F12091BD01309111
:10280000A80123130AC0822F0E9409061092A70173
:102810008091A9018093BC0124CE6091A601231769
:1028200060F4832F821B38D0811101C081E0820FB8
:102830000E9409068AE090E011C0862F90E06EE1C8
:1028400070E019D06091A901631B70E045D0EB01E5
:1028500021968FEF820F0E940906CE01F5D901CE95
:1028600086B78F7986BF86B7806186BF889586B721
:102870008F7E86BFF6CD0024552704C0080E591F51
:10288000880F991F009729F076956795B8F3710521
:10289000B9F7802D952F0895991B79E004C0991FF1
:1028A000961708F0961B881F7A95C9F780950895AA
:1028B000AA1BBB1B51E107C0AA1FBB1FA617B70766
:1028C00010F0A61BB70B881F991F5A95A9F7809582
:1028D0009095BC01CD01089597FB072E16F4009446
:1028E00006D077FD08D0E4DF07FC05D03EF49095D4
:1028F00081959F4F0895709561957F4F0895E19957
:10290000FECF1FBA8EBBE09A99278DB30895262F6C
:10291000E199FECF1FBA8EBBE09A81500DB202162C
:1029200039F01CBA2DBB0FB6F894E29AE19A0FBEAB
:062930000895F894FFCFAA
:10293600080E180101010004820B320200010B0B84
:102946000B828282010705010000000000010000E1
:1029560000010400000000000029433202072D0098
:1029660018390400781E98190504030E0111011484
:10297600010201000000000000000100000000004C
:102986000000000100009101A502AF03B904C305D0
:10299600CD06DC07FF077702A7024B02750251023C
:1029A6007502570275025D027502630275026902BD
:0629B60075026F027502BC
:00000001FF
