:10000000DEC00000F9C00000F7C000000C94D21060
:10001000F3C00000F1C00000EFC000000C94C1105C
:100020000C94E210E9C00000E7C00000E5C0000049
:10003000E3C00000E1C00000DFC00000DDC0000040
:10004000DBC00000D9C00000D7C00000D5C0000050
:100050000C947710D1C00000CFC00000CDC00000CC
:10006000CBC00000C9C00000C7C00000C5C0000070
:10007000C3C00000C1C00000BFC000003036323233
:100080002E323032332D31322D30332B3531233176
:100090000004002300260029002D00320037003D17
:1000A0000043004A0052005B0064006E0079008546
:1000B000009200A000AF00C000D100E300F7000CE8
:1000C0000123013A0154016E018B01A801C801E925
:1000D000010C02300257027F02A902D60204033447
:1000E0000367039C03D3030C0448048604C6040975
:1000F000054F059705E20530068006D3062A0783DB
:1001000007DF073F08A10807097009DC094C0ABF8F
:100110000A360BB00B2E0CAF0C340DBE0D4B0EDBA4
:100120000E700F0910A6104711ED1197124513F725
:1001300013AE146A152A16EF16B91787185B193310
:100140001A101BF31BDA1CC71DB91EB11FAD20B05E
:1001500021B822C523D824F125102734285F298F00
:100160002AC62B032D462E8F2FDF3035329233F5E2
:10017000345F36CF374739C53A4A3CD63D693F04EC
:1001800041A5424E44FF45B64775493C4B0B4DE1F6
:100190004EBF50A4529254885686588C5A9A5CB1DD
:1001A0005ED060F76227656067A169EB6B3E6E9A6F
:1001B00070FF726C75E377647AED7C807F001124A8
:1001C0001FBECFEFCDBFDFE3DEBF18E3A0E0B8E393
:1001D000E8EBF9E202C005900D92A234B107D9F71D
:1001E00028E3A2E4B8E301C01D92AA3CB207E1F7FC
:1001F0000E9436110C94C01403CFF89498ED94BF6C
:10020000809361008091630080FDFCCF7894089515
:10021000E0E0F6E08285816082878085816080876A
:100220000895EFE8F8E320E030E09081992339F079
:100230002F5F3F4F339620313105B9F70BC0F901DD
:10024000EE0FFF1F2E0F3F1FF901E157F74C808380
:100250006183728308950F931F93CF93DF93D0919F
:100260008F38DD2351F10091903810919138C09171
:100270006E38C150C7FD0DC0EC2FEE0FFF0BE159DA
:10028000F74C0190F081E02DB8018D2F0995811177
:10029000F0CFEFE8F8E383818083848195818183C7
:1002A0009283339688E3EC3BF807A9F71092BC38A9
:1002B0001092BD381092BE38D2CFDF91CF911F91EE
:1002C0000F910895BC018091C138ABCF1092C13815
:1002D0001092BF381092C03881E080936038089542
:1002E0000F931F93CF93C82F0CEC18E0CC2349F049
:1002F00085E083DFC8010197F1F781E07EDFC1501F
:10030000F5CFCF911F910F910895E0E0F6E083E8DB
:100310008083838180628383A0EAB0E08C918F78B0
:1003200080648C938DE1868382E0818383E5828380
:1003300010928B3810928C386BCF82B185FB882756
:1003400080F991E08927809367380895E091073814
:10035000F09108383196FB70F460E0930738F09321
:100360000838809163388B5A80936338E491809188
:1003700063388E0F0895882349F0813069F480E254
:100380008093220488E080933504089580E280936E
:10039000210480932604089580E2809321048093B1
:1003A00025040895811102C081E001C083E0E3CFFC
:1003B00081E00895CF93C82F8091663881110AC0DB
:1003C00091E0C11101C090E081E0CC3408F480E0FC
:1003D000890FD1DFC11117C010920A0A1092C838D4
:1003E0001092C9381092C4381092C53810923A0A47
:1003F00010923B0A1092380A1092390A1092200A81
:100400001092210A0EC0E0910C3885E0E89FF001BF
:100410001124E656F6450190F081E02D8FEF8C0F08
:100420000995C0936538C0936438C23010F485E0F4
:1004300001C081E0CF91E1CE20913A0A30913B0A90
:10044000232B49F44091380A5091390A21E0452B79
:1004500019F420E001C021E08093C8389093C93896
:100460006093C4387093C538880F892F881F990B03
:1004700091958093C738992780933A0A90933B0AC5
:10048000660F672F661F770B71956093C3387727C8
:100490006093380A7093390A81E080930A0A211127
:1004A00004C01092200A1092210A0895E82FF0E06B
:1004B000EE0FFF1FEF56FF4F8591949160E070E0C3
:1004C000BBCFE82FF0E0EE0FFF1FEF56FF4F659117
:1004D000749180E090E0B0CFE82FF0E0EE0FFF1FC6
:1004E000EF56FF4F85919491BC01A6CF4091C8383B
:1004F0005091C938352F369520E04817590718F420
:100500004F5F5F4F05C08417950710F441505109A4
:100510002F5F321790F74093C8385093C938209115
:10052000C4383091C538F32FF695E0E02617370729
:1005300018F42F5F3F4F05C06217730710F4215066
:100540003109EF5FFE1790F72093C4383093C53818
:100550008417950721F481E02617370709F080E01A
:100560000895E82FF0E0EE0FFF1FEF56FF4F859143
:10057000949160E070E0BACFE82FF0E0EE0FFF1F3B
:10058000EF56FF4F6591749180E090E0AFCFE82F78
:10059000F0E0EE0FFF1FEF56FF4F85919491BC01E5
:1005A000A5CFCF93DF93CDB7DEB72697CDBFDEBF04
:1005B00090910E3820917F38309180382A5E3940F2
:1005C00009F492E0843019F460931A381FC066234E
:1005D000E9F0823019F427E9261B622F26E0E4E8CF
:1005E000F9EADE01119601900D922A95E1F79E013C
:1005F0002F5F3F4F280F311D280F311DF901329712
:100600000190F081E02DE90FF11D60832696CDBFAA
:10061000DEBFDF91CF910895813011F460932F38C0
:100620000895BF92CF92DF92EF92FF920F931F93A4
:10063000CF93DF93EC0140910E38909119389923B4
:1006400011F0E2E001C0E42FF0E0E25FF74C22811C
:1006500020930A38858180930938E92FF0E0E25F22
:10066000F74C3185622F70E0442349F0313039F482
:100670009B01280F311DC9019595879538C0C61774
:10068000D707A4F1682F70E06C177D0784F1411142
:1006900002C08C2F2CC0821B032F10E001501109C7
:1006A000E82EF12CC701B8010E944D1460935E380A
:1006B0006695E62FF0E0822FC12CD12CB12CB31619
:1006C000B1F0C601B8010E943914822F860FCE0CFA
:1006D000DF1CAE01481B510957FF03C051954195DE
:1006E0005109E417F5071CF4B394E9CF822FDF9189
:1006F000CF911F910F91FF90EF90DF90CF90BF901F
:10070000089580911C3880930B3880912138809314
:100710001E3880930C38E3E2F8E38681819388E306
:10072000E932F807D1F7089580915B38882351F0BA
:100730009091653890935D3880935A38109258386C
:10074000109259380895CF93C091653889E18C0F84
:10075000873908F080E02EDE82E0C2DD8C2FCF9159
:1007600029CECF93C091653880E024DE83E0B8DDE8
:100770008C2FCF911FCE81E00895611160933C389A
:10078000089560933E380895E82FF0E0E25FF74C5B
:1007900060AB08957FEF780F40911F38509120385B
:1007A000662359F021E030E002C0220F331F7A9512
:1007B000E2F7CA01822B932B0AC081E090E002C0CD
:1007C000880F991F7A95E2F780958423952380936B
:1007D0001F3890932038089590916538981718F431
:1007E000282F291B02C0292F281B30915238311184
:1007F00006C030913038332369F0223058F08093AE
:10080000533884E08093513881E08093523890933C
:1008100054380895CFCDCF93DF938EE098E3809343
:1008200061389093623882E05BDDF894C0E0D0E0FC
:10083000E0916138F0916238EC0FFD1F60812196E4
:10084000CE010E94A314C433D10591F765EA80E07C
:1008500090E00E94A3147894DF91CF910895CF93F4
:1008600010928D388091100690916338890F809393
:10087000633880918238882309F463C010928238EB
:1008800080916638882349F0809100068E7F80939E
:10089000000610928E3810928B3880910D38882384
:1008A00029F020918738309188381AC02091663815
:1008B00080918338909184382223B9F02091873831
:1008C0003091883843E0369527954A95E1F7280F0F
:1008D000391F53E0969587955A95E1F7281B390BF8
:1008E000209383383093843801C09C01C0913C38F8
:1008F000CC0F84E0369527958A95E1F740E050E0EB
:1009000060E070EB84E090E00E9460142C0F209374
:10091000813880914F38882311F0815007C02139E8
:1009200038F460E070E084E07CDC8AE080934F384B
:1009300080910D38882329F080910D388150809363
:100940000D38CF910895CF93DF9390910C3898177D
:1009500059F0C82FD091653880E02CDDC0930C3859
:100960008D2FDF91CF9126CDDF91CF9108958130EA
:1009700019F410921C380895823019F460931D38D0
:100980000895833019F460931B380895843019F466
:1009900060930F380895853011F4609330380895CE
:1009A00090918138913910F480E011C0953A28F483
:1009B00066956170635086230AC0982F9F709330AC
:1009C00030F06F70E62FF0E0E657F6458081D3CC2B
:1009D000CF93C0911938C1114FC0883039F41092AB
:1009E0005B38109258381092593847C0813B81F4D7
:1009F00080915B388150833008F03EC083E0809363
:100A00005B3880935A38109258381092593834C055
:100A1000853BB1F4CB016EE370E00E943914892B61
:100A200061F580915B388A3F40F58B5F80935B383E
:100A300080935A38109258381092593884DE1DC06D
:100A40008130D1F480915838909159380196883886
:100A50002EE0920728F480935838909359380DC0AF
:100A6000109258381092593880915B38882329F0B9
:100A7000815080935B3801C0C1E08C2FCF910895E5
:100A8000FF920F931F93CF93DF938C01EB01F42E12
:100A900080917F3890918038892B31F0E0917F38B8
:100AA000F091803889E0099500937F381093803861
:100AB000012B39F0E0917F38F0918038BE018F2D05
:100AC000099581E080936038DF91CF911F910F915C
:100AD000FF900895CF93DF93E0916E38EE2359F0A5
:100AE000E150E0936E38F0E0EE0FFF1FE159F74C54
:100AF000C081D18102C0C0E0D0E0E0916E38EE2329
:100B000041F0F0E0EE0FFF1FE359F74C8081918137
:100B100002C080E090E04AE060E070E0B1DFCE012A
:100B2000DF91CF910895CF93DF93EB01883029F4C3
:100B3000109250381092493815C0813029F59091A3
:100B40004938911107C060327105A8F18093493886
:100B5000BDDB31C09130B1F46B3B710528F082E010
:100B60008093493880E026C0209729F180910C3885
:100B7000823011F082E0E7DE8C2F8270880F880FC0
:100B80008E5E18C0A7DF17C0813811F0813E99F43E
:100B900091E090934938813E21F480915038865FEE
:100BA00003C0809150388F5F809350388FDB82E094
:100BB000CADE8BE4FFDB80E0DF91CF9108959C01DA
:100BC00090916E38983088F4E92FF0E0EE0FFF1F17
:100BD000E159F74C208331839F5F90936E3848E052
:100BE000C9014EDF80916E3808958FEF08950F93FD
:100BF0001F93CF93DF93EC018B016CDFB801CE0123
:100C0000DF91CF911F910F91DACF813C29F460E001
:100C100070E08FE19AE006C0823C39F460E070E059
:100C20008EE598E0E4DF80E0089581E00895843067
:100C300011F580917F38909180382DE08F3F920799
:100C400029F469E170E086E696E013C08656964086
:100C500061F490916538923040F0892F8695969591
:100C60009695890FB9DD80E0089560E070E08FE12E
:100C70009AE0BDDFF8CF81E00895813C29F460E07F
:100C800070E08FE19AE006C0823C31F460E070E0F1
:100C900085E096E0ACDF16C0813B49F4CB016EE302
:100CA00070E00E943914892B69F44DDD0BC0813E40
:100CB00059F4CB016EE370E00E9439146F5F6093CA
:100CC0003B38A9DD80E0089581E00895BF92CF927E
:100CD000DF92EF92FF920F931F93CF93DF93C82F72
:100CE0008B0180911E3880930C38D0900A38F09098
:100CF000093880910E38882319F0B0905E3802C010
:100D0000BB24B394C0900F38809119388111C090E2
:100D10001A38CC2051F041E0C41621F080910B38F4
:100D20008F1518F0F6E9EF2E01C0EF2CD0915B384B
:100D3000B8018C2F4DDE20915B38222339F0D11180
:100D40000CC08091653880935D3807C0DD2329F0A1
:100D500060E070E08FE19AE02DC0C83029F0CA3021
:100D6000A1F400910B3810E08D2D90E080179107D1
:100D700038F48F2D90E00817190710F400930B3802
:100D8000C8014FDC29DD81E07EC0C13C09F3C23CD3
:100D900049F4809165388E1510F48E2D28C180910C
:100DA0000B3825C1C43C41F480E004DB60E070E016
:100DB00084E29BE01CDF1DC18FE48C0F823008F0C1
:100DC0005BC080910E38882341F0C80168E170E073
:100DD0000E943914892B31F00CC16091163870E0F3
:100DE000C801F6CFD0915238D11103C18091653836
:100DF0000115110561F4C23B11F48FEF05C08F1589
:100E0000E0F7D81648F181E08093063825C020919C
:100E1000163830E066E371E0269FA001279F500D51
:100E2000369F500D11244017510710F48F1528F7E5
:100E30006CE672E0269FA001279F500D369F500D53
:100E400011244017510740F4D81630F07CDC60E0E4
:100E500070E084E29BE0CBDE30910638209165386B
:100E60004B2D3403C0011124820F911DDADB8093D6
:100E70000B38B2DC59DC17C18FE18C0F823030F4B3
:100E800080910638819580930638B3C0C13009F04F
:100E900083C00932110511F4C0930638222361F191
:100EA000C0915D38C29F90011124E0915A38F0E062
:100EB000C901BF010E944D14462FC9018C1B910925
:100EC000BF010E944D14242F261B80915838909109
:100ED00059386EE370E00E943914269FC001279FA5
:100EE000900D11246CE370E00E943914461B642FAE
:100EF00009F461E060936438C091643820916538EA
:100F00008C2F90E0821B910960914C3870914D3884
:100F10006F5F7F4F60934C3870934D38009709F4A2
:100F200068C097FF05C0293730F040E450E005C0A5
:100F300040E052E002C040E051E05695479597FDF1
:100F40000196959587950097C1F74617570708F0C2
:100F500050C0C21710F4CFEF03C02C1710F4C1E03B
:100F6000C20FE0910C3885E0E89FF0011124E656AD
:100F7000F6450280F381E02D8FEF8C0F09958823D1
:100F800031F0D09164388C2F15DAD09364381092F8
:100F90004C3810924D382DC0C33C19F0C63C59F561
:100FA00017C060911F387091203880E090E020E0F9
:100FB000AB01082E02C0569547950A94E2F741709E
:100FC000240F01968630910599F7223008F06AC007
:100FD00081E090910E38911180E080930E381BDCF7
:100FE000C0DB8091653890E01CDB80930B38F4DB2C
:100FF0009BDBD0E058C0D0911938D11153C08DE49B
:101000008C0F8230A8F4C33B59F4E0910C3845E0D2
:10101000E49FF0011124E656F6458481811142C017
:10102000012B39F7CC2011F086E9E82E8E2D13C064
:101030008DE18C0F823088F4C33E59F4E0910C3876
:1010400085E0E89FF0011124E656F6458481811180
:1010500029C080910B38C0DB26C0C73B29F460E073
:1010600070E086EE99E01CC0CA3CA1F4809165381E
:1010700080931C3880910C3880932138E3E2F8E3A8
:1010800089E298E3219125838E179F07D9F7C3DB67
:101090005ADB09C0CA3B31F460E070E08EEE99E0A3
:1010A0008EDD01C0D1E08D2FDF91CF911F910F9187
:1010B000FF90EF90DF90CF90BF900895CF93C091B5
:1010C0001938C11125C0813C29F460E070E08FE13E
:1010D0009AE006C0823C31F460E070E08DE396E077
:1010E00086DD17C0833C61F48091223890E0019640
:1010F00066E070E00E944D14809322388CDB09C0BA
:10110000873B31F460E070E086EF99E058DD01C084
:10111000C1E08C2FCF910895EF92FF920F931F9310
:10112000CF93DF93E0910C38833CE1F400911F38BA
:10113000109120388E2F26E0C6E0D0E090E0019696
:10114000BE010E944D14A801082E02C05695479575
:101150000A94E2F740FF03C0E81319C016C02150FB
:1011600069F7FACFF0E0E25FF74CC589833B09F0FD
:1011700086C06115710529F481E08093483810928A
:10118000473880914838811109C0C1E09DC0DBDB40
:1011900080910C3880931E383EDB95C02091053835
:1011A00012161CF4CF3F39F44FC0222309F44CC06F
:1011B000CC2309F449C040912F384423A1F0CB013E
:1011C00068E170E00E943914892B09F07CC042303C
:1011D00008F447C0642F70E0615071098EEF90E011
:1011E0000E944D1401C061E02603900111242C0FD0
:1011F000311D37FD38C02F3F310509F0B4F54111DD
:1012000002C0C22F33C0E42EF12C81E0E81AF108AD
:101210008FEF90E0B7010E944D146695E62FF0E045
:1012200000E010E0C801B7010E943914C62FC901BF
:10123000861B9109E817F907CCF401501F4F802F46
:101240008195841778F312C080914638C8130EC078
:1012500080914738811101C084DA81E0809347385A
:1012600005C0CFE703C0C0E001C0CFEFC093463850
:10127000E0910C38F0E0E25FF74CC58B13C0833E81
:10128000A9F410924838C11102C081E005C0CF3FD7
:1012900031F08091053881958093053802C0C09364
:1012A0000538B9DA8091653885D80DC0C0911938F4
:1012B000C1116BCF893B09F068CF60E070E082E03C
:1012C0009AE07DDC01C0C0E08C2FDF91CF911F91AF
:1012D0000F91FF90EF900895882331F080910C38A2
:1012E000681711F0862F2FCB08950F931F93CF937C
:1012F0008B01C42F883091F480910C3880934B3847
:1013000010924A3880E056D880916738811159C0D0
:1013100080914A388F5F80934A383DC0982F907FE4
:10132000903B71F560914A38461738F1615066304C
:1013300018F480915C38D0DFC8016DE570E00E9440
:101340003914069789F480914A388F5F80934A3820
:10135000C81708F436C081E090915C38911180E0A4
:1013600062E0BADF88E30AC081E090915C389111B5
:1013700080E062E0B1DF82E101C080E01BD821C0E3
:10138000903E79F480914A388823A1F0481790F074
:1013900080914B38D8DA60E070E083E995E00FDCAB
:1013A00010C08A3049F46091503880914A38F90170
:1013B000099531DA8FDB05C0893019F480914B38FB
:1013C000C2DA80E0CF911F910F91089521ED32E0B4
:1013D00043E08BCF21ED32E044E087CF27EB34E0D0
:1013E00045E083CF2CE033E041E07FCF2DEB33E0CD
:1013F00041E07BCF21EC33E041E077CF24EC33E0D8
:1014000043E073CF91E090935C382AEC33E046E000
:101410006CDF10925C38089590913038992369F010
:101420008093533888E08093513881E0809352381C
:10143000809165388093543808950C94DA010F93A5
:101440001F93CF938B018830A1F480E0E5DF80917A
:101450005238082B10925F3880911E3880930C38D8
:1014600010925B38012B09F05CC081E080936638F4
:1014700058C0813059F46931710508F452C0C091E7
:101480005238C1114EC080936638D9C0833061F59F
:1014900080915F388F3F19F08F5F80935F38809124
:1014A0001C38882369F040911D3822EC31E0429FBE
:1014B000C001439F900D11240817190708F021D986
:1014C00080913D38602F83706BDA80913E3888239D
:1014D00041F142EC51E0849F9001859F300D112431
:1014E00020173107F0F451C0813B91F481E090E086
:1014F00098D892DF80911B38811113C080910E38EB
:10150000811103C00831110560F061E070E029C06D
:10151000813ED9F3813839F480910B3890E081D83D
:101520007BDFC0E08CC0813C21F460910B3870E01F
:1015300018C0823B81F410925F3880910F389091EF
:101540001938911180911A38811103C086E990E011
:10155000E6CF86E9E5CF823E59F0823C29F466E980
:1015600070E086E696E00CC0833921F41092523880
:1015700080E0D6CF833C31F460E070E08EE598E007
:1015800036DBCFCF843C31F4DED860E070E084E21B
:101590009BE0F6CF8D3B49F4F89491E088ED84BF51
:1015A000909300017894A895FFCF8F3C29F460E0D8
:1015B00070E08BEB93E0E4CFC09119388A3B71F473
:1015C000672B61F4CC2329F0BED81092193823D9A7
:1015D000A8CF60E070E08AEE99E02EC0C1112EC065
:1015E000833B29F460E070E08FEF9DE01BC0873CF7
:1015F00051F490913D3881E0890F9C7F8370892B55
:1016000080933D3806C08A3C31F49DD881E08093B8
:10161000193801D914C0863C39F495D860E070E0DF
:1016200085EA9FE0E4DA0BC0893B41F4012B31F4F9
:1016300060E070E082EF99E0C2DA01C0C1E08C2F77
:10164000CF911F910F9108950F931F93CF93DF9325
:10165000C82F8B0180798039B1F420911038909196
:1016600011388C2F8F70813021F4822F921748F41B
:1016700007C080911C38811104C0822F291708F4FB
:10168000892FCADE13C0803819F480E0C5DE05C09A
:10169000C83019F410925F3859C0C13039F409319B
:1016A000110508F470C0C09366386DC0C330F9F4FA
:1016B00080915F388F3F19F08F5F80935F38809102
:1016C0001C38882369F040911D3822EC31E0429F9C
:1016D000C001439F900D11240817190708F011D875
:1016E00080913D38602F869586955AD94CC0C33C71
:1016F00031F429D860E070E08FE19AE014C0C43C76
:1017000021F460910B3870E00CC0C43B31F429D84F
:101710001092C13861E070E004C0C53C31F466E964
:1017200070E086E696E063DA2EC0C33B79F4C80128
:101730006EE370E00E943914892B41F460E070E0A0
:1017400083ECDF91CF911F910F91E6CCD0911938A6
:10175000D1111BC0C73C79F490913D38892F8695F3
:1017600086958F5F8370880F880F9370890F8093A1
:101770003D3851D80BC0CA3B41F460E070E08AEFBD
:1017800099E01DDA03C0D0E001C0D1E08D2FDF91D8
:10179000CF911F910F9108958F929F92AF92BF9218
:1017A000CF92DF92FF920F931F93CF93DF938C0121
:1017B000EB01E42FF0E0EE0FFF1FEF56FF4FC59057
:1017C000D490E0910C38E43079F42FEF429FC001BF
:1017D000112466E970E00E943914F62E80912738B2
:1017E00086FF06C0F09404C0F0E0E25FF74CF58895
:1017F0004601A12CB12C809165388130F9F0960119
:10180000AAE0B0E00E9482149B01AC0166E056950C
:101810004795379527956A95D1F7AF2DAA0FF7FC15
:10182000A095B0E00E9491142FEF30E040E050E02E
:101830000E946014820E931EA41EB51E81E8C81675
:101840008FE7D80608F1E0E8CE0EDE1E8AE08C9D18
:1018500090018D9D300D112446E0369527954A95CF
:10186000E1F79F2D990FF7FC9095929FA001939F10
:10187000500D1124CA016FEF70E0FBD7660F771F80
:10188000861A970AA108B108F1E08F16FFEF9F06AC
:10189000A104B10420F0812C912C54019A94AF2D15
:1018A000B0E0A50194010E94911461587F4F8F4FC1
:1018B0009F4F2FEF30E040E050E00E946014B901EC
:1018C000C401821B930B2138EFE73E0738F0205804
:1018D0003F47820F931F60E87FE70BC08138FFE727
:1018E0009F0738F020583F47B901680F791F80E8FB
:1018F0009FE7F8018083918368837983DF91CF919B
:101900001F910F91FF90DF90CF90BF90AF909F906D
:101910008F900895CF93DF9300D000D0CDB7DEB77E
:10192000482FBE016F5F7F4FCE01039635DF69817F
:101930007A818B819C810E941C022496CDBFDEBFE0
:10194000DF91CF910895E6CFCF93DF9300D000D001
:10195000CDB7DEB7482FBE016F5F7F4FCE01039634
:101960001BDF69817A818B819C810E94760224969B
:10197000CDBFDEBFDF91CF910895E6CF0F931F93C8
:10198000CF93109269388091BF389091C0389C01F4
:101990002F5F3F4F88279078822B932B8093BF38FF
:1019A0009093C038C09167380E949D01C81731F1EB
:1019B00010926638809367389091C138882359F027
:1019C000892F80699F709F3009F08F5F8093C138A5
:1019D00080E090E00DC0892F8F7E95FD02C0806869
:1019E00001C0806C8093C1388091BF389091C0381D
:1019F0000E9462011092BF381092C0380091BF3827
:101A00001091C038809166388823B1F0B80183E026
:101A10000E9411010E942B010134110528F00F7062
:101A20001127012B09F047C010924E3881E08093B6
:101A30008E380E94850132C0C091C1388C2F807FC2
:101A4000803B19F460E070E001C0B80181E00E94C1
:101A50001101C4FF13C0C5FF02C0C8010CC008318A
:101A60001105E0F01092BF381092C038C062C093E8
:101A7000C13880E090E00E94620110C0CC2371F078
:101A8000C5FD0AC00231110548F0C064C093C138D9
:101A900080E090E00E9462010E946601C0914E3891
:101AA000C11105C00E94080181E080938238CF5F98
:101AB000CF71C0934E38CF911F910F9108958091AF
:101AC0008D3881110E942F0480916938811156CF81
:101AD0000895EF92FF920F931F93CF93DF93EC0142
:101AE00004E118E085E0E82E82E0F82E2097D9F096
:101AF00080916038811119C080916538823028F456
:101B000085E00E94FD00C70104C081E00E94FD0045
:101B1000C8010197F1F781E00E94FD00D0DF0E942B
:101B20002B012197E3CF81E001C080E0DF91CF91CD
:101B30001F910F91FF90EF9008950F931F93CF93F4
:101B4000DF93C82F882311F006EA02C00AE0C1E043
:101B5000D0910C3810E0809122380E94A30489E1D2
:101B60000E94DA01D0930C38C801B3DF809122388B
:101B70000E94A30480E00E94DA01D0930C388AEF1F
:101B800090E0A7DFC15039F78D2F0E94A3048AE9A6
:101B900092E0DF91CF911F910F919BCFCF93DF9375
:101BA00064E65BD6282F892F6AE057D6EC01222302
:101BB00041F0822FC2DF8C2FC0DF8D2FDF91CF91BC
:101BC000BCCFC111F8CFF9CFCF93DF93D82FC3E0AB
:101BD00080910B380E94DA0188EC90E07ADFDD23F7
:101BE00019F080E991E075DF80E00E94DA0188EC6D
:101BF00090E06FDFC15061F7DF91CF910895FF92C0
:101C00000F931F93CF93DF93D82F8B01C09155383B
:101C100081E080935738C43009F0EEC0F0905B3813
:101C20008D2F0E94E804FF2059F080915B388111CC
:101C300007C060E070E08FE19AE00E94F705DCC029
:101C4000D83021F481E080930338D8C0D23C19F415
:101C500010925B38E6C0D13BC1F490910238012B61
:101C600049F49F3510F08FEF03C0923018F481E0F3
:101C70008093033880910338890F11F481E04FC1BC
:101C8000803608F44CC18FE54AC1D13E31F48091D1
:101C9000033881958093033812C1D23B61F481E00F
:101CA0008093033880910238823008F410C181504B
:101CB000809302380CC1D13009F0B7C00932110548
:101CC00011F4D093033890914538892F880F97FDF0
:101CD00080952CE0829FC001112430914438232F3D
:101CE000220F37FD209580910138289F9001112403
:101CF000232F290F90914338892F880F97FD8095C6
:101D000090910038899FC0011124822F890F609122
:101D1000023870E0680F711D80915B388130B9F432
:101D2000809158389091593825E0969587952A9555
:101D3000E1F724E730E0A901481B590B469FC00199
:101D4000479F900D569F900D1124B90192D5862F73
:101D50000E94DA0100FD08C00E94A60181709091E6
:101D60004538890F809345389091443880914238A6
:101D7000890F809344380E94A60165E26ED5809158
:101D80004338980F909343380E94A6018F7331F423
:101D90000E94A6016DE061D590934238C091013850
:101DA000CC2339F00E94A6018F7319F4C150C0935F
:101DB00001380E94A601811108C00E94A60162E1BB
:101DC0004CD59093013810924438C0910038C330FC
:101DD00038F00E94A6018F7119F4C150C0930038E9
:101DE0000E94A6018F7709F09EC00E94A6016AE0BA
:101DF00034D59093003897C0D83041F48091313871
:101E00008093553881E0809304388BC0D13C39F4FD
:101E100060E070E08FE19AE00E94F70582C0D23C5A
:101E200031F48C2F90E001961AC0D13C89F3D33C59
:101E300089F480910C3890E0019666E070E02DD531
:101E40000E94A304EC2FF0E0E25FF74C80910C3885
:101E500084A35EC0D43C59F48C2F90E0059666E0D4
:101E600070E01BD5809331388093553851C0D13BF9
:101E700021F5C23090F400FD54C0EC2FF0E0E25F99
:101E8000F74C82A590910438891B883020F08F3F51
:101E900069F58EEF2BC088E029C0C53009F041C03C
:101EA00090913A3880910438890F823010F482E0A2
:101EB00026C0893720F188E722C0D13E31F48091D5
:101EC000043881958093043823C0D23BF9F481E033
:101ED00080930438C23060F400FD23C0EC2FF0E0A2
:101EE000E25FF74C82A58F3FE1F08F5F82A719C0B8
:101EF000C530B9F480913A38833018F0815080931E
:101F00003A3880913A380E94DA010BC0D23E19F477
:101F10000E940B0406C0D13031F081E010C08093E4
:101F2000023880E00CC00932110519F481E0809379
:101F3000043880916338080F00936338F2CFDF9143
:101F4000CF911F910F91FF900895FF920F931F93D0
:101F5000CF93DF9300D01F92CDB7DEB78B838B0179
:101F6000F0900B3880798983803951F5EB81EF70DF
:101F7000E43020F0109256381A8273C091E09093AA
:101F80005638F0E0E25FF74C80A92FEF280F263992
:101F900048F480930B381092573880911E38809304
:101FA0000C380CC090935738873940F190E087592E
:101FB000910966E070E071D4809355381A820EC0A2
:101FC0008981803849F41092563880E00E94DA0105
:101FD00081E08093603801C081E08A838091563827
:101FE000882309F43EC08B81883051F480915738A2
:101FF000882331F0B80188E002DE02C01A8203C0F3
:102000008981803951F481E0809356388091573826
:10201000811127C080910B3806C08981803831F446
:102020001092563880E00E94DA011BC08B8181300B
:10203000C1F480915638882349F08091573888231D
:1020400009F449C0B80181E0DADD0BC080E00E94EC
:10205000BB01073381E0180708F43DC08B818093F2
:102060006638F0920B388B81883019F4B801ECDABD
:1020700030C08B81813039F480915638811127C06E
:10208000B80181E004C08B81833051F4B8012396FC
:10209000CDBFDEBFDF91CF911F910F91FF90D4CACA
:1020A0008B81833CA1F0863C49F40E94A30360E04D
:1020B00070E08FE19AE00E94F70509C08B81873BB1
:1020C00041F460E070E08EEF99E00E94DF0580E06F
:1020D00005C08A8103C0F0920B38CECF2396CDBFC6
:1020E000DEBFDF91CF911F910F91FF9008951F9256
:1020F0000F920FB60F9211242F933F938F939F93BC
:10210000AF93BF93EF93FF9381E080930B06809191
:102110008C38882331F1E0918B38809110069091B2
:10212000110624E0880F991F2A95E1F7F0E0EE0FE1
:10213000FF1FDF01A957B74C8D939C93ED57F74CC8
:10214000208131812817390710F42F5F3F4F821704
:10215000930710F4215031092083318381E080936B
:102160008D3881E080938C38FF91EF91BF91AF91D2
:102170009F918F913F912F910F900FBE0F901F90C5
:1021800018951F920F920FB60F9211248F9381E032
:1021900080935301809369388F910F900FBE0F90F9
:1021A0001F9018951F920F920FB60F9211248F93C4
:1021B0001D9A81E0809368388F910F900FBE0F9029
:1021C0001F9018951F920F920FB60F9211242F9304
:1021D0003F938F939F93EF93FF938091C73890E045
:1021E000E0E0FAE082AF93AF8091C33890E080AF37
:1021F00091AF2091C8383091C938922F9F77809144
:10220000C638890F220F232F221F330B3195982FA9
:10221000991F9927991F290F2093C7388F7780938B
:10222000C6382091C4383091C538922F9F7780915D
:10223000C238890F220F232F221F330B3195982F7D
:10224000991F9927991F290F2093C3388F7780935F
:10225000C23881E08387FF91EF919F918F913F91E9
:102260002F910F900FBE0F901F901895F8948091AA
:102270004000877F8093400088EDA89584BF9091AF
:102280000001907F9093000121E030E084BF209313
:10229000610083E284B988E0809310048093110484
:1022A00080931204809313048093140499E0909314
:1022B000150480931604809317048093320480934E
:1022C00033048093340480935004809351048093AA
:1022D00052048093530487E38093010A91E0909322
:1022E000000A2FEF30E02093360A3093370A8091AE
:1022F00012048160809312049093520180915101E5
:102300008111FCCF81E4809350010E948501789473
:1023100081E00E94700160E070E087E196E00E9439
:10232000DF05109260380E94A3030E949D01811175
:1023300017C08EE098E3809361389093623882E012
:102340000E947001F89480E090E0F5D2853A09F09F
:102350003CC00091613810916238C1E0D0E02CC0DF
:10236000C0E08C2F0E94DA0183E190E0B2DB8C2F79
:1023700086950E94DA0183E190E0ABDB0E949D012B
:10238000882379F0CF5FC03461F70E940B04C6E95F
:102390008C2F0E94DA0184E090E09BDBC150C1F7F2
:1023A000C8CFCC2309F4C5CF8C2F0E94DA018DE071
:1023B00090E08FDBC150F5CFCE01BDD2F801819303
:1023C0008F012196C533D105B9F7789480911C38D7
:1023D00081110E94810360E070E08CE898E00E9427
:1023E000DF0561E070E08FE19AE00E94DF0566247E
:1023F000639441E4242E332433945CEFA52E53E000
:10240000B52E67E0462E75E0772EEDE05E2EF8EEF5
:102410008F2EF3E09F2EAFE1CA2EAAE0DA2E0E94A3
:102420002B0180916C3890916D38009751F060913C
:102430006A3870916B380E94F70510926C381092D0
:102440006D3880916638882309F465C080E00E9469
:10245000DA0160925201809151018111FCCFF9E5BE
:10246000F0935001809100068E7F809300060E94B9
:102470009D018111FCCF0E94660180911204816050
:102480008093120410928D38109269381092683837
:1024900080916638882369F180918E38882329F0ED
:1024A00080915000897F826004C080915000897FB4
:1024B0008460809350008091500081608093500030
:1024C0008895809150008E7F80935000809168386D
:1024D00081111092663880918D38882321F03092D6
:1024E00082380E942F0480916938882389F246DA65
:1024F000CFCF22E020930D3880911204887F809303
:1025000012040E9485016092520180915101811153
:10251000FCCF20925001D3DA1092603880917F383E
:1025200090918038E3E08B3B9E0719F5CCE7D0E033
:10253000FE0184918053803110F4FFDA11C010E065
:10254000812F81708295880F807E0E94DA0180E160
:1025500090E0BFDA1F5F193199F78AE992E0B9DAA2
:102560008CE291E0B6DA2196F0E0C039DF0701F79E
:10257000F8C02DE08F3F920779F0EFE0853A9E0793
:1025800009F0D8C080915738813009F01EC1809180
:102590005638882309F419C1C0915538EC2FF0E062
:1025A000E25FF74C84A180930C38C23009F138F017
:1025B000C33009F43DC0C53009F49FC030CFD2A567
:1025C00086E90E94DA01C11109C0DA3220F4C5019E
:1025D0000197F1F707C081E090E003C08D2F869549
:1025E00090E077DA80E00E94DA018D2F90E022C13E
:1025F000D0910B38C0E0C11102C080E003C0C530EB
:1026000019F481E00E94A3048D2F0E94DA0181E277
:1026100090E05FDA80E00E94DA0182E490E059DA2B
:10262000CF5FCA3041F780911E3880930C38F7CEC7
:102630000E94A6018F73E82EF12C0E94A601642D42
:102640000CD1C1E0D0E08E0102C0000F111F9A959D
:10265000E2F70E94A601672D00D102C0CC0FDD1F5A
:102660009A95E2F70C0F1D1F0E94A60190E0B80199
:1026700014D1E801C80FD91FC739D10514F0C6E934
:10268000D0E08C2F0E94DA01C70123DA8E0133E0FB
:10269000159507953A95E1F7011101C001E010E0A9
:1026A000C70117DAC01BD10BD7FF02C0C0E0D0E0D2
:1026B0008C2F0E94DA010E94A601837039F4C701B1
:1026C00008DACE01959587950E94DA01C230D105CE
:1026D0003CF70E94A601652DC0D0C1E0D0E002C049
:1026E000CC0FDD1F9A95E2F70E94A60190E0BE0193
:1026F000C0D0C80FD91F80E09AC0C0913A38CC0F23
:10270000C73908F0C6E9D4E08C2F0E94DA0185E0D1
:1027100090E0DFD980913A380E94DA0181E490E0BC
:10272000D8D9D15089F780ED92E0D3D980E00E94CA
:10273000DA0175CEF8E08E359F07F9F488EE93E064
:10274000C8D980918138672D88D028DA8091813866
:10275000672D83D0892F880F21DA8091193888233B
:1027600049F0C0926C38D0926D3810926A3810924D
:102770006B3855CE88EE93E05DC026E08D3392072E
:10278000C1F48091673881114ACE80910B380E9444
:10279000DA0184E690E09DD980E00E94DA01209180
:1027A0003B38289DC001299D900D11248456910924
:1027B00041C08550964049F480E006DA81E004DAB1
:1027C00080E002DA80ED97E035C0809130388823D0
:1027D00099F180915238882379F120916538909150
:1027E0005338291306C0822F0E94DA011092523802
:1027F00016CE60915138291760F4892F821B2DD095
:10280000811101C081E0820F0E94DA018AE090E02C
:1028100011C0FEE16F9FA001112460915438691B23
:1028200070E0CA013AD0EB0121968FEF820F0E942F
:10283000DA01CE014ED9F3CD80915000897F80938B
:102840005000809150008160809350008895809165
:1028500050008E7F80935000E2CD991B79E004C038
:10286000991F961708F0961B881F7A95C9F78095CF
:102870000895AA1BBB1B51E107C0AA1FBB1FA617C7
:10288000B70710F0A61BB70B881F991F5A95A9F719
:1028900080959095BC01CD01089597FB072E16F405
:1028A000009406D077FD08D0E4DF07FC05D03EF4A5
:1028B000909581959F4F0895709561957F4F0895EC
:1028C000A1E21A2EAA1BBB1BFD010DC0AA1FBB1F34
:1028D000EE1FFF1FA217B307E407F50720F0A21BA6
:1028E000B30BE40BF50B661F771F881F991F1A9413
:1028F00069F760957095809590959B01AC01BD013D
:10290000CF010895A29FB001B39FC001A39F700D96
:10291000811D1124911DB29F700D811D1124911DE7
:102920000895F0DFA59F900DB49F900DA49F800D9A
:10293000911D1124089503D0808199270895FC01E9
:10294000E050FC4E0895262FFADF0080021611F0A9
:1029500004D0019701970895262FAF93BF93E0E02D
:10296000F0E1328131FDFDCFDC01A050BC4E2C9353
:102970003DE934BF23E020830196BF91AF910895D4
:04298000F894FFCFF9
:10298400103813381638000102010000000000005E
:102994000100000000005602B102006102BC020006
:1029A4006C02C70200A30CBD0C018A0CA40C01D25A
:0429B40001D8010045
:1029B8000A121801010101000496014B04020102E8
:1029C80001010A9696960107050100000000041807
:1029D80000040200000080000000000080000000E9
:1029E800010402020204040429433202070D00789C
:0229F8001E9926
:00000001FF
