:10000000FAC014C188CC12C111C110C10FC10EC1F8
:1000100035CC0CC10BC10AC16FCC08C107C130314E
:1000200034322E323032332D31322D30332B3531C4
:10003000233100000000000000000000000000006C
:1000400000000000000000000000000000000000B0
:1000500000000000000000000000000000000000A0
:100060000000000000000000000000000000000090
:100070000000000000000000000000000000000080
:100080000000000000000000000000000000000070
:10009000000000000000000506080A0C0D101114F5
:1000A00016181B1D202226282C2E3235393C4044A0
:1000B000484C5055595E62676C72777D83898F9684
:1000C0009CA3AAB1B9C1C8D1D900000000000000AA
:1000D0000000000000000000000000000000000020
:1000E0000000000000000000000000000000000010
:1000F000000000000000000000000007080A0B0DCF
:100100000E10121315171A1C1E212326292C2F330B
:10011000363A3E42464B4F545A5F656A70777E8549
:100120008C939BA4ACB5BEC8D2DDE8F3FFFFFFFF04
:10013000FFFFFFFFFFFFFFFFFFFFFFFFFFFFFFFFCF
:10014000FFFFFFFFFFFFFFFFFFFFFFFFFFFFFFFFBF
:10015000FFFFFFFFFFFFFFFFFFFFFFFFFFFFFF01AD
:1001600001020203040405060708090A0B0F101216
:100170001416181A1C1E2124272B2F33383D4248F1
:100180004E555C636B747D87919CA8B4C2D0DEEE43
:10019000FFFFFFFFFFFFFFFFFFFFFFFFFFFFFFFF6F
:1001A000FFFFFFFFFFFFFFFFFFFFFFFFFFFFFFFF5F
:1001B000FFFFFFFFFFFFFFFFFFFFFFFFFFFFFFFF4F
:1001C000FFFFFFFFFFFFFFFFFFFFFFFFFFFFFFFF3F
:1001D000FFFFFFFFFFFFFFFFFFFFFFFFFFFFFFFF2F
:1001E000FFFFFFFFFFFFFFFFFFFFFFFFFFFFFFFF1F
:1001F000FFFFFFFFFF0011241FBECFE5D2E0DEBFEF
:10020000CDBF10E0A0E6B0E0EEE6FEE102C0059052
:100210000D92AC38B107D9F721E0ACE8B0E001C0ED
:100220001D92AA31B207E1F785DB1FCEE9CE482F38
:100230009B01E7EEF0E080E090E05081552331F043
:100240000196339680319105C1F709C063E070E0F3
:10025000AEDDFC01E951FF4F4083328321830895D5
:100260000F931F93CF93DF93D091E700DD2351F1DC
:100270000091E8001091E900C091C400C150C7FD91
:100280000DC0EC2FEE0FFF0BEB53FF4F0190F081F1
:10029000E02DB8018D2F09958111F0CFE7EEF0E048
:1002A000838180838481958192838183339681E0E9
:1002B000E431F807A9F71092140110921601109278
:1002C0001501D2CFDF91CF911F910F910895BC01FD
:1002D00080911901ACCF109219011092180110925F
:1002E000170181E08093B600089590E822E048EA83
:1002F00057E030E0815070F00FB6F89496BD26BDFF
:100300000FBEFA013197F1F70FB6F89496BD36BDDE
:100310000FBEF0CF08958CE287B91092E3001092DF
:10032000E4008FEE86B9089586B383FB882780F9B1
:1003300091E089278093BD000895E0916600F091D7
:1003400067003196FB70F460F0936700E0936600FD
:100350008091B9008B5A8093B900E4918091B900E3
:100360008E0F0895CF93C82F811104C019BC18BCFB
:100370001BBC03C08FEF8C0F15D0C093BB00C09384
:10038000BA00C63010F492E005C0CF3010F491E00E
:1003900001C090E080E80FB6F89486BD96BD0FBE10
:1003A000CF91089590E0FC01E15AFE4F3491FC0199
:1003B000E753FF4F2491FC01ED5CFF4F849139BD61
:1003C00028BD8BBD089590E0FC01E15AFE4F3491A9
:1003D000FC01E753FF4F2491FC01ED5CFF4F94912A
:1003E00089B5811102C03F3F29F089B58F3F21F4C3
:1003F000311102C039BD0CC089B5831718F489B515
:100400008F5F05C089B5381718F489B5815089BD4B
:1004100088B5811102C02F3F29F088B58F3F21F4A4
:10042000211102C028BD0CC088B5821718F488B508
:100430008F5F05C088B5281718F488B5815088BD2E
:100440008BB5891718F48BB58F5F05C08BB59817DE
:1004500018F48BB581508BBD89B5381306C088B5AB
:10046000281303C02BB581E0921380E00895CF9349
:10047000DF9300D000D000D0CDB7DEB790916C00F4
:100480002091D5003091D6002555384009F492E0EE
:10049000843019F46093780021C06623F9F082302B
:1004A00019F427E9261B622F26E0E6E8F0E0DE01DA
:1004B000119601900D922A95E1F7E82FF0E031971F
:1004C000EE0FFF1F21E030E02C0F3D1FE20FF31F66
:1004D0000190F081E02DE90FF11D608326960FB6A3
:1004E000F894DEBF0FBECDBFDF91CF910895BF92CC
:1004F000CF92DF92EF92FF920F931F93CF93DF93F0
:10050000EC0140916C0090917700992311F0E2E0AA
:1005100001C0E42FF0E0E459FF4F228120936900ED
:10052000858180936800E92FF0E0E459FF4F318521
:10053000622F70E0442349F0313039F49B01280FD9
:10054000311DC9019595879536C0C617D70794F117
:10055000682F70E06C177D0774F1411102C08C2F79
:100560002AC0821B032F10E001501109E82EF12C44
:10057000C701B8014DDC6093B3006695E62FF0E04B
:10058000822FC12CD12CB12CB316A9F0C601B80111
:100590002BDC822F860FCE0CDF1CAE01481B5109CD
:1005A00057FF03C0519541955109E417F5071CF415
:1005B000B394EACF822FDF91CF911F910F91FF90DB
:1005C000EF90DF90CF90BF9008958091B100882385
:1005D00051F09091BB009093B2008093B0001092C4
:1005E000AF001092AE000895CF93C091BB0089E197
:1005F0008C0F873908F080E0B5DE82E076DE8C2F44
:10060000CF91B0CECF93C091BB0080E0ABDE83E052
:100610006CDE8C2FCF91A6CE61116093820008957D
:10062000662389F0813061F48091D7009091840035
:10063000891B681B6093840082E080936B0003C079
:10064000635E6093830080918300873418F086E4B2
:1006500080938300089560938500089581E0089554
:100660008093B4009091BB00981718F4282F291B91
:1006700002C0292F281B3091AA00311106C03091E9
:100680007C00332369F0223058F08093AB0084E083
:100690008093A90081E08093AA009093AC00089514
:1006A00061CECF93DF938CE690E09093B800809377
:1006B000B700F894C0E0D0E0E091B700F091B80046
:1006C000EC0FFD1F60812196CE01BDDBCA31D10543
:1006D00099F765EA80E090E0B6DB7894DF91CF91FE
:1006E00008951092E50084B195B12091B9008295EA
:1006F000869586958370990F990F890F820F809345
:10070000B9008091DA00882309F4FDC01092DA0064
:100710008091E30081113DC080916B00882349F0F6
:100720006091DF007091E0007093DC006093DB006B
:1007300004C06091DB007091DC0020918200220FE8
:10074000245096E0769567959A95E1F780E09CEDC8
:100750004BDB260F2093D9008091A700882311F04E
:10076000815007C0213938F460E070E084E05FDD3B
:1007700085E08093A7008091BC008111BBC08FEA07
:1007800087B981E08093E3001092E4008FEE86B990
:10079000B1C0813009F0AEC080916B00882341F078
:1007A0008091E1009091E2009093DE008093DD0063
:1007B0008091DD009091DE00A0918400AC01F6E014
:1007C00056954795FA95E1F70A2E000CBB0B4A0F98
:1007D0005B1F435151405093D8004093D7009C0178
:1007E00085E0369527958A95E1F780916B00811118
:1007F00027C080919600E82FF0E0EE0FFF1FE9562A
:10080000FF4F40815181B901641B750B31832083F7
:100810008F5F877080939600CB01880F991F880F98
:10082000991F4091830050E04D5E5E4F4A1B5B0B69
:10083000440F551F841B950B820F931F23E00EC09E
:10084000E7E9F0E02193319380E0E73AF807D1F748
:10085000D0CF009709F00196215029F018161906FB
:10086000C4F70197F9CF18161906E4F477FD39C0DB
:100870002091950012160CF1880F991FBC0163504E
:10088000710977FF02C06F5F7F4F759567951616E8
:10089000170614F061E070E088E1861B80939500F4
:1008A00085E026C08C3F2FEF9207DCF477FF19C05C
:1008B0002091950027FF05C02450281B2093950008
:1008C00018C024EE281B209395002091D9002339CD
:1008D00080F06CEF7FEF681B790B7595679586E06C
:1008E00007C08091D900823920F060E070E087E095
:1008F0009EDC11DD80916B00882329F080916B00D4
:10090000815080936B000895813019F410927A0021
:100910000895823019F460937B000895833019F4B0
:10092000609379000895843019F460936D00089500
:10093000853011F460937C000895CF93C0917700C7
:10094000C1114DC0883039F41092B1001092AF003F
:100950001092AE0045C0813B79F48091B100815086
:100960008330E8F583E08093B1008093B00010926B
:10097000AF001092AE0033C0853BA9F4CB016EE30B
:1009800070E032DA892B61F58091B1008A3F40F541
:100990008B5F8093B1008093B0001092AF001092F3
:1009A000AE0022DE1DC08130D1F48091AE00909166
:1009B000AF00019688382EE0920728F49093AF009C
:1009C0008093AE000DC01092AF001092AE008091E7
:1009D000B100882329F081508093B10001C0C1E0AB
:1009E0008C2FCF910895FF920F931F93CF93DF9396
:1009F0008C01EB01F42E8091D5009091D600892BCB
:100A000031F0E091D500F091D60089E0099510937E
:100A1000D6000093D500012B39F0E091D500F0917C
:100A2000D600BE018F2D099581E08093B600DF913D
:100A3000CF911F910F91FF900895CF93DF93E09195
:100A4000C400EE2359F0E150E093C400F0E0EE0F53
:100A5000FF1FEB53FF4FC081D18102C0C0E0D0E047
:100A6000E091C400EE2341F0F0E0EE0FFF1FED53E4
:100A7000FF4F8081918102C080E090E04AE060E019
:100A800070E0B1DFCE01DF91CF910895883029F475
:100A90001092A8001092900015C0813001F590913D
:100AA0009000911107C06032710570F18093900041
:100AB00012DC2AC0913089F46B3B710528F082E08A
:100AC0008093900080E01FC061157105E9F06270AD
:100AD000862F880F880F8E5E16C0AFDF15C0813855
:100AE00011F0813E89F491E090939000813E21F4D1
:100AF0008091A800865F03C08091A8008F5F8093DB
:100B0000A800E9DB8BE42EDC80E008959C01909145
:100B1000C400983088F4E92FF0E0EE0FFF1FEB538C
:100B2000FF4F318320839F5F9093C40048E0C90149
:100B30005ADF8091C40008958FEF08950F931F939B
:100B4000CF93DF93EC018B0178DFB801CE01DF9109
:100B5000CF911F910F91DACF843011F58091D5009C
:100B60009091D6002AE0863C920729F469E170E072
:100B700083E396E013C08353964061F49091BB00E9
:100B8000923040F0892F869596959695890F68DD6D
:100B900080E0089560E070E081EE98E0CFDFF8CF6C
:100BA00081E00895813C29F460E070E081EE98E0F6
:100BB00006C0823C31F460E070E089EF95E0BEDF72
:100BC00014C0813B41F4CB016EE370E00DD9892B59
:100BD00061F40ADD0AC0813E51F4CB016EE370E09E
:100BE00003D96F5F609381005CDD80E0089581E050
:100BF0000895CF93C0917700C11117C0813C29F4AB
:100C000060E070E081EE98E006C0823C31F460E084
:100C100070E089E196E092DF09C0873B31F460E043
:100C200070E08DE598E072DF01C0C1E08C2FCF91BC
:100C30000895813C29F460E070E081EE98E006C000
:100C4000823C31F460E070E082ED95E077DF07C030
:100C5000873B39F460E070E081E698E057DF80E0A0
:100C6000089581E00895BF92CF92DF92EF92FF92B4
:100C70000F931F93CF93DF93182FEB01D090690050
:100C8000F090680080916C00882319F0B090B30058
:100C900002C0BB24B394C0906D0080917700811195
:100CA000C0907800CC2051F081E0C81621F08091EE
:100CB0006A008F1518F0F6E9EF2E01C0EF2C0091B5
:100CC000B100BE01812F39DE8091B100882339F057
:100CD00001110CC09091BB009093B20007C000239B
:100CE00029F060E070E081EE98E032C0183029F021
:100CF0001A30B9F4C0916A00D0E08D2D90E08C17C5
:100D00009D0738F48F2D90E0C817D90710F4C093D1
:100D10006A00CE01ECDBA4DC81E08093650000E09A
:100D200071C1113CF1F2123C59F48091BB008E1557
:100D300010F48E2D02C080916A0092DC46DCEFCF69
:100D4000143C41F480E00EDB60E070E08DE798E059
:100D5000F5DEE5CF9FE4910F923008F051C080910D
:100D60006C00882339F0CE0168E170E03DD8892B12
:100D700031F0D5CF6091740070E0CE01F7CF0091D3
:100D8000AA000111CCCF2091BB00209761F4123B47
:100D900011F48FEF05C02F15E0F7D216F8F081E0BF
:100DA000809365001BC0E0917400F0E0CF0166E322
:100DB00071E0FDD78C179D0710F42F1550F7CF0168
:100DC0006CE672E0F4D78C179D0740F4D21630F031
:100DD0000BDC60E070E08DE798E0B0DE80916500AC
:100DE0006B2D70E0082E000C990BE1D72091BB0011
:100DF000820F911D7CDB80936A0032DCE6DB02C14E
:100E00009FE1910F923020F480916500819585CF0C
:100E1000113009F078C0A99711F410936500882368
:100E200049F10091B20010E090E0B801C0D7EC01A8
:100E3000E091B000F0E0BF01EBD7262FCE01801B80
:100E4000910BBF01E5D7322F361B8091AE009091F8
:100E5000AF006EE370E0C8D7832F90E0A8D76CE3B3
:100E600070E0C2D7261B622F09F461E06093BA00DC
:100E70006093B400D091BA008091BB002D2F30E078
:100E8000281B310960919200709193006F5F7F4F32
:100E900070939300609392002115310509F43FCFC0
:100EA00037FF05C08E3730F040E450E005C040E029
:100EB00052E002C040E051E05695479537FF02C02E
:100EC0002F5F3F4F3595279521153105A9F7461717
:100ED000570708F024CFD81710F4CFEF03C08D17B1
:100EE00018F4C1E0C80F01C0CD2F8FEF8C0F6BDA63
:100EF000882321F08C2F36DAD093BA001092930019
:100F0000109292000CCF1530A1F48091BB00833376
:100F100008F405CF90E08C1B9D0B8233910534F0D3
:100F20008739910564F186E990E029C082E390E079
:100F300026C01630B1F49091BB008091B400981790
:100F400008F0EDCEC90FD11D90E08C179D0734F04D
:100F5000C233D10524F4C2E3D0E001C0EC018C2FF0
:100F60000EC0173079F49091BA008091BB008917B8
:100F700010F48F5F04C0981708F0D1CE8150809391
:100F8000BA00CDCE133C81F481E090916C009111B8
:100F900080E080936C0085DB35DB8091BB0090E0C6
:100FA000A6DA80936A00C9CE00917700011129C0AA
:100FB000133B49F4CD2B09F0B2CECC2011F086E9D9
:100FC000E82E8E2D04C0133E21F480916A0048DB88
:100FD00019C0173B29F460E070E081E598E00FC08C
:100FE0001A3C39F48091BB0080937A005ADBFCDA1A
:100FF00009C01A3B31F460E070E089E598E086DDD5
:1010000001C001E0802FDF91CF911F910F91FF90E0
:10101000EF90DF90CF90BF900895883071F41092D8
:10102000910080E09FD98091BD00811138C08091EE
:1010300091008F5F8093910022C0982F907F903B0A
:10104000B1F420919100421778F0CB016DE570E08A
:10105000CBD6069739F42F5F209391004217F8F012
:1010600088E303C082E101C080E07CD918C0903ED3
:1010700061F480919100882389F0481778F060E04E
:1010800070E086E495E042DD0AC08A3041F4609168
:10109000A80080919100F901099503DBCEDC80E086
:1010A000089527E332E043E0B8CF27E332E044E09D
:1010B000B4CF24E834E045E0B0CF2CE033E041E0A9
:1010C000ACCF20E133E042E0A8CF2BE233E041E0B7
:1010D000A4CF81E0089590917C00992369F08093DA
:1010E000AB0088E08093A90081E08093AA00809102
:1010F000BB008093AC00089535C90F931F93CF9325
:10110000DF93D82F8B0180798039B1F420916E0064
:1011100090916F008D2F8F70813021F4822F921764
:1011200048F407C080917A00811104C0822F2917EA
:1011300008F4892FD0DF12C0803819F480E0CBDFAB
:1011400005C0D83019F41092B50026C0D13031F462
:101150000931110568F1D093BC002AC0D33C31F4A9
:1011600043DA60E070E081EE98E014C0D43C21F4F2
:1011700060916A0070E00CC0D43B31F443DA109205
:10118000190161E070E004C0D53C31F466E970E01B
:1011900083E396E0D3DC0CC0C0917700C1110AC094
:1011A000DA3B41F460E070E085E698E0AFDC03C034
:1011B000C0E001C0C1E08C2FDF91CF911F910F9152
:1011C00008950F931F93CF938B01883081F480E0B3
:1011D00082DF8091AA00082B1092B5001092B10016
:1011E000012B09F052C081E08093BC004EC08130D9
:1011F00059F46931710508F448C0C091AA00C111C1
:1012000044C08093BC00AFC0833011F58091B5001D
:101210008F3F19F08F5F8093B50020917A002223D1
:1012200059F080917B0090E062EC71E0C0D5081726
:10123000190710F020936A0080918500882329F116
:1012400090E062EC71E0B3D580179107F0F451C0E3
:10125000813B91F481E090E04AD93DDF80917900B3
:10126000811113C080916C00811103C008311105F8
:1012700060F061E070E029C0813ED9F3813839F433
:1012800080916A0090E033D926DFC0E06CC0813CD9
:1012900021F460916A0070E018C0823B81F41092E2
:1012A000B50080916D009091770091118091780048
:1012B000811103C086E990E0E6CF86E9E5CF823E62
:1012C00059F0823C29F466E970E083E396E00CC0B3
:1012D000833921F41092AA0080E0D6CF833C31F408
:1012E00060E070E089EF95E029DCCFCF843C31F4F9
:1012F0007BD960E070E08DE798E0F6CF8D3B31F46C
:10130000F89488ED81BD7894A895FFCF8F3C29F49F
:1013100060E070E089E698E0E7CFC09177008A3B13
:1013200079F4672B69F4CC2329F05ED91092770009
:10133000B8D9ABCF60E070E085E598E0E7DB13C09B
:10134000C11110C0833B31F460E070E086EC9AE09C
:10135000F5DB09C08A3C31F447D981E080937700FE
:10136000A0D901C0C1E08C2FCF911F910F9108959A
:101370000F931F93CF931092BF008091170190910C
:1013800018019C012F5F3F4F88279078822B932B69
:101390009093180180931701C091BD00C5D7C8175D
:1013A00029F11092BC008093BD009091190188230F
:1013B00059F0892F80699F709F3009F08F5F80936B
:1013C000190180E090E00DC0892F8F7E95FD02C04D
:1013D000806801C0806C8093190180911701909101
:1013E000180175D71092180110921701009117017A
:1013F000109118018091BC00882339F0B80183E076
:1014000016D7CF911F910F912BC7C09119018C2F27
:10141000807F803B19F460E070E001C0B80181E09A
:1014200006D7C4FF12C0C5FF02C0C8010CC00831F6
:101430001105C8F01092180110921701C062C093F4
:10144000190180E090E043D70EC0CC2361F0C5FDC8
:1014500009C00231110538F0C064C093190180E061
:1014600090E035D738D780919400811105C08FEE78
:1014700086B981E08093DA00809194008F5F8F714C
:1014800080939400CF911F910F9108958091E50072
:10149000811127D98091BF0081116ACF0895CF9221
:1014A000DF92EF92FF920F931F93CF93DF93EC01A4
:1014B00010E800E080E3E82E87E0F82E9CECC92ECF
:1014C000DD24D394209709F18091B60081111FC0CB
:1014D0008091BB00863040F482E00FB6F89416BDD0
:1014E00086BD0FBEC60106C00FB6F89416BD06BD78
:1014F0000FBEC7010197F1F70FB6F89416BD06BDF0
:101500000FBEC4DFADD62197DDCF81E001C080E002
:10151000DF91CF911F910F91FF90EF90DF90CF90CF
:101520000895CF93C82F882381F089E11BD786EADD
:1015300090E0B5DF80E016D78AEF90E0B0DFC150D1
:10154000A1F78AE992E0CF91AACF89E10BD78AE08F
:1015500090E0A5DF80E006D78AEF90E0A0DFF1CF32
:10156000CF93DF9364E634D4282F892F6AE030D4F8
:10157000EC01222341F0822FD4DF8C2FD2DF8D2F7C
:10158000DF91CF91CECFC111F8CFF9CFFF920F935A
:101590001F93CF93DF93D82F8B01C091AD00C33041
:1015A00009F0DAC0F090B100C8D9FF2051F0809165
:1015B000B100811106C060E070E081EE98E0BEDA13
:1015C000CBC0D83021F481E080936300C7C0D23C07
:1015D00019F41092B100D4C0D13BC1F490916200D3
:1015E000012B49F49E3610F08FEF03C0923018F4AF
:1015F00081E08093630080916300890F11F481E0A2
:1016000034C18F3608F431C18EE62FC1D13E31F49A
:1016100080916300819580936300EDC0D23B61F4BB
:1016200081E08093630080916200823008F4EBC017
:10163000815080936200E7C0D13009F0A5C0093223
:10164000110511F4D093630090918F00892F880FBA
:1016500097FD809590E067E070E0A9D3292F8091F5
:101660008E00682F660F87FD60958091610070E0A5
:1016700090E09DD3290F80918D00682F660F87FD24
:1016800060958091600070E090E091D3920F60913E
:10169000620070E0690F711D8091B100813091F49A
:1016A0008091AE009091AF0025E0969587952A95A0
:1016B000E1F724E730E0A901481B590BCA0177D3B1
:1016C000B90192D3862F4ED600FD07C036D6817061
:1016D00090918F00890F80938F0090918E00809160
:1016E0008C00890F80938E0028D665E271D380919B
:1016F0008D00980F90938D0020D68F7329F41DD6FE
:101700006DE066D390938C00C0916100CC2331F0E2
:1017100014D68F7319F4C150C09361000ED6811195
:1017200007C00BD66BE054D39093610010928E00EB
:10173000C0916000C33030F000D68F7119F4C150F1
:10174000C0936000FAD58F7709F083C0F6D566E0C4
:101750003FD3909360007DC0D83041F480917D00EC
:101760008093AD0081E08093640081C0D13C31F46E
:1017700060E070E081EE98E0E1D979C0D23C31F4CC
:101780008C2F90E0019607C0D13C91F3D43C59F4E2
:101790008C2F90E0049665E070E03AD380937D0052
:1017A0008093AD0050C0D13B21F5C23090F400FDD4
:1017B0005EC0EC2FF0E0E459FF4F82899091640005
:1017C000891B883020F08F3F69F58EEF2BC088E0B1
:1017D00029C0C43009F04BC0909180008091640012
:1017E000890F823010F482E026C0893720F188E723
:1017F00022C0D13E31F480916400819580936400D1
:1018000022C0D23BF1F481E080936400C23060F4E6
:1018100000FD2DC0EC2FF0E0E459FF4F82898F3F8F
:1018200031F18F5F828B23C0C43009F58091800035
:10183000833018F08150809380008091800092D591
:1018400016C0D23E11F42DD712C0D13011F081E074
:101850000FC00932110519F481E080936400809172
:10186000B900080F0093B90002C08093620080E0C5
:10187000DF91CF911F910F91FF9008951F920F92CA
:101880000FB60F9211242F933F938F939F93AF9393
:10189000BF93EF93FF938091E4008823E9F0E091F8
:1018A000E30024B135B1F0E0EE0FFF1FDF01A152DC
:1018B000BF4F2D933C93E552FF4F8081918182175A
:1018C000930708F401962817390708F401979183C4
:1018D000808381E08093E50081E08093E400FF91C4
:1018E000EF91BF91AF919F918F913F912F910F9069
:1018F0000FBE0F901F9018951F920F920FB60F9268
:1019000011248F9381E08093BF008F910F900FBEC1
:101910000F901F9018951F920F920FB60F921124DF
:101920008F9381E08093BE008F910F900FBE0F9038
:101930001F901895F89484B7877F84BF0FB6F894EA
:10194000A89581B5886181BD11BC0FBE83E187BBBD
:1019500081E083BF91EA9ABD80BF80E68CBD8FEFA6
:101960008DBD88E088BB85BB8BB780628BBFA89597
:1019700081B5886181BD80E481BDCDD4789481E05A
:10198000B4D460E070E08CEA95E0C0D81092B60064
:101990002BD6CAD4811113C08CE690E09093B80086
:1019A0008093B700F89480E090E045D2853AC1F585
:1019B0000091B7001091B800C1E0D0E028C0C0E0AD
:1019C0008C2FD0D483E190E06ADD8C2F8695CAD429
:1019D00083E190E064DDA8D4882381F0CF5FC03438
:1019E00079F765E181E01CD65CD6C6E98C2FBAD4C4
:1019F00084E090E054DDC150C9F7CECFCC2361F232
:101A00008C2FB0D48DE090E04ADDC150F7CFCE01ED
:101A100012D2F80181938F012196CB31D105B9F70C
:101A2000789480917A00811180936A0060E070E080
:101A30008EE293E06BD861E070E081EE98E066D8CA
:101A400043E4342E52E0452E60E4562E77247394FE
:101A500075E0672EE1EEAE2EE8E0BE2ECC24C394F6
:101A6000D12CACEF8A2EA3E09A2EFAD38091C2003B
:101A70009091C300009749F06091C0007091C1003F
:101A80005DD81092C3001092C2008091BC008823E0
:101A900009F44BC080E066D4A89581B5886181BD0A
:101AA00031BC379841D48111FDCF15D48BB78062FA
:101AB0008BBF1092E5001092BF001092BE00809183
:101AC000BC00882339F18091E600882321F085B796
:101AD000877E886003C085B7877E806185BF85B7B4
:101AE000806285BF889585B78F7D85BF8091BE0058
:101AF00081111092BC008091E500882329F070923A
:101B00006B007092DA00EDD58091BF008823B9F2A6
:101B10002FDCD5CF40926B008BB78F7D8BBFFBD373
:101B2000A89581B5886181BD51BCB0DC1092B6002A
:101B30008091D5009091D600F8E089369F0711F585
:101B4000CEE1D0E0FE0184918053803110F4E9DCD5
:101B500010C010E0812F81708295880F807E02D4A2
:101B600080E190E09CDC1F5F1931A1F78AE992E0E7
:101B700096DC8CE291E093DC2196F0E0C233DF0743
:101B800009F7ABC02AE0863C920709F096C0C091E5
:101B9000AD00C23001F120F0C43009F474C065CF4B
:101BA000EC2FF0E0E459FF4FD28984E6DBD3C1117A
:101BB00009C0DA3220F4C4010197F1F707C081E0CF
:101BC00090E003C08D2F869590E069DC80E0CAD359
:101BD0008D2F90E0DFC0B1D38F73E82EF12CADD301
:101BE00067E0F6D0E60102C0CC0FDD1F9A95E2F760
:101BF000A4D3662DEDD0F60102C0EE0FFF1F9A951B
:101C0000E2F7CE0FDF1F99D390E0BE0101D1C80FDC
:101C1000D91FC739D10514F0C6E9D0E08C2FA2D363
:101C2000C7013DDC8E0133E0159507953A95E1F744
:101C3000011101C001E010E0C70131DCC01BD10B74
:101C4000D7FF02C0C0E0D0E08C2F8CD376D3837056
:101C500031F4C70124DCCE019595879583D3C2303A
:101C6000D10554F76AD36DE0B3D0E60102C0CC0FC2
:101C7000DD1F9A95E2F761D390E0BE01B5D0C80FA1
:101C8000D91F80E085C0C0918000CC0FC73908F013
:101C9000C6E9D4E08C2F66D385E090E000DC80912B
:101CA000800060D381E490E0FADBD15099F780EDB9
:101CB00092E0F5DB80E056D3D8CEF5E0893F9F0770
:101CC000A9F488EE93E0EBDB8091D900662D80D0FB
:101CD00047DC80917700882381F0B092C300A09206
:101CE000C2001092C1001092C000BFCE26E0893120
:101CF000920731F48091D70033DC88EE93E04AC03C
:101D0000825D9540A9F48091BD008111AECE809195
:101D10006A0028D384E690E0C2DB80E023D3809180
:101D2000810090E068EE73E042D08456910932C0A1
:101D300080917C00882381F18091AA00882361F141
:101D40002091BB003091AB00231305C0822F0AD332
:101D50001092AA008ACE6091A900231758F4832F0D
:101D6000821B36D0811101C081E0820FFBD28AE054
:101D700090E010C0862F90E06EE170E018D0609186
:101D8000AC00631B70E044D0EB0121968FEF820F13
:101D9000E9D2CE0184DB69CE85B7877E85BF85B762
:101DA000806285BF889585B78F7D85BF5ECE002414
:101DB000552704C0080E591F880F991F009729F056
:101DC00076956795B8F37105B9F7802D952F08952D
:101DD000991B79E004C0991F961708F0961B881F7D
:101DE0007A95C9F780950895AA1BBB1B51E107C0DE
:101DF000AA1FBB1FA617B70710F0A61BB70B881F9B
:101E0000991F5A95A9F780959095BC01CD01089529
:101E100097FB072E16F4009406D077FD08D0E4DF78
:101E200007FC05D03EF4909581959F4F08957095DD
:101E300061957F4F0895E199FECF9FBB8EBBE09ADD
:101E400099278DB30895262FE199FECF9FBB8EBBB6
:101E5000E09A01970DB2021639F01CBA2DBB0FB6ED
:0E1E6000F894E29AE19A0FBE0895F894FFCF2D
:101E6E00060B180101010004750132020001011474
:101E7E001475756401070501000000000103294374
:0C1E8E003202072D00006E00710074008D
:00000001FF
