:10000000AFC0C9C098CCC7C0C6C0C5C0C4C0C3C0FB
:1000100045CCC1C0C0C0BFC07FCCBDC0BCC03034A7
:1000200032322E323032332D31322D30332B3531C6
:10003000233100000000000000000000000000006C
:1000400000000000000000000000000000000000B0
:1000500000000000000000000000000000000000A0
:100060000000000000000000000000000000000090
:100070000000000000000000000000000000000080
:100080000000000000000001020304050607080943
:100090000A0B0C0D0F101113141617191B1C1E1F21
:1000A00021232527292B2D2F323437393C3F41443A
:1000B000474A4D5053575A5D6165696C7074797D3C
:1000C00081868B8F94999FA4A901010202030304E6
:1000D0000405050606070808090A0A0B0C0D0E0F91
:1000E00010111213151617191A1B1D1F2022242672
:1000F000282A2C2E313336383B3E4144474A4E5154
:1001000055595D61656A6E73787D82888D9399A07B
:10011000A6ADB4BBC3CAD2DBE3ECF5FFFFFFFFFF24
:10012000FFFFFFFFFFFFFFFFFFFFFFFFFFFFFFFFDF
:10013000FFFFFFFFFFFFFFFFFFFFFFFFFFFFFFFFCF
:10014000FFFFFFFFFFFFFFFFFFFFFFFFFFFFFFFFBF
:10015000FFFFFFFFFFFFFFFFFFFFFFFFFFFFFF00AE
:1001600011241FBECFE5D2E0DEBFCDBF10E0A0E678
:10017000B0E0E4E8FEE102C005900D92AE39B107AF
:10018000D9F721E0AEE9B0E001C01D92AC32B20770
:10019000E1F7E0DB75CE34CF482F9B01E9EFF0E0CB
:1001A00080E090E05081552331F001963396803104
:1001B0009105C1F709C063E070E004DEFC01E7507F
:1001C000FF4F40833283218308950F931F93CF9372
:1001D000DF93D091F900DD2351F10091FA001091E5
:1001E000FB00C091D600C150C7FD0DC0EC2FEE0F33
:1001F000FF0BE952FF4F0190F081E02DB8018D2FE8
:1002000009958111F0CFE9EFF0E08381808384814B
:10021000958192838183339681E0E632F807A9F7CE
:10022000109226011092280110922701D2CFDF915F
:10023000CF911F910F910895BC0180912B01ACCFFC
:1002400010922B0110922A011092290181E08093D3
:10025000C800089590E822E048EA57E030E0815075
:1002600070F00FB6F89496BD26BD0FBEFA01319717
:10027000F1F70FB6F89496BD36BD0FBEF0CF0895D6
:100280008CE287B91092F5001092F6008FEE86B9D5
:10029000089586B383FB882780F991E089278093AE
:1002A000CF000895E0916600F09167003196FB70F1
:1002B000F460F0936700E09366008091CB008B5A66
:1002C0008093CB00E4918091CB008E0F089590E055
:1002D000FC01E753FF4F2491FC01ED5CFF4F84913B
:1002E00029BD88BD089590E0FC01E753FF4F24919C
:1002F000FC01ED5CFF4F949189B5811102C02F3F45
:1003000029F089B58F3F21F4211102C029BD0CC00D
:1003100089B5821718F489B58F5F05C089B528178C
:1003200018F489B5815089BD88B5891718F488B546
:100330008F5F05C088B5981718F488B5815088BDBF
:1003400089B5281303C028B581E0921380E0089591
:10035000CF93DF9300D000D000D0CDB7DEB790911F
:100360006C002091E7003091E8002951384009F4F1
:1003700092E0843019F46093780021C06623F9F08C
:10038000823019F427E9261B622F26E0E7E8F0E027
:10039000DE01119601900D922A95E1F7E82FF0E029
:1003A0003197EE0FFF1F21E030E02C0F3D1FE20FD1
:1003B000F31F0190F081E02DE90FF11D6083269677
:1003C0000FB6F894DEBF0FBECDBFDF91CF91089579
:1003D000BF92CF92DF92EF92FF920F931F93CF9332
:1003E000DF93EC0140916C0090917700992311F01C
:1003F000E2E001C0E42FF0E0E459FF4F22812093B6
:100400006900858180936800E92FF0E0E459FF4F8F
:100410003185622F70E0442349F0313039F49B017B
:10042000280F311DC9019595879536C0C617D70786
:1004300094F1682F70E06C177D0774F1411102C0D0
:100440008C2F2AC0821B032F10E001501109E82EC7
:10045000F12CC701B801E7DC6093C5006695E62F73
:10046000F0E0822FC12CD12CB12CB316A9F0C6011B
:10047000B801C5DC822F860FCE0CDF1CAE01481BF5
:10048000510957FF03C0519541955109E417F507EC
:100490001CF4B394EACF822FDF91CF911F910F917B
:1004A000FF90EF90DF90CF90BF9008958091C300B0
:1004B000882351F09091CD009093C4008093C200A6
:1004C0001092C1001092C0000895611160938200E3
:1004D0000895662389F0813061F48091E90090915C
:1004E0008400891B681B6093840082E080936B000A
:1004F00003C0635E6093830080918300873418F0AB
:1005000086E480938300089560938600089581E0D7
:100510000895CF93DF938CE690E09093CA00809388
:10052000C900F894C0E0D0E0E091C900F091CA00A1
:10053000EC0FFD1F60812196CE0190DCCB31D105FF
:1005400099F765EA80E090E089DC7894DF91CF91BB
:1005500008951092F70084B195B12091CB00829557
:10056000869586958370990F990F890F820F8093D6
:10057000CB008091EC00882309F405C11092EC00B7
:100580008091F5009091CE00992329F03798109230
:10059000F8001092F50081113CC080916B00882317
:1005A00049F06091F1007091F2007093EE00609359
:1005B000ED0004C06091ED007091EE00209182008A
:1005C000220F96E0769567959A95E1F780E09CED8D
:1005D00016DC620F6093EB008091B900882311F064
:1005E000815007C0613938F460E070E084E0D4DD08
:1005F00085E08093B9008091CE008111BBC08FEA65
:1006000087B981E08093F5001092F6008FEE86B9ED
:10061000B1C0813009F0AEC080916B00882341F0F9
:100620008091F3009091F4009093F0008093EF009C
:100630008091EF009091F000A0918400AC01F6E071
:1006400056954795FA95E1F70A2E000CBB0B4A0F19
:100650005B1F435151405093EA004093E9009C01D5
:1006600085E0369527958A95E1F780916B00811199
:1006700027C08091A800E82FF0E0EE0FFF1FE7559C
:10068000FF4F40815181B901641B750B3183208379
:100690008F5F87708093A800CB01880F991F880F08
:1006A000991F4091830050E04D5E5E4F4A1B5B0BEB
:1006B000440F551F841B950B820F931F23E00EC020
:1006C000E9EAF0E02193319380E0E93BF807D1F7C4
:1006D000D0CF009709F00196215029F0181619067D
:1006E000C4F70197F9CF18161906E4F477FD39C05D
:1006F0002091A70012160CF1880F991FBC016350BE
:10070000710977FF02C06F5F7F4F75956795161669
:10071000170614F061E070E088E1861B8093A70063
:1007200085E026C08C3F2FEF9207DCF477FF19C0DD
:100730002091A70027FF05C02450281B2093A70065
:1007400018C024EE281B2093A7002091EB0023392A
:1007500080F06CEF7FEF681B790B7595679586E0ED
:1007600007C08091EB00823920F060E070E087E004
:1007700013DD86DD80916B00882329F080916B006A
:10078000815080936B000895882331F0813049F4C3
:10079000BA98C29ABC9808C0BA98C298BC98C49833
:1007A0000895BA9AC29ABC9AC49A0895CF93C82F52
:1007B0008091CE00811101C0E7DFC11103C019BCD7
:1007C00018BC03C08FEF8C0F82DDC093CD00C093A7
:1007D000CC00C63010F492E005C0CD3010F491E0AA
:1007E00001C090E080E80FB6F89486BD96BD0FBEBC
:1007F000CF910895CF93C091CD0089E18C0F8739B7
:1008000008F080E0D3DF82E025DD8C2FCF91CECFC2
:10081000CF93C091CD0080E0C9DF83E01BDD8C2F3A
:10082000CF91C4CF8093C6009091CD00981718F453
:10083000282F291B02C0292F281B3091BC00311101
:1008400006C030917C00332369F0223058F0809349
:10085000BD0084E08093BB0081E08093BC00909356
:10086000BE000895A3CF813019F410927A00089544
:10087000823019F460937B000895833019F46093FB
:1008800079000895843019F460936D0008958530DF
:1008900011F460937C0008959091EB00913910F46D
:1008A00080E011C0953A28F4669561706350862304
:1008B0000AC0982F9F70933030F06F70E62FF0E0F1
:1008C000E357FF4F808160CFCF93C0917700C11174
:1008D0004DC0883039F41092C3001092C1001092BC
:1008E000C00045C0813B79F48091C30081508330C2
:1008F000E8F583E08093C3008093C2001092C100AA
:100900001092C00033C0853BA9F4CB016EE370E0C8
:1009100076DA892B61F58091C3008A3F40F58B5FC1
:100920008093C3008093C2001092C1001092C00057
:1009300061DF1DC08130D1F48091C0009091C10071
:10094000019688382EE0920728F49093C100809396
:10095000C0000DC01092C1001092C0008091C30071
:10096000882329F081508093C30001C0C1E08C2FFF
:10097000CF910895FF920F931F93CF93DF938C0134
:10098000EB01F42E8091E7009091E800892B31F083
:10099000E091E700F091E80089E009951093E80004
:1009A0000093E700012B39F0E091E700F091E800B7
:1009B000BE018F2D099581E08093C800DF91CF9112
:1009C0001F910F91FF900895CF93DF93E091D60090
:1009D000EE2359F0E150E093D600F0E0EE0FFF1F58
:1009E000E952FF4FC081D18102C0C0E0D0E0E09168
:1009F000D600EE2341F0F0E0EE0FFF1FEB52FF4F69
:100A00008081918102C080E090E04AE060E070E087
:100A1000B1DFCE01DF91CF910895883029F4109293
:100A2000BA001092A20015C0813001F59091A20089
:100A3000911107C06032710570F18093A20000DC53
:100A40002AC0913089F46B3B710528F082E08093D5
:100A5000A20080E01FC061157105E9F06270862F69
:100A6000880F880F8E5E16C0AFDF15C0813811F079
:100A7000813E89F491E09093A200813E21F480911F
:100A8000BA00865F03C08091BA008F5F8093BA007E
:100A9000D7DB8BE48BDE80E008959C019091D6003B
:100AA000983088F4E92FF0E0EE0FFF1FE952FF4F76
:100AB000318320839F5F9093D60048E0C9015ADFBD
:100AC0008091D60008958FEF08950F931F93CF93D1
:100AD000DF93EC018B0178DFB801CE01DF91CF917C
:100AE0001F910F91DACF843011F58091E70090913A
:100AF000E8002AE08E33920729F469E170E08AEF7A
:100B000095E013C08A5F954061F49091CD009230DA
:100B100040F0892F869596959695890F83DE80E023
:100B2000089560E070E081E498E0CFDFF8CF81E0E5
:100B30000895813C29F460E070E081E498E006C00B
:100B4000823C31F460E070E080EC95E0BEDF14C0E0
:100B5000813B41F4CB016EE370E051D9892B61F404
:100B600049DE0AC0813E51F4CB016EE370E047D903
:100B70006F5F60938100CDDC80E0089581E008958F
:100B8000CF93C0917700C11117C0813C29F460E078
:100B900070E081E498E006C0823C31F460E070E0EF
:100BA00080EE95E092DF09C0873B31F460E070E0B1
:100BB00081E298E072DF01C0C1E08C2FCF910895EF
:100BC000813C29F460E070E081E498E006C0823C5A
:100BD00031F460E070E089E995E077DF07C0873B9A
:100BE00039F460E070E085E298E057DF80E0089536
:100BF00081E00895BF92CF92DF92EF92FF920F9320
:100C00001F93CF93DF93182FEB01D0906900F090E2
:100C1000680080916C00882319F0B090C50002C074
:100C2000BB24B394C0906D00809177008111C09077
:100C30007800CC2051F081E0C81621F080916A0044
:100C40008F1518F0F6E9EF2E01C0EF2C0091C300CC
:100C5000BE01812F39DE8091C300882339F0011154
:100C60000CC09091CD009093C40007C0002329F0E0
:100C700060E070E081E498E032C0183029F01A306A
:100C8000B9F4C0916A00D0E08D2D90E08C179D07DB
:100C900038F48F2D90E0C817D90710F4C0936A007C
:100CA000CE0196DBBFDD81E08093650000E06EC180
:100CB000113CF1F2123C59F48091CD008E1510F4E4
:100CC0008E2D02C080916A00ADDDF0DBEFCF143CC9
:100CD00041F480E06BDD60E070E086EB9BE0F5DEE8
:100CE000E5CF9FE4910F923008F04CC080916C00EA
:100CF000882339F0CE0168E170E081D8892B31F08A
:100D0000D5CF6091740070E0CE01F7CF0091BC00A8
:100D10000111CCCF2091CD00209761F4123B11F44A
:100D20008FEF05C02F15E0F7D216F8F081E0809321
:100D300065001BC0E0917400F0E0CF0166E371E054
:100D400041D88C179D0710F42F1550F7CF016CE692
:100D500072E038D88C179D0740F4D21630F04ADD87
:100D600060E070E086EB9BE0B0DE809165006B2D6B
:100D700070E0082E000C990B25D82091CD00820F31
:100D8000911DD4C09FE1910F923020F480916500B5
:100D900081958ACF113009F078C0A99711F410938A
:100DA0006500882349F10091C40010E090E0B8018B
:100DB00009D8EC01E091C200F0E0BF0134D8262F41
:100DC000CE01801B910BBF012ED8322F361B809194
:100DD000C0009091C1006EE370E011D8832F90E0C5
:100DE000F1D76CE370E00BD8261B622F09F461E0A9
:100DF0006093CC006093C600D091CC008091CD0070
:100E00002D2F30E0281B31096091A4007091A500BE
:100E10006F5F7F4F7093A5006093A400211531058B
:100E200009F444CF37FF05C0883830F040E450E083
:100E300005C040E052E002C040E051E056954795C1
:100E400037FF02C02F5F3F4F35952795211531059C
:100E5000A9F74617570708F029CFD81710F4CFEF96
:100E600003C08D1718F4C1E0C80F01C0CD2F8FEF5C
:100E70008C0F39DA882321F08C2F98DCD093CC00AA
:100E80001092A5001092A40011CF1530A1F480910A
:100E9000CD008D3308F40ACF90E08C1B9D0B8C3372
:100EA000910534F08739910564F186E990E029C015
:100EB0008CE390E026C01630B1F49091CD00809183
:100EC000C600981708F0F2CEC90FD11D90E08C171C
:100ED0009D0734F0CC33D10524F4CCE3D0E001C03D
:100EE000EC018C2F0EC0173079F49091CC008091DA
:100EF000CD00891710F48F5F04C0981708F0D6CE84
:100F000081508093CC00D2CE0091770001113DC07A
:100F1000133C91F481E090916C00911180E08093FA
:100F20006C00F7DA75DC8091CD0090E051DA8093A7
:100F30006A0078DCBBDA2AC0133B49F4CD2B09F0F8
:100F4000B5CECC2011F086E9E82E8E2D04C0133EDC
:100F500021F480916A0066DC19C0173B29F460E037
:100F600070E085E198E00FC01A3C39F48091CD0023
:100F700080937A00CEDA3EDC09C01A3B31F460E09F
:100F800070E08DE198E089DD01C001E0802FDF9104
:100F9000CF911F910F91FF90EF90DF90CF90BF9076
:100FA0000895883071F41092A30080E0FFDB8091F7
:100FB000CF00811138C08091A3008F5F8093A30080
:100FC00022C0982F907F903BB1F42091A30042174C
:100FD00078F0CB016DE570E012D7069739F42F5FFA
:100FE0002093A3004217F8F088E303C082E101C018
:100FF00080E0DCDB18C0903E61F48091A300882380
:1010000089F0481778F060E070E08DE095E045DD0C
:101010000AC08A3041F46091BA008091A300F901BE
:10102000099577DAD1DC80E0089528EA31E043E0E1
:10103000B8CF28EA31E044E0B4CF23E334E045E020
:10104000B0CF25E632E041E0ACCF29E632E042E025
:10105000A8CF24E832E041E0A4CF81E00895909148
:101060007C00992369F08093BD0088E08093BB00E9
:1010700081E08093BC008091CD008093BE000895F4
:1010800095CB0F931F93CF938B01883081F480E031
:10109000E6DF8091BC00082B1092C7001092C300BD
:1010A000012B09F057C081E08093CE0053C08130FE
:1010B00059F46931710508F44DC0C091BC00C111EB
:1010C00049C08093CE00BBC0833039F58091C70002
:1010D0008F3F19F08F5F8093C70020917A00222301
:1010E00059F080917B0090E062EC71E06BD60817BC
:1010F000190710F020936A0080918500602F83709B
:10110000CBDB80918600882329F190E062EC71E0CE
:1011100059D680179107F0F451C0813B91F481E0DA
:1011200090E056D99CDF80917900811113C08091A5
:101130006C00811103C00831110560F061E070E0BE
:1011400029C0813ED9F3813839F480916A0090E05A
:101150003FD985DFC0E073C0813C21F460916A0013
:1011600070E018C0823B81F41092C70080916D003E
:1011700090917700911180917800811103C086E9E8
:1011800090E0E6CF86E9E5CF823E59F0823C29F433
:1011900066E970E08AEF95E00CC0833921F4109283
:1011A000BC0080E0D6CF833C31F460E070E080EC9E
:1011B00095E08BDCCFCF843C31F41CDB60E070E049
:1011C00086EB9BE0F6CF8F3C29F460E070E08DE287
:1011D00098E0EFCFC09177008A3B79F4672B69F4F0
:1011E000CC2329F007DB1092770093D9B3CF60E0CE
:1011F00070E089E198E051DC22C0C1111FC0833B3F
:1012000031F460E070E08EE39AE05FDC18C0873C68
:1012100069F49091850081E0890F8370813009F431
:1012200082E09C7F892B8093850006C08A3C31F444
:10123000E1DA81E0809377006CD901C0C1E08C2FA6
:10124000CF911F910F9108950F931F93CF931092F9
:10125000D1008091290190912A019C012F5F3F4F7D
:1012600088279078822B932B90932A0180932901D1
:10127000C091CF000ED8C81729F11092CE008093EC
:10128000CF0090912B01882359F0892F80699F709E
:101290009F3009F08F5F80932B0180E090E00DC0BC
:1012A000892F8F7E95FD02C0806801C0806C80937D
:1012B0002B018091290190912A01BED710922A0119
:1012C000109229010091290110912A018091CE00EC
:1012D000882399F0B80183E05FD777D701341105EF
:1012E00028F00F701127012B09F044C01092A600BE
:1012F00081E08093F800C4D72EC0C0912B018C2FC1
:10130000807F803B19F460E070E001C0B80181E0AB
:1013100043D7C4FF12C0C5FF02C0C8010CC00831CA
:101320001105C8F010922A0110922901C062C093E1
:101330002B0180E090E080D70EC0CC2361F0C5FD8A
:1013400009C00231110538F0C064C0932B0180E060
:1013500090E072D775D78091A600811105C08FEEFD
:1013600086B981E08093EC008091A6008F5F8F7139
:101370008093A600CF911F910F9108958091F7005F
:101380008111E7D88091D10081115ECF0895CF926D
:10139000DF92EF92FF920F931F93CF93DF93EC01B5
:1013A00010E800E080E3E82E87E0F82E9CECC92EE0
:1013B000DD24D394209709F18091C80081111FC0CA
:1013C0008091CD00863040F482E00FB6F89416BDCF
:1013D00086BD0FBEC60106C00FB6F89416BD06BD89
:1013E0000FBEC7010197F1F70FB6F89416BD06BD01
:1013F0000FBEC4DFEAD62197DDCF81E001C080E0D7
:10140000DF91CF911F910F91FF90EF90DF90CF90E0
:101410000895CF93C82F882381F089E1C7D986EA40
:1014200090E0B5DF80E0C2D98AEF90E0B0DFC15034
:10143000A1F78AE992E0CF91AACF89E1B7D98AE0F2
:1014400090E0A5DF80E0B2D98AEF90E0A0DFF1CF95
:10145000CF93DF9364E6C7D4282F892F6AE0C3D4E3
:10146000EC01222341F0822FD4DF8C2FD2DF8D2F8D
:10147000DF91CF91CECFC111F8CFF9CFFF920F936B
:101480001F93CF93DF93D82F8B01C091BF00C33040
:1014900009F0DAC0F090C30017DAFF2051F0809114
:1014A000C300811106C060E070E081E498E00DDBCC
:1014B000CBC0D83021F481E080936300C7C0D23C18
:1014C00019F41092C300D4C0D13BC1F490916200D2
:1014D000012B49F49E3610F08FEF03C0923018F4C0
:1014E00081E08093630080916300890F11F481E0B3
:1014F00034C18F3608F431C18EE62FC1D13E31F4AC
:1015000080916300819580936300EDC0D23B61F4CC
:1015100081E08093630080916200823008F4EBC028
:10152000815080936200E7C0D13009F0A5C0093234
:10153000110511F4D09363009091A100892F880FB9
:1015400097FD809590E067E070E03CD4292F809172
:10155000A000682F660F87FD60958091610070E0A4
:1015600090E030D4290F80919F00682F660F87FD8F
:1015700060958091600070E090E024D4920F6091BB
:10158000620070E0690F711D8091C300813091F499
:101590008091C0009091C10025E0969587952A958D
:1015A000E1F724E730E0A901481B590BCA010AD42E
:1015B000B90125D4862FFAD800FD07C073D68170F3
:1015C0009091A100890F8093A1009091A00080913B
:1015D0009E00890F8093A00065D665E204D48091B7
:1015E0009F00980F90939F005DD68F7329F45AD671
:1015F0006DE0F9D390939E00C0916100CC2331F04F
:1016000051D68F7319F4C150C09361004BD681112C
:1016100007C048D66BE0E7D3909361001092A0001A
:10162000C0916000C33030F03DD68F7119F4C150C5
:10163000C093600037D68F7709F083C033D666E059
:10164000D2D3909360007DC0D83041F480917D006A
:101650008093BF0081E08093640081C0D13C31F46D
:1016600060E070E081E498E030DA79C0D23C31F497
:101670008C2F90E0019607C0D13C91F3D43C59F4F3
:101680008C2F90E0049665E070E0CDD380937D00D0
:101690008093BF0050C0D13B21F5C23090F400FDD3
:1016A0005EC0EC2FF0E0E459FF4F82899091640016
:1016B000891B883020F08F3F69F58EEF2BC088E0C2
:1016C00029C0C43009F04BC0909180008091640023
:1016D000890F823010F482E026C0893720F188E734
:1016E00022C0D13E31F480916400819580936400E2
:1016F00022C0D23BF1F481E080936400C23060F4F8
:1017000000FD2DC0EC2FF0E0E459FF4F82898F3FA0
:1017100031F18F5F828B23C0C43009F58091800046
:10172000833018F0815080938000809180003ED8F3
:1017300016C0D23E11F4EDD612C0D13011F081E0C6
:101740000FC00932110519F481E080936400809183
:10175000CB00080F0093CB0002C08093620080E0B2
:10176000DF91CF911F910F91FF9008950F931F93D9
:10177000CF93DF93C82F8B0180798039B1F420910A
:101780006E0090916F008C2F8F70813021F4822F2A
:10179000921748F407C080917A00811104C0822F0B
:1017A000291708F4892F5BDC13C0803819F480E016
:1017B00056DC05C0C83019F41092C70046C0C130CD
:1017C00039F40931110508F460C0C093CE005DC042
:1017D000C330E9F48091C7008F3F19F08F5F809389
:1017E000C70020917A00222359F080917B0090E07D
:1017F00062EC71E0E7D20817190710F020936A0035
:1018000080918500602F8695869546D83EC0C33C62
:1018100031F4F0D760E070E081E498E014C0C43C9B
:1018200021F460916A0070E00CC0C43B31F4F0D741
:1018300010922B0161E070E004C0C53C31F466E910
:1018400070E08AEF95E041D920C0D0917700D111A6
:101850001EC0C73C91F490918500892F869586958E
:101860008F5F8370813009F482E0880F880F937056
:10187000890F809385004DD60BC0CA3B41F460E0D0
:1018800070E089E298E009D903C0D0E001C0D1E05E
:101890008D2FDF91CF911F910F9108951F920F927D
:1018A0000FB60F9211242F933F938F939F93AF9373
:1018B000BF93EF93FF938091F6008823E9F0E091C6
:1018C000F50024B135B1F0E0EE0FFF1FDF01AF509E
:1018D000BF4F2D933C93E351FF4F8081918182173D
:1018E000930708F401962817390708F401979183A4
:1018F000808381E08093F70081E08093F600FF9180
:10190000EF91BF91AF919F918F913F912F910F9048
:101910000FBE0F901F9018951F920F920FB60F9247
:1019200011248F9381E08093D1008F910F900FBE8F
:101930000F901F9018951F920F920FB60F921124BF
:101940008F9381E08093D0008F910F900FBE0F9006
:101950001F901895F89484B7877F84BF0FB6F894CA
:10196000A89581B5886181BD11BC0FBE83E087BB9E
:1019700081E083BF81EA8ABD88E088BB85BB8BB7E5
:1019800080628BBFA89581B5886181BD80E481BDEF
:1019900077D4789481E05ED460E070E083E795E0EE
:1019A0007CD81092C80026D774D4811113C08CE65D
:1019B00090E09093CA008093C900F89480E090E092
:1019C00045D2853AC1F50091C9001091CA00C1E025
:1019D000D0E028C0C0E08C2FE9D683E190E0D7DCCE
:1019E0008C2F8695E3D683E190E0D1DC52D4882316
:1019F00081F0CF5FC03479F765E181E06AD589D5A0
:101A0000C6E98C2FD3D684E090E0C1DCC150C9F781
:101A1000CECFCC2361F28C2FC9D68DE090E0B7DC1D
:101A2000C150F7CFCE0112D2F80181938F012196D8
:101A3000CC31D105B9F7789480917A0081118093E7
:101A40006A0060E070E087E892E027D861E070E02B
:101A500081E498E022D843E4342E52E0452E60E43D
:101A6000562E7724739475E0672EE1E4AE2EE8E0FD
:101A7000BE2ECC24C394D12CACEF8A2EA3E09A2E98
:101A8000A4D38091D4009091D500009749F0609143
:101A9000D2007091D30019D81092D5001092D400C2
:101AA0008091CE00882309F44BC080E07FD6A895B2
:101AB00081B5886181BD31BC3798EBD38111FDCFF1
:101AC000BFD38BB780628BBF1092F7001092D1000A
:101AD0001092D0008091CE00882339F18091F800D7
:101AE000882321F085B7877E886003C085B7877E0D
:101AF000806185BF85B7806285BF889585B78F7DFA
:101B000085BF8091D00081111092CE008091F700A6
:101B1000882329F070926B007092EC001AD58091A6
:101B2000D1008823B9F290DBD5CF40926B008BB700
:101B30008F7D8BBFA5D3A89581B5886181BD51BC30
:101B40001DDC1092C8008091E7009091E800F8E059
:101B50008D329F0711F5CEE1D0E0FE0184918053D4
:101B6000803110F456DC10C010E0812F8170829516
:101B7000880F807E1BD680E190E009DC1F5F193161
:101B8000A1F78AE992E003DC8CE291E000DC219687
:101B9000F0E0C233DF0709F7ABC02AE08E339207CB
:101BA00009F096C0C091BF00C23001F120F0C430EE
:101BB00009F474C065CFEC2FF0E0E459FF4FD289EF
:101BC00086E9F4D5C11109C0DA3220F4C4010197C5
:101BD000F1F707C081E090E003C08D2F869590E07B
:101BE000D6DB80E0E3D58D2F90E0DFC05BD38F7331
:101BF000E82EF12C57D367E0F6D0E60102C0CC0FF7
:101C0000DD1F9A95E2F74ED3662DEDD0F60102C0A6
:101C1000EE0FFF1F9A95E2F7CE0FDF1F43D390E040
:101C2000BE0101D1C80FD91FC739D10514F0C6E9CB
:101C3000D0E08C2FBBD5C701AADB8E0133E0159510
:101C400007953A95E1F7011101C001E010E0C701E5
:101C50009EDBC01BD10BD7FF02C0C0E0D0E08C2FB1
:101C6000A5D520D3837031F4C70191DBCE019595C2
:101C700087959CD5C230D10554F714D36DE0B3D00D
:101C8000E60102C0CC0FDD1F9A95E2F70BD390E07E
:101C9000BE01B5D0C80FD91F80E085C0C0918000BB
:101CA000CC0FC73908F0C6E9D4E08C2F7FD585E08A
:101CB00090E06DDB8091800079D581E490E067DB76
:101CC000D15099F780ED92E062DB80E06FD5D8CEFD
:101CD000F5E0803C9F07A9F488EE93E058DB809103
:101CE000EB00662D80D0B4DB80917700882381F0F3
:101CF000B092D500A092D4001092D3001092D200DE
:101D0000BFCE25E0803E920731F48091E900A0DB50
:101D100088EE93E04AC089599540A9F48091CF009C
:101D20008111AECE80916A0041D584E690E02FDB30
:101D300080E03CD58091810090E068EE73E042D075
:101D40008456910932C080917C00882381F1809172
:101D5000BC00882361F12091CD003091BD00231398
:101D600005C0822F23D51092BC008ACE6091BB00A3
:101D7000231758F4832F821B36D0811101C081E0D4
:101D8000820F14D58AE090E010C0862F90E06EE1BB
:101D900070E018D06091BE00631B70E044D0EB018E
:101DA00021968FEF820F02D5CE01F1DA69CE85B789
:101DB000877E85BF85B7806285BF889585B78F7D13
:101DC00085BF5ECE0024552704C0080E591F880F1A
:101DD000991F009729F076956795B8F37105B9F7C3
:101DE000802D952F0895991B79E004C0991F9617AF
:101DF00008F0961B881F7A95C9F780950895AA1B4D
:101E0000BB1B51E107C0AA1FBB1FA617B70710F0E5
:101E1000A61BB70B881F991F5A95A9F78095909517
:101E2000BC01CD01089597FB072E16F4009406D04F
:101E300077FD08D0E4DF07FC05D03EF4909581954E
:101E40009F4F0895709561957F4F0895E199FECF5A
:101E50009FBB8EBBE09A99278DB30895262FE199F9
:101E6000FECF9FBB8EBBE09A01970DB2021639F0F0
:101E70001CBA2DBB0FB6F894E29AE19A0FBE0895F2
:041E8000F894FFCF04
:101E8400060B180101010004780153020002010A43
:101E94000A78786C0107050100000000010329435A
:101EA4003202072D000E006E007100740000010262
:0E1EB40001000000000000010000000000001E
:00000001FF
