:10000000FAC014C1C0CC12C111C110C10FC10EC1C0
:100010006DCC0CC10BC10AC1A7CC08C107C13035DA
:1000200032312E323032332D31322D30332B3531C7
:10003000233100000000000000000000000000006C
:1000400000000000000000000000000000000000B0
:1000500000000000000000000000000000000000A0
:100060000000000000000000000000000000000090
:100070000000000000000000000000000000000080
:100080000000000000000000000000000000000070
:100090000000000000000000000000000000000060
:1000A0000003060A0D1115181C2125292E32373C94
:1000B00042474C52585E656B727980878F979FA735
:1000C000B0B9C2CBD5DFE9F4FF00000000000000AA
:1000D0000000000000000000000000000000000020
:1000E0000000000000000000000000000000000010
:1000F0000000000000000000000000000000000000
:10010000000000000000000000000B0D101214178A
:10011000191C1F2225282B2F32363A3E42464B50BF
:10012000555A5F646A70767D838A9199A1A9B1B9A5
:10013000C2CCD5DFE9F4FFFFFFFFFFFFFFFFFFFFAA
:10014000FFFFFFFFFFFFFFFFFFFFFFFFFFFFFFFFBF
:10015000FFFFFFFFFFFFFFFFFFFFFFFFFFFF0001AC
:10016000010202030304050506070809090A0E0F28
:1001700010111213141516181A1C1E202225272AD6
:100180002D3033363A3E41454A4E53585D62686ED3
:10019000747B82899199A1AAB3BCC6D0DBE7F3FF37
:1001A000FFFFFFFFFFFFFFFFFFFFFFFFFFFFFFFF5F
:1001B000FFFFFFFFFFFFFFFFFFFFFFFFFFFFFFFF4F
:1001C000FFFFFFFFFFFFFFFFFFFFFFFFFFFFFFFF3F
:1001D000FFFFFFFFFFFFFFFFFFFFFFFFFFFFFFFF2F
:1001E000FFFFFFFFFFFFFFFFFFFFFFFFFFFFFFFF1F
:1001F000FFFFFFFF000011241FBECFE5D2E0DEBFEE
:10020000CDBF10E0A0E6B0E0ECEAFEE102C0059050
:100210000D92AA39B107D9F721E0AAE9B0E001C0EF
:100220001D92A832B207E1F7BDDB3ECEE9CE482FE2
:100230009B01E5EFF0E080E090E05081552331F044
:100240000196339680319105C1F709C063E070E0F3
:10025000CDDDFC01EB50FF4F4083328321830895B5
:100260000F931F93CF93DF93D091F500DD2351F1CE
:100270000091F6001091F700C091D200C150C7FD67
:100280000DC0EC2FEE0FFF0BED52FF4F0190F081F0
:10029000E02DB8018D2F09958111F0CFE5EFF0E049
:1002A000838180838481958192838183339681E0E9
:1002B000E232F807A9F7109222011092240110925D
:1002C0002301D2CFDF91CF911F910F910895BC01EF
:1002D00080912701ACCF1092270110922601109235
:1002E000250181E08093C400089590E822E048EA67
:1002F00057E030E0815070F00FB6F89496BD26BDFF
:100300000FBEFA013197F1F70FB6F89496BD36BDDE
:100310000FBEF0CF08958CE287B91092F1001092D1
:10032000F2008FEE86B9089586B383FB882780F9A3
:1003300091E089278093CB000895E0916600F091C9
:1003400067003196FB70F460F0936700E0936600FD
:100350008091C7008B5A8093C700E4918091C700B9
:100360008E0F089590E0FC01E15AFE4F3491FC019C
:10037000E753FF4F2491FC01ED5CFF4F849139BDA1
:1003800028BD8BBD089590E0FC01E15AFE4F3491E9
:10039000FC01E753FF4F2491FC01ED5CFF4F94916A
:1003A00089B5811102C03F3F29F089B58F3F21F403
:1003B000311102C039BD0CC089B5831718F489B555
:1003C0008F5F05C089B5381718F489B5815089BD8C
:1003D00088B5811102C02F3F29F088B58F3F21F4E5
:1003E000211102C028BD0CC088B5821718F488B549
:1003F0008F5F05C088B5281718F488B5815088BD6F
:100400008BB5891718F48BB58F5F05C08BB598171E
:1004100018F48BB581508BBD89B5381306C088B5EB
:10042000281303C02BB581E0921380E00895CF9389
:10043000DF9300D000D000D0CDB7DEB790916C0034
:100440002091E3003091E4002854384009F492E010
:10045000843019F46093780021C06623F9F082306B
:1004600019F427E9261B622F26E0E4E8F0E0DE011C
:10047000119601900D922A95E1F7E82FF0E031975F
:10048000EE0FFF1F21E030E02C0F3D1FE20FF31FA6
:100490000190F081E02DE90FF11D608326960FB6E3
:1004A000F894DEBF0FBECDBFDF91CF910895BF920C
:1004B000CF92DF92EF92FF920F931F93CF93DF9330
:1004C000EC0140916C0090917700992311F0E2E0EB
:1004D00001C0E42FF0E0E459FF4F2281209369002E
:1004E000858180936800E92FF0E0E459FF4F318562
:1004F000622F70E0442349F0313039F49B01280F1A
:10050000311DC9019595879536C0C617D70794F157
:10051000682F70E06C177D0774F1411102C08C2FB9
:100520002AC0821B032F10E001501109E82EF12C84
:10053000C701B8018CDC6093C1006695E62FF0E03E
:10054000822FC12CD12CB12CB316A9F0C601B80151
:100550006ADC822F860FCE0CDF1CAE01481B5109CE
:1005600057FF03C0519541955109E417F5071CF455
:10057000B394EACF822FDF91CF911F910F91FF901B
:10058000EF90DF90CF90BF9008958091BF008823B7
:1005900051F09091C9009093C0008093BE001092DA
:1005A000BD001092BC000895662389F0813061F48B
:1005B0008091E50090918100891B681B6093810008
:1005C00082E080936B0003C0635E60938000809143
:1005D0008000873418F086E480938000089560934B
:1005E0008300089581E00895CF93DF938CE690E037
:1005F0009093C6008093C500F894C0E0D0E0E091ED
:10060000C500F091C600EC0FFD1F60812196CE0160
:1006100039DCC831D10599F765EA80E090E032DC39
:100620007894DF91CF9108951092F30084B195B141
:100630002091C7008295869586958370990F990FB2
:10064000890F820F8093C7008091E800882309F406
:1006500002C11092E8008091F1009091CA009923A4
:1006600029F037981092F4001092F100811139C0EE
:1006700080916B00882349F06091ED007091EE004D
:100680007093EA006093E90004C06091E900709102
:10069000EA0096E0769567959A95E1F780E09CED03
:1006A000C2DB665F6093E7008091B500882311F09C
:1006B000815007C0613938F460E070E084E0B7DD54
:1006C00085E08093B5008091CA008111BBC08FEA9C
:1006D00087B981E08093F1001092F2008FEE86B925
:1006E000B1C0813009F0AEC080916B00882341F029
:1006F0008091EF009091F0009093EC008093EB00DC
:100700008091EB009091EC00A0918100AC01F6E0AB
:1007100056954795FA95E1F70A2E000CBB0B4A0F48
:100720005B1F435151405093E6004093E5009C010C
:1007300085E0369527958A95E1F780916B008111C8
:1007400027C08091A400E82FF0E0EE0FFF1FEB55CB
:10075000FF4F40815181B901641B750B31832083A8
:100760008F5F87708093A400CB01880F991F880F3B
:10077000991F4091800050E04D5E5E4F4A1B5B0B1D
:10078000440F551F841B950B820F931F23E00EC04F
:10079000E5EAF0E02193319380E0E53BF807D1F7FB
:1007A000D0CF009709F00196215029F018161906AC
:1007B000C4F70197F9CF18161906E4F477FD39C08C
:1007C0002091A30012160CF1880F991FBC016350F1
:1007D000710977FF02C06F5F7F4F75956795161699
:1007E000170614F061E070E088E1861B8093A30097
:1007F00085E026C08C3F2FEF9207DCF477FF19C00D
:100800002091A30027FF05C02450281B2093A3009C
:1008100018C024EE281B2093A3002091E700233961
:1008200080F06CEF7FEF681B790B7595679586E01C
:1008300007C08091E700823920F060E070E087E037
:10084000F6DC69DD80916B00882329F080916B00D4
:10085000815080936B000895882321F0813029F422
:10086000BA9804C0BA98C2980895BA9AC29A0895DC
:10087000CF93C82F8091CA00811101C0EDDFC11153
:1008800004C019BC18BC1BBC03C08FEF8C0F6ADD01
:10089000C093C900C093C800C83010F492E005C0EE
:1008A000C03110F491E001C090E080E80FB6F894F8
:1008B00086BD96BD0FBECF910895CF93C091C9005C
:1008C00089E18C0F873908F080E0D2DF82E00DDD0E
:1008D0008C2FCF91CDCFCF93C091C90080E0C8DFDE
:1008E00083E003DD8C2FCF91C3CF8093C200909122
:1008F000C900981718F4282F291B02C0292F281B7C
:100900003091B800311106C030917B00332369F07B
:10091000223058F08093B90084E08093B70081E0E2
:100920008093B8009093BA000895A2CF813019F453
:10093000109279000895823019F460937A00089536
:10094000833019F460936D000895843011F460933E
:100950007B0008959091E700913910F480E011C078
:10096000953A28F466956170635086230AC0982FE3
:100970009F70933030F06F70E62FF0E0E657FF4F36
:1009800080816ACFCF93C0917700C1114DC088306C
:1009900039F41092BF001092BD001092BC0045C007
:1009A000813B79F48091BF0081508330E8F583E08A
:1009B0008093BF008093BE001092BD001092BC00D7
:1009C00033C0853BA9F4CB016EE370E02CDA892BB0
:1009D00061F58091BF008A3F40F58B5F8093BF0037
:1009E0008093BE001092BD001092BC0066DF1DC057
:1009F0008130D1F48091BC009091BD00019688387F
:100A00002EE0920728F49093BD008093BC000DC0A7
:100A10001092BD001092BC008091BF00882329F085
:100A200081508093BF0001C0C1E08C2FCF91089509
:100A3000FF920F931F93CF93DF938C01EB01F42E62
:100A40008091E3009091E400892B31F0E091E30084
:100A5000F091E40089E009951093E4000093E3002D
:100A6000012B39F0E091E300F091E400BE018F2DFD
:100A7000099581E08093C400DF91CF911F910F9180
:100A8000FF900895CF93DF93E091D200EE2359F0C9
:100A9000E150E093D200F0E0EE0FFF1FED52FF4F68
:100AA000C081D18102C0C0E0D0E0E091D200EE234D
:100AB00041F0F0E0EE0FFF1FEF52FF4F8081918178
:100AC00002C080E090E04AE060E070E0B1DFCE017B
:100AD000DF91CF910895883029F41092B6001092DA
:100AE0009E0015C0813001F590919E00911107C0C4
:100AF0006032710570F180939E00EDDB2AC0913069
:100B000089F46B3B710528F082E080939E0080E0C1
:100B10001FC061157105E9F06270862F880F880F7C
:100B20008E5E16C0AFDF15C0813811F0813E89F4AA
:100B300091E090939E00813E21F48091B600865F03
:100B400003C08091B6008F5F8093B600C4DB8BE456
:100B50008FDE80E008959C019091D200983088F457
:100B6000E92FF0E0EE0FFF1FED52FF4F318320839E
:100B70009F5F9093D20048E0C9015ADF8091D20074
:100B800008958FEF08950F931F93CF93DF93EC0198
:100B90008B0178DFB801CE01DF91CF911F910F91CA
:100BA000DACFCF93C0917700C1110FC0813C29F4F7
:100BB00060E070E08CE698E006C0823C31F460E0D2
:100BC00070E08FE096E0DFDF01C0C1E08C2FCF91B5
:100BD0000895843011F58091E3009091E4002AE0BB
:100BE0008936920729F469E170E089E296E013C042
:100BF0008952964061F49091C900923040F0892F5B
:100C0000869596959695890F70DE80E0089560E050
:100C100070E08CE698E0B7DFF8CF81E00895813C82
:100C200029F460E070E08CE698E006C0823C31F484
:100C300060E070E081ED95E0A6DF07C0873B39F406
:100C400060E070E080E598E086DF80E0089581E074
:100C50000895BF92CF92DF92EF92FF920F931F936E
:100C6000CF93DF93182FEB01D0906900F0906800CC
:100C700080916C00882319F0B090C10002C0BB24A1
:100C8000B394C0906D00809177008111C09078007E
:100C9000CC2051F081E0C81621F080916A008F15B8
:100CA00018F0F6E9EF2E01C0EF2C0091BF00BE0155
:100CB000812F68DE8091BF00882339F001110CC0BC
:100CC0009091C9009093C00007C0002329F060E014
:100CD00070E08CE698E032C0183029F01A30B9F490
:100CE000C0916A00D0E08D2D90E08C179D0738F4FC
:100CF0008F2D90E0C817D90710F4C0936A00CE0179
:100D0000D6DBF3DD81E08093650000E06EC1113C2D
:100D1000F1F2123C59F48091C9008E1510F48E2D19
:100D200002C080916A00E1DD30DCEFCF143C41F479
:100D300080E09EDD60E070E081EE9BE024DFE5CFA7
:100D40009FE4910F923008F04CC080916C00882392
:100D500039F0CE0168E170E066D8892B31F0D5CF4B
:100D60006091740070E0CE01F7CF0091B8000111DE
:100D7000CCCF2091C900209761F4123B11F48FEF82
:100D800005C02F15E0F7D216F8F081E080936500DA
:100D90001BC0E0917400F0E0CF0166E371E026D85B
:100DA0008C179D0710F42F1550F7CF016CE672E0F9
:100DB0001DD88C179D0740F4D21630F07EDD60E020
:100DC00070E081EE9BE0DFDE809165006B2D70E0CE
:100DD000082E000C990B0AD82091C900820F911D92
:100DE000D4C09FE1910F923020F4809165008195ED
:100DF0008ACF113009F078C0A99711F410936500DB
:100E0000882349F10091C00010E090E0B801EED7CE
:100E1000EC01E091BE00F0E0BF0119D8262FCE0111
:100E2000801B910BBF0113D8322F361B8091BC0061
:100E30009091BD006EE370E0F6D7832F90E0D6D797
:100E40006CE370E0F0D7261B622F09F461E0609339
:100E5000C8006093C200D091C8008091C9002D2FB6
:100E600030E0281B31096091A0007091A1006F5FF4
:100E70007F4F7093A1006093A0002115310509F404
:100E800044CF37FF05C0833830F040E450E005C060
:100E900040E052E002C040E051E05695479537FFF0
:100EA00002C02F5F3F4F3595279521153105A9F7D2
:100EB0004617570708F029CFD81710F4CFEF03C013
:100EC0008D1718F4C1E0C80F01C0CD2F8FEF8C0F24
:100ED0005ADA882321F08C2FCBDCD093C8001092F3
:100EE000A1001092A00011CF1530A1F48091C9008B
:100EF000833308F40ACF90E08C1B9D0B823391055D
:100F000034F08739910564F186E990E029C082E3E5
:100F100090E026C01630B1F49091C9008091C200D3
:100F2000981708F0F2CEC90FD11D90E08C179D07DD
:100F300034F0C233D10524F4C2E3D0E001C0EC01A7
:100F40008C2F0EC0173079F49091C8008091C900A1
:100F5000891710F48F5F04C0981708F0D6CE81501F
:100F60008093C800D2CE0091770001113DC0133CA0
:100F700091F481E090916C00911180E080936C007D
:100F800033DBA9DC8091C90090E091DA80936A009C
:100F9000ACDCFBDA2AC0133B49F4CD2B09F0B5CE0B
:100FA000CC2011F086E9E82E8E2D04C0133E21F4EA
:100FB00080916A009ADC19C0173B29F460E070E068
:100FC00084E498E00FC01A3C39F48091C900809302
:100FD00079000ADB72DC09C01A3B31F460E070E092
:100FE0008CE498E0B8DD01C001E0802FDF91CF9163
:100FF0001F910F91FF90EF90DF90CF90BF900895D9
:10100000883071F410929F0080E032DC8091CB0038
:10101000811138C080919F008F5F80939F0022C014
:10102000982F907F903BB1F420919F00421778F069
:10103000CB016DE570E0F7D6069739F42F5F20936A
:101040009F004217F8F088E303C082E101C080E00E
:101050000FDC18C0903E61F480919F00882389F0D6
:10106000481778F060E070E08BE695E074DD0AC028
:101070008A3041F46091B60080919F00F901099592
:10108000B3DA00DD80E0089527E132E043E0B8CF35
:1010900027E132E044E0B4CF26E934E044E0B0CFC9
:1010A00024ED32E042E0ACCF2FEE32E041E0A8CFB9
:1010B00081E0089590917B00992369F08093B900B5
:1010C00088E08093B70081E08093B8008091C900E8
:1010D0008093BA000895CCCB0F931F93CF938B01CD
:1010E000883079F480E0E6DF8091B800082B109218
:1010F000C3001092BF00012BE9F581E08093CA0084
:1011000039C0813051F469317105A0F1C091B80046
:10111000C11130C08093CA00BDC0833069F5809191
:10112000C3008F3F19F08F5F8093C3002091790037
:10113000222359F080917A0090E062EC71E056D65B
:101140000817190710F020936A0080918200602F21
:10115000837000DC80918300882361F090E062EC72
:1011600071E044D68017910728F460E070E081EECA
:101170009BE009DDC0E08EC0813B71F481E090E02E
:1011800096D998DF80916C00811103C00831110558
:1011900088F361E070E02AC0813ED9F3813821F400
:1011A00080916A0090E015C0813C21F460916A0052
:1011B00070E01CC0823B89F41092C30080916D00E6
:1011C00090917700911180917800811104C086E997
:1011D00090E06DD905C086E903C0823E19F480E035
:1011E00069DFC8CF823C29F466E970E089E296E0C5
:1011F000C0CF833919F41092B800F1CF833C29F4A1
:1012000060E070E081ED95E0B4CF843C11F455DBF3
:10121000ACCF8D3B31F4F89488ED81BD7894A895DE
:10122000FFCF8F3C29F460E070E088E598E0A1CF23
:10123000C09177008A3B79F4672B69F4CC2329F0BD
:101240003CDB10927700D0D995CF60E070E088E465
:1012500098E081DC1FC0C1111CC0833B31F460E009
:1012600070E089E69AE08FDC15C0873C51F49091DC
:10127000820081E0890F9C7F8370892B809382009C
:1012800006C08A3C31F419DB81E080937700ACD949
:1012900001C0C1E08C2FCF911F910F9108950F9342
:1012A0001F93CF931092CD0080912501909126013C
:1012B0009C012F5F3F4F88279078822B932B909330
:1012C000260180932501C091CB002ED8C81729F1A3
:1012D0001092CA008093CB0090912701882359F087
:1012E000892F80699F709F3009F08F5F809327015D
:1012F00080E090E00DC0892F8F7E95FD02C0806850
:1013000001C0806C80932701809125019091260176
:10131000DED710922601109225010091250110912F
:1013200026018091CA00882399F0B80183E07FD715
:1013300097D70134110528F00F701127012B09F000
:1013400044C01092A20081E08093F400E4D72EC044
:10135000C09127018C2F807F803B19F460E070E002
:1013600001C0B80181E063D7C4FF12C0C5FF02C04D
:10137000C8010CC008311105C8F010922601109266
:101380002501C062C093270180E090E0A0D70EC085
:10139000CC2361F0C5FD09C00231110538F0C064ED
:1013A000C093270180E090E092D795D78091A2006A
:1013B000811105C08FEE86B981E08093E8008091AD
:1013C000A2008F5F8F718093A200CF911F910F9128
:1013D00008958091F300811127D98091CD0081116A
:1013E0005ECF0895CF92DF92EF92FF920F931F93FB
:1013F000CF93DF93EC0110E800E080E3E82E87E074
:10140000F82E9CECC92EDD24D394209709F180910D
:10141000C40081111FC08091C900883040F482E06F
:101420000FB6F89416BD86BD0FBEC60106C00FB636
:10143000F89416BD06BD0FBEC7010197F1F70FB6B0
:10144000F89416BD06BD0FBEC4DF0AD72197DDCFC5
:1014500081E001C080E0DF91CF911F910F91FF905B
:10146000EF90DF90CF900895CF93C82F882381F01D
:1014700089E1FED986EA90E0B5DF80E0F9D98AEF0C
:1014800090E0B0DFC150A1F78AE992E0CF91AACFF6
:1014900089E1EED98AE090E0A5DF80E0E9D98AEF22
:1014A00090E0A0DFF1CFCF93DF9364E6B0D4282F94
:1014B000892F6AE0ACD4EC01222341F0822FD4DFE3
:1014C0008C2FD2DF8D2FDF91CF91CECFC111F8CFEE
:1014D000F9CFFF920F931F93CF93DF93D82F8B01F8
:1014E000C091BB00C33009F0DAC0F090BF004ADA07
:1014F000FF2051F08091BF00811106C060E070E0D4
:101500008CE698E040DBCBC0D83021F481E08093BA
:101510006300C7C0D23C19F41092BF00D4C0D13BC5
:10152000C1F490916200012B49F49E3610F08FEFC8
:1015300003C0923018F481E08093630080916300CF
:10154000890F11F481E034C18F3608F431C18EE681
:101550002FC1D13E31F48091630081958093630067
:10156000EDC0D23B61F481E0809363008091620022
:10157000823008F4EBC0815080936200E7C0D13024
:1015800009F0A5C00932110511F4D09363009091C0
:101590009D00892F880F97FD809590E067E070E0AF
:1015A00025D4292F80919C00682F660F87FD6095B8
:1015B0008091610070E090E019D4290F80919B0028
:1015C000682F660F87FD60958091600070E090E065
:1015D0000DD4920F6091620070E0690F711D8091CF
:1015E000BF00813091F48091BC009091BD0025E056
:1015F000969587952A95E1F724E730E0A901481BE5
:10160000590BCA01F3D3B9010ED4862F31D900FD8D
:1016100007C093D6817090919D00890F80939D00A3
:1016200090919C0080919A00890F80939C0085D6B0
:1016300065E2EDD380919B00980F90939B007DD63F
:101640008F7329F47AD66DE0E2D390939A00C0911B
:101650006100CC2331F071D68F7319F4C150C0935F
:1016600061006BD6811107C068D66BE0D0D3909330
:10167000610010929C00C0916000C33030F05DD6D4
:101680008F7119F4C150C093600057D68F7709F05D
:1016900083C053D666E0BBD3909360007DC0D83042
:1016A00041F480917C008093BB0081E080936400D2
:1016B00081C0D13C31F460E070E08CE698E063DA00
:1016C00079C0D23C31F48C2F90E0019607C0D13C18
:1016D00091F3D43C59F48C2F90E0049665E070E0CF
:1016E000B6D380937C008093BB0050C0D13B21F5E2
:1016F000C23090F400FD5EC0EC2FF0E0E459FF4FE3
:10170000818990916400891B883020F08F3F69F5B2
:101710008EEF2BC088E029C0C43009F04BC09091F7
:101720007F0080916400890F823010F482E026C02F
:10173000893720F188E722C0D13E31F480916400DE
:1017400081958093640022C0D23BF1F481E08093C4
:101750006400C23060F400FD2DC0EC2FF0E0E459CD
:10176000FF4F81898F3F31F18F5F818B23C0C43060
:1017700009F580917F00833018F0815080937F00BD
:1017800080917F0075D816C0D23E11F42DD712C0BB
:10179000D13011F081E00FC00932110519F481E058
:1017A000809364008091C700080F0093C70002C0B7
:1017B0008093620080E0DF91CF911F910F91FF90A5
:1017C00008950F931F93CF93DF93C82F8B018079D8
:1017D0008039B1F420916E0090916F008C2F8F7042
:1017E000813021F4822F921748F407C0809179004C
:1017F000811104C0822F291708F4892F5BDC13C0E4
:10180000803819F480E056DC05C0C83019F4109215
:10181000C30046C0C13039F40931110508F45DC078
:10182000C093CA005AC0C330E9F48091C3008F3F0F
:1018300019F08F5F8093C30020917900222359F023
:1018400080917A0090E062EC71E0D0D2081719071D
:1018500010F020936A0080918200602F8695869513
:1018600079D83BC0C33C31F428D860E070E08CE606
:1018700098E014C0C43C21F460916A0070E00CC090
:10188000C43B31F428D81092270161E070E004C015
:10189000C53C31F466E970E089E296E074D91DC078
:1018A000D0917700D1111BC0C73C79F49091820090
:1018B000892F869586958F5F8370880F880F937028
:1018C000890F8093820090D60BC0CA3B41F460E040
:1018D00070E084E598E03FD903C0D0E001C0D1E0DA
:1018E0008D2FDF91CF911F910F9108951F920F922D
:1018F0000FB60F9211242F933F938F939F93AF9323
:10190000BF93EF93FF938091F2008823E9F0E09179
:10191000F10024B135B1F0E0EE0FFF1FDF01A3515C
:10192000BF4F2D933C93E751FF4F808191818217E8
:10193000930708F401962817390708F40197918353
:10194000808381E08093F30081E08093F200FF9137
:10195000EF91BF91AF919F918F913F912F910F90F8
:101960000FBE0F901F9018951F920F920FB60F92F7
:1019700011248F9381E08093CD008F910F900FBE43
:101980000F901F9018951F920F920FB60F9211246F
:101990008F9381E08093CC008F910F900FBE0F90BA
:1019A0001F901895F89484B7877F84BF0FB6F8947A
:1019B000A89581B5886181BD11BC0FBE83E187BB4D
:1019C00081E083BF91EA9ABD80BF80E68CBD8FEF36
:1019D0008DBD88E088BB85BB8BB780628BBFA89527
:1019E00081B5886181BD80E481BD95D4789481E022
:1019F0007CD460E070E089EE95E0ADD81092C40030
:101A00005CD792D4811113C08CE690E09093C6000D
:101A10008093C500F89480E090E02CD2853AC1F51F
:101A20000091C5001091C600C1E0D0E028C0C0E020
:101A30008C2F1ED783E190E0D5DC8C2F869518D7AC
:101A400083E190E0CFDC70D4882381F0CF5FC03495
:101A500079F765E181E0A8D5C7D5C6E98C2F08D70D
:101A600084E090E0BFDCC150C9F7CECFCC2361F257
:101A70008C2FFED68DE090E0B5DCC150F7CFCE01C3
:101A8000F9D1F80181938F012196C931D105B9F7B8
:101A9000789480917900811180936A0060E070E011
:101AA00082EF92E058D861E070E08CE698E053D87D
:101AB00043E4342E52E0452E60E4562E772473948E
:101AC00075E0672EECE6AE2EE8E0BE2ECC24C39483
:101AD000D12CACEF8A2EA3E09A2EC2D38091D000F5
:101AE0009091D100009749F06091CE007091CF00A5
:101AF0004AD81092D1001092D0008091CA00882359
:101B000009F44BC080E0B4D6A89581B5886181BD49
:101B100031BC379809D48111FDCFDDD38BB78062FA
:101B20008BBF1092F3001092CD001092CC008091E8
:101B3000CA00882339F18091F400882321F085B709
:101B4000877E886003C085B7877E806185BF85B743
:101B5000806285BF889585B78F7D85BF8091CC00D9
:101B600081111092CA008091F300882329F07092AD
:101B70006B007092E80058D58091CD008823B9F2AF
:101B80008EDBD5CF40926B008BB78F7D8BBFC3D3DD
:101B9000A89581B5886181BD51BC1BDC1092C40041
:101BA0008091E3009091E400F8E088359F0711F5FB
:101BB000CEE1D0E0FE0184918053803110F454DCFA
:101BC00010C010E0812F81708295880F807E50D6E2
:101BD00080E190E007DC1F5F1931A1F78AE992E00C
:101BE00001DC8CE291E0FEDB2196F0E0C233DF07FE
:101BF00009F7ABC02AE08936920709F096C0C09178
:101C0000BB00C23001F120F0C43009F474C065CFCC
:101C1000EC2FF0E0E459FF4FD1898EE629D6C111AF
:101C200009C0DA3220F4C4010197F1F707C081E05E
:101C300090E003C08D2F869590E0D4DB80E018D62D
:101C40008D2F90E0C6C079D38F73E82EF12C75D319
:101C500067E0DDD0E60102C0CC0FDD1F9A95E2F708
:101C60006CD3662DD4D0F60102C0EE0FFF1F9A95FB
:101C7000E2F7CE0FDF1F61D390E0BE01E8D0C80FBE
:101C8000D91FC739D10514F0C6E9D0E08C2FF0D5A3
:101C9000C701A8DB8E0133E0159507953A95E1F76A
:101CA000011101C001E010E0C7019CDBC01BD10B9A
:101CB000D7FF02C0C0E0D0E08C2FDAD53ED38370CE
:101CC00031F4C7018FDBCE0195958795D1D5C23010
:101CD000D10554F732D36DE09AD0E60102C0CC0FA3
:101CE000DD1F9A95E2F729D390E0BE019CD0C80F82
:101CF000D91F80E06CC0C0917F00CC0FC73908F0BD
:101D0000C6E9D4E08C2FB4D585E090E06BDB809100
:101D10007F00AED581E490E065DBD15099F780ED8E
:101D200092E060DB80E0A4D5D8CEF5E0813D9F074E
:101D3000A9F488EE93E056DB8091E700662D67D02A
:101D4000B2DB80917700882379F0B092D100A09225
:101D5000D0001092CF001092CE00BFCE8F50964090
:101D600031F48091E5009FDB88EE93E032C08091F2
:101D70007B00882381F18091B800882361F1209154
:101D8000C9003091B900231305C0822F71D510927C
:101D9000B800A3CE6091B700231758F4832F821B9D
:101DA00036D0811101C081E0820F62D58AE090E0D7
:101DB00010C0862F90E06EE170E018D06091BA00FC
:101DC000631B70E044D0EB0121968FEF820F50D55A
:101DD000CE0108DB82CE85B7877E85BF85B780625E
:101DE00085BF889585B78F7D85BF77CE0024552721
:101DF00004C0080E591F880F991F009729F0769587
:101E00006795B8F37105B9F7802D952F0895991B43
:101E100079E004C0991F961708F0961B881F7A95E1
:101E2000C9F780950895AA1BBB1B51E107C0AA1FE3
:101E3000BB1FA617B70710F0A61BB70B881F991F6B
:101E40005A95A9F780959095BC01CD01089597FB0F
:101E5000072E16F4009406D077FD08D0E4DF07FCC7
:101E600005D03EF4909581959F4F089570956195AA
:101E70007F4F0895E199FECF9FBB8EBBE09A9927D3
:101E80008DB30895262FE199FECF9FBB8EBBE09ABC
:101E900001970DB2021639F01CBA2DBB0FB6F8949B
:0C1EA000E29AE19A0FBE0895F894FFCF7B
:101EAC00060B180101010004820141020002010F1E
:101EBC000F82826E010705010000000103294332E5
:101ECC002D000D006E007100740000010201000075
:0A1EDC0000000000010000000000FB
:00000001FF
